:2000000000802020399400002D9400002D94000000000000000000000000000000000000D1
:200020000000000000000000000000002D94000000000000000000002D940000919200001B
:200040002D940000B1340000418900002D9400002D9400002D9400002D9400002D9400006B
:20006000000000002D9400002D94000000000000000000002D940000257B00002D940000DC
:200080004D7000002D9400002D9400002D9400002D9400002D9400000000000000000000DE
:2000A0002D9400002D94000000000000000000002D940000000000002D9400002D9400007B
:2000C000F0B5FFB08EB0049306920646929802900025E84305908C913468204609F0F7F86B
:2000E00021188B9503918C4200D3BBE00020879087A908738890059889902F46049D207879
:20010000002800D1AFE0252805D0641C34600699A8477F1CF3E78B97601C306087AC204657
:20012000314600F0A7F88CAA2046314600F0BFF8306801787A2925D0682919D06A2908D071
:200140006C290ED0742908D04C2922D1879980221BE087990122D20217E0879901225203EC
:2001600013E0427887996C2A64D10122120205E042788799682A60D101225202114387914B
:20018000801C05E08799012212030A438792401C0178441C346087A8017373291FD06E2992
:2001A00029D1879832490840202850D040283CD001214A03904238D04A02904242D0CA0242
:2001C000904205D00A0390422FD0090288422CD1F8178C9904C98C91176050603BE087A839
:2001E0000078400619D4009587A88CAA8BAB069900F01DF92FE007AD87A98CAA284600F0F8
:200200006DF9024628460699029B9847411C059D00D0C5198B9503991FE0009587A88CAA45
:200220008BAB069900F09FF815E08C9802C88C900F6010E0401C402201E0401C2022114373
:200240008791A5E78C9802C88C900F7003E08C9802C88C900F8003998B9D681C00D042E7B4
:20026000059F00E02F4638467FB00EB0F0BDC046603F000010B50A681378302B0FD0232B7E
:2002800007D02B2B09D02D2B05D0202B0ED1042306E0082304E0012302E0022300E01023A7
:2002A00004681C430460521C0A60E5E710BDFEB516460D460446086802782A2A10D130683B
:2002C000011D316000686060002805D54042606020680121014321602868471C2F6017E01B
:2002E0000021303A092A08D84218531C2B60435C6F467B545278491CF3E76A460023535466
:2003000012784718002A03D0684607F0A7FD606038782E2826D1781C286079782A2908D1B8
:200320003068011D31600068A0602868401C2860FEBD00203039092908D839188A1C2A60C3
:200340004A786B461A548978401CF3E76A46002111541078002804D0684607F07FFDA060AA
:20036000FEBDA160FEBDF0B587B01E460C9F13681C1D14601D68002D3BD00491069084681F
:20038000002C04D4284608F093FF844203D3284608F08EFF044606984068A042039000DCF1
:2003A000204601463068019140180296306005940398A0420EDD06980078C0070AD1059890
:2003C00001990E1A0024B44204DA20200499B847641CF8E70026049C069805998E420BDA71
:2003E0002868010A19D12D1DC0B22146B847761CF2E70020B84718E00599039A8A4214DDDC
:200400000078C00711D00198451A0024AC420CDA20200499B847641CF8E70020C0430299D3
:20042000086008F0E1FF5821016007B0F0BDF0B585B00C4606460A9D1068011D11600068B0
:200440000490002844D00393B768002F04D4049808F03DFF874203D3049808F038FF074689
:2004600002967268BA42114600DC3946039B18680091401818600192BA420FDD0298007850
:20048000C0070BD10098C01B039000260398864204DA20202146A847761CF7E70026BE4220
:2004A00005DA0498805D2146A847761CF7E70198B84210DD02980078C0070CD00098C61B70
:2004C0000027B74207DA20202146A8477F1CF8E700202146A84705B0F0BDC046F0B589B04F
:2004E00001920F460446FF210846FA30251878680290002607960391FE31202220460092C3
:2005000008F0DEFE7F20800006942118089104952E713D46387B0246613A172A2AD80123C4
:2005200093402C46B44D2B42254608D007A908AA2846019B00F066F900260596B3E0712520
:200540002B42254622D1022A14D1019B1868021D1A600068C2B2534253410593039AFC32A2
:20056000069B9A18089208702868022188432860002698E001464539032907D3252860D02A
:20058000412803D058280596D0D08DE0019A1068C11D0720814308460830106005C9D14343
:2005A0002F7B4900490D0BD17B3F944911400143049C2CD01920C1438F4234D36E2033E098
:2005C000002A01D4114602E00121C9075140D60F002205923A46413A062A0BD9613F062FDE
:2005E00061D8C0467F443F797F00BF440B5C5C5C3B3631007A441279520097440354545489
:20060000332E290008AB2A4602F0B6FA4BE0002311461A46059306F0BFFC1921C9438F4226
:2006200025D3662224E04E20E0708F4201D3612100E04121A17008946070002005900226B5
:2006400031E0002006994870252008700120A1E008AB2A4602F09AFC25E008AB2A4606F0EA
:200660004FFF20E008AB2A4604F01CF91BE04622E2708F4201D36E2200E04E22A2708F42E3
:2006800001D3692100E0492161703F21C900069A51180891002803D02D202070042602E032
:2006A0002B2020700326287B012701466F39092904D801228A4052490A4201D158286BD10C
:2006C000049B029C04972946069F3D1908980C460978C90707D1191D091A62689142069F22
:2006E00001DC691A4F1C411C0398430000263846324608F0E3F808900599002903D0411C76
:200700000891067000E00146A94206D8481E691A491C202208F0D4FD2E702078C00605D4AC
:200720000698391A202208F0CBFD2EE0069887422BD00698391A3026324608F0C1FD079842
:200740004142414104980140012905D12078400702D43846069905E03878069A511C1070C3
:20076000781C3E70227B412A0CD0582A05D0612A08D0782A01D0702A07D123781B0701D422
:20078000612A02D142784A704670069808F09FFD0599401809B0F0BD002E09D0012E049B6E
:2007A000029C8FD10120079029680220084007E0079A296802200840002A09D0049B029CC5
:2007C00008994A1E08922D220A704742474179E70028049B029C08D1480700D472E70898E2
:2007E000411E0891009901706CE70898411E08912B210170002765E708C19000FFFF0F0076
:2008000043020000F8B514460F4605468068002804D4286810218843286001E00120A860E6
:20082000287B1026582808D0782806D0702804D06F2801D1082600E00A262846194600F041
:2008400055F8AA68002A09D102460A4306D12878000749D52B7B0020024612E02B7B642BCF
:2008600003D1642300290BD504E0692B08D1002906D5692301223A60002240428A4100E027
:200880000A4600941146324600F0B0F8A968884206DA401C21684A1E226030220A70F5E7DB
:2008A000287B582803D0782801D070280FD1297809070CD5702800D1782021684A1E226053
:2008C00008702068411E216030210170287B6F280AD12878000707D520684178302903D071
:2008E000411E216030210170F8BDC04610B5037B702B05D10868021D0A60006800226FE015
:200900000068384A024001204403A24222D0402A20D00402A24230D04402A24246D0C40223
:20092000A2422AD00403A24214D0202A12D100221C46643C142C06D8A0402B4C204204D10D
:20094000212420423ED1582B49D10868031D0B60008845E000221C46643C142C06D8A0407A
:20096000214C204204D1212420422BD1582B36D10868031D0B60006832E01A46643A142AF5
:2009800006D89040184A104206D12122104203D10020582B024623D10868C21D072082439B
:2009A0001046083008601068526819E000221C46643C142C0CD8A0400B4C20420AD1212415
:2009C000204205D00868021D0A600068C21707E0582B04D10868031D0B60007800E01046BE
:2009E000114610BD603F000000081200FEB501920D460646582B01D0174800E015480090B5
:200A0000089802903046284305D1029A1068411E116030210170019C3046284313D0304670
:200A20002946224600F01AF807460D46224607F033FF301A0099085C029B19684A1E1A6065
:200A400008703E46E8E70298006808F040FC401EFEBDC04648AB000059AB000080B5102A10
:200A600006D0082A09D1C0084A078018C90880BD00090A078018090980BD002904D111467F
:200A800007F0ACF9002180BD002308F07BFB80BD10B58AB0AF480078002809D1FFE7AE4842
:200AA0000068AE490860AB490878401C0870FFE705F064FCAA480078002800D1D8E0A948E0
:200AC000007800280DD1FFE7A7480068A7490860A7480068A7490860A2490878401C087015
:200AE000FFE7A1480068A1490968411AA24801609F4909689F4A1268891AA04A116000689C
:200B000007F03EFF9E4988420EDCFFE79B48006807F036FF9A49884206DCFFE7FA49FB48AE
:200B20000860FB49086005E0F749FA480860F8490860FFE706F0CCFE0146F7480160006834
:200B400007F034FB07F01CFF132804DBFFE7F24900200860FFE7F6480068F749096803F06A
:200B6000AFFB07F093F8002841D0FFE7EB480078052805DCFFE7E9490878401C087002E023
:200B800006F018F8FFE7F848006807F00FFB002828D1FFE7F548006807F008FB002821D100
:200BA000FFE7F34800680A2817D1FFE7DD4901200870DB4900200870EE4A1168491C1160AA
:200BC000EB490860EC490860EC490860EC490860EC490860D5490870FFE7E5490868401C8F
:200BE000086003E0E24900200860FFE73FE0EA4900200870D5480068E6490391096804F07A
:200C000099FF0399D84A04929060D2480068096804F095FF01460498D44A0592916081680B
:200C2000006805F089FE01460598DC4C099421608168006805F03EFED94908910860206879
:200C4000D8490691D84A079207F036FB0699079A034608982360006807F02EFB08990246DC
:200C600009980A600068096804F04EF8FFE748E1AC480078002800D19EE0B44900200860DF
:200C8000B4490860BB480068C117890F411803229143401A029003281CD80298810001A0FB
:200CA00040588746B50C0000BD0C0000C50C0000CD0C0000A949002008600BE0A749B3484B
:200CC000086007E0A5490020086003E0A349AE480860FFE7A148006803F01AF9AC48006889
:200CE00007F064FA0221C943884260DBFFE7A848006807F05BFA032859DCFFE79C4800684F
:200D00000A284FD1FFE787490020087099480068C117890F411803229143401A0190032812
:200D200034D80198810001A0405887463D0D0000450D00004D0D0000850D0000784901201D
:200D4000087023E07849012008701FE07449012008701BE0EF0520209C032020BC0520205A
:200D6000F1052020EE0520207C0320206C05202080032020700520206405202068052020CC
:200D8000AC0D0000684901200870FFE77849002008607949086079490860794908607949E1
:200DA0000860FFE772490868401C086003E0704900200860FFE7A3E05B480078002800D155
:200DC0009DE05A48007800280DD1FFE7584800685849086058480068584908605349087852
:200DE000401C0870FFE75248006852490968411A5348016050490968504A1268891A514A78
:200E00001160006807F0BCFD4F4988420EDCFFE74C48006807F0B4FD4B49884206DCFFE74D
:200E20004A494D4808604B49086005E047494848086048490860FFE74848006803F068F88F
:200E400047480078002840D0FFE706F01FFF00283BD0FFE705F0AEFE4348006807F0A6F916
:200E600000282DD1FFE74148006807F09FF9002826D1FFE73E4800680A281CD1FFE739496C
:200E80000020009008703649087027490870254A01211170374A1168491C11603449086084
:200EA000354908603549086035490860354908601E490870FFE72E490868401C086003E047
:200EC0002B4900200860FFE718E006F0DFFE002804D0FFE72349012008700EE006F0D6FEC6
:200EE000002809D1FFE71F480078002804D0FFE71B4901200870FFE7FFE7FFE7FFE7FFE7CE
:200F0000FFE70AB010BDC046D40520200000C842D80520200000204278052020EB052020CF
:200F2000F1052020F2052020F0052020EE0520207C0320206C0520208003202070052020F4
:200F4000640520206805202055130000D40520200000A042D80520200000C842A4052020C8
:200F6000EC052020ED052020180320202C032020740520209C0520209805202094052020F4
:200F8000900520208C052020000007C3000003437C05202078052020EB0520206C0320203E
:200FA0007003202078ECFFFF8813000010B58AB0E448007800280DD1FFE7E3480068E34933
:200FC0000860E0490878401C0870E1480078E1490860FFE705F0D2F906F07AFCDE49086058
:200FE000DE480068DE49096803F06AF9DD480088AF214900884216DCFFE7DA48008801283A
:2010000011DBFFE7D84901200870D84900200860D7490860D7490860D7490860D74908706B
:20102000D7490870FFE7D0480078002800D1B5E0D449D5480860D5490860DB480068002839
:2010400018D4FFE7D8480068322813DCFFE7CD480068D74904F073FDCF498860CB4800688B
:20106000D24904F06CFDCD498860CF490868401C086049E0CC480068332818DBFFE7CA48C3
:201080000068A02813DCFFE7BE480068C74904F056FDC1498860BD480068C54904F04FFDD9
:2010A000BE498860C0490868401C08602BE0BE480068A12826DBFFE7A6480068401CC11751
:2010C000890F40188110A2480078884210D1FFE7AC480068AC49099104F031FD0999AE4AF5
:2010E0009060AA48006804F02AFDAC49886008E0A4480068A8498860A4480068A74988606D
:20110000FFE7FFE7FFE7FFE706F0C0FD002804D0FFE7A84901200870FFE7A64800780128A3
:201120003BD1FFE7A3480078089006F0AFFD01460898884230D0FFE786480068401CC1171F
:20114000890F4018811082480078884217D1FFE799480068092805DCFFE797490868401C47
:2011600008600BE0804900200870924908708E49086078490868401C0860FFE70BE07A49A0
:20118000002008708B4908708749086071490868401C0860FFE7FFE7FFE7A1E079497A488E
:2011A00008607A49086006F071FD002842D0FFE778490020087076480078052805DCFFE795
:2011C00073490878401C087033E0734800696D49096804F0AFFC002105F024FF00280BD0C6
:2011E000FFE7684800686E4904F0A9FC6A4988606A496C4888600AE064480068684904F014
:201200009EFC66498860644966488860FFE75C480078002809D1FFE750480068534908606C
:201220004F48006852490860FFE7554901200870FFE754E0564900200870564800780428FC
:2012400005DCFFE753490878401C087046E04C48007800282FD0FFE74048006843490968AB
:20126000411A444801603E490968414A12688A1A41490A6000680968401A07F081FB1921B1
:201280004901884215DBFFE73E48006832490791096804F04FFC07993F4A90603B480068AF
:2012A000096804F04CFC3D49886035490020087000E0FFE711E033480068274906910968EB
:2012C00004F038FC0699344A906030480068096804F035FC31498860FFE7FFE7FFE7FFE769
:2012E0002D48816801612D4A0192916811618168006805F021FB01460198304C05942160E1
:201300008168006805F0D6FA2D490491086020687D214A0103922B49029106F0CDFF0299DA
:20132000039A034604982360006806F0C5FF0499024605980A600068096803F0E5FC0AB033
:2013400010BDC046E80520209C032020BC052020F80520209C052020600520207C0320202B
:20136000800320202A052020E5052020580520205C0520204C05202050052020E90520207F
:20138000E6052020D40520200000F041D8052020E4052020EA052020180320202C03202099
:2013A000000070410000A04048052020000070C10000C841E7052020540520206403202069
:2013C0006803202060F0FFFFF0B58BB00A460346E24906463778C8194078761CC006F9D4B7
:2013E0002D2F01D02B2F01D1307801E0761E384607F0E1FF01D3014601E0014620394E290F
:201400003FD0492959D1707807F0D5FF00D220384E284CD1B07807F0CEFF00D2203846282D
:2014200045D1002A01D0F01C1060F07807F0C3FF00D2203849281FD1307907F0BCFF00D246
:2014400020384E2818D1707907F0B5FF00D22038492811D1B07907F0AEFF00D22038542851
:201460000AD1F07907F0A7FF00D22038002A03D0592801D1083616602D2F00D1C7E0BA4986
:20148000C6E0707807F097FF00D2203841280ED1B07807F090FF00D220384E2807D1B049A0
:2014A0000024002A00D127E1F01C106024E1002A00D01360002421461EE1AC4907910025DB
:2014C00030280292049317D1707807F074FF00D22038582810D1B078A04909184978890741
:2014E00007D42E2808D1F0789C4908184078800702D5B61C9E4807902C469C4B07F05FFF62
:20150000411E884108909A4B059507F058FF411E884103900A9506952B46294632782E2A67
:2015200003D1002939D1012135E009911446303C0A2C01D3002100E001210898084201D025
:20154000284611E00398002827D0844881184978890722D528460A2C06D3114661391A2914
:2015600000D2203A1446373CE200824B99189D584C680A99059A079B04F0B0F82A46234610
:2015800002F067F805460A910999002902D00698401E06900123761CC0E701202D2F099072
:2015A00003D1C0070A9941400A91069FBC0003980028204600D13846002B00D181E00899FA
:2015C000002909D01346613B1A2B01D3134601E01346203B452B09D00399002912D01346C4
:2015E000613B1A2B00D2203A502A0DD172782D2A019501D02B2A0DD1B11C0491B4780023FA
:20160000DB430BE004963DE0049627463AE05549002471E0711C0491002314462546303D5F
:20162000092D25D800234D25AD00303C092C24D82D2A01D01E4600E05E423618F7177E4072
:20164000F61BAE42099F00D80027089939420AD10127B9028E4200D800270399394202D14F
:201660000A2159430B19049C611C64780491DCE70499C918491E049100232D2A019D00D1CB
:201680005B421F18002428460A992246234605F079FC002815D10898002817D04D2080005C
:2016A00087421ADD07F0A0FE22210160002428460A992246234605F06FFC002816D12A4949
:2016C00015E02C46029A049B0A9912E028460A993A4604F0C3F9044609E0274887420EDC3D
:2016E00007F082FE22210160214600E01D49029A049B002A00D0136020460BB0F0BD002F7D
:2017000015D41E4C029A049B002F0ED0F80709D00CCC28460A99083C03F0E0FF049B029A1C
:2017200005460A917F080834EEE72C46CCE728467C42124D029A049B002C0CD0E10707D079
:201740000CCD0A99083D03F065FB049B029A0A9164080835F0E70446B6E7C04660A800002A
:201760000000F87F0000F0FF0000F07F000024400000304068A90000CCFEFFFFE8A9000056
:20178000F0B589B00F4605460120C1073E468E43B14886420BD3D1483018284300D190E0E1
:2017A00007F022FE21210160CD49002550E1AB48864212D8C64AC74B2846394601F049FF16
:2017C0000022A54B05F006FC002800D186E0C248864200D382E039463AE1029108970024AA
:2017E0009D4920462A46334601F02EFF9C4B224603F074FF05460F469A4A9B4B03F06EFF17
:201800009A4A9B4B01F025FF07F09CFD994A9A4B01F01FFF07F096FD984A994B01F019FF29
:2018200007F090FD974A984B01F013FF07F08AFD964A974B01F00DFF07F084FD069007917A
:20184000944A954B07F0ECFD944A954B01F001FF07F078FD934A944B01F0FBFE07F072FDC3
:20186000924A934B01F0F5FE07F06CFD22467A4B01F0EFFE039004912846394602F0EEF971
:2018800005900C468B48864200D283E007F077FD02460B46059D2846214603F01FFF2A4695
:2018A00007F0C8FD02460B4601F0D3FE824A864B01F0CFFE02460B468148844901F0C4FED4
:2018C000C0E07D4A7D4B07F0ABFD04460E467C4A7E4B07F0A5FD2246334657E0284639466F
:2018E0002A463B4603F0FAFE064608970F465D4A5D4B03F0F3FE5D4A5D4B01F0AAFE07F0BA
:2019000039FD5C4A5C4B01F0A4FE07F033FD5B4A5B4B01F09EFE07F02DFD5A4A5A4B01F057
:2019200098FE07F027FD594A594B01F092FE07F021FD04460791574A574B3046394603F00C
:20194000CDFE564A564B01F084FE07F013FD554A554B01F07EFE07F00DFD544A544B01F026
:2019600078FE07F007FD00223B4B01F072FE02460B462046079903F04DFA02460B4628460D
:20198000089C214603F0AAFE2A46234601F061FE05465DE000263046214632460196234675
:2019A00003F09CFE02460B462846394601F04CFE00900F46059D28462146324607F03AFDD7
:2019C00002460B460098394603F024FA06460F4607F0D5FC07900691284621462A4607F073
:2019E00029FD059004913046394632463B4601F030FE02460B463048304901F025FE0546A1
:201A00000F4605980499079A069B03F067FE2A463B4601F019FE05460F46019821460246BC
:201A200007F008FD02460B46254C264E2046314601F00AFE2A463B4601F006FE224633468F
:201A400001F007FE05460898002801DC02984140284609B0F0BDC0460000F03FFFFFDF3F60
:201A60000000E03F09F7FD0DE13D023F88B20175E0EF493F3B8F68B52882A4BF5544880EB4
:201A800055C1C93F7D6FEB0312D6D4BF555555555555C53F82922EB1C5B8B33F59018D1B6D
:201AA0006C06E6BFC88A599CE52A00404B2D8A1C273A03C03333EF3F075C143326A6913C60
:201AC000182D4454FB21E93F26A691BCFB21F93F9C7500883CE4377E0000503E000010C0AC
:201AE0000000F87FF0B587B005460F460122D0070E468643924886420DD3B448864203D8BB
:201B0000002D3FD086423DD1284639462A463B4601F09FFDE2E08B488642039112D8914A92
:201B2000914B2846394601F094FD00248B4B224605F050FAE1430291002869D0B00DF928C3
:201B400066D2CDE08048864220D8854886423FD8284631462A46334601F07BFD00277C4B47
:201B60003A4601F076FD044628460D4601218B07314602973A4601F06CFD02460B462046D9
:201B8000294636E0002920DC924F1FE06F48864234D800246F4B284607F036FC2A46054600
:201BA0000F466D4B10463146224603F097FD6B4B224601F04EFD02460B462846394603F089
:201BC00029F905460F46022021E0814F824D87E0029200245E4B284607F016FC2A46054687
:201BE0000F465E4B104607F00FFC02460B462846394603F00FF905460F4609E000205449C8
:201C00002A46334603F006F905460F46032002900695284639462A463B4603F05FFD059037
:201C2000049102460B4603F059FD04460D464F4A4F4B03F053FD4F4A4F4B01F00AFD07F0F8
:201C40008FFB4E4A4E4B01F004FD07F089FB4D4A4D4B01F0FEFC07F083FB4C4A4C4B01F0AF
:201C6000F8FC07F07DFB4B4A4B4B01F0F2FC02460B460598049903F031FD04900591474A48
:201C8000474B2046294603F029FD464A464B01F0E0FC07F065FB454A454B01F0DAFC07F0A2
:201CA0005FFB444A444B01F0D4FC07F059FB434A434B01F0CEFC07F053FB224A964213D857
:201CC000049A059B01F0C5FC02460B4607F084FB02460B462046394601F0B6FC05460F4644
:201CE0002846394607B0F0BD029AD400354A1319125902925A680192049A059B01F0A9FC50
:201D000002460B463048011906594D6807F064FB32462B4601F098FC22463B4601F094FC56
:201D200002460B460298019901F08EFC05460F4603980028D4D50120C0074740D0E7C04623
:201D400000001044FFFFDB3FFFFFF23FFF7F03400000F0BF0000F8BF0000F83F0000F03F5B
:201D6000FFFFE53F9C7500883CE4377E11DA22E33AAD903FEB0D76244B7BA93F513DD0A0EF
:201D8000660DB13F6E204CC5CD45B73FFF8300922449C23F0D5555555555D53F2F6C6A2CBC
:201DA00044B4A2BF9AFDDE522DDEADBF6D9A74AFF2B0B3BF711623FEC671BCBFC4EB989914
:201DC0009999C9BF30AA000050AA00000000F07FFB21F93FFB21F9BF182D445480B58AB092
:201DE00009A90591088006AA049202201070CA205070E32090700920D0706820042104F074
:201E000015FA049A0598A321117000884006002808D5FFE706A9C0204870C8208870C22071
:201E2000C87005E006A9A32048708870C870FFE709A80088C005800F002808D0FFE706A923
:201E4000C4200871CC204871C620887105E006A9A320087148718871FFE706AAA320D07185
:201E60001072507275480A2104F0E0F909A800888007002804D0FFE706A92020087003E07D
:201E800006A9D8200870FFE76D48012106AA04F0CDF909A800888006002804D5FFE7012035
:201EA00005F004F903E0002005F000F9FFE709A80088C005800F002820D0FFE709A8008895
:201EC000C00500280AD5FFE706A9B22008708B204870B62088709B20C87009E006A9B020CB
:201EE000087080204870B42088709020C870FFE75448042106AA04F099F9FFE709A8008862
:201F0000C007002826D0FFE706AAF82010708B2000010121039104F089F907200290FA2102
:201F200000F0E2FA029804F0C8FF039805F014FF642006F06FFA7D20800006F083FA4248E0
:201F4000C82105F0E7FE282006F0EAF90A2006F000FA08E006AAD82010708B2000010121A5
:201F600004F064F9FFE709A800888007002804D5FFE706A9D920087003E006A9D820087061
:201F8000FFE73248012106AA04F050F909A800884007002804D5FFE7012005F00BFE03E069
:201FA000002005F007FEFFE709A80088C006002804D5FFE7012005F0D9FD03E0002005F057
:201FC000D5FDFFE709980821084321490191488100F0BCFC01990020887309A80088400693
:201FE000002805D5FFE71A49887B801D8873FFE709A80088C005800F002805D0FFE7144948
:20200000887B801D8873FFE709A800881421084205D0FFE70E49887B10308873FFE709A8A0
:2020200000888007002805D0FFE70949887B001D8873FFE700200AB080BDC046A70A00008D
:20204000B60A0000A20A000009E3CA023D070000FC04202010B588B07A480078002809D19F
:20206000FFE7794800687949086076490878401C0870FFE704F082F905F02AFC744908607F
:20208000744800687449096802F01AF905F0FEFD00284FD0FFE77249002008706F4800784A
:2020A000052805DCFFE76D490878401C087040E06C480078002808D1FFE774490868401C66
:2020C0000860684901200870FFE7694800696749096803F02FFD002104F0A4FF00280BD053
:2020E000FFE7624800686A4903F029FD604988606149002088600AE05E480068644903F041
:202100001EFD5D4988605A4900208860FFE756480078002809D1FFE74E4800685749086081
:202120004D48006857490860FFE74F4901200870FFE757E049490020087049480078042807
:2021400005DCFFE746490878401C087049E04549002008704448007800282FD0FFE73D48F0
:20216000006846490968411A454801603A490968444A12688A1A44490A6000680968401AE4
:2021800006F0FEFB7D218900884215DBFFE7374800682F490791096803F0CCFC0799344A48
:2021A000906034480068096803F0C9FC324988602D490020087000E0FFE711E02B4800681F
:2021C00023490691096803F0B5FC0699284A906028480068096803F0B2FC27498860FFE7BE
:2021E000FFE7FFE7224881680161234A0192916811618168006804F09FFB01460198254CC3
:20220000059421608168006804F054FB224904910860206821490291214A039206F04CF8E9
:202220000299039A034604982360006806F044F80499024605980A600068096802F064FD4C
:2022400008B010BDE10520209C032020BC0520203C0520207C03202080032020DF052020CC
:20226000E3052020E2052020E00520204005202018032020440520202C0320203405202099
:202280002C05202038052020300520209C0520200000A0415C0320206003202078ECFFFF75
:2022A0008813000080B596B00E200721029106F0EBFB894814900421039106F0C1FC0299C7
:2022C0000F20129006F0E0FB1498082106F0B8FC12200521099106F0D7FB01200690010269
:2022E0007E48109006F0ACFC262006210A9106F0F7FA069800230B930193C0040D90009007
:202300000321139118461A4605F024FE06980B9B0D9A1399019300921A4605F01BFE0B9852
:2023200006F096FB069806F093FB03990B9B0D9801930090252004901A4605F00BFE039916
:202340000B9B0D9801930090242005901A4605F001FE049806F07CFB059806F079FB14209D
:202360000221089106F090FB0899152006F0B8FA0899342006F088FB0899352006F0B0FA9E
:202380003B2006F099FC06980B990D9B009142040C922E2005F076FF0B9A0D9B009227201A
:2023A000114605F06FFF0B990C9A0D9B0091332005F068FF0B990C9A0D9B0091172005F082
:2023C00061FF0B990C9A0D9B00912F2005F05AFF222006F071FC212006F06EFC232006F0FE
:2023E0006BFC2D2006F068FC0B990C9A0D9B0091362005F047FF0B990C9A0D9B00913A20DE
:2024000005F040FF06980B990D9B00910204079219200F9005F036FF079A0B990D9B0091EE
:20242000182005F02FFF08980B990C9A0D9B009105F028FF09980B990C9A0D9B009105F0E9
:2024400021FF0A980B990C9A0D9B009105F01AFF0B990C9A0D9B00912C2005F013FF0B99AF
:202460000C9A0D9B00912B2005F00CFF0B990C9A0D9B00910D2005F005FF0B990C9A0D9B97
:202480000091162005F0FEFE109815490E9106F014FE0E99109806F0D3FB1098114906F0CC
:2024A00047FC0F9910988905119106F0A7FA1098119906F0DBFA12991498090406F0F2FA5F
:2024C000139914980902159106F098FA1498159906F0CCFA16B080BD00200A4000000A409E
:2024E0000070200800203C0080B58AB0024608A8027007AA118000784007002806D0FFE72A
:2025000007A800888049884204DBFFE70020C0430990F5E007A8008806F026F97B4904F097
:202520008FFA049005A8009004F084FB00980078801E01900E286BD80198810001A04058C3
:202540008746C0468125000011260000A5250000112600001126000011260000C92500006E
:2025600011260000112600001126000011260000112600001126000011260000ED250000C8
:2025800004988D21C90504F009F905F00FFE03A908800498614904F001F905F007FE02A91E
:2025A000088039E004982321490604F0F7F805F0FDFD03A908800498574904F0EFF805F039
:2025C000F5FD02A9088027E004988B21C90504F0E5F805F0EBFD03A9088004984D4904F0B1
:2025E000DDF805F0E3FD02A9088015E004984521090604F0D3F805F0D9FD03A9088004989E
:20260000434904F0CBF805F0D1FD02A9088003E00020C043099073E003A8407806A9087005
:202620000398487002A8407888700298C87008A80078C00700281CD0FFE7752080000221FA
:2026400006AA03F0F3FD002804D0FFE70020C043099055E006A8821C49208000022103F0C9
:20266000E5FD002804D0FFE70020C043099047E0FFE708A80078800700281CD5FFE73B20C4
:20268000C000022106AA03F0D1FD002804D0FFE70020C043099033E006A8821C2520C000E4
:2026A000022103F0C3FD002804D0FFE70020C043099025E0FFE708A80078400700281CD533
:2026C000FFE777208000022106AA03F0AFFD002804D0FFE70020C043099011E006A8821CB0
:2026E0004B208000022103F0A1FD002804D0FFE70020C043099003E0FFE700200990FFE735
:2027000009980AB080BDC04641060000000048430000C044000040450000C0450000404635
:2027200080B5A4B0FFE77E4801907E4800907E487E497F4A7F4B00F02FFB2290FFE77848EB
:2027400000780028EFD1FFE72298002804D0FFE70020C0432390DFE075480390006805F055
:202760008FFC9D21C905049104F06AF9014603982191406805F084FC049904F061F9014673
:2027800003982091806805F07BFC049904F058F9014603981F91C06805F072FC049904F009
:2027A0004FF91E902098032189070A9103F0F6FF06901E9805902199084603F0C0F91F99E7
:2027C00003F0ECFF059902460698079203F0E6FF079903F0B4F905F021FBFEF7D1FF564A70
:2027E0001C92564B1D9302F079FF04F0E9F9544908601F990B91084603F0A1F90C901E9814
:2028000008902199084603F09AF920990D9103F0C5FF089902460C98099203F0BFFF099909
:2028200003F08DF905F0FAFA02460D9810920A460A99119203F0B2FF0B9902460C980E923D
:2028400003F0ACFF0D9902460E980F9203F0A6FF0F9903F06FF97F21C90503F070F905F04B
:20286000DDFA024610980B46119900F0B7FF1C9A1D9B02F033FF04F0A3F932490860209833
:2028800013901F981690219814901E99189103F085FF169902461398129203F07FFF1299A2
:2028A00003F04DF90146084603F049F905F0B6FA1A90084613991B90084603F06FFF1499C5
:2028C0001590084603F06AFF159903F038F916991790084603F062FF0146179803F02AF9D3
:2028E00018991990084603F059FF0146199803F021F905F093FA02461A980B461B9900F06F
:202900006DFF1C9A1D9B02F0E9FE04F059F90E49086000202390FFE7239824B080BDC04674
:20292000A103202016032020560320205003202040032020940320206666666666A64C40A4
:202940008C032020900320209C03202080B582B08848807A002804D1FFE70020C04301902E
:2029600004E16B46002018708249486800780968497C012203F0E8FA002804D0FFE70020F6
:20298000C0430190F2E07B49486800780968497901226B4603F0D8FA002804D0FFE7002017
:2029A000C0430190E2E07349486800780968097901226B4603F0C8FA002804D0FFE700205F
:2029C000C0430190D2E06B482421405C002864D0FFE76B460C20187066494868007809682E
:2029E0000979012203F0B0FA002804D0FFE70020C0430190BAE0322006F052FC6946C02040
:202A000008705C48807AC007002806D0FFE700982021084369460870FFE7564948680078FD
:202A20000968097901226B4603F08EFA002804D0FFE70020C043019098E04E48407C0028CC
:202A400004D0FFE769460220087003E0694600200870FFE74749486800780968497C012252
:202A60006B4603F071FA002804D0FFE70020C04301907BE06B46002018703E49486800784E
:202A800009684979012203F05FFA002804D0FFE70020C043019069E065E06B460420187013
:202AA00034494868007809680979012203F04CFA002804D0FFE70020C043019056E02D48E1
:202AC000807C002806D1FFE72A48807AC007002804D1FFE769464020087003E06946602066
:202AE0000870FFE72349486800780968097901226B4603F029FA002804D0FFE70020C04302
:202B0000019033E0322006F0CBFB1A48407C002804D0FFE769460120087003E06946002009
:202B20000870FFE71349486800780968497C01226B4603F009FA002804D0FFE70020C043AE
:202B4000019013E00B4B58680078196849791033012203F0F9F9002804D0FFE70020C043D0
:202B6000019003E0FFE700200190FFE7019802B080BDC04694042020F0B5A5B004930892D3
:202B80000E46074600240A947E4D22462B4604F017FA002813D100247B4D384631462246D4
:202BA0002B4604F003FA002809D1002238463146134604F0E7F900283C46354607D10AAABC
:202BC0002046294604F08EFB0A98401E0A900899087B0BAE412801D06D4800E06B48099011
:202BE000886801903020039030700022079220462946134604F0D0F901210028029101D07D
:202C0000C8074540771C20462946079A134604F0B9F900280DD124AA2046294604F062FB5E
:202C2000249801210A1A2046294602F017FF04460D462046294604F0E3FE06463946059707
:202C400004F032FC0690304605F084FC06F06DFB04460D460198471C20D30598069946184D
:202C6000002220462946134604F08CF9002848D1002220462946474B02F030FD04460D4605
:202C800004F0BEFE0999095C771C317005F062FC06F04BFB04460D463E46E1E70BA806997F
:202CA0004618002F16D07F1E002220462946394B02F014FD04460D4604F0A2FE0999095C4E
:202CC0003246761C517005F045FC06F02EFB04460D46E6E73178099C204606F071FA001B3A
:202CE00008280EDB0196741E089D079F099E2178304606F065FA801B0E2805DD2770641E70
:202D0000F5E7089D079F04E00999081840782070019E37700A98297B4129049C01D07021A6
:202D200000E05021069E059F224604F097FCAA68501C04D1384606F0CAFA421EAA60384698
:202D40003146234605F036FBA8680028029A02D128680007C20F38463146234604F07AF89A
:202D6000287B412801D0782000E0582021684A1E226008702068411E21600399017025B051
:202D8000F0BDC0460000F07F0000F0FF48AB000059AB00000000304010B594B0179C169C4D
:202DA0001290119110920F9306A900200870169908807448807B179A07A902F0B1F8002832
:202DC00004D0FFE70020C0431390D7E06D484089142108426CD0FFE70798000607A90091B7
:202DE0004A78120480188A7812028018CA788018109A1060089800064A79120480188A79A7
:202E000012028018CA798018109A5060099800064A7A120480188A7A12028018CA7A80182C
:202E2000109A90600A9800064A7B120480188A7B12028018C97B40181099C86006981030E1
:202E400006A9087010980221405E029010980621405E039010980A21405E049010980E2174
:202E6000405E059002984043039949434018049949434018059949434018019001980F2125
:202E80000906884205DBFFE701983F49884208DBFFE7FFF75BFD169900200880C043139094
:202EA0006CE0169908880122120210430880FFE7344840894006002823D5FFE706A90878CF
:202EC00007AA1318105C00025B78C018119B18800878831898780002DB78C018119B5880DD
:202EE000087882181079000252798018119A90800698801D08701699088808221043088018
:202F0000FFE720484089C005800F002823D0FFE706A9087807AA1318105C00025B78C01821
:202F2000129B18800878831898780002DB78C018129B588008788218107900025279801867
:202F4000129A90800698801D087016990888702210430880FFE70B4840898007002807D0CE
:202F6000FFE706A8017807A8401803F05DFCFFE70F9805F01BFB00201390FFE7139814B041
:202F800010BDC046FC04202001000011F0B5A3B003930F46044604929168002903D000292B
:202FA00004D5062100E001210498816007910AA83021089101700025204639462A462B4602
:202FC00003F0EAFF01210028059101D0C8074740624E20463946604A334603F0FBFF002841
:202FE00009D00022204639465E4B01F013FF04460F466D1CEDE75A4E0022204639460992FF
:20300000134603F0BFFF002811D1002220463946334603F0C1FF002809D000222046394661
:20302000504B02F05BFB04460F466D1EE4E702950AA8451C2046394604F0E2FC069529464D
:2030400004F032FA07998842019004DD481C0AA90A18085C1FE0C9430E180AA90D18681C4A
:2030600007902046394604F0CBFC05F073FA02460B462046394600F0E7FA0022394B02F0D0
:203080002DFB04460F4604F0BBFC079A30306870761C1546E3D3C0B23528039E049F029B92
:2030A000099D0FD31446501E0178491CCAB201703A2A03D330210170401EF5E70AA9884242
:2030C000224640D00198C41815700220C043844202DBB868844207DD601E397B891EC9B298
:2030E000324604F0BBFA0124069806F0F0F8401E0599A0421ADB0028089A01D4069A125C8E
:203100001346303B5D1EAB41C9431943C90705D13978090702D40025059905E031684B1E35
:2031200033600A7001250021401EE2E73868082202402A43501E824106982146334603F0F9
:2031400089FE23B0F0BD501E002101700198C018441C0AA80690B8E70000C0FFFFFFDF41D3
:203160000000F03F0000244010B58EB0554A022008900121029108230C9303F095FD5248C2
:20318000006804F04BFE02460B4650480B905049099105F027F802990B9A0C9B142003F069
:2031A00083FD02990C9B4B4A3C20039003F07CFD4948006804F032FE02460B980B46099962
:2031C00005F010F802990B9A0C9B502003F06CFD08990C9B414A084603F066FD089B0C9881
:2031E0003F490A78009019200790194602F09AF8039808990C9B3B4A03F056FD089B0C988D
:2032000039490A7800905A20194602F08BF808980C9B364A0321049103F046FD0B983449F6
:203220000A88344904F0DEFF04990B9A0C9B1E2003F03AFD08980C9B2F4A0421059103F0EF
:2032400033FD2E48006804F0E9FD02460B980B46099904F0C7FF05990B9A0C9B2D200D901A
:2032600003F022FD08980C9B254A0521069103F01BFD2448006804F0D1FD02460B980B46EC
:20328000099904F0AFFF06990B9A0C9B079803F00BFD08980C9B1C4A06210A9103F004FD02
:2032A0001A48006804F0BAFD02460B980B46099904F098FF0A990B9A0C9B0D9803F0F4FCB9
:2032C0000EB010BDEEAB000018032020F602202061A90000F2AB00002C032020E9AB00008D
:2032E000F8052020DEAB0000FC052020D8AB00002A052020F6AB0000D0AB0000A0052020D4
:20330000E4AB00009C032020C8AB0000A405202080B584B002A908706448807C0978884264
:2033200003D1FFE700200390BDE002A80078002853D0FFE75D49486800780968097901224C
:2033400001AB01F057F8002804D0FFE70020C0430390A8E001AB1878DF21084018705349B9
:203360004868007809680979012202F0EDFD002804D0FFE70020C043039094E0032005F00F
:203380008FFF01A90220087048482221405C002806D0FFE701988021084301A90870FFE77B
:2033A00042482321405C002806D0FFE701983021084301A90870FFE73C4948680078096864
:2033C000C97D012201AB02F0BFFD002804D0FFE70020C043039066E05FE034494868007868
:2033E00009680979012201AB01F004F8002804D0FFE70020C043039055E02C48807AC0071C
:20340000002806D0FFE701982021084301A9087005E001A90878DF2210400870FFE7234957
:203420004868007809680979012201AB02F08CFD002804D0FFE70020C043039033E0032059
:2034400005F02EFF19482221405C002804D0FFE701A98020087003E001A900200870FFE75B
:2034600012482321405C002806D0FFE701983021084301A90870FFE70C4948680078096803
:20348000C97D012201AB02F05FFD002804D0FFE70020C043039006E0FFE702980349887483
:2034A00000200390FFE7039804B080BD9404202080B58AB00320019041065D48029005F079
:2034C000D7FB014601985B4A0592116001025A48049005F0CDFB01460298584A1160012181
:2034E0000391490605F073FD039902460298531E9A4109AB1A70890605F069FD03990246AE
:203500000498531E9A4108AB1A70490205F05FFD039902460498531E9A4107AB1A700902D7
:2035200005F055FD014605984A1E914106AA1170C0788007002812D5FFE709A8007808A967
:203540000978884205D0FFE73D490868401C086004E03B490868401E0860FFE718E03548B2
:20356000C0784007002812D5FFE709A8007808A90978884205D1FFE731490868401C086048
:2035800004E02F490868401E0860FFE7FFE7FFE72A4840788007002812D5FFE707A800781A
:2035A00006A90978884205D0FFE726490868401E086004E023490868401C0860FFE718E04F
:2035C0001E484078C007002812D0FFE707A8007806A90978884205D1FFE71A490868401E08
:2035E000086004E017490868401C0860FFE7FFE7FFE70320009041060D4805F0F1F9009873
:2036000001020D4805F0ECF9012005F083FA01280BD1FFE7064805F0DDFD172803D1FFE7E4
:20362000FFF77EF800E0FFE700E0FFE70AB080BD00000A408403202000200A408803202055
:203640007C03202080032020FCB40124E407634002E0FCB40124E40708B41D03ED08D60D2F
:20366000354356025F007F0D06D12C00344300D0AEE001B0FCBC7047A40825430724240232
:20368000FF34A74205D10020190D090501B0FCBC7047002B03D50024A61BAC4125000B03BC
:2036A000DB08C20D134342024800400D07D11C00144300D08CE00EBC1000F0BC7047012440
:2036C0006407234307242402FF34A04205D10020090D090501B0FCBC7047002903D5002454
:2036E000A21A9C412300C11B08D51C002B0025001400320026000024611A3800362925D54D
:2037000002B4393949420C00203C03D22F008F40374301E03700A740002F01D040210E4390
:2037200002BC20290BD500290ED04C42203420B4A5402C0020BC0D41CE40361904E0002940
:203740002E000D4120390E4192196B411C0014433ED00024002B04D5012400218A1A994181
:203760000B00401E52005B41FBD50121890215000D400CD0521800277B4101D3401C0BE0CF
:203780000721C90115000D4001D189008A43072109028A4352005B41801C19DD07210902FA
:2037A000FF31884209D30EBC0020C90F0902FF31C900C91D0905F0BC7047190B00050143A9
:2037C000E40721431805120B104301B0FCBC70470021002001B0FCBC70477047F0B585B0FB
:2037E0001E46054602920390504B514F04963E40501E1446844134439C4207D80F40681E0A
:203800002C4684413C434948844208D90398029A049BFFF71EFF0C46214605B0F0BD454829
:20382000049B181810431AD00C46C90FD80F4000019141183D4316D032431CD03B4886422E
:2038400017D187421DD1424C3C48C0467944097949008F4401023B60DEE7414CDCE7039808
:20386000FEF740F9D7E702290398D5D3032918D015E0874218D10120C00704402E48241855
:2038800010E000242046C0467944097949008F4401020608C0E700200121CC07BCE72A4C67
:2038A00000E02A4C2548B7E7B81B00153C2803DD214C2248019918E0002B09D500253B2287
:2038C000D243904204DA28462C460EE0234C23E003980D462146029A01F09CFA0122D2076F
:2038E0009143FEF7FFF80C462946002994D0022905D0012912D10121C9074C408CE7104A62
:20390000104B2146FFF7A5FE02460B460B480E49FFF79AFE7FE70F4C0F487DE7084A094B59
:203920002146FFF796FE054A084B72E70000F07FFFFFFF7F000010C0FB21F93F182D4454AF
:20394000075C143326A6A1BCFB210940FB2109C0FB21E93F7CD902C0D221337F7CD90240B3
:20396000FB21E9BF80B58AB0014609A8017001784F48016000687B2804D1FFE74D490120BD
:203980000870FFE74A4800687D2804D1FFE7494902200870FFE74748007801280AD1FFE76C
:2039A0004348006844490B78444AD0540878401C0870FFE73F480078022876D1FFE73F483B
:2039C000C078502804D1FFE74449012008705EE03A484078232859D0FFE7374800900078FD
:2039E000021F36480290C11C04A8019005F000FD00990198097809180A1F0021117005F0F6
:203A0000D5FC03F0DDF8014602982D4A1160407830380390082838D80398810001A04058FC
:203A20008746C046493A0000533A00005D3A0000673A0000713A00007B3A0000853A00004C
:203A4000873A0000893A00001D480068224908601BE01B4800681F49086016E018480068EE
:203A60001B49886011E016480068184908600CE0134800681449086007E011480068114904
:203A8000886002E001E000E0FFE7FFE7FFE7094900200870084908701149087008490860AB
:203AA0000648322105F036FCFFE70AB080BDC046D0052020F9052020FA052020C4022020C3
:203AC000CC0520202C032020B0052020B805202018032020AC052020B4052020A00320204C
:203AE000FB052020B0B588B006AB188003AC6C20A0705248208002A82C2181705049018019
:203B000001AA762191704F4911806A46662191704D4911801A8803210A40A55C05AA157095
:203B2000069DED06AD0F655D5570069D2D06AD0F645D94701B880B40C45C04AB1C70069C6A
:203B4000E406A40F045D5C70069C2406A40F005D98703E4802F06AFB002804D0FFE70020D8
:203B6000C043079066E03A48032104AA02F05EFB002804D0FFE70020C04307905AE0019857
:203B800005A9088001A8807888706846807804A988700098088006A80088400700280AD567
:203BA000FFE705980121084305AA10700498084304A90870FFE706A80088800600280AD531
:203BC000FFE705A9487801221043487004A9487810434870FFE706A80088C00500280AD503
:203BE000FFE705A9887801221043887004A9887810438870FFE711208001032105AA02F06E
:203C000015FB002804D0FFE70020C043079011E01048032104AA02F009FB002804D0FFE705
:203C20000020C043079005E006980B49088100200790FFE7079808B0B0BDC0464CCD0000EA
:203C40000CC900003656000026460000260400002A04000031040000FC042020F0B585B0F0
:203C60000D4604465448014081420CD12046294622462B4601F032FD22462B46FFF7E9FCA8
:203C800004460D4693E04D4B002D75DD012004900105280D06D10020002D05D11538E50AD7
:203CA0006405F9E72E460DE000220D4202D16D00521CFAE7801A401C2026B71A2646FE40A3
:203CC0002E4394403E4A8218481E304008430092D10703D0E10F400040186400E10F400003
:203CE000461800250498410501956400002911D04A19B71A304600DB3846B24200DC55181B
:203D0000B24202DC019A521801924000E20F86184908EAE75F1C00221346002F23D0D01947
:203D2000AE4216DD039300230028049A00D41A46C11902910029049900DA1946761B84422A
:203D400000D2761E039B0A40AD18241ADB19029A03E002D18442E5D23546E00F71000E184E
:203D600064007F08D9E7344313D0581C019A12D001201840C31810E028461840204316D0FA
:203D8000002D83D505F030FB212101600E4D00240DE0019A01E0521C002350105908D207C8
:203DA00054180099490809050818064945182046294605B0F0BDC0460000F07FFFFFFF7FAB
:203DC00001FCFFFF0000E03F0000F87F80B58AB0494804F075FE002803D1FFE703F0A0F87E
:203DE000FFE700F039FC09900998002801D0FFE77FE00020029009907820019000F094FB4D
:203E00000246019809998918099102F0FFF801460998401809903220039001F075FB014695
:203E200009984018099007A804F060FA014609984018099006A803F069F9014609984018D7
:203E4000099008A802F0F6FE024602980999891809912A490491888148810881C8808880C1
:203E600048800880032008700420888004F0C2FE0146099840180990214804F00FF8FFF744
:203E800031FE01460998401809901E4805F08EF901460998401809901B4805F07DF9024649
:203EA0000498099989180991FF217431C180C088FDF794FF0246039809998918099102F002
:203EC00047FB01460998401809900120059002F0FBF8049903460598099AD21809924870C9
:203EE0000998002801D0FFE703E0084901200870FFE70AB080BDC04600200F400C052020D2
:203F00001A052020EB920000A3930000FD05202080B590B00F903F4800683F49096800F061
:203F2000CFF93E480E907F20C0050D9000200C900B903B49049108603A48006804F03EFEA2
:203F4000394908600F98096801F0F4FD03F05CFB0146049801600E990291006801900D9916
:203F6000009132490591096801F0E4FD0146009802F014FC019902460298039202F00EFC6E
:203F8000039901F0DCFD0499059A034628480690036009681160006804F008F92721C9433A
:203FA000282204F089F904F06BF80699086021480068096801F0C3FD06991F4A079290605F
:203FC0001E480068096801F0B5FD014607981C4A089291608168006802F0AEFC0146089854
:203FE0000C918168006802F065FC0B900C9815490991154A0A9204F05FF909990A9A0C9020
:204000000B9804F059F90B900C980B9900F07CFE10B080BD7C03202080032020CDCCCC3E48
:204020007C052020BC052020A005202088052020A8052020D405202018032020D80520208E
:204040002C032020A8E4FFFF581B0000F0B587B01D46164630240590047000271046194620
:204060003A463B4602F098FF0028019402D00120C00745400D9804900C9803903F4C304649
:2040800029463D4A234602F0A5FF002809D00022304629463B4B00F0BDFE06460D467F1CB8
:2040A000EDE70598441C0022304629460692134602F068FF002811D1002230462946304B52
:2040C00002F06AFF002809D00022304629462D4B01F004FB06460D467F1EE4E70398C0199A
:2040E00003903046294603F08BFC214603F0DCF902942418C019049908600398471C012FC1
:204100001ADB3046294603F07BFC04F023FA02460B4630462946FFF797FA0022194B01F0CE
:20412000DDFA06460D4603F06BFC3030611C20707F1E0C46E5D100E02146481E0278352A17
:204140000DD3891E019C0A78521CD3B20A703A2B02D30C70491EF6E7059A914204D006996D
:204160000170029807B0F0BD0699017004990868401C08600598F5E70000C0FFFFFFDF4199
:204180000000F03F0000244080B586B000200590049003F079F8FFF719FE04F01DFD4248CF
:2041A00004F0AAFE0120009004F092F9009804F08FF90E20019004F08BF9009804F09EF9C5
:2041C000009804F09BF9019804F098F91020029004F07EF90220039004F07AF9029804F0CA
:2041E0008DF9039804F08AF903F030FC00F004FDFFE702F0C3F803F091FB2C490880FEF713
:20420000B3FF03F06BFC01280DD1FFE728480178491C01700078062804DBFFE724490120ED
:204220000870FFE7FFE703F02DFB01280DD1FFE720480178491C01700078042804DBFFE712
:204240001C4901200870FFE7FFE703F0F5FA012828D1FFE702F060FD174804F04DFEFFE7D7
:2042600003F05CFB11490880FEF77EFF03F0E4FA01280BD0FFE711480068C117890F40185C
:2042800081100B48007888420BD1FFE7094904200870FFE703F042FB04490880FEF764FF05
:2042A000F8E7DDE7A5E7C046008086402A052020F8052020FC052020004008409C0520202D
:2042C00080B590B00F900E910F983E4A1168401A0D900E983C490B68C01A0C900F98106061
:2042E0000E9808600D9839490A789300384AD0500C980A789300374AD0500878401C032277
:204300001040087000200B900A900990FFE70998032813DCFFE7099881002D4841580B988D
:2043200040180B90099881002A4841580A9840180A90FFE70998401C0990E8E70B9803F0E8
:204340009FFE8121C905009102F07AFB08900A9803F096FE009902F073FB079008981E4900
:20436000019102F01BFA03F059FD1C4A02921C4B039301F0B3F9002205921A4B049301F021
:20438000ADF9059A184B069300F044FD02F018FC0199164A1060079802F000FA03F03EFD82
:2043A000029A039B01F09AF9049B059A01F096F9059A069B00F02EFD02F002FC0C49086079
:2043C00010B080BD8005202084052020F7052020DC042020EC0420200000C8426B195F6A6F
:2043E0003AF1CA3F0000594000609840180320202C03202010B58CB00AAC207009A8017085
:2044000008A802700793002106910078002803D1FFE700200B907FE005A804F0C7F809A8A3
:2044200001783F48019004F0FEFD01983D4A20211160012104F088FCFFE7394804F048FEEF
:204440008006002801D4FFE7F7E70AA8017808A803783348012203F02BF9FFE7304804F0B8
:204460004BFB002814D1FFE72D4804F045FE03A90870069808A90978884208D2FFE703983E
:204480000799069A88540698401C0690FFE7FFE704A804F08BF8049805990A31884206D369
:2044A000FFE702F03DFD0020C0430B9034E0FFE71B48012104F0A8FC0028CFD0FFE7184808
:2044C00004F01AFB002814D1FFE7154804F014FE02A90870069808A90978884208D2FFE700
:2044E00002980799069A88540698401C0690FFE7FFE70C4900200860094803F049FD0698A5
:2045000008A90978884203D1FFE700200B9003E00020C0430B90FFE70B980CB010BDC04671
:2045200000200F4014320F4080B584B0014602A8017000784006400F002804D0FFE701A913
:20454000012008700DE002A80078002804D0FFE701A90020087003E001A940200870FFE744
:20456000FFE73C49486800780968497D012201AB01F0EAFC002806D0FFE73649002088724E
:20458000C043039063E001A90878BF221040314A10730020087002A800784006002806D4E7
:2045A000FFE701980421084301A90870FFE702A800788006002806D4FFE70198022108436D
:2045C00001A90870FFE702A80078C006002806D4FFE701980121084301A90870FFE702A84B
:2045E00000780007002806D4FFE701983821084301A90870FFE71749486800780968897D10
:20460000012201AB01F0A0FC002806D0FFE7114900208872C043039019E002A8007800280D
:2046200009D0FFE702A80078082804D0FFE7002001F0F4FEFFE70298064988720020009033
:204640000875322004F02CFE00980390FFE7039804B080BD9404202010B586B003AB8020AF
:2046600018704549486800780968497D012201F06BFC002804D0FFE70020C043059077E059
:20468000642004F00DFE03AB002018703A49486800780968497D012201F056FC002804D0FD
:2046A000FFE70020C043059062E03349019100200290C8740A460832FF238B720B724B723B
:2046C000CB722E4CCC810B748B7401230B739376D076487508750884C883888348830883F5
:2046E000C88210775077C8847D20000101F0CAFB002804D0FFE70020C043059038E00220AE
:2047000001F05EF8002804D0FFE70020C04305902EE02A2001F04EFB002804D0FFE7002024
:20472000C043059024E0322000F0EEFE002804D0FFE70020C04305901AE0002001F066FCA8
:20474000002804D0FFE70020C043059010E00020FEF7DEFD002804D0FFE70020C043059045
:2047600006E000200090FFF7DFFE00980590FFE7059806B010BDC04694042020FFFF0000C1
:2047800010B58EB00CAC20800B910AA8028009A8038043482521405C002804D0FFE700204B
:2047A000C0430D9078E00B98002804D1FFE70020C0430D9070E008A900200880FFE708A87C
:2047C00000880CA90988884248DAFFE70CA8008808A90988401A112803DBFFE710200190A3
:2047E00006E00CA8008808A90988401A0190FFE7019807A9088008A8008809880B9A12181B
:2048000001F014FD002804D0FFE70020C0430D9042E008A8008807A9098803AA01F0B0FC0F
:20482000002804D0FFE70020C0430D9034E00B9808A90988401807A90A8803A904F090F81B
:20484000002804D0FFE70120C0430D9024E0FFE707990898401808A90880B0E70AA84078F9
:2048600002AB18700A9858700D49486800780968497F022201F068FB002804D0FFE7002068
:20488000C0430D9008E006492522012088540998C88400200D90FFE70D980EB010BDC04637
:2048A00094042020F0B5A1B0049305469068002801D5062090600290039200243D4F2846F7
:2048C000224606913B4602F07BFB06990028264614D10026384F284632463B4602F066FB71
:2048E000069900280AD1002228460592134602F049FB069B00282E461F4622D12F4D04F05B
:2049000034FD02F049FB002809D00022304639462B4B00F0E3FE06460F46641EEFE7284D63
:2049200004F023FD02F04CFB002807D004F01DFD00F070FA06460F46641CF1E735463B46CE
:20494000059407A802990091019008A82A46FFF77DFB0446079D022D0DD1059D6D1C204638
:2049600004F0B5FC2018401E0021017028460125049E039F02E0049E039F0598397B3246A3
:2049800002F06CFEBA6820462946334603F012FD204604F09CFC854203D138680007C20F44
:2049A00000E0012220462946334602F053FA21B0F0BDC0460000F07F0000F0FF0000F03F56
:2049C00000002440F0B583B03D4A8218029211231C028D7A6B1EDBB2022B08D89E00394F44
:2049E000BE594927FF017B43DA19019202E000220192022602190092CF68AD0045193120ED
:204A0000C0012C588F239C431F40374327432F504868029C6060087805283AD8012637468D
:204A2000874009231F420ED112231F4218D04F7A254AAE18AA58254D1540032F1ED0012FAE
:204A400020D1244A1BE04B7A1F4C2F591F4A3A4077271F40D2197304D2182A51029C18E007
:204A60004A7A194BEE18EB58184D1D40012A03D1184AAA18521C0BE0154A00E0164A154390
:204A8000356006E0772217403D43124AAA18FF3232600022009B1A60C01E0328019B01D29B
:204AA00020200343087A21680C4A0A40BD2101401943114302200843206003B0F0BDC046A3
:204AC000041800008CAB0000301800008888FDFF0102020001010200030302004000FFCF10
:204AE00010B58CB00BAC20700AA8017009A8027008A8037007AA002111700278520806AB2D
:204B00001A7005AA11800078082804D1FFE704A90620088012E008A801780191C8080290FE
:204B20004907401C0029039001D102980390019803994008484304A90880FFE709982038F2
:204B400007A908700BA800780AA9097803F05CFA05A900200880FFE705A8008804A90988D6
:204B6000884242DAFFE705A8008806A9097803F035F900290ED1FFE708A80078082809D0C4
:204B8000FFE70BA800780AAB19784A1C1A7003F03BFAFFE708A8007808280DD1FFE707A8F5
:204BA0000078062141431348401805A90988405C012101F081FC12E008A8007810280CD185
:204BC000FFE707A8007801010948401805A90988405C012101F070FC00E006E0FFE7FFE731
:204BE0000598401C05A90880B6E70CB010BDC04646A0000036A6000080B584B0414803F0B3
:204C00006DFF002803D1FFE702F0B0FAFFE7C820009003F0E7FBAE200021039101F04CFCBB
:204C20000399084601F048FC0399102001F044FC03994020019001F03FFC0399812001F071
:204C40003BFC0399CF2001F037FC0399A12001F033FC0098039901F02FFC0399A6200290AD
:204C600001F02AFC0399A82001F026FC03993F2001F022FC0399D32001F01EFC0399084618
:204C800001F01AFC0399D52001F016FC0399802001F012FC0399D92001F00EFC0399F12001
:204CA00001F00AFC0399DA2001F006FC0399122001F002FC0399DB2001F0FEFB0198039901
:204CC00001F0FAFB0399202001F0F6FB0399022001F0F2FB03998D2001F0EEFB03991420A1
:204CE00001F0EAFB0399A42001F0E6FB0298039901F0E2FB02F010F80399AF2001F0DCFB7B
:204D000004B080BD00000F4080B58EB00D900C910D9801281DDBFFE701200A9041053B4876
:204D20000B9003F0E1FF0A990B98890304F0A7F90D98012803DBFFE70D98099003E00D9847
:204D400040420990FFE709993148002204F090FA1CE00120079081032C48089003F0C4FF9D
:204D600007990898490504F08AF90D98012803DBFFE70D98069003E00D9840420690FFE7DB
:204D800006992348002204F073FAFFE70C9801281DDBFFE70120049041031C48059003F010
:204DA000A3FF04990598090304F069F90C98012803DBFFE70C98039003E00C984042039051
:204DC000FFE703991248012204F052FA1CE00120019001030D48029003F086FF019902984F
:204DE000490304F04CF90C98012803DBFFE70C98009003E00C9840420090FFE70099044805
:204E0000012204F035FAFFE70EB080BD00000A4000808640FCB40C005C40E40FE40710B4E1
:204E20001D032D0B56006D415F007F0D73D001246405254307242402FF34A74261D00B0346
:204E40001B0B42005B414800400D64D001246405234307242402FF34A04252D0C01B00210D
:204E600000273624AB4200D1B24204D37F414941921BAB4101E07F414941641E06D0002B97
:204E800001D1002A02D052005B41EBE7202C07D2162C0AD33900A7402026361BF1400BE06D
:204EA000203C3900A140002706E0A1402026361B3D00F5402943A74001246405214202D16E
:204EC0007F004941401E00247F1C61410124A405214202D0401CA14301E06408A14303246F
:204EE0002402FF34001916DD2419A04209D8CC074908000501437808204310BC2143FCBC15
:204F0000704702BC0020C90F0902FF21C900C91D0905FCBC70470021002001B0FCBC70476C
:204F200080B586B004AB1880039102923D482421405C002804D1FFE70020C04305906EE048
:204F40003848807A002804D1FFE70020C043059065E03449486800780968097B022201AB8D
:204F6000FFF748FA002804D0FFE70020C043059055E00198000201A949784118684601809C
:204F8000008804A90988884206DAFFE7029900200870C043059042E068460088214949687D
:204FA0004988490888421DDDFFE71E49486800780968C97C012201ABFFF71CFA002804D009
:204FC000FFE70020C043059029E001A80078C006002806D5FFE7FDF7B9FC0120C0430590F8
:204FE0001DE0FFE70F49486800780968497B04AA1278039BFFF7FEF9002804D0FFE7002054
:20500000C04305900BE06846008804A9098802F0E5FE401E0299087000200590FFE705981B
:2050200006B080BD94042020F0B5394A8218394BC0183A4D4C790B79002C22D0466F202B99
:2050400002D00524E70100E0354F2E40002B00D188273E434667846F2C403C438467446B4A
:205060002D4E34404463846B3440846300244465846554688F26F643344054609468344058
:2050800094600C688979202B09D006467036002B15D1641E4460C46E2C40882715E0641E95
:2050A0004460C46E2C401E4E3443C466046F2C40344304671B4D01246707064607E0052786
:2050C000FF0164084460C46E2C403C43C46634682C403C433460C46A0F4D2C40C462046BD3
:2050E0002C4004630024C4640465C46F8F25ED432C40C46714682C401460194302680A4B03
:205100001340BD220A40D118891C0160F0BDC04684180000041800008888FDFF24493E0002
:2051200001040000FFFFFFCF4000FFCF80B586B0014604A80180008800281DD1FFE700200D
:20514000029001F06BF9029803AB1870072058703549486800780968497D022200F0F4FEC6
:20516000002804D0FFE70020C043059058E02E4900200875059053E0012001F04FF903A97B
:205180002020087004A80088012807D1FFE703A900204870052000F00DFE20E004A8008864
:2051A000052807DCFFE703A901204870052000F001FE13E004A80088142807DCFFE703A988
:2051C000022048700A2000F0F5FD06E003A903204870142000F0EEFDFFE7FFE7FFE703AB0D
:2051E00058788001C01D58700F49486800780968497D022200F0A8FE002804D0FFE7002046
:20520000C04305900CE0084A082090720020019010730121117500F0F9FE01980590FFE7B7
:20522000059806B080BDC04694042020F0B597B03248109000683249119101F0AFFA02F0E9
:20524000B5FF119916902F481290006801F0A6FA02F0ACFF1199024610981592806801F081
:205260009DFA02F0A3FF1199024612981492806801F094FA02F09AFF139023480078012820
:2052800030D1FFE72248006802F0C8FD0B900C912048006802F0C2FD0E900D911E480068DB
:2052A00002F0BCFD04460D461C48006802F0B6FD0B9A0C9B06460F460D9900200F900A9049
:2052C00009900890079006900E98059704960395029401910090124802F060F80F980A49A6
:2052E000087008E01699159A149B13980090074802F054F8FFE717B0F0BDC04618032020BE
:2053000000007A442C032020A00320207CAB0000B4052020AC052020B8052020B00520207A
:20532000C0AA0000B0B58CB002910446029810990BAD2C700AAC2070099208A8037007A83B
:20534000017004AA0021117003AA11700078082804D1FFE704A902200870FFE706A90020FF
:205360000870FFE706A8007808A90978884252DAFFE70998009008990698C0434018C1B25D
:205380000A20019003F076F80146009802F026FD019902F023FD05A8017003A800780028E8
:2053A00022D1FFE706A8007808A90978491E88421ADAFFE705A80078002810D1FFE70B98FA
:2053C00007A90B785908049A8A180699514340180AA90978C0B22022FFF782FB16E003A971
:2053E00001200870FFE7FFE70B9807A90B785908049A8A180699514340180AA90978059A73
:205400003032C0B2D2B2FFF76BFBFFE70698401C06A90870A6E70CB0B0BD704780B52B48BC
:2054200000682B490968FEF74BFF2A48007800281FD1FFE72848007800281AD1FFE72749A7
:205440000020086026490860264908602649086026490860264908601E4A1178491C1170BA
:20546000244908601C490878401C087001F0A2FBFFE72148006802F099FE002817D1FFE7DA
:205480001E48006802F092FE002810D1FFE71C480078092805DCFFE719490878401C087043
:2054A00004E018490878401C0870FFE703E0144900200870FFE713480078002805D0FFE7F9
:2054C0000C480068FEF724FDFFE780BD7C03202080032020F3052020F60520209805202005
:2054E00094052020900520208C052020D4052020D8052020A4052020180320202C03202044
:20550000F5052020F405202080B584B002A908803648807A002804D1FFE70020C04303906B
:2055200061E032482421405C002804D0FFE70020C043039057E02D48007D002815D0FFE71B
:2055400002A8008800280CD0FFE702A80088282807DCFFE702A80088FFF7E8FD0020039024
:2055600041E00020FFF7E2FDFFE702A80088032804DCFFE702A9042008800BE002A8008898
:205580001B49884205DBFFE77D20C00002A90880FFE7FFE702A801887D20C00002F01EFC1F
:2055A000401E01AB187011494868007809684978012200F0C9FC002804D0FFE70020C043C8
:2055C000039010E001A80078411C7D20C00002F005FC01460548C181C089400800F0EAFB3E
:2055E00000200390FFE7039804B080BD94042020E9030000B0B5364A80184A6842600A786F
:20560000222A56D8930001A4E3589F46A9560000B3560000A9560000B3560000B35600009F
:20562000B3560000B3560000B3560000B3560000B3560000B3560000B3560000B356000022
:20564000B3560000B3560000B356000099560000B356000099560000B3560000B356000036
:20566000B3560000B3560000B3560000B3560000B3560000B3560000B3560000B3560000E2
:20568000B3560000B3560000B356000099560000B356000099560000036803242407A34365
:2056A000012464071B1903E0036803242407A34303600B69C360CB68C46A064D2540064C3B
:2056C0001C402B19C362097A11430160B0BDC046041800008888FDFF77770200FCB50C0085
:2056E0005C40E40FE40710B4DD02540D2543D6025F007F0D60D00124E40725430724240208
:20570000FF34A74250D0CB02440D2343C2024800400D51D00124E407234307242402FF3455
:20572000A04241D0C01901B41800290002F020FD0F0001B41800310002F01AFD03000C0073
:205740001000310002F014FD06001000290002F00FFD05007618002202BC01BC5541514170
:20576000A419554151418024A4005B195141FF18514100D564003F19514102D47F0049414B
:2057800000E0401C03242402FF34001B14DD2419A04209D80305F80A4C0520434900090B26
:2057A000194310BC2143FCBD0020FF21C900C91D090510BC2143FCBD0021002001B0FCBD13
:2057C00080B584B002A908703548807A002804D1FFE70020C04303905FE002A80078801E2E
:2057E00000900E2832D80098810001A0405887462D5800004D580000355800004D5800005E
:205800004D5800004D5800003D5800004D5800004D5800004D5800004D5800004D58000070
:205820004D5800004D5800004558000001A9002008700FE001A9082008700BE001A9102041
:20584000087007E001A91820087003E00020C043039022E01248407A01A90978C90888421A
:2058600003D1FFE70020039017E00D49486800780968C979012201AB00F066FB002804D077
:20588000FFE70020C043039007E001A80078C0080349487200200390FFE7039804B080BD71
:2058A0009404202080B586B00021019105912E4802F0CEFF01990246C820821A04A80270A3
:2058C0000391007829490978884207D0FFE729490120087003F018FD05903FE0059800904E
:2058E00003F012FD01460098401A00022049884233D3FFE71F48007801282ED1FFE71D49F9
:20590000002008701C48007802A90870FFE702A8007804A9097888420CDAFFE702A8017801
:205920001648405CFEF71EF8FFE70298401C02A90870ECE704981049087004A80078642873
:205940000ADBFFE704A9002008700B4908700749087002F07BF8FFE7FFE7FFE704980349A4
:20596000087006B080BDC04600A04240DE05202000803801DD052020DC0520200000202035
:20598000F0B584B03049314A0125AC0316682B0203939E4316600E68264205D10E6826423B
:2059A00002D10E682642F6D06C02467E9769AF432E40BD1995612025455DD6690327BE43C1
:2059C0003D407519D561224D2E680727374005262E60466A33681362736853622F60C36918
:2059E0005B065B0CD5697F263602B543EB18D361E8C8009707680197476802971B071B0BB7
:205A00002D03ADB2ED1833071B0D007A009E35431D43019B1D43029B1D43054390690D4B0E
:205A200003400D482840C01890611068039B184310600868204205D10868204202D10868FF
:205A40002042F6D004B0F0BD04020B4008010B40001340408D00F0FF72FF0F00F8B5154681
:205A60002A4E0A0D771C3A40294B9A4213D00C46002A18D10122D2079443044344D00022A2
:205A8000244BFFF72BFE0C4623498D4208DC234A234B214636E002460B46FDF7DAFDF8BD96
:205AA000220D3A40363A5119B1420ADD03F09CFC222101600120C00704401D482118002070
:205AC000F8BD012904DB174A144009052143F8BD3522D24391420CDC03F086FC22210160EC
:205AE00012488542E6DA0120C007044000202146F8BD0C4A144009051B225205891821430C
:205B00000022094BFFF7EAFDF8BDC046FE070000FF07000000005043AF3CFFFF59F3F8C2EA
:205B20001F6EA501FFFF0F800000903C51C300000000F07FFCB40127FF07794002E0FCB42D
:205B40000127FF070C024D002D0E03D1002C52D1FCBC70473C43FF2D50D0A408002900D57A
:205B60006442020243001B0E04D1002A43D10800FCBC70473A43FF2B41D09208002800D536
:205B800052425E1B04D5170022003C0076422B00192E06D527003741D2191C27F71B7F4205
:205BA000BC40002A27D002D55242012700E00027013B5200FCD51500802635400FD01500AB
:205BC000202635402C43803208D21500402635402C4304D101263602B24300E05B1C5200DE
:205BE000023308DDFF2B0BD2500ADB051843FF073843FCBC70470020FCBC70470800C70F92
:205C0000FF07FF20C0053843FCBC704780B58CB02848019003F05CF82748029003F058F8B3
:205C20002648039003F050F92548049003F04CF92448059003F048F92348069003F044F988
:205C40002248079003F040F92148089003F00CF92048099003F008F91F480A9003F088F9B4
:205C60001E480B9003F084F9019802F0F5FF029802F0F2FF039803F01BF9049803F018F975
:205C8000059803F015F9069803F012F9079803F00FF9089803F0ACF8099803F0A9F80A9822
:205CA00003F04EF90B9803F04BF9102003F038FB0CB080BD00000A4000200A400080864087
:205CC0000000864000A08640004008400000094000000F4000200F400080104000201040C9
:205CE00080B584B002A9087031482421405C002821D0FFE702A80078002804D0FFE701A911
:205D00000220087003E001A900200870FFE72849486800780968497C012201AB00F014F943
:205D2000002804D0FFE70020C04303903DE001981F49487436E01E48807A002804D1FFE798
:205D40000020C043039030E002A80078002808D0FFE71748407C002803D0FFE700200390C6
:205D600023E002A80078002804D0FFE701A90120087003E001A900200870FFE70C494868C9
:205D800000780968497C012201AB00F0DDF8002804D0FFE70020C043039006E0019804495D
:205DA0004874FFE700200390FFE7039804B080BD9404202080B584B002A908803048807A36
:205DC000002804D1FFE70020C043039054E002A80088BC2804DBFFE701A9012008702BE0CD
:205DE00002A80088622804DBFFE701A90220087021E002A800882A2804DBFFE701A90320C7
:205E0000087017E002A80088142804DBFFE701A9042008700DE002A800880A2804DBFFE784
:205E200001A90520087003E001A906200870FFE7FFE7FFE7FFE7FFE71148C07A01A90978B4
:205E4000884203D1FFE70020039015E00C494868007809688978012201AB00F075F80028D3
:205E600004D0FFE70020C043039005E001980449C87200200390FFE7039804B080BDC04682
:205E80009404202080B584B002A908802D48807A002804D1FFE70020C04303904EE002A8AE
:205EA00000880090FA2812D0FFE700987D218900884210D0FFE700987D21C90088420ED0EA
:205EC000FFE700987D21090188420CD00FE001A9002008700FE001A9082008700BE001A9F7
:205EE0001020087007E001A91820087003E00020C043039022E01348007A01A90978C9084D
:205F0000884203D1FFE70020039017E00D494868007809688979012201AB00F015F800286E
:205F200004D0FFE70020C043039007E001A80078C0080449087200200390FFE7039804B072
:205F400080BDC0469404202010B58CB00AAC207009A8017008A80270079301780691079951
:205F600005910078002803D1FFE700200B9048E004A802F01BFB09A801782348019003F081
:205F800052F80198022102F0DFFEFFE71E4803F09FF88006002801D4FFE7F7E70AA80178E4
:205FA00008A80078431C1848002201F081FBFFE7059906A80288144801F008F90290029934
:205FC0000698401A0690029905984018059003A802F0ECFA039804990A31884206D3FFE78F
:205FE00000F09EFF0020C0430B900AE0FFE70648022102F009FF0028DAD0FFE700200B90A8
:20600000FFE70B980CB010BD00200F4080B584B002A90870002000900878FE22104008705B
:2060200028482421405C002803D0FFE70020039045E02448807A002804D1FFE70020C043EA
:2060400003903CE01F48017C01AA11700299827A11400174007C02A90978884204D0FFE7F8
:206060000020C043009002E000200090FFE702A80078002805D1FFE71248007D002804D01C
:20608000FFE70120FFF72CFE03E00020FFF728FEFFE702A8007800280DD0FFE7FCF756FC82
:2060A000002807D0FFE70198064908740020C043039004E0FFE7FFE700980390FFE7039885
:2060C00004B080BD9404202080B588B006A908702A482422805C0978884203D1FFE70020AA
:2060E000079047E006A8007800282AD0FFE723482521405C002804D1FFE70020C0430790CA
:2061000038E000200290FFF7EBFD0298FDF700F91A480390C08CFFF7F7F90299039805AB43
:20612000197040680078232101220492FFF70CFF0399049824228854FFF7D2FDFCF706FCA4
:2061400015E000200190FFF7CBFD0C480090017C05AB19704068007823210122FFF7F4FED2
:206160000099019824228854FCF7F0FBFFE700200790FFE7079808B080BDC04694042020F8
:2061800080B586B004AB188003A8018002920298002804D1FFE70020C043059040E02248CE
:2061A000807A002804D1FFE70020C043059037E004A8417801A8017004994170407803A902
:2061C00009884018184949684989884204DDFFE70020C043059023E01349486800780968B1
:2061E000C97E022201ABFFF7AFFE002804D0FFE70020C043059013E00B494868007809686B
:20620000097E03AA1278029BFEF7F4F8002804D0FFE70020C043059002E000200590FFE72B
:20622000059806B080BDC0469404202080B586B004AB188003A8018002920298002804D1E7
:20624000FFE70020C043059040E02248807A002804D1FFE70020C043059037E004A8417805
:2062600001A8017004994170407803A909884018184949684989884204DDFFE70020C043D1
:20628000059023E01349486800780968C97E022201ABFFF759FE002804D0FFE70020C04308
:2062A000059013E00B49486800780968097E03AA1278029BFFF748FE002804D0FFE70020D0
:2062C000C043059002E000200590FFE7059806B080BDC04694042020F0B58B4200D1824234
:2062E00004D90B0002000021002040E0002B00D1002A0CD10B00020000210020002B00D106
:20630000002A01D0C943C043FFF787F82FE01C0015000B0002000CB4002126002F00FF1963
:20632000764102D2491C4029F9D100201E001700FF19764102D2401C4028F9D10E1A21006B
:206340002800320002F03CFB0C0005000CBC00200021A34200D1AA4201D3521BA341404158
:2063600049416D08E7073D436408761EF1D5059F002F01D03A607B60F0BD704710B584B074
:206380000120009001072248019002F015FE009902460198531E9A411E4B03931A70C90725
:2063A00002F00AFE039A014601984B1E99415170042102F001FE039A014600984B1E99418D
:2063C0009170C1041448029002F0F6FD0099039B02460298541EA241DA70890402F0ECFD04
:2063E000039A014601984B1E99411171802102F0E3FD039A014602984B1E99415171402104
:2064000002F0DAFD0399421E9041887104B010BD00000A402305202000200A4080B584B0E7
:2064200002A9087023482322805C0978884203D1FFE7002003903AE002A80078002804D0BD
:20644000FFE701A93020087003E001A900200870FFE71848807C002806D0FFE701980221DD
:20646000084301A90870FFE712482221405C002806D0FFE701988021084301A90870FFE71F
:206480000C49486800780968C97D012201ABFFF75BFD002804D0FFE70020C043039006E02D
:2064A000029804492322885400200390FFE7039804B080BD9404202080B588B007AA107039
:2064C00006A801700078002806D0FFE705A9402008700798487005E005A90020087007989A
:2064E0004870FFE704A802F061F81848029005A90222019200F06AFE0199029802F030FC06
:20650000FFE7124802F0EEFD8006002801D4FFE7F7E70E483C210022022301F0F1F8FFE75D
:206520000A48022102F07CFC00280DD1FFE703A802F03CF8039804990A31884203D3FFE7C6
:2065400000F014FE00E0EBE708B080BD00000F4080B588B0014606A801801D4905911D49FE
:2065600004911D4903910088C92804DBFFE70020C043079029E006A80188C82001F02EFC51
:20658000411E02A8018040786A4610700298507012480221FFF74AFE002804D0FFE7002072
:2065A000C043079011E00E480C2103AAFFF73EFE002804D0FFE70020C043079005E00698CF
:2065C0000849888100200790FFE7079808B080BDBBAFDFDFAAF1DFDFFEF2ABC41602000038
:2065E000C10A0000FC04202082B00190019800214056012804DBFFE76946002008803AE01E
:20660000019800214056002804D5FFE76946042008802FE0019801214056012804DBFFE79A
:2066200069460120088024E0019801214056002804D5FFE769460520088019E001980221B5
:206640004056012804DBFFE76946022008800EE0019802214056002804D5FFE76946062061
:20666000088003E0694607200880FFE7FFE7FFE7FFE7FFE7FFE76846008802B0704700004E
:2066800080B586B0059005981E49884203D3FFE71D480590FFE70599502048430590002042
:2066A0000090049002F030FE014600980391029001A90870FFE702F027FE029002980399AA
:2066C000884204D9FFE701A901200870FFE701A80078002807D0FFE703980299401A0B491A
:2066E0004018049004E003980299401A0490FFE704980599884201D3FFE700E0DBE706B0AA
:2067000080BDC0463433030033330300FFFFFF0080B584B01E491F48039002F041FA0398D4
:206720001D49FEF781FC03980023019319461A4601F04CFC019B0398009319461A4602F0BC
:20674000CFFB019A0398114602F01CFA019A0398114602F08DFD019B039801210291009154
:2067600019461A4602F0BCFB0199029A039802F009FA0199029A039802F07AFD039802F024
:20678000E3FC0398032102F0E9FC04B080BDC046FAAB000000808640B8AB0000FCB4012767
:2067A000FF0706004E4001D4002600E03E00020243001B0E30D03A43FF2B30D00C024D00B4
:2067C0002D0E29D03C43FF2D29D05B194240504042404C4061404C4000B501F0C9FC20BCD9
:2067E000AE464240504042404C4061404C4025001400002C01D46400013B803401D30133C2
:2068000064087E3B08DDFF2B09D2BC43200ADB0518433043FCBC70470020FCBC7047FF2075
:20682000C0053043FCBC704780B586B005900598C078C021084003A908700598C0783F215A
:20684000084004A9087005984078C007002819D0FFE704A80178C90802AA117000780721F5
:206860000840401C01A9087011480068002808D0FFE70F48026802A8007801A909789047C6
:20688000FFE7FFE705984078000700280DD5FFE707484068002807D0FFE70548416803A863
:2068A000007880098847FFE7FFE7002006B080BDFC04202080B58AB0099008910898099906
:2068C000FFF738F9014617480590016016490968039100680190154906910968FFF72AF919
:2068E0000199029012480068FFF758FF0299024603980492FFF752FF0499FFF720F901460F
:206900000C4807900068FFF71AF90599069A03460798036009681160006801F047FC0AB05A
:2069200080BDC04674032020B805202090052020B00520209805202080B58AB00990089118
