:2000000000802020F34E00008D3300008D330000000000000000000000000000000000005F
:200020000000000000000000000000008D33000000000000000000008D3300008D33000080
:200040008D330000DD1A0000294700008D3300008D3300008D3300008D3300008D330000B9
:20006000000000008D3300008D33000000000000000000008D330000B93D00008D3300008A
:20008000751200008D3300008D3300008D3300008D3300008D330000000000000000000019
:2000A0008D3300008D33000000000000000000008D330000000000008D3300008D33000080
:2000C000F0B5FFB08EB0049306920646929802900025E84305908C913468204604F0A1FEC0
:2000E00021188B9503918C4200D3BBE00020879087A908738890059889902F46049D207879
:20010000002800D1AFE0252805D0641C34600699A8477F1CF3E78B97601C306087AC204657
:20012000314600F0A7F88CAA2046314600F0BFF8306801787A2925D0682919D06A2908D071
:200140006C290ED0742908D04C2922D1879980221BE087990122D20217E0879901225203EC
:2001600013E0427887996C2A64D10122120205E042788799682A60D101225202114387914B
:20018000801C05E08799012212030A438792401C0178441C346087A8017373291FD06E2992
:2001A00029D1879832490840202850D040283CD001214A03904238D04A02904242D0CA0242
:2001C000904205D00A0390422FD0090288422CD1F8178C9904C98C91176050603BE087A839
:2001E0000078400619D4009587A88CAA8BAB069900F01DF92FE007AD87A98CAA284600F0F8
:200200006DF9024628460699029B9847411C059D00D0C5198B9503991FE0009587A88CAA45
:200220008BAB069900F09FF815E08C9802C88C900F6010E0401C402201E0401C2022114373
:200240008791A5E78C9802C88C900F7003E08C9802C88C900F8003998B9D681C00D042E7B4
:20026000059F00E02F4638467FB00EB0F0BDC046603F000010B50A681378302B0FD0232B7E
:2002800007D02B2B09D02D2B05D0202B0ED1042306E0082304E0012302E0022300E01023A7
:2002A00004681C430460521C0A60E5E710BDFEB516460D460446086802782A2A10D130683B
:2002C000011D316000686060002805D54042606020680121014321602868471C2F6017E01B
:2002E0000021303A092A08D84218531C2B60435C6F467B545278491CF3E76A460023535466
:2003000012784718002A03D0684603F01FFE606038782E2826D1781C286079782A2908D143
:200320003068011D31600068A0602868401C2860FEBD00203039092908D839188A1C2A60C3
:200340004A786B461A548978401CF3E76A46002111541078002804D0684603F0F7FDA06036
:20036000FEBDA160FEBDF0B587B01E460C9F13681C1D14601D68002D3BD00491069084681F
:20038000002C04D4284604F03DFD844203D3284604F038FD044606984068A042039000DCA9
:2003A000204601463068019140180296306005940398A0420EDD06980078C0070AD1059890
:2003C00001990E1A0024B44204DA20200499B847641CF8E70026049C069805998E420BDA71
:2003E0002868010A19D12D1DC0B22146B847761CF2E70020B84718E00599039A8A4214DDDC
:200400000078C00711D00198451A0024AC420CDA20200499B847641CF8E70020C0430299D3
:20042000086004F051FD5821016007B0F0BDF0B585B00C4606460A9D1068011D1160006846
:200440000490002844D00393B768002F04D4049804F0E7FC874203D3049804F0E2FC074643
:2004600002967268BA42114600DC3946039B18680091401818600192BA420FDD0298007850
:20048000C0070BD10098C01B039000260398864204DA20202146A847761CF7E70026BE4220
:2004A00005DA0498805D2146A847761CF7E70198B84210DD02980078C0070CD00098C61B70
:2004C0000027B74207DA20202146A8477F1CF8E700202146A84705B0F0BDC046F0B589B04F
:2004E00001920F460446FF210846FA30251878680290002607960391FE31202220460092C3
:2005000004F088FC7F20800006942118089104952E713D46387B0246613A172A2AD8012320
:2005200093402C46B44D2B42254608D007A908AA2846019B00F066F900260596B3E0712520
:200540002B42254622D1022A14D1019B1868021D1A600068C2B2534253410593039AFC32A2
:20056000069B9A18089208702868022188432860002698E001464539032907D3252860D02A
:20058000412803D058280596D0D08DE0019A1068C11D0720814308460830106005C9D14343
:2005A0002F7B4900490D0BD17B3F944911400143049C2CD01920C1438F4234D36E2033E098
:2005C000002A01D4114602E00121C9075140D60F002205923A46413A062A0BD9613F062FDE
:2005E00061D8C0467F443F797F00BF440B5C5C5C3B3631007A441279520097440354545489
:20060000332E290008AB2A4600F01EFC4BE0002311461A46059303F03DF81921C9438F4247
:2006200025D3662224E04E20E0708F4201D3612100E04121A17008946070002005900226B5
:2006400031E0002006994870252008700120A1E008AB2A4600F008FF25E008AB2A4603F07E
:2006600083F920E008AB2A4601F028FC1BE04622E2708F4201D36E2200E04E22A2708F42A9
:2006800001D3692100E0492161703F21C900069A51180891002803D02D202070042602E032
:2006A0002B2020700326287B012701466F39092904D801228A4052490A4201D158286BD10C
:2006C000049B029C04972946069F3D1908980C460978C90707D1191D091A62689142069F22
:2006E00001DC691A4F1C411C0398430000263846324603F0D7FF08900599002903D0411C80
:200700000891067000E00146A94206D8481E691A491C202204F07EFB2E702078C00605D408
:200720000698391A202204F075FB2EE0069887422BD00698391A3026324604F06BFB0798FA
:200740004142414104980140012905D12078400702D43846069905E03878069A511C1070C3
:20076000781C3E70227B412A0CD0582A05D0612A08D0782A01D0702A07D123781B0701D422
:20078000612A02D142784A704670069804F049FB0599401809B0F0BD002E09D0012E049BCA
:2007A000029C8FD10120079029680220084007E0079A296802200840002A09D0049B029CC5
:2007C00008994A1E08922D220A704742474179E70028049B029C08D1480700D472E70898E2
:2007E000411E0891009901706CE70898411E08912B210170002765E708C19000FFFF0F0076
:2008000043020000F8B514460F4605468068002804D4286810218843286001E00120A860E6
:20082000287B1026582808D0782806D0702804D06F2801D1082600E00A262846194600F041
:2008400055F8AA68002A09D102460A4306D12878000749D52B7B0020024612E02B7B642BCF
:2008600003D1642300290BD504E0692B08D1002906D5692301223A60002240428A4100E027
:200880000A4600941146324600F0B0F8A968884206DA401C21684A1E226030220A70F5E7DB
:2008A000287B582803D0782801D070280FD1297809070CD5702800D1782021684A1E226053
:2008C00008702068411E216030210170287B6F280AD12878000707D520684178302903D071
:2008E000411E216030210170F8BDC04610B5037B702B05D10868021D0A60006800226FE015
:200900000068384A024001204403A24222D0402A20D00402A24230D04402A24246D0C40223
:20092000A2422AD00403A24214D0202A12D100221C46643C142C06D8A0402B4C204204D10D
:20094000212420423ED1582B49D10868031D0B60008845E000221C46643C142C06D8A0407A
:20096000214C204204D1212420422BD1582B36D10868031D0B60006832E01A46643A142AF5
:2009800006D89040184A104206D12122104203D10020582B024623D10868C21D072082439B
:2009A0001046083008601068526819E000221C46643C142C0CD8A0400B4C20420AD1212415
:2009C000204205D00868021D0A600068C21707E0582B04D10868031D0B60007800E01046BE
:2009E000114610BD603F000000081200FEB501920D460646582B01D0174800E015480090B5
:200A0000089802903046284305D1029A1068411E116030210170019C3046284313D0304670
:200A20002946224600F01AF807460D46224603F027FE301A0099085C029B19684A1E1A6076
:200A400008703E46E8E70298006804F0EAF9401EFEBDC046A8590000B959000080B5102A51
:200A600006D0082A09D1C0084A078018C90880BD00090A078018090980BD002904D111467F
:200A800003F024FA002180BD002304F059F980BDF0B58BB00A460346E24906463778C819C1
:200AA0004078761CC006F9D42D2F01D02B2F01D1307801E0761E384604F0F6F901D3014667
:200AC00001E0014620394E293FD0492959D1707804F0EAF900D220384E284CD1B07804F0DB
:200AE000E3F900D22038462845D1002A01D0F01C1060F07804F0D8F900D2203849281FD13D
:200B0000307904F0D1F900D220384E2818D1707904F0CAF900D22038492811D1B07904F0AB
:200B2000C3F900D2203854280AD1F07904F0BCF900D22038002A03D0592801D10836166038
:200B40002D2F00D1C7E0BA49C6E0707804F0ACF900D2203841280ED1B07804F0A5F900D299
:200B600020384E2807D1B0490024002A00D127E1F01C106024E1002A00D013600024214636
:200B80001EE1AC490791002530280292049317D1707804F089F900D22038582810D1B07828
:200BA000A04909184978890707D42E2808D1F0789C4908184078800702D5B61C9E480790FE
:200BC0002C469C4B04F074F9411E884108909A4B059504F06DF9411E884103900A950695CD
:200BE0002B46294632782E2A03D1002939D1012135E009911446303C0A2C01D3002100E06A
:200C000001210898084201D0284611E00398002827D0844881184978890722D528460A2C8D
:200C200006D3114661391A2900D2203A1446373CE200824B99189D584C680A99059A079BC1
:200C400001F0DAFD2A46234600F001FD05460A910999002902D00698401E06900123761C3A
:200C6000C0E701202D2F099003D1C0070A9941400A91069FBC0003980028204600D1384684
:200C8000002B00D181E00899002909D01346613B1A2B01D3134601E01346203B452B09D00F
:200CA0000399002912D01346613B1A2B00D2203A502A0DD172782D2A019501D02B2A0DD1F4
:200CC000B11C0491B4780023DB430BE004963DE0049627463AE05549002471E0711C04914D
:200CE000002314462546303D092D25D800234D25AD00303C092C24D82D2A01D01E4600E021
:200D00005E423618F7177E40F61BAE42099F00D80027089939420AD10127B9028E4200D8EF
:200D200000270399394202D10A2159430B19049C611C64780491DCE70499C918491E0491EC
:200D400000232D2A019D00D15B421F18002428460A992246234602F093FC002815D10898A1
:200D6000002817D04D20800087421ADD04F0ACF822210160002428460A992246234602F083
:200D800089FC002816D12A4915E02C46029A049B0A9912E028460A993A4601F07BFE0446D0
:200DA00009E0274887420EDC04F08EF822210160214600E01D49029A049B002A00D01360B5
:200DC00020460BB0F0BD002F15D41E4C029A049B002F0ED0F80709D00CCC28460A99083C76
:200DE00001F00AFD049B029A05460A917F080834EEE72C46CCE728467C42124D029A049B57
:200E0000002C0CD0E10707D00CCD0A99083D01F07FFA049B029A0A9164080835F0E7044640
:200E2000B6E7C046305700000000F87F0000F0FF0000F07F0000244000003040385800004F
:200E4000CCFEFFFFB8580000F0B5A5B0049308920E46074600240A947E4D22462B4602F096
:200E60002DFC002813D100247B4D3846314622462B4602F019FC002809D100223846314663
:200E8000134602F0FDFB00283C46354607D10AAA2046294602F0B4FC0A98401E0A900899AC
:200EA000087B0BAE412801D06D4800E06B48099088680190302003903070002207922046B6
:200EC0002946134602F0E6FB01210028029101D0C8074540771C20462946079A134602F021
:200EE000CFFB00280DD124AA2046294602F088FC249801210A1A2046294601F0CBFD04462F
:200F00000D462046294602F0E9FE06463946059702F0FEFC0690304603F038FA03F0ADFFAD
:200F200004460D460198471C20D3059806994618002220462946134602F0A2FB002848D16B
:200F4000002220462946474B01F056FC04460D4602F0C4FE0999095C771C317003F016FA36
:200F600003F08BFF04460D463E46E1E70BA806994618002F16D07F1E002220462946394B2E
:200F800001F03AFC04460D4602F0A8FE0999095C3246761C517003F0F9F903F06EFF044694
:200FA0000D46E6E73178099C204603F0D3FE001B08280EDB0196741E089D079F099E2178B1
:200FC000304603F0C7FE801B0E2805DD2770641EF5E7089D079F04E0099908184078207002
:200FE000019E37700A98297B4129049C01D0702100E05021069E059F224602F038FDAA68BF
:20100000501C04D1384603F00CFF421EAA6038463146234603F046F9A8680028029A02D172
:2010200028680007C20F38463146234602F0F4FA287B412801D0782000E0582021684A1E4C
:20104000226008702068411E21600399017025B0F0BDC0460000F07F0000F0FFA85900003A
:20106000B95900000000304080B592B00E200821039103F0CFFB7C481090042103F046FC11
:2010800003990F200A9003F0C5FB0399109803F03DFC1220052103F0BDFB01200E90010203
:2010A00072480C9003F032FC0E98002306930193C0040890009003210B9118461A4602F067
:2010C00083FF069B089A0B990E98019300921A4602F07AFF069803F081FB0E9803F07EFBF1
:2010E00014200221059103F095FB0599152003F0EBFA0599172003F0E7FA0599342003F047
:2011000089FB0599352003F0DFFA192003F02EFC069A089B00922E20114603F05DF8069AD4
:20112000089B00922D20114603F056F8069A089B00922720114603F04FF8069A089B009213
:201140002420114603F048F8252003F00FFC262003F00CFC232003F009FC222003F006FCCB
:201160000699089B0E98009142040792362003F033F80699079A089B00913A2003F02CF8BE
:201180000699089B0E980091020404922F2003F023F8049A0699089B0091332003F01CF812
:2011A0000699079A089B0091132003F015F80699079A089B0091212003F00EF80699079A9A
:2011C000089B00913B2003F007F80699079A089B0091182003F000F805980699079A089B77
:2011E000009102F0F9FF0699079A089B00910D2002F0F2FF0699079A089B0091062002F064
:20120000EBFF0C981B214903099103F049FD09990C9803F07BFB0A990C98890403F0D6FB9E
:201220000B990C9849060D9103F0BCFA0C980D9903F0E2FA0E99109849020F9103F030FD5D
:201240000F99109803F062FB1098094903F0BEFB109811210905119103F0A4FA10981199DB
:2012600003F0CAFA12B080BD00200A4000000A400003030010B588B06B4803F075FD0028C1
:2012800000D1CEE0694907910A781320C04350434B780922D2435A4380188B780422D243C4
:2012A0005A4380180B7905225A4380184B790A225A4380188A791421514340185C490860C3
:2012C0005C4800685C49096800F05EFD07980078012819D1FFE755484078012814D1FFE748
:2012E0005248807900280FD1FFE75048407900280AD1FFE7544958488860554955488860EB
:201300004E490120086066E048484079012819D1FFE746488079012814D1FFE74348407867
:2013200000280FD1FFE74148007800280AD1FFE7454948488860464947488860404901201F
:20134000086047E03D480068002822D1FFE73C48006800281DD1FFE73A480068049034482E
:201360000590006802F0A8FE0146049801F0FEFB01460598344A91603449096806910068CB
:2013800002F09AFE0146069801F0F5FB304988601FE02A480068012805D0FFE72848006807
:2013A000012815D1FFE72148C078012810D1FFE71E48807900280BD1FFE71C48007800285A
:2013C00006D1FFE71D49002008601D490860FFE7FFE7FFE7FFE71C488168006801F098FEC0
:2013E0001E4C20601A488168006801F04FFE1C490391086020687D214A01029219490191B8
:2014000002F004FF0199029A034603982360006802F0FCFE039908600021084600F0F2FE93
:20142000FFE708B010BDC04600400840D803202004042020AC022020B00220201804202014
:201440001C042020100420207402202014042020840220200000A04000007042B40220207C
:20146000B802202060F0FFFFF0B5A3B003930F46044604929168002903D0002904D5062143
:2014800000E001210498816007910AA83021089101700025204639462A462B4602F0FAF859
:2014A00001210028059101D0C8074740624E20463946604A334602F00BF9002809D0002254
:2014C000204639465E4B00F023FF04460F466D1CEDE75A4E0022204639460992134602F0DB
:2014E000CFF8002811D1002220463946334602F0D1F8002809D0002220463946504B01F04C
:201500007BF904460F466D1EE4E702950AA8451C2046394602F0E2FB0695294602F0F8F917
:2015200007998842019004DD481C0AA90A18085C1FE0C9430E180AA90D18681C07902046A8
:20154000394602F0CBFB02F021FF02460B462046394600F077F80022394B01F04DF904463E
:201560000F4602F0BBFB079A30306870761C1546E3D3C0B23528039E049F029B099D0FD3BA
:201580001446501E0178491CCAB201703A2A03D330210170401EF5E70AA98842224640D08D
:2015A0000198C41815700220C043844202DBB868844207DD601E397B891EC9B2324602F0E1
:2015C00056FA0124069803F02CFC401E0599A0421ADB0028089A01D4069A125C1346303B99
:2015E0005D1EAB41C9431943C90705D13978090702D40025059905E031684B1E33600A7028
:2016000001250021401EE2E73868082202402A43501E824106982146334601F0FDFF23B074
:20162000F0BD501E002101700198C018441C0AA80690B8E70000C0FFFFFFDF410000F03F39
:2016400000002440FCB40124E407634002E0FCB40124E40708B41D03ED08D60D354356029D
:201660005F007F0D06D12C00344300D0AEE001B0FCBC7047A408254307242402FF34A74206
:2016800005D10020190D090501B0FCBC7047002B03D50024A61BAC4125000B03DB08C20D46
:2016A000134342024800400D07D11C00144300D08CE00EBC1000F0BC704701246407234341
:2016C00007242402FF34A04205D10020090D090501B0FCBC7047002903D50024A21A9C41AC
:2016E0002300C11B08D51C002B0025001400320026000024611A3800362925D502B43939DE
:2017000049420C00203C03D22F008F40374301E03700A740002F01D040210E4302BC2029D1
:201720000BD500290ED04C42203420B4A5402C0020BC0D41CE40361904E000292E000D41EB
:2017400020390E4192196B411C0014433ED00024002B04D5012400218A1A99410B00401EB4
:2017600052005B41FBD50121890215000D400CD0521800277B4101D3401C0BE00721C90166
:2017800015000D4001D189008A43072109028A4352005B41801C19DD07210902FF31884212
:2017A00009D30EBC0020C90F0902FF31C900C91D0905F0BC7047190B00050143E407214374
:2017C0001805120B104301B0FCBC70470021002001B0FCBC7047704710B592B0002011907C
:2017E000109002F055FA544803F0A4F901200C9002F0A0FD0C9802F09DFD0E200D9002F0A3
:2018000099FD0C9802F0ACFD0C9802F0A9FD0D9802F0A6FD10200E9002F08CFD02200F9073
:2018200002F088FD0E9802F09BFD0F9802F098FD02F07AFA00F05EFCFFE701F0B7FA3F4A12
:2018400002200B900121039108240294234601F0D9FD3B48006802F0F3FC039902460094DF
:20186000142005900523049300F0D6FE0B99354A0846234601F0C6FD3348006802F0E0FCDD
:20188000049B0B9902460598009400F0C5FE0B982E4A03210791234601F0B4FD07990B9BB1
:2018A0002B480690027800941920089000F0B4FE069807990B9B427800942620099000F09D
:2018C000ABFE069807990B9B82780094332000F0A3FE069807990B9BC2780094402000F007
:2018E0009BFE069807990B9B027900944D2000F093FE069807990B9B427900945A2000F0D1
:201900008BFE069807990B9B82790094672000F083FE08980B9B0F490A68009404210A916F
:2019200000F07AFE09980A990B9B0B4A1268009400F072FE81E7C04600208640045A0000E0
:2019400074022020005A00008402202031580000D8032020180420201C04202080B58AB0E2
:20196000014609A8017001784F48016000687B2804D1FFE74D4901200870FFE74A480068B8
:201980007D2804D1FFE7494902200870FFE74748007801280AD1FFE74348006844490B78E1
:2019A000444AD0540878401C0870FFE73F480078022876D1FFE73F48C078502804D1FFE7F3
:2019C0004449012008705EE03A484078232859D0FFE7374800900078021F36480290C11C7A
:2019E00004A8019003F074FA00990198097809180A1F0021117003F052FA01F0C9FC01466E
:201A000002982D4A1160407830380390082838D80398810001A040588746C046411A0000CE
:201A20004B1A0000551A00005F1A0000691A0000731A00007D1A00007F1A0000811A00007E
:201A40001D480068224908601BE01B4800681F49086016E0184800681B49886011E01648F7
:201A60000068184908600CE0134800681449086007E0114800681149886002E001E000E034
:201A8000FFE7FFE7FFE70949002008700849087011490870084908600648322103F0E2F9E7
:201AA000FFE70AB080BDC0460C042020230420202404202040022020080420208402202090
:201AC000EC032020F403202074022020E8032020F0032020720220202504202080B588B002
:201AE000032041065348009002F028FF524903910860112001055148029002F01FFF0146E8
:201B000000984F4A116001210191490603F07DF8019902460098531E9A4107AB1A70890627
:201B200003F073F8019902460298531E9A4106AB1A70090503F069F8019902460298531EF5
:201B40009A4105AB1A70090603F05FF8014603984A1E914104AA1170C0788007002812D5FE
:201B6000FFE707A8007806A90978884205D0FFE734490868401E086004E032490868401CC5
:201B80000860FFE718E02C48C0784007002812D5FFE707A8007806A90978884205D1FFE73A
:201BA00028490868401E086004E026490868401C0860FFE7FFE7FFE721488078C0060028F6
:201BC00012D5FFE705A8007804A90978884205D0FFE71D490868401E086004E01A4908680D
:201BE000401C0860FFE718E01548C078C007002812D0FFE705A8007804A90978884205D104
:201C0000FFE711490868401E086004E00E490868401C0860FFE7FFE7FFE703204106054876
:201C200002F0B2FD11200105044802F0ADFD08B080BDC04600000A40BC02202000200A4037
:201C4000C0022020AC022020B0022020F0B587B01D461646302405900470002710461946CE
:201C60003A463B4601F016FD0028019402D00120C00745400D9804900C9803903F4C3046F2
:201C800029463D4A234601F023FD002809D00022304629463B4B00F03BFB06460D467F1CE6
:201CA000EDE70598441C0022304629460692134601F0E6FC002811D1002230462946304BFC
:201CC00001F0E8FC002809D00022304629462D4B00F092FD06460D467F1EE4E70398C019B5
:201CE00003903046294601F0F9FF214601F010FE02942418C019049908600398471C012F3F
:201D00001ADB3046294601F0E9FF02F03FFB02460B4630462946FFF795FC0022194B00F069
:201D20006BFD06460D4601F0D9FF3030611C20707F1E0C46E5D100E02146481E0278352A3B
:201D40000DD3891E019C0A78521CD3B20A703A2B02D30C70491EF6E7059A914204D0069991
:201D60000170029807B0F0BD0699017004990868401C08600598F5E70000C0FFFFFFDF41BD
:201D80000000F03F0000244080B590B00F900E910F983E4A1168401A0D900E983C490B68C0
:201DA000C01A0C900F9810600E9808600D9839490A789300384AD0500C980A789300374A70
:201DC000D0500878401C03221040087000200B900A900990FFE70998032813DCFFE7099804
:201DE00081002D4841580B9840180B90099881002A4841580A9840180A90FFE70998401C1A
:201E00000990E8E70B9802F057F98121C905009101F002FA08900A9802F04EF9009901F08A
:201E2000FBF9079008981E49019101F0E9F802F06DF81C4A02921C4B039300F0DDFC002273
:201E400005921A4B049300F0D7FC059A184B069300F05EFA01F09CFA0199164A10600798B9
:201E600001F0CEF802F052F8029A039B00F0C4FC049B059A00F0C0FC059A069B00F048FA29
:201E800001F086FA0C49086010B080BDE0032020E403202022042020B8032020C803202061
:201EA0000000C8426B195F6A3AF1CA3F00005940006098407402202084022020F0B5A1B054
:201EC000049305469068002801D5062090600290039200243D4F2846224606913B4601F05E
:201EE000EDFB06990028264614D10026384F284632463B4601F0D8FB069900280AD1002246
:201F000028460592134601F0BBFB069B00282E461F4622D12F4D02F0BDFF01F0BBFB00282E
:201F200009D00022304639462B4B00F065FC06460F46641EEFE7284D02F0ACFF01F0BEFB35
:201F4000002807D002F0A6FF00F0E2F906460F46641CF1E735463B46059407A802990091B7
:201F6000019008A82A46FFF771FE0446079D022D0DD1059D6D1C204602F053FF2018401EE5
:201F80000021017028460125049E039F02E0049E039F0598397B324601F069FDBA68204609
:201FA0002946334602F07EF9204602F03AFF854203D138680007C20F00E001222046294654
:201FC000334601F029FB21B0F0BDC0460000F07F0000F0FF0000F03F0000244010B58CB0FD
:201FE0000BAC20700AA8017009A8027008A8037007AA002111700278520806AB1A7005AA20
:2020000011800078082804D1FFE704A90620088012E008A801780191C80802904907401CB6
:202020000029039001D102980390019803994008484304A90880FFE70998203807A90870A1
:202040000BA800780AA9097801F0FAFF05A900200880FFE705A8008804A90988884242DAA2
:20206000FFE705A8008806A9097801F02FFF00290ED1FFE708A80078082809D0FFE70BA83E
:2020800000780AAB19784A1C1A7001F0D9FFFFE708A8007808280DD1FFE707A80078062179
:2020A00041431348401805A90988405C012100F0CDFE12E008A8007810280CD1FFE707A86D
:2020C000007801010948401805A90988405C012100F0BCFE00E006E0FFE7FFE70598401CAB
:2020E00005A90880B6E70CB010BDC046104F00000055000080B584B0414802F099FB00282A
:2021000003D1FFE701F0EEFAFFE7C820009002F0E1F8AE200021039100F098FE0399084610
:2021200000F094FE0399102000F090FE03994020019000F08BFE0399812000F087FE03997F
:20214000CF2000F083FE0399A12000F07FFE0098039900F07BFE0399A620029000F076FE60
:202160000399A82000F072FE03993F2000F06EFE0399D32000F06AFE0399084600F066FE1F
:202180000399D52000F062FE0399802000F05EFE0399D92000F05AFE0399F12000F056FE08
:2021A0000399DA2000F052FE0399122000F04EFE0399DB2000F04AFE0198039900F046FE07
:2021C0000399202000F042FE0399022000F03EFE03998D2000F03AFE0399142000F036FEA4
:2021E0000399A42000F032FE0298039900F02EFE01F040F90399AF2000F028FE04B080BD71
:2022000000000F4080B58EB00D900C910D9801281DDBFFE701200A9041033B480B9002F007
:20222000BDFB0A990B98890302F026FD0D98012803DBFFE70D98099003E00D98404209908C
:20224000FFE709993148002202F0CCFD1CE00120079081032C48089002F0A0FB079908988F
:20226000490302F009FD0D98012803DBFFE70D98069003E00D9840420690FFE706992348BD
:20228000002202F0AFFDFFE70C9801281DDBFFE70120049001041C48059002F07FFB049931
:2022A0000598490402F0E8FC0C98012803DBFFE70C98039003E00C9840420390FFE7039978
:2022C0001248012202F08EFD1CE00120019041040D48029002F062FB01990298090402F0A8
:2022E000CBFC0C98012803DBFFE70C98009003E00C9840420090FFE700990448012202F0D9
:2023000071FDFFE70EB080BD00000A4000208640FCB40C005C40E40FE40710B41D032D0BEC
:2023200056006D415F007F0D73D001246405254307242402FF34A74261D00B031B0B420061
:202340005B414800400D64D001246405234307242402FF34A04252D0C01B0021002736241F
:20236000AB4200D1B24204D37F414941921BAB4101E07F414941641E06D0002B01D1002A47
:2023800002D052005B41EBE7202C07D2162C0AD33900A7402026361BF1400BE0203C3900FF
:2023A000A140002706E0A1402026361B3D00F5402943A74001246405214202D17F00494125
:2023C000401E00247F1C61410124A405214202D0401CA14301E06408A14303242402FF344A
:2023E000001916DD2419A04209D8CC074908000501437808204310BC2143FCBC704702BC24
:202400000020C90F0902FF21C900C91D0905FCBC70470021002001B0FCBC7047F0B5394AE4
:202420008218394BC0183A4D4C790B79002C22D0466F202B02D00524E70100E0354F2E4003
:20244000002B00D188273E434667846F2C403C438467446B2D4E34404463846B344084634B
:2024600000244465846554688F26F643344054609468344094600C688979202B09D006468A
:202480007036002B15D1641E4460C46E2C40882715E0641E4460C46E2C401E4E3443C4664C
:2024A000046F2C40344304671B4D01246707064607E00527FF0164084460C46E2C403C43D4
:2024C000C46634682C403C433460C46A0F4D2C40C462046B2C4004630024C4640465C46F71
:2024E0008F25ED432C40C46714682C401460194302680A4B1340BD220A40D118891C01607F
:20250000F0BDC04684180000041800008888FDFF24493E0001040000FFFFFFCF4000FFCFBA
:20252000F0B597B03248109000683249119100F067FD01F01BFE119916902F4812900068E1
:2025400000F05EFD01F012FE1199024610981592806800F055FD01F009FE11990246129830
:202560001492806800F04CFD01F000FE139023480078012830D1FFE72248006801F0C6FC8A
:202580000B900C912048006801F0C0FC0E900D911E48006801F0BAFC04460D461C4800686C
:2025A00001F0B4FC0B9A0C9B06460F460D9900200F900A9009900890079006900E980597EE
:2025C00004960395029401910090124801F046F90F980A49087008E01699159A149B139875
:2025E0000090074801F03AF9FFE717B0F0BDC0467402202000007A4484022020720220208A
:20260000CA590000F0032020E8032020F4032020EC03202028590000B0B58CB002910446D4
:20262000029810990BAD2C700AAC2070099208A8037007A8017004AA0021117003AA117061
:202640000078082804D1FFE704A902200870FFE706A900200870FFE706A8007808A9097865
:20266000884252DAFFE70998009008990698C0434018C1B20A20019001F044FE0146009873
:2026800001F024FC019901F021FC05A8017003A80078002822D1FFE706A8007808A90978E7
:2026A000491E88421ADAFFE705A80078002810D1FFE70B9807A90B785908049A8A180699E5
:2026C000514340180AA90978C0B22022FFF786FC16E003A901200870FFE7FFE70B9807A954
:2026E0000B785908049A8A180699514340180AA90978059A3032C0B2D2B2FFF76FFCFFE7B9
:202700000698401C06A90870A6E70CB0B0BD7047B0B5364A80184A6842600A78222A56D85E
:20272000930001A4E3589F46C5270000CF270000C5270000CF270000CF270000CF27000091
:20274000CF270000CF270000CF270000CF270000CF270000CF270000CF270000CF270000C9
:20276000CF270000CF270000B5270000CF270000B5270000CF270000CF270000CF270000DD
:20278000CF270000CF270000CF270000CF270000CF270000CF270000CF270000CF27000089
:2027A000CF270000CF270000B5270000CF270000B5270000036803242407A343012464074C
:2027C0001B1903E0036803242407A34303600B69C360CB68C46A064D2540064C1C402B193A
:2027E000C362097A11430160B0BDC046041800008888FDFF77770200FCB50C005C40E40FA5
:20280000E40710B4DD02540D2543D6025F007F0D60D00124E407254307242402FF34A74289
:2028200050D0CB02440D2343C2024800400D51D00124E407234307242402FF34A04241D08D
:20284000C01901B41800290001F072FC0F0001B41800310001F06CFC03000C001000310094
:2028600001F066FC06001000290001F061FC05007618002202BC01BC55415141A4195541CD
:2028800051418024A4005B195141FF18514100D564003F19514102D47F00494100E0401C71
:2028A00003242402FF34001B14DD2419A04209D80305F80A4C0520434900090B194310BC49
:2028C0002143FCBD0020FF21C900C91D090510BC2143FCBD0021002001B0FCBD80B586B0DF
:2028E0000021019105912E4801F0A6FE01990246C820821A04A80270039100782949097801
:20290000884207D0FFE729490120087002F0A4FA05903FE00598009002F09EFA014600984B
:20292000401A00022049884233D3FFE71F48007801282ED1FFE71D49002008701C48007855
:2029400002A90870FFE702A8007804A9097888420CDAFFE702A801781648405CFEF7FEFF79
:20296000FFE70298401C02A90870ECE704981049087004A8007864280ADBFFE704A90020D0
:2029800008700B4908700749087001F0CDF9FFE7FFE7FFE704980349087006B080BDC04669
:2029A00000A04240210420200080380120042020DF03202000002020F0B584B03049314A44
:2029C0000125AC0316682B0203939E4316600E68264205D10E68264202D10E682642F6D081
:2029E0006C02467E9769AF432E40BD1995612025455DD6690327BE433D407519D561224D78
:202A00002E680727374005262E60466A33681362736853622F60C3695B065B0CD5697F260C
:202A20003602B543EB18D361E8C8009707680197476802971B071B0B2D03ADB2ED18330783
:202A40001B0D007A009E35431D43019B1D43029B1D43054390690D4B03400D482840C018F4
:202A600090611068039B184310600868204205D10868204202D108682042F6D004B0F0BD3E
:202A800004020B4008010B40001340408D00F0FF72FF0F00F8B515462A4E0A0D771C3A405E
:202AA000294B9A4213D00C46002A18D10122D2079443044344D00022244BFFF79DFE0C46DC
:202AC00023498D4208DC234A234B214636E002460B46FEF7BCFDF8BD220D3A40363A511900
:202AE000B1420ADD02F0F0F9222101600120C00704401D4821180020F8BD012904DB174A74
:202B0000144009052143F8BD3522D24391420CDC02F0DAF92221016012488542E6DA0120A8
:202B2000C007044000202146F8BD0C4A144009051B225205891821430022094BFFF75CFE37
:202B4000F8BDC046FE070000FF07000000005043AF3CFFFF59F3F8C21F6EA501FFFF0F806D
:202B60000000903C51C300000000F07FFCB40127FF07794002E0FCB40127FF070C024D0054
:202B80002D0E03D1002C52D1FCBC70473C43FF2D50D0A408002900D56442020243001B0EDD
:202BA00004D1002A43D10800FCBC70473A43FF2B41D09208002800D552425E1B04D517003F
:202BC00022003C0076422B00192E06D527003741D2191C27F71B7F42BC40002A27D002D5FE
:202BE0005242012700E00027013B5200FCD51500802635400FD01500202635402C438032B3
:202C000008D21500402635402C4304D101263602B24300E05B1C5200023308DDFF2B0BD288
:202C2000500ADB051843FF073843FCBC70470020FCBC70470800C70FFF07FF20C00538433D
:202C4000FCBC704780B58AB02548009001F09AFE2448019001F096FE2348029001F052FF4F
:202C60002248039001F04EFF2148049001F04AFF2048059001F046FF1F48069001F012FFB0
:202C80001E48079001F092FF1D48089001F08EFF1C48099001F08AFF009801F043FE019860
:202CA00001F040FE029801F021FF039801F01EFF049801F01BFF059801F018FF069801F0B6
:202CC000CDFE079801F05AFF089801F057FF099801F054FF102002F0CBF80AB080BDC04692
:202CE00000000A4000200A400020864000008640004008400000094000000F400080104084
:202D00000000104000201040F0B58B4200D1824204D90B0002000021002040E0002B00D1A5
:202D2000002A0CD10B00020000210020002B00D1002A01D0C943C043FFF7E9FC2FE01C0032
:202D400015000B0002000CB4002126002F00FF19764102D2491C4029F9D100201E0017008B
:202D6000FF19764102D2401C4028F9D10E1A21002800320001F0F8FC0C0005000CBC0020A1
:202D80000021A34200D1AA4201D3521BA341404149416D08E7073D436408761EF1D5059FF3
:202DA000002F01D03A607B60F0BD704710B584B00120019041022248029001F01BFF0199AB
:202DC00002460298531E9A411E4B03931A70090301F010FF0199039B02460298541EA241C1
:202DE0005A70C90601F006FF039A014601984B1E994191700102144801F0FCFE0199039B01
:202E000002460298541EA241DA70090701F0F2FE039A014602984B1E99411171802101F06B
:202E2000E9FE039A014602984B1E99415171042101F0E0FE0399421E9041887104B010BDED
:202E400000000A40D803202000200A4080B588B007AA107006A801700078002806D0FFE78A
:202E600005A9402008700798487005E005A90020087007984870FFE704A801F0B3FA184863
:202E8000029005A90222019200F05CFC0199029801F0A8FDFFE7124801F00CFF800600283F
:202EA00001D4FFE7F7E70E483C210022022300F007FEFFE70A48022101F0DCFD00280DD15F
:202EC000FFE703A801F08EFA039804990A31884203D3FFE700F006FC00E0EBE708B080BD56
:202EE00000000F4080B586B0059005981E49884203D3FFE71D480590FFE705995020484380
:202F0000059000200090049001F0A6FF014600980391029001A90870FFE701F09DFF029016
:202F200002980399884204D9FFE701A901200870FFE701A80078002807D0FFE70398029969
:202F4000401A0B494018049004E003980299401A0490FFE704980599884201D3FFE700E04B
:202F6000DBE706B080BDC0463433030033330300FFFFFF0080B584B01E491F48039001F00B
:202F80009DFC03981D49FFF749FA03980023019319461A4601F036F8019B03980093194605
:202FA0001A4601F0BBFD019A0398114601F078FC019A0398114601F015FF019B039801212B
:202FC0000291009119461A4601F0A8FD0199029A039801F065FC0199029A039801F002FF92
:202FE000039801F08FFE0398032101F095FE04B080BDC046085A00000020864028570000B7
:20300000FCB40127FF0706004E4001D4002600E03E00020243001B0E30D03A43FF2B30D00E
:203020000C024D002D0E29D03C43FF2D29D05B194240504042404C4061404C4000B501F0F6
:2030400077F820BCAE464240504042404C4061404C4025001400002C01D46400013B803456
:2030600001D3013364087E3B08DDFF2B09D2BC43200ADB0518433043FCBC70470020FCBC1B
:203080007047FF20C0053043FCBC704780B58AB00990089108980999FFF768FD01461748CF
:2030A0000590016016490968039100680190154906910968FFF75AFD01990290124800681C
:2030C000FFF79EFF0299024603980492FFF798FF0499FFF750FD01460C4807900068FFF74C
:2030E0004AFD0599069A03460798036009681160006801F03BF80AB080BDC04694022020BF
:20310000F403202098022020EC0320209C02202080B58AB00990089108980999FFF726FD95
:20312000014617480590016016490968039100680190154906910968FFF718FD01990290F9
:2031400012480068FFF75CFF0299024603980492FFF756FF0499FFF70EFD01460C4807902D
:203160000068FFF708FD0599069A03460798036009681160006800F0F9FF0AB080BDC04634
:20318000A0022020F0032020A4022020E8032020A802202070B582B0024601A802700091D4
:2031A00000214056002816D4FFE7002401A908570322D3431840174A805809578C07E50E81
:2031C000FF24AC40A043009CA401E4B2AC402043194088501AE001A908780F2420400838AF
:2031E0000322D34318400A4A8058002549578D07EE0EFF25B540A843009DAD01EDB2B540D8
:2032000028432140083919408850FFE702B070BD1CED00E000E400E0FCB40127FF0706001A
:203220004E40F60FF607020243001B0E2DD03A43FF2B2DD00C024D002D0E26D03C43FF2DB6
:2032400026D05B1B0020202164085208A2424041A24200D3121B013904D0002A01D0520037
:20326000F4D18840384201D14000013B803001D3013300E040007F3307DDFF2B08D2400A3D
:20328000DB0518433043FCBC70470020FCBC7047FF20C0053043FCBC70470000F8B5451CAE
:2032A00000780023082B32D02F78C2070CD16A780F241440E41C122C0BD102242E57F4B21D
:2032C000002E08D4EE1C0EE06D1C4A1C0F7011461AE0AE1C08E02E1DED7800957F252C4026
:2032E000009DED012C1912343D0112095219094DAA420ED0D243002C05D08D5C4F1C0D70ED
:20330000641E3946F7E7354640085B1CCAE72846C5E7F8BDFF0F0000FEB502930F46194D03
:203320000024E143184E00973740019043422B46BB4101D20C4623E0084602990E4053425A
:20334000B54101D204461BE0134601990B433E431E43029D009E13D02B46334004D40199C6
:203360008B1A3346AB4103E00199531A2B46B341044605DB51406E400E43701E864134466B
:203380002046FEBD0000F07FFFFFFF7FFFE7FEE70CB41B4B4A00D21A1BD2000D0A031043A0
:2033A00001221202801802D3400812038918400A002902D50122D20710434900490D3822D9
:2033C0001201891A0CD4FF290DD2C90508430CBC7047DB431A40024305D0D8430CBC70478C
:2033E00000200CBC7047C90FC907FF20C00508430CBC7047C046C046C046C046C046C046B4
:203400000000E0FFB0B586B005AC207004A80170039202A8037001A900200870FFE703985F
:2034200001A90978405C002822D0FFE705A8007804A90978039A01AD2B785C1C2C70D25C42
:2034400002AB00931B78FEF7C9FD00980078082805D1FFE70598801D05A9087007E002A8F1
:20346000007841080598401805A90870FFE7D6E706B0B0BD80B584B003A900200870FFE717
:2034800003A80078072828DCFFE70398B030C0B200210191FFF7DAFC01990846FFF7D6FCD4
:2034A00001991020FFF7D2FC019802A90870FFE702A800787F280ADCFFE700200121FFF70F
:2034C000C5FCFFE70298401C02A90870F0E7FFE70398401C03A90870D2E704B080BD0000AA
:2034E00080B584B015491648039001F0E7F903981449FEF793FF03980023029319461A46B2
:2035000000F080FD029B0398009319461A4601F005FB029A0398114601F0C2F9029A039852
:203520007D21C90001F05EFC039801F0EBFB0398012101F0F1FB04B080BDC0460B5A000071
:2035400000008640F859000080B582B015491648019001F01BFC0198144900F009FC019814
:20356000002101F0F1F8019815212D2200F01EFB01980121009101F0AFF900990198890287
:2035800001F0E4FA019801F0EDFA0198202100F0CBFF0099019801F061F8019801F04BFB0B
:2035A00002B080BD185A000000001040EE590000F8B50446164F174D0E462E4001200094DC
:2035C00064423C46B4411AD31D405442AF4116D31046009C20433543054311D00020C043FC
:2035E0001C460C400ED4009CA41A0C469C4106DB0098504059400143481E81410846F8BDA1
:203600000020F8BD009C141B1C468C41F0DAF6E70000F07FFFFFFF7FF8B51C4617460E4689
:20362000054601F0FEFB0021012E03DBB04201DBA919491E002F04D02268531E23602E235E
:2036400013703246824206DD23685F1E276030271F70521EF6E7B04200DB3046012808DBB7
:20366000A9420BD308782268531E23601070491EF6E72068411E216030210170F8BD0000E0
:2036800010B5FFF795FF002801D0002010BD012010BDC04610B5FFF78BFF002801DB002098
:2036A00010BD012010BDC04610B5FFF781FF002801DD002010BD012010BDC04610B5FFF76C
:2036C0002BFE002801DA002010BD012010BDC04610B5FFF721FE002801DC002010BD0120F0
:2036E00010BD000080B584B003A90020087000F087FBFFE7124801900221009101F0C6FAA8
:203700000120029000F0E6FD0099019801F052F9029800F0DFFD0198029901F081FA002887
:2037200001D0FFE708E0FFE70398401C03A90870C0B26428DEDBFFE700F042F904B080BD30
:2037400000000A40F0B581B0002A22D091235B01C3180F200402901E0090561E0020DF69F3
:2037600027421BD00F5C1F60864210D0DF69274211D00F187D781D60009D854207D0DD69B7
:2037800025420AD0BD781D60C01C8242E7D1104604E0002002E0401C00E0801C80B201B0E7
:2037A000F0BD000080B582B012491348019001F0EDFA0198114900F0DBFA0198002100F074
:2037C000C3FF019815212D2200F0F0F9019801F0C9F90198702100F0A7FE0198022100F079
:2037E000B7FE019801F032FA019801F024FA02B080BDC046145A000000801040DA59000050
:2038000070B514460F4D0B462B40002222600E4EB34215D81E46064312D01E0D07D100227B
:203820000A4BFEF7E9FF0D403522D2432B461B0D9A18074BD2182260064A0A400649511842
:2038400070BDC046FFFFFF7FFFFFEF7F0000504302FCFFFFFFFF0F800000E03F83B01EB50C
:2038600005AC0EC401900F48006880470E4A9069401C0DD005A902910C48009018320C4B5E
:2038800001A8FCF71DFC04460A480068804704E00848006880470020C44320461EBC02BC20
:2038A00003B00847FC032020C8022020E14E0000D94E00000004202080B582B01249134806
:2038C000019000F0A6FE01980321490200F08EFE019801F093F8019801F0F6F901980921EE
:2038E00001F0ECF801980021009100F0F5FD0099019800F0DDFD019801F098F8019801F026
:2039000089F802B080BDC0463658000000000F40F0B587B00191064602AD0020E874123528
:2039200037460A243846214600F076F84443391BCA175140891A3031297009376D1E122FA3
:203940000746EED8002E01D46D1C01E02D20287002A8441B224614320198294601F0B8FAA0
:203960001334204607B0F0BDF0B5FFB086B01C4615460246A868002801D50620A8602368E0
:20398000039304AB0090019305A80B46FEF75EF90646049FAA683946234600F083FC206894
:2039A0000399814201D0012202E028680007C20F304639462346FFF72FFE7FB006B0F0BD57
:2039C00080B588B01348069001F060F800230793019301200590C004039000900321049199
:2039E00018461A4600F0D2FA039A04990598079B019300921A4600F0C9FA079800F0E0FE2E
:203A0000059800F0DDFE069801F01CF8079808B080BDC04600000F401CB5002922D04C0872
:203A2000002900D5494242105440002800D5404200230A00904201D95200FBE790425B411D
:203A4000904200D3801A914201D25208F6E71900002C00D54042640000D5494202000800E0
:203A600011001CBD01000020FDF7B5FE1CBD7CB515460C460646C01731464140081A00920E
:203A800000210A226423FCF7B1FF30460930122808D8DF202040502804D02868411E2960C3
:203AA00030210170002E01D42B2000E02D2029684A1E2A6008702868411E296004707CBDA9
:203AC00010B586B00192024601980592049103AA107002A8038005980949401804994900C4
:203AE00012781143074A00F093FC05980649401802990904C91D054A00F08AFC06B010BDFE
:203B000010120000FF070000141200000700FF0F80B584B003900291039801F089F96946F6
:203B2000088001A900200880FFE701A800886946098888420DDAFFE7039801A90988415C4A
:203B4000064800F0E1FDFFE70198401C01A90880EBE76846008804B080BDC04600201040CD
:203B6000F0B581B00646536894689589D0890090176950691C432C433C43009B18430001E8
:203B800020430B01F3180924640218511078527889007118024304480B58BF24A34322402C
:203BA0009A180A5001B0F0BD1011000080B584B003900291019203980B49401802990B4A21
:203BC00000F03AFC03980A49401801993F2200F033FC0399074A881889580122114000F08D
:203BE0002BFC04B080BDC04610110000FFFF0000141100000411000080B582B00020019036
:203C000000F068FF01200090400200F06DFD019800F01CFE01F0D6F801F060F80848FEF710
:203C2000CBFE102000F020FE01F062F8019800F00BF900980199FFF7ADFA02B080BDC046E1
:203C40000059000080B582B00E490F48019001F09DF801980D4900F08BF80198002100F0D3
:203C600073FD0198412189001B22FFF79FFF01980121890200F06AFF019800F0DCFF02B0CA
:203C800080BDC046165A000000201040E459000080B5FEF7D7FFFDF7E7F9FFF7ADFFFFF758
:203CA00069F9FFF71DFC00F0E9F900F0EFF8FFF703FEFFF777FDFFF747FCFFF7C3FF01F0A7
:203CC000C5F801F097F80349B822002088540249885480BDC8002020840120200CB54A0049
:203CE000520D03231B02FF33D21A13D31F239A1A12D98E46C9020123DB071943D1400B2AF6
:203D000002D21532D04001437346002B00D5494208000CBD00200CBD0B000120C007002B18
:203D200000D401380CBD000080B582B00D4800900021019100F034FC009801990A4A00F018
:203D4000A3FB00980199094A00F08AFB00980199C82200F08FFA0098019900F034FC02B032
:203D600080BDC04600A04240243110400000202070B511221302C218C4580125AC43C4506D
:203D80000C888D7825438C882C43C558084E2E40084D25407419C4508879CB790343087A56
:203DA000184351687E23994318400818506070BDE798FDFF1867000080B582B00D4800F077
:203DC000DCFF014601910B2804D0FFE7019810280AD00CE0074800F0A9FF074B1A78511C73
:203DE00019700649885403E0FFF79EFFFFE7FFE702B080BD002010402604202000002020C4
:203E000080B586B00E4800F041FE0120029000F0A1FD0298002205920092C3041046114618
:203E200000F0C0F9074803900221049100F02EFF0398049900F05EFD059806B080BDC04609
:203E400000000F4000000A4010B50E490E4A01235C0590600868204205D10868204202D193
:203E600008682042F6D010681B04034313600868C00605D40868C00602D40868C006F6D53E
:203E800010BDC04604020B4004010B4080B582B00B490C48019000F011FD01980A49FEF72F
:203EA00037FC01980121009100F0ECFC00990220FFF770F9019800F025FF02B080BDC046EF
:203EC000115A000000000940945900001CB50A0017D000230124E407A04200D204009442BE
:203EE00001D95200FBE790425B41904200D3801A914201D25208F6E71900020008001100F6
:203F00001CBD01000020FDF766FC1CBD08B443001B0E0FD0FF2B11D00721C9015B18C10F31
:203F2000C9020B43010048074902090B1B05194308BC70470021002008BC704701004002C3
:203F4000C90DC900C91D090508BC704710B50E4902788B185B78401CDB06F9D400212D2AC5
:203F600004D02B2A02D0401E134600E00378303B092B04D80A244C431919401CF6E72D2A3A
:203F800000D14942084610BD3057000010B584B0079C069C03900291019200930298019965
:203FA00008430099084306990843079908430449084303998900034A885004B010BDC04694
:203FC000800004000480424010B584B0079C069C03900291019200930298019908430099B5
:203FE000084306990843079908430449084303998900034A885004B010BDC04680000400B4
:204000000480424010B586B001930B4601460198059104A90B8003AB1A8002AA10800598EB
:20402000054C001909881B88194312881143034A00F002FA06B010BD0418000080FF000041
:2040400080B584B003AA0092107002A801700298B030C0B200210191FEF7F8FE0098019961
:20406000007800091030FEF7F1FE0098019900780F221040FEF7EAFE04B080BD80B582B03B
:204080000A490B48019000F019FC01980949FEF73FFB0198012100F0F5FB10200021FFF7E8
:2040A00079F8019800F02EFE02B080BD0E5A0000004008408059000006B49E22002802D4AA
:2040C00004D106BC7047414204D400E00100013A4900FCD5803101D3013200E04900490ACD
:2040E000D2051143002802D50122D2071143080006BC704770B50A480A4C84420CD00A4DFF
:204100000A4EB54208D02A686968501C12789200A25890470835F4E700BF00BF70BDC046F3
:20412000705A0000645A0000785A0000885A0000FCB4020C0B0CFF242402FF342040214031
:204140000C00444315005D4306005E430F005743320C3B0CA818C01832043B040025A11857
:204160006841C9186841FCBC7047000006B54100090E7F390DD41F22511A0CD98646000292
:204180000122D2071043C8407246002A00D5404206BD002006BD02000120C007002A00D401
:2041A000401E06BD10B584B0069C03900291019200930298019908430099084306990843AA
:2041C0000349084303998900024A885004B010BD810004000480424010B584B0069C0390C5
:2041E00002910192009302980199084300990843069908430349084303998900024A8850D9
:2042000004B010BD810004000480424084B002900191009202980099884203DDFFE700984D
:2042200003900AE002980199884203DAFFE70198039002E002980390FFE7039804B0704719
:2042400006B5002803D57346FFF790FF06BD4100090E7F3908D31F22511A07D3000201220C
:20426000D2071043C84006BD002006BD0020401E06BD000085B000920A4600990192024698
:204280000198049203AA107002A8018000880499127812018918024A885005B07047C0469E
:2042A0000C120000F8B51C4615460646571800F0B8FD711E012D0CDB3022012F02DB87424A
:2042C00000DCCA5D23685E1E26601A707F1E6D1EF0E7F8BD80B582B0019000200090FFE782
:2042E00000980749884208DCFFE70198FEF7FAFDFFE70098401C0090F2E702B080BDC04685
:20430000E703000083B002AA107001A8017001200090FFE701AA1078411E1170002806D092
:20432000FFE702A80078009948430090F2E7009803B0704781B00146684601700021405698
:20434000002809D4FFE7684601781F2001400120884002490860FFE701B0704780E200E09F
:2043600081B001466846017000214056002809D4FFE7684601781F20014001208840024929
:204380000860FFE701B0704700E100E004B40422002802D1002104BC704701D508324042A3
:2043A00012021F320100521E4900FCD30805090B1205114304BC704780B582B00190009183
:2043C000FFE7074800F0E6FB002801D0FFE7F8E701A80178024800F097F9019802B080BDA5
:2043E0000020104082B000900098002803D1FFE70120019006E005480068009908600020A3
:204400000190FFE7019802B07047C046C402202084B00390029101920398006800900098FF
:2044200001998843009000980299019A114008430399086004B0704784B0039002910192C1
:20444000039800680090009801998843009000980299019A114008430399086004B0704763
:2044600084B0009202460098039202AA1170019001980399127812018918024A885004B0F8
:204480007047C0460812000084B0009202460098039202AA1170019001980399127812017A
:2044A0008918024A885004B07047C0460412000080B584B0019101460198039102A908800E
:2044C0000398044A8018098807221202FFF7B4FF04B080BD3812000080B584B00191014667
:2044E0000198039102A908700398044A801809780722FFF7A1FF04B080BDC046381200006A
:2045000081B000900549042008600098401E0449086004490020086001B0704710E000E048
:2045200014E000E018E000E080B584B0019101460198039102A908700398044A801809783B
:204540007022FFF779FF04B080BDC0460C11000080B584B0019101460198039102A90870B5
:204560000398044A801809780722FFF765FF04B080BDC0460C110000084880F3088800BF90
:2045800000BF00F0C1FC002801D0FFF7B3FD0020FDF722F9012000F0A7FCC0460080202067
:2045A00083B0009101460098029101A90870029809780901411809204202885802239843D8
:2045C000885003B0704783B0009101460098029101A9087002980978090141180920420256
:2045E000885802231843885003B0704780B584B0019101460198039102A9088003980922B1
:2046000052028018098803225202FFF715FF04B080BD70B50122120383180C785D680C2636
:20462000B54334402C195C60497883580724A34321405918815070BD83B0009101460098ED
:20464000029101A9087002980978090140180249405880B203B070470C12000080B582B024
:2046600001900091019805494018009909020F221202FFF7E1FE02B080BDC0460C11000009
:2046800030B514004C4325001C0044436419050010002900FFF74CFD001904000D00210085
:2046A000280030BDB0B504460020002B08D0D2B20D782570954204D0641C491C5B1EF7D1A4
:2046C000B0BD601CB0BD000082B00190009100980349084301998900024A885002B0704751
:2046E000800004000480424080B582B0014601A8018001880F2002020248FFF79DFE02B00F
:2047000080BDC04604010B40064A80180268120605D50268120602D502681206F6D481613B
:204720007047C0460811000080B5064800F01CFB002805D0FFE7FEF7D1F8FDF7F1FEFFE7AF
:2047400080BDC0460000094080B582B001900091019811210902401800990322D203FFF78D
:204760006BFE02B080BD000018B520239B1A04D8010000205B42994004E004009140DC40D4
:204780002143904018BD000082B001900091009B0199034A88581843885002B07047C046B8
:2047A0004810000082B001900091009B0199034A88581843885002B07047C04648100000F1
:2047C00081B0009000988100034A885801235B061843885001B070470480424081B00090EB
:2047E00000988100034A885801235B061843885001B070470480424082B001900091009B5E
:204800000199034A88581843885002B07047C0462810000082B0019000910098802108431F
:2048200001998900014A885002B070470480424082B0019001980449405802210840009087
:204840006846007802B070473412000080B582B0014601A80170017802480322FFF7ECFDF4
:2048600002B080BD00010B4080B582B0014601A80170017802483022FFF7DEFD02B080BD60
:2048800004010B4082B001900091009B0199034A88581843885002B07047C0462810000038
:2048A00010B592008018044A83580724A404A34321405918815010BD3018000010B5012287
:2048C000120383180C789C604B7883508978014A815010BD0C11000082B001900091009B1C
:2048E0000199034A88581843885002B07047C0462810000082B00190009100980199024A45
:20490000885002B07047C046D012000082B00190009100980199024A885002B07047C04655
:20492000D012000081B0009000990120C2020248885001B07047C0460100002682B00190DC
:2049400000910198024940580099084002B070473810000081B0009000988100024A8120F1
:20496000885001B07047C0460480424081B0009000988100024A8120885001B07047C046DE
:204980000480424081B000900099024A0248885001B0704704080000030000B182B001905E
:2049A000009100980199024A885002B07047C0469012000082B00190009100980199024A2D
:2049C000885002B07047C0469012000082B001900091009B01999D20420188581843885052
:2049E00002B0704782B00190009100980199024A885002B07047C0464810000081B000901C
:204A0000009909204202885801231B021843885001B0704781B000900099034A8858012329
:204A20001843885001B070472812000081B000900099034A885804231843885001B0704758
:204A40002812000081B0009000990120C2020248885001B07047C0460100002681B0009065
:204A600000990120C2020248885001B07047C0460100002682B00190009101980249405831
:204A80000099084002B070473010000081B000900099024A0248885001B070470408000050
:204AA000030000B181B000900099024A0248885001B0704704080000030000B182B001908F
:204AC0006846017000780199014A885002B070472412000081B00146684601700078024989
:204AE000086001B07047C04608030B4081B0009000990120C2020248885001B07047C046BB
:204B00000100002681B000900099024A0248885001B0704704080000030000B110B5029C1B
:204B2000A400001911431943014A815010BDC0465018000081B000900099034A8858012306
:204B40001843885001B070470418000082B00190009100980199024A885002B07047C04685
:204B60005810000081B00090009911200202885801235B041843885001B0704781B000907F
:204B800000990120C2020248885001B07047C0460100002681B00090009803494058012181
:204BA000084001B07047C0460811000081B000900099024A0248885001B0704704080000EA
:204BC000030000B180B5034A03480021FEF7C8FF80BDC0465059000000A0424080B5034AE7
:204BE00003480121FEF7BCFF80BDC0466859000000A0424082B00190009101982721C90173
:204C000040580099084002B0704782B00190009101982721C90140580099084002B07047D1
:204C200082B00190009101982721C90140580099084002B0704781B0009000991120020204
:204C4000885801231843885001B0704781B00090009911200202885804231843885001B03B
:204C6000704703228058002805D0401E4A1C00230B701146F7E7704782B001900091009849
:204C8000019995225201885002B0704782B0019000910098019995225201885002B070475E
:204CA00082B0019000910098019995225201885002B0704781B0009000980249405801B036
:204CC0007047C0461812000081B000900099024A0020885001B07047141200000349086805
:204CE00001221202904308607047C04608010B400349086801221203104308607047C046C5
:204D000004010B4081B000900099024A0120885001B070470811000082B001900091009837
:204D2000019911221202885002B0704781B00090009802494058C0B201B070472411000006
:204D400040B584B002AE0096FDF7DEFF029A039B04B040BDC9B202788A4204D0002A01D098
:204D6000401CF8E70020704781B000900098812149014058C0B201B0704781B00090009811
:204D8000812149014058C0B201B0704710B50122120383180C789C604978815010BD10B579
:204DA00000239A4203D0CC5CC4545B1CF9E710BD80B50B4603214258C11D184600F088F8CD
:204DC00080BD000002490868012290430860704708010B400249086805221043086070471E
:204DE00010E000E092008018014A81507047C0461018000080B501200006FFF781FBFFF7F4
:204E0000E9FF80BD00214258091D002AFBD1081F801070470B4611461A4680B500F00FF8F4
:204E200080BD0021425C491C002AFBD1481E70470021425C491C002AFBD1481E70470023A4
:204E40009A4202D0C1545B1CFAE7704780B5FFF7C5FEFFF7B7FE80BD014800687047C0463C
:204E600018E000E00A46002180B5FFF7E8FF80BD811E091F00BFFCD2704702460B46204690
:204E80002946FFE782B00094014C019410BD00BF451600000022304639462B46704780B5BA
:204EA0000021FBF7F5FD80BD014661391A297047284607992A46FFE782B00094014C0194C9
:204EC00010BD00BF8136000000487047F803202080B5FFF764FF80BD80B5FFF76DFA80BDBB
:204EE00080B5FEF715FE80BD00F001F8FEE700BF704701E07047000082B00094014C0194B4
:104F000010BD00BF7945000001207047000000007F
:204F100000000000000000000000000000000000000000F800000000000000333000000026
:204F300000100C06100C0600000000000000000040C07840C0784000043F04043F0404005B
:204F5000007088FC08300000001820FF211E0000F008F000E018000000211C031E211E0022
:204F700000F00888700000001E2123241927211010160E0000000000000000000000000006
:204F9000000000E018040200000000071820400000020418E0000000004020180700000007
:204FB000404080F0804040000202010F01020200000000F0000000000101011F01010100C3
:204FD000000000000000000080B0700000000000000000000000000000010101010101011A
:204FF0000000000000000000003030000000000000000000806018040060180601000000C6
:2050100000E010080810E000000F102020100F00001010F8000000000020203F202000003B
:205030000070080808887000003028242221300000300888884830000018202020110E009A
:205050000000C02010F8000000070424243F240000F80888880808000019212020110E00E9
:2050700000E0108888180000000F112020110E0000380808C83808000000003F00000000FA
:205090000070880808887000001C222121221C0000E010080810E0000000312222110F00BD
:2050B000000000C0C0000000000000303000000000000080000000000000806000000000A0
:2050D0000000804020100800000102040810200040404040404040000404040404040400AD
:2050F00000081020408000000020100804020100007048080808F000000000303601000042
:20511000C030C828E810E0000718272423140B000000C038E0000000203C23020227382041
:2051300008F8888888700000203F202020110E00C03008080808380007182020201008009A
:2051500008F808080810E000203F202020100F0008F88888E8081000203F2020232018004F
:2051700008F88888E8081000203F200003000000C03008080838000007182020221E0200AC
:2051900008F808000008F808203F210101213F20000808F8080800000020203F2020000016
:2051B00000000808F8080800C08080807F00000008F888C028180800203F2001263820007A
:2051D00008F8080000000000203F20202020300008F8F800F8F80800203F003F003F2000BB
:2051F00008F830C00008F808203F200007183F00E01008080810E0000F10202020100F0034
:2052100008F808080808F000203F210101010000E01008080810E0000F18242438504F00AD
:2052300008F8888888887000203F2000030C302000708808080838000038202121221C00D0
:20525000180808F8080818000000203F2000000008F808000008F808001F202020201F00A9
:205270000878880000C83808000007380E010000F80800F80008F800033C0700073C03003C
:20529000081868808068180820302C03032C30200838C800C83808000000203F2000000061
:2052B00010080808C83808002038262120201800000000FE020202000000007F4040400074
:2052D000000C30C000000000000000010638C00000020202FE000000004040407F00000080
:2052F000000004020202040000000000000000000000000000000000808080808080808090
:205310000002020400000000000000000000000000008080808000000019242222223F2073
:2053300008F8008080000000003F112020110E000000008080800000000E1120202011009E
:20535000000000808088F800000E112020103F200000808080800000001F22222222130035
:20537000008080F0888888180020203F202000000000808080808000006B94949493600024
:2053900008F8008080800000203F210000203F2000809898000000000020203F202000000F
:2053B000000000809898000000C08080807F000008F8000080808000203F24022D302000EC
:2053D000000808F8000000000020203F202000008080808080808000203F20003F20003F59
:2053F0008080008080800000203F210000203F200000808080800000001F202020201F0060
:20541000808000808000000080FFA12020110E000000008080808000000E112020A0FF807F
:20543000808080008080800020203F2120000100000080808080800000332424242419003F
:20545000008080E0808000000000001F202000008080000000808000001F202020103F200F
:20547000808080000080808000010E300806010080800080008080800F300C030C300F0035
:2054900000808000808080000020312E0E312000808080000080808080818E701806010080
:2054B00000808080808080000021302C2221300000000000807C020200000000003F40402D
:2054D00000000000FF00000000000000FF0000000002027C800000000040403F00000000FF
:2054F000000601010202040400000000000000000000000000000000002F00000000070052
:20551000070000147F147F1400242A7F2A12006264081323003649552250000005030000DF
:2055300000001C224100000041221C000014083E08140008083E0808000000A06000000881
:2055500008080808000060600000002010080402003E5149453E0000427F400000426151CD
:205570004946002141454B31001814127F10002745454539003C4A494930000171090503A2
:2055900000364949493600064949291E00003636000000005636000000081422410000144A
:2055B0001414141400004122140800020151090600324959513E007C1211127C007F494908
:2055D0004936003E41414122007F4141221C007F49494941007F09090901003E4149497A19
:2055F000007F0808087F0000417F4100002040413F01007F08142241007F40404040007FA7
:20561000020C027F007F0408107F003E4141413E007F09090906003E4151215E007F091902
:2056300029460046494949310001017F0101003F4040403F001F2040201F003F4038403FE4
:2056500000631408146300070870080700615149454300007F41410000552A552A550000DF
:2056700041417F00000402010204004040404040000001020400002054545478007F484426
:20569000443800384444442000384444487F00385454541800087E0901020018A4A4A47C75
:2056B000007F080404780000447D4000004080847D00007F102844000000417F4000007C9A
:2056D00004180478007C0804047800384444443800FC242424180018242418FC007C080466
:2056F000040800485454542000043F444020003C4040207C001C2040201C003C4030403C0B
:20571000004428102844001CA0A0A07C004464544C44141414141414401F00002000010095
:20573000008080808080808080809090909090808080808080808080808080808080808089
:2057500080180404040404040404040404040404040202020202020202020204040404043D
:2057700004044343434343434141414141414141414141414141414141414141040404045B
:2057900004042323232323232121212121212121212121212121212121212121040404047B
:2057B000800000000000000000000000000000000000000000000000000000000000000059
:2057D0000000000000000000000000000000000000000000000000000000000000000000B9
:2057F000000000000000000000000000000000000000000000000000000000000000000099
:20581000000000000000000000000000000000000000000000000000000000000000000078
:205830000073656E3A0008000000000000000000000000000000F03F000000000000004061
:205850000000000000000840000000000000104000000000000014400000000000001840F4
:205870000000000000001C4000000000000020400000000000002240000000000000244096
:20589000000000000000264000000000000028400000000000002A400000000000002C4054
:2058B0000000000000002E4000000000000024400000000000005940000000000088C340E2
:2058D0000000000084D797410080E03779C34143176E05B5B5B89346F5F93FE9034F384DBC
:2058F000321D30F94877825A3CBF737FDD4F157501000000000000000000000040000000A1
:2059100000000000000000000200000004000000010000002C00C4417B43252E32663A2537
:205930002E32663A252E32663A252E32663A25643A25643A25643A25643A25647D240000D7
:2059500015000000000000000000000000000000000000000000030013000000000000000C
:205970000000000000000000000000000000030002000000D330000001000000000000000E
:20599000000000000200000023F40000010000000000000000000000303132333435363741
:2059B00038394142434445460030313233343536373839616263646566007B4225643A25CA
:2059D000643A25643A25647D2400000018000000003000000000180000000030000000009C
:2059F0000800000000300000E80300000001000045423A0045413A000800000800000800DA
:105A10001F08003F08000800080000000000000008
:205A2000005500000F0112014001018F012202C01502030F01240440FF000004BF02017F62
:205A40007EDE013F1ECDCC4C3F003100007BE04100330000AB2D00330613BB2042003315DF
:205A60001AFFF0009D320000B14D0000634C000002000000C8020000205A0000C802202051
:085A8000705A00000000202014
:00000001FF
