:200000000080202003460000EB450000EB4500000000000000000000000000000000000077
:20002000000000000000000000000000EB4500000000000000000000EB450000EB45000030
:20004000EB450000711500006D3E0000EB450000EB450000EB450000EB450000EB4500004F
:2000600000000000EB450000EB4500000000000000000000EB45000091350000EB450000FA
:200080008D0D0000EB450000EB450000EB450000EB450000EB4500000000000000000000D6
:2000A000EB450000EB4500000000000000000000EB45000000000000EB450000EB45000050
:2000C000F0B593B01F461291984E119337403B46134397490024002B0AD0964B5D1C0146AE
:2000E000002807D11298A84204D12546904E29E0254626E00F951092129C34408E4EB4429A
:200100000D460AD8002D01D0B44206D0B74204D8109A002A1AD0B74218D10024284612992E
:20012000224604F068FA05460E4610981199224604F061FA02460B462846314601F053F99E
:2001400005460E462846314613B0F0BD0021129800281AD5794A974201D9022115E09F425A
:2001600013D93A0D764B9F4200D2C0E0754B9B1A20331098D84002469A40109B93426D4B56
:2001800003D1012210400222111A109A002A15D00E910123D907129888430D90002D23D03B
:2001A0001298C10F491E0E9802460A4338D00C930023421E0A433AD05D4A39E0B74201D018
:2001C00000F029FC60482018284300D184E09C4200D883E00020119900290E46109D00DAA3
:2001E00006460029AEDA19E0B44204D050498C4201D0002CD4D100204D4910902A460D9FC4
:200200003B4601F00BFE0E461199002900D43E46002900D42846129900292ED4054691E7E0
:2002200004F0BEF921210160484E00258AE7484AD84348498F420E900ED347498F4228D35A
:2002400004F0AEF9222101600F98844256D21198C017394E0640E8E70992404F404E701C6A
:20026000844224D200221C463E4B28460D9901F0CDFF234605460C461AE0334961180E9A47
:20028000114300D157E3012AC8D10121C9074E40C4E72848844238D2144604F081F92221C5
:2002A0000160119800283CD40020214640E335372015391826401F488019421C2A48864262
:2002C000129302D21646089156E0284886424FD2164608910C9850E0002507E70120C60757
:2002E00011984640C0170640109D05402AE71099002900D127E300200E904AE70025119845
:20030000002800DD1EE72E461CE70F98844200D826E3144604F044F922210160119801280D
:20032000C2DB0020044B2146D2E1C046FFFFFF7F0000F03FFFFFEF3F0000F07FFFFF3F43CB
:200340000000404113040000000010C00000F87F0000F0BF0100E0410100F043CCFBFFFFF4
:20036000FFFF0F00000040438F9803007AB60B00491C0891D748361818460490C2000792D0
:20038000D548811884584B68284631460096224602941E46019301F021F8074603900D911F
:2003A000204631462A46009E04F029F902460B46CA49129801F032FD024606900B46059101
:2003C00038460D9901F022FF0B900A910E9801400F9170080C9A5107014304988004081830
:2003E000D1044718129C20463946029A019B00F0F5FF02460B462846314600F0EFFF0C9022
:20040000049120460F9E3146224625463B4601F0FDFE02460B4603980D9900F0DFFF04468B
:200420000F46284631460C9A049B01F0EFFE02460B462046394600F0D1FF04F0A0F80C90F9
:200440000D910B9E30460A9F394604F0C5F805460C4602460B4601F0D9FE06900591A04AF2
:20046000A04B2846214601F0D1FE9F4A9F4B00F0BAFF04F072F89E4A9E4B00F0B4FF04F0BA
:200480006CF89D4A9D4B00F0AEFF04F066F89C4A9C4B00F0A8FF04F060F89B4A9B4B00F0CF
:2004A000A2FF04F06CF804460D4630463946129F3A460F9E04F0A3F802460B460C980D9961
:2004C00001F0A4FE04F07CF80446059004913D46384631463A46334601F098FE07460691D1
:2004E0008B4B2A4600F07FFF2246049E04F087F80C460E980440874B284621462A4600F088
:2005000072FF3A46069B00F069FF02460B460598314600F063FF06460F4628460F992A46CB
:2005200004F06BF80F9006910B980A9904F054F806460F460C980D992A4604F05EF832468B
:2005400004F057F802460D900B460C910F9D2846069F394600F047FF0C460E980440129E25
:20056000304621462A463B4600F038FF02460B460D980C9900F032FF05460F460720420772
:20058000654B3046214601F041FE0D900C91634A28463946604B01F039FE05460F46604AAD
:2005A000604B3046214601F031FE2A4604F021F802460B465C48079D41194059496800F0A1
:2005C00012FF07460B900C460A91089803F092FA064608910D980C993A4604F00CF8024627
:2005E0000B465248411947594C683846214600F0FAFE3246089D2B4600F0F5FE0E9B194022
:2006000012980F9132461E462B4600F0E7FE3A46234600F0E3FE0D9A0C9B00F0DFFE024651
:200620000B460B980A9900F0D9FE0C900B91119D2C46344000220D92109F384629462346CA
:2006400000F0CCFE0A9008910C980B993A462B4601F0DCFD07460E460A980899129D2A46A7
:200660000F9B01F0D3FD3A4603F0C9FF07460E4628460F990D9A03F0C0FF04460D4611977F
:2006800038461296314603F09BFF07460E462848814255DB27483018384312D1274A264B35
:2006A0001198129900F09FFE10900F91384603F06BFF02460B4610980F9902F0F5FC00284A
:2006C00054D003F06DFF222101600020EC4B09990246B3E10000E03F384E00000000F03F4A
:2006E000EF4E454A287ECA3F65DBC9934A86CD3F01411DA96074D13F4D268F515555D53F0A
:20070000FFAB6FDBB66DDB3F033333333333E33F00000840000008C009C7EE3FFD033ADC61
:20072000F5015B14E02F3EBE484E0000584E000000009040000070BF4715973CFE822B65CF
:20074000DD483040DD49884210D3DD483018384300D0E7E0384603F017FF02460B461198E9
:20076000129902F08DFC002800D0DBE0C94BC2493140C548814225D9080DC549421836325D
:20078000581C0346D3409F197A00520D51183531CC4B0B413B40BF490F400743B948801A0F
:2007A000C740002E00D57F420D97119E00222046294600F013FE04460D463046129903F072
:2007C000FFFE0E460E9806400027BF4B384631463A4601F01BFD0F900E913846109703F0D7
:2007E000D3FE02460B461198129900F0F7FD04460D46B64AB64B3846314601F007FD064683
:200800000F46B44AB44B2046294601F0FFFC324603F0EFFE024612900B4611910F9E30466D
:200820000E9F394600F0DFFD04460D4632463B4600F0D4FD02460B461298119900F0CEFDC1
:20084000129011912046294622462B4601F0DEFC06460F46A14AA24B01F0D8FCA14AA24BC5
:2008600000F0C1FD03F086FEA04AA14B00F0BBFD03F080FE9F4AA04B00F0B5FD03F07AFE83
:200880009E4A9F4B00F0AFFD03F074FE02460B460B9420460C95294600F0A0FD06460F46A9
:2008A0002046294603F098FE04460D460320830730463946109A00F096FD02460B4620466F
:2008C000294601F0ABFA0F900E910B9F38460C9E3146129D2A46119C03F08FFE2A4603F0DD
:2008E0008AFE02460B460F980E9900F077FD02460B463846314600F071FD604B109A00F0F4
:2009000072FD04460D9A100543186248401C834204DA204601F0C8FD04460B4609990020E5
:2009200022468BE003F03CFE22210160002009990246034682E003F033FE21210160714ED8
:20094000109DFFF7FFFB4F498A1A3946D1400B4693409F425ED1012211400222511A5AE0BD
:2009600009920024494B28460D99224600F03BFD06460D4602460B4601F048FC0F900F461F
:20098000464B304629462246129401F03FFC444A414B00F028FD02460B4603F020FE024686
:2009A0000B463949204600F019FD02460B460F98394601F02BFC04460F4603204207394B92
:2009C00003F00DFE0D900C91374A384B2046394601F01CFC04460F46354A364B03F0FFFD5F
:2009E00022460E9E03F005FE02460B900D460D9F38460C9C21462B4600F0F5FC3140129811
:200A00000F913A46234600F0E9FC02460B460B98294608E600210E910F998F4205D1119827
:200A2000002820D4129EFFF78DFB01218907119A8A4207D1284612992A460B4601F0E6FBBF
:200A4000FFF77EFB1298002801D5FFF7A2FB11460D498A4201D0FFF79CFB2846129900F00C
:200A60003FFEFFF76DFB002004492A46129B01F0D5F9FFF765FBC046FFFFFF7F0000F03F8B
:200A80000000F07F130400000000E03F0000F0BFCCFBFFFFFFFF0F005555D53F0000D0BFE3
:200AA000555555554715F73FFE822B654715F7BF44DF5DF80BAE543E00FCFF7F00CC904055
:200AC00000346F3F0000F0FF432EE63F396CA80C615C20BEEF39FAFE422EE63FD0A4BE7262
:200AE0006937663EF16BD2C541BDBBBE2CDE25AF6A56113F93BDBE166CC166BF3E555555A7
:200B00005555C53F0000F87FF0B5FFB08CB0049315460646909800908A913468204603F01A
:200B2000F6FC2018002189910290844244D20022859285A803920273641C0F46601E0078A7
:200B4000002834D0252806D034602946049A90477F1C641CF2E70398C04301908997601C0F
:200B600003903060207885A90873732809D18AA989AA2846049B00F021F88999039C019AC4
:200B800011E005AC85A98AAA204600F035F8024620462946009B9847411C019A114600D018
:200BA000C1198991039C481C0298BED100E03A4610467FB00CB0F0BD0A46F9E7F8B50446A0
:200BC0000868051D0D600668002E11D0009414461D46304603F09BFC07462068C01920601A
:200BE0000024BC4207DA305D0099A847641CF8E7002021469847F8BDF0B585B001920E46A2
:200C000004467F208000251800270397FF210291FE312022204603F073FC04956F70307B5E
:200C2000252852D06B1C782813D0642811D06F280FD0632820D1019A1068011D11600168D1
:200C4000C8B247424741029A1046FC302018297014E01D4603A904AA3046019B00F03BF834
:200C600003980499002803D0481E2D220A7000E00846029A2B4601E02846029A191A002990
:200C8000254601DC611A4D1C411C530000262846324603F0A9F8002F02D0411C067000E024
:200CA0000146A14206D8481E611A491C202203F027FC2670291B2022204603F021FC204696
:200CC00003F025FCC01905B0F0BD00206070252020700120F7E7F8B514460D460646077BD9
:200CE000194600F014F8317B642904D1002802D50121296040426F2F01D00A2100E00821BC
:200D0000782F00D11021224600F012F8F8BD007B642805D06F2803D0782801D0702804D1EF
:200D20000868021D0A600068704700207047C046F8B514460D460646002804D12068411E34
:200D40002160302101700A4F002E0DD03046294600F010F801466943711A795C2268531EC1
:200D6000236011700646EFE7206803F0D0FBF8BD084F000080B5102903D0082903D1C008ED
:200D800080BD000980BD02F08DFC80BD10B590B08A4803F067FB002800D10CE188490F9195
:200DA0000A781820C04350434B780B22D2435A4380188B780422D2435A4380180B7905228B
:200DC0005A4380184B790C225A4380188A791921514340187B4908607B4800687B49096802
:200DE00000F0E8FD0F980078012837D1FFE774484078012832D1FFE77148807900282DD18A
:200E0000FFE76F484079002828D1FFE772480068794901F099FE724C2060724800687549EB
:200E200001F050FE71490E91086020687D214A010D926F490C9102F0B5FD0C990D9A034614
:200E40000E982360006802F0ADFD0E990860604901200860694900200860A5E0584840790C
:200E6000012837D1FFE756488079012832D1FFE75348407800282DD1FFE75148007800281A
:200E800028D1FFE7544800685A4901F05DFE544C206054480068584901F014FE53490B9180
:200EA000086020687D214A010A925149099102F079FD09990A9A03460B982360006802F012
:200EC00071FD0B9908604349012008604B490020086068E03E480068002843D1FFE73D488A
:200EE000006800283ED1FFE73B4802903B480068019034480390006802F0AAFC01460198ED
:200F000001F03EFB01460298006801F01DFE01460398334C216033490591334909680491DC
:200F2000006802F095FC0146049801F02EFB01460598006801F0C6FD2C49089108602068CB
:200F40007D214A0107922A49069102F02BFD0699079A034608982360006802F023FD089924
:200F600008601FE01A480068012805D0FFE719480068012815D1FFE71148C078012810D103
:200F8000FFE70F48807900280BD1FFE70C480078002806D1FFE70E49002008600D490860E3
:200FA000FFE7FFE7FFE7FFE70D4800680F49096800F0AEFEFFE710B010BDC0460040084076
:200FC000D803202004042020AC022020B00220201C042020200420207402202014042020FC
:200FE000B40220208402202018042020B802202060F0FFFF0000A0400000704210042020AB
:2010000080B592B00E200821039102F095FF7C481090042103F00CF803990F200A9002F011
:201020008BFF0399109803F003F81220052102F083FF01200E90010272480C9002F0F8FF27
:201040000E98002306930193C0040890009003210B9118461A4602F083FB069B089A0B99D9
:201060000E98019300921A4602F07AFB069802F047FF0E9802F044FF14200221059102F04D
:201080005BFF0599152002F0C1FE0599172002F0BDFE0599342002F04FFF0599352002F0D9
:2010A000B5FE192002F0F4FF069A089B00922E20114602F05DFC069A089B00922D20114621
:2010C00002F056FC069A089B00922720114602F04FFC069A089B00922420114602F048FC76
:2010E000252002F0D5FF262002F0D2FF232002F0CFFF222002F0CCFF0699089B0E98009161
:2011000042040792362002F033FC0699079A089B00913A2002F02CFC0699089B0E98009118
:20112000020404922F2002F023FC049A0699089B0091332002F01CFC0699079A089B009171
:20114000132002F015FC0699079A089B0091212002F00EFC0699079A089B00913B2002F0E7
:2011600007FC0699079A089B0091182002F000FC05980699079A089B009102F0F9FB06993C
:20118000079A089B00910D2002F0F2FB0699079A089B0091062002F0EBFB0C981B214903D0
:2011A000099103F00FF909990C9802F041FF0A990C98890402F09CFF0B990C9849060D918C
:2011C00002F082FE0C980D9902F0A8FE0E99109849020F9103F0F6F80F99109802F028FF37
:2011E0001098094902F084FF109811210905119102F06AFE1098119902F090FE12B080BDCB
:2012000000200A4000000A400003030010B58AB0014609A8017001786348016000687B281C
:2012200004D1FFE7614901200870FFE75E4800687D2804D1FFE75D4902200870FFE75B4893
:20124000007801280AD1FFE75748006858490B78584AD0540878401C0870FFE753480078EE
:20126000022800D09DE05348C078502804D1FFE759490120087086E04E484078232800D1E6
:2012800080E04B4800784C490870FFE74A480078042838DBFFE74848007801904549401842
:2012A000401E0078303802F025FC04900846019905903F480078401A02F01CFC02460B46D0
:2012C00000204449FEF7FCFE029003913B480890006802F007FA029A039B0446049806941C
:2012E0000C460599079400F091FF069A079B00F07AF801F06DFD08990860FFE72E490878FE
:20130000401E0870C2E72B48407830380090082837D80098810001A0405887464113000079
:201320004B130000551300005F13000069130000731300007D1300007F13000081130000BD
:201340001E480068224908601BE01C4800681F49086016E0194800681B49886011E01748FA
:201360000068184908600CE0144800681549086007E0124800681249886002E001E000E037
:20138000FFE7FFE7FFE70949002008700849087009490870094908600648322103F0D2F806
:2013A000FFE70AB010BDC0460C042020270420202804202040022020290420200804202058
:2013C00084022020F403202074022020E8032020F00320200000244072022020FCB401240F
:2013E000E407634002E0FCB40124E40708B41D03ED08D60D354356025F007F0D06D12C004B
:20140000344300D0AEE001B0FCBC7047A408254307242402FF34A74205D10020190D09052C
:2014200001B0FCBC7047002B03D50024A61BAC4125000B03DB08C20D134342024800400DA3
:2014400007D11C00144300D08CE00EBC1000F0BC704701246407234307242402FF34A0426C
:2014600005D10020090D090501B0FCBC7047002903D50024A21A9C412300C11B08D51C007C
:201480002B0025001400320026000024611A3800362925D502B4393949420C00203C03D270
:2014A0002F008F40374301E03700A740002F01D040210E4302BC20290BD500290ED04C4287
:2014C000203420B4A5402C0020BC0D41CE40361904E000292E000D4120390E4192196B41C4
:2014E0001C0014433ED00024002B04D5012400218A1A99410B00401E52005B41FBD5012136
:20150000890215000D400CD0521800277B4101D3401C0BE00721C90115000D4001D18900EB
:201520008A43072109028A4352005B41801C19DD07210902FF31884209D30EBC0020C90F93
:201540000902FF31C900C91D0905F0BC7047190B00050143E40721431805120B104301B036
:20156000FCBC70470021002001B0FCBC7047704780B588B0032041065348009002F070FD83
:20158000524903910860112001055148029002F067FD014600984F4A116001210191490610
:2015A00002F0C5FE019902460098531E9A4107AB1A70890602F0BBFE019902460298531E4D
:2015C0009A4106AB1A70090502F0B1FE019902460298531E9A4105AB1A70090602F0A7FE9E
:2015E000014603984A1E914104AA1170C0788007002812D5FFE707A8007806A909788842CB
:2016000005D0FFE734490868401E086004E032490868401C0860FFE718E02C48C0784007F8
:20162000002812D5FFE707A8007806A90978884205D1FFE728490868401E086004E02649DE
:201640000868401C0860FFE7FFE7FFE721488078C006002812D5FFE705A8007804A9097835
:20166000884205D0FFE71D490868401E086004E01A490868401C0860FFE718E01548C0785B
:20168000C007002812D0FFE705A8007804A90978884205D1FFE711490868401E086004E046
:2016A0000E490868401C0860FFE7FFE7FFE703204106054802F0FAFB11200105044802F0DA
:2016C000F5FB08B080BDC04600000A40BC02202000200A40C0022020AC022020B00220208B
:2016E000F0B585B00D4604465448014081420CD12046294622462B4600F088FD22462B46FA
:20170000FFF771FE04460D4693E04D4B002D75DD012004900105280D06D10020002D05D153
:201720001538E50A6405F9E72E460DE000220D4202D16D00521CFAE7801A401C2026B71AB6
:201740002646FE402E4394403E4A8218481E304008430092D10703D0E10F4000401864002E
:20176000E10F4000461800250498410501956400002911D04A19B71A304600DB3846B242D9
:2017800000DC5518B24202DC019A521801924000E20F86184908EAE75F1C00221346002F80
:2017A00023D0D019AE4216DD039300230028049A00D41A46C11902910029049900DA19464B
:2017C000761B844200D2761E039B0A40AD18241ADB19029A03E002D18442E5D23546E00F34
:2017E00071000E1864007F08D9E7344313D0581C019A12D001201840C31810E02846184052
:20180000204316D0002D83D502F0CAFE212101600E4D00240DE0019A01E0521C00235010C4
:201820005908D20754180099490809050818064945182046294605B0F0BDC0460000F07F92
:20184000FFFFFF7F01FCFFFF0000E03F0000F87F10B58EB000200D900C9001F02BFE4E486F
:2018600002F0FAFC0120089002F018F9089802F015F90E20099002F011F9089802F024F9B2
:20188000089802F021F9099802F01EF910200A9002F004F902200B9002F000F90A9802F0FD
:2018A00013F90B9802F010F901F02AFE00F0A8F9FFE700F097FF394A022007900121019178
:2018C00008240594234601F0BDFA3548006802F083F80199024600941420039005230293E6
:2018E00000F0A4FB07992F4A0846234601F0AAFA2D48006802F070F8029B0799024603989D
:20190000009400F093FB059B0798284A0321069101F098FA05980699079B254A0492127859
:201920000090192000F082FB049A05980699079B52780090262000F079FB049A0598069917
:20194000079B92780090332000F070FB049A05980699079BD2780090402000F067FB049AF7
:2019600005980699079B127900904D2000F05EFB049A05980699079B527900905A2000F077
:2019800055FB049A05980699079B92790090672000F04CFB8DE7C046002086405D4F000016
:2019A00074022020594F000084022020544F0000D803202080B590B00F900E910F983E4A63
:2019C0001168401A0D900E983C490B68C01A0C900F9810600E9808600D9839490A78930022
:2019E000384AD0500C980A789300374AD0500878401C03221040087000200B900A90099034
:201A0000FFE70998032813DCFFE7099881002D4841580B9840180B90099881002A4841584C
:201A20000A9840180A90FFE70998401C0990E8E70B9801F00DFF8121C905009101F008F934
:201A400008900A9801F004FF009901F001F9079008981E49019100F0EFFF01F043FE1C4A2E
:201A600002921C4B039300F0D1FB002205921A4B049300F0CBFB059A184B069300F0CEF95C
:201A800001F0A6F90199164A1060079800F0D4FF01F028FE029A039B00F0B8FB049B059AB8
:201AA00000F0B4FB059A069B00F0B8F901F090F90C49086010B080BDE0032020E403202028
:201AC00026042020B8032020C80320200000C8426B195F6A3AF1CA3F00005940006098403A
:201AE000740220208402202010B58CB00BAC20700AA8017009A8027008A8037007AA0021E7
:201B000011700278520806AB1A7005AA11800078082804D1FFE704A90620088012E008A895
:201B200001780191C80802904907401C0029039001D102980390019803994008484304A91C
:201B40000880FFE70998203807A908700BA800780AA9097801F040FE05A900200880FFE72C
:201B600005A8008804A90988884242DAFFE705A8008806A9097801F095FD00290ED1FFE750
:201B800008A80078082809D0FFE70BA800780AAB19784A1C1A7001F01FFEFFE708A80078B1
:201BA00008280DD1FFE707A80078062141431348401805A90988405C012100F063FE12E06C
:201BC00008A8007810280CD1FFE707A8007801010948401805A90988405C012100F052FED3
:201BE00000E006E0FFE7FFE70598401C05A90880B6E70CB010BDC04620460000104C000036
:201C000080B584B0414802F0A5F9002803D1FFE701F054FAFFE7C820009001F00FFFAE20F6
:201C20000021039100F02EFE0399084600F02AFE0399102000F026FE03994020019000F074
:201C400021FE0399812000F01DFE0399CF2000F019FE0399A12000F015FE0098039900F007
:201C600011FE0399A620029000F00CFE0399A82000F008FE03993F2000F004FE0399D32091
:201C800000F000FE0399084600F0FCFD0399D52000F0F8FD0399802000F0F4FD0399D9205B
:201CA00000F0F0FD0399F12000F0ECFD0399DA2000F0E8FD0399122000F0E4FD0399DB2020
:201CC00000F0E0FD0198039900F0DCFD0399202000F0D8FD0399022000F0D4FD03998D20D0
:201CE00000F0D0FD0399142000F0CCFD0399A42000F0C8FD0298039900F0C4FD01F0DAF8DF
:201D00000399AF2000F0BEFD04B080BD00000F4080B58EB00D900C910D9801281DDBFFE714
:201D200001200A9041033B480B9002F0C9F90A990B98890302F032FB0D98012803DBFFE74F
:201D40000D98099003E00D9840420990FFE709993148002202F0C4FB1CE001200790810396
:201D60002C48089002F0ACF907990898490302F015FB0D98012803DBFFE70D98069003E082
:201D80000D9840420690FFE706992348002202F0A7FBFFE70C9801281DDBFFE7012004909A
:201DA00001041C48059002F08BF904990598490402F0F4FA0C98012803DBFFE70C98039080
:201DC00003E00C9840420390FFE703991248012202F086FB1CE00120019041040D4802901B
:201DE00002F06EF901990298090402F0D7FA0C98012803DBFFE70C98009003E00C984042B8
:201E00000090FFE700990448012202F069FBFFE70EB080BD00000A4000208640FCB40C0021
:201E20005C40E40FE40710B41D032D0B56006D415F007F0D73D00124640525430724240293
:201E4000FF34A74261D00B031B0B42005B414800400D64D001246405234307242402FF34E2
:201E6000A04252D0C01B002100273624AB4200D1B24204D37F414941921BAB4101E07F41D4
:201E80004941641E06D0002B01D1002A02D052005B41EBE7202C07D2162C0AD33900A74043
:201EA0002026361BF1400BE0203C3900A140002706E0A1402026361B3D00F5402943A740AF
:201EC00001246405214202D17F004941401E00247F1C61410124A405214202D0401CA14333
:201EE00001E06408A14303242402FF34001916DD2419A04209D8CC07490800050143780838
:201F0000204310BC2143FCBC704702BC0020C90F0902FF21C900C91D0905FCBC7047002191
:201F2000002001B0FCBC7047F0B5394A8218394BC0183A4D4C790B79002C22D0466F202B55
:201F400002D00524E70100E0354F2E40002B00D188273E434667846F2C403C438467446B7B
:201F60002D4E34404463846B3440846300244465846554688F26F643344054609468344089
:201F800094600C688979202B09D006467036002B15D1641E4460C46E2C40882715E0641EC6
:201FA0004460C46E2C401E4E3443C466046F2C40344304671B4D01246707064607E00527B7
:201FC000FF0164084460C46E2C403C43C46634682C403C433460C46A0F4D2C40C462046B04
:201FE0002C4004630024C4640465C46F8F25ED432C40C46714682C401460194302680A4B34
:202000001340BD220A40D118891C0160F0BDC04684180000041800008888FDFF24493E0033
:2020200001040000FFFFFFCF4000FFCFB0B58CB002910446029810990BAD2C700AAC207066
:20204000099208A8037007A8017004AA0021117003AA11700078082804D1FFE704A90220F2
:202060000870FFE706A900200870FFE706A8007808A90978884252DAFFE7099800900899CF
:202080000698C0434018C1B20A20019001F0EEFC0146009801F006FB019901F003FB05A837
:2020A000017003A80078002822D1FFE706A8007808A90978491E88421ADAFFE705A8007803
:2020C000002810D1FFE70B9807A90B785908049A8A180699514340180AA90978C0B2202227
:2020E000FFF702FD16E003A901200870FFE7FFE70B9807A90B785908049A8A18069951433A
:2021000040180AA90978059A3032C0B2D2B2FFF7EBFCFFE70698401C06A90870A6E70CB00F
:20212000B0BD7047B0B5364A80184A6842600A78222A56D8930001A4E3589F46D92100005C
:20214000E3210000D9210000E3210000E3210000E3210000E3210000E3210000E321000069
:20216000E3210000E3210000E3210000E3210000E3210000E3210000E3210000C921000059
:20218000E3210000C9210000E3210000E3210000E3210000E3210000E3210000E321000039
:2021A000E3210000E3210000E3210000E3210000E3210000E3210000E3210000C921000019
:2021C000E3210000C9210000036803242407A343012464071B1903E0036803242407A34324
:2021E00003600B69C360CB68C46A064D2540064C1C402B19C362097A11430160B0BDC0460A
:20220000041800008888FDFF77770200FCB50C005C40E40FE40710B4DD02540D2543D6022B
:202220005F007F0D60D00124E407254307242402FF34A74250D0CB02440D2343C2024800EE
:20224000400D51D00124E407234307242402FF34A04241D0C01901B41800290001F034FB34
:202260000F0001B41800310001F02EFB03000C001000310001F028FB06001000290001F0A3
:2022800023FB05007618002202BC01BC55415141A419554151418024A4005B195141FF187E
:2022A000514100D564003F19514102D47F00494100E0401C03242402FF34001B14DD241985
:2022C000A04209D80305F80A4C0520434900090B194310BC2143FCBD0020FF21C900C91DEC
:2022E000090510BC2143FCBD0021002001B0FCBD80B586B00021019105912E4801F050FDD4
:2023000001990246C820821A04A802700391007829490978884207D0FFE7294901200870A8
:2023200002F00AF905903FE00598009002F004F901460098401A00022049884233D3FFE77E
:202340001F48007801282ED1FFE71D49002008701C48007802A90870FFE702A8007804A9DE
:20236000097888420CDAFFE702A801781648405CFEF74CFFFFE70298401C02A90870ECE717
:2023800004981049087004A8007864280ADBFFE704A9002008700B4908700749087001F08B
:2023A000AFF8FFE7FFE7FFE704980349087006B080BDC04600A04240250420200080380127
:2023C00024042020DF03202000002020F0B584B03049314A0125AC0316682B0203939E436F
:2023E00016600E68264205D10E68264202D10E682642F6D06C02467E9769AF432E40BD19F6
:2024000095612025455DD6690327BE433D407519D561224D2E680727374005262E60466A21
:2024200033681362736853622F60C3695B065B0CD5697F263602B543EB18D361E8C80097E8
:2024400007680197476802971B071B0B2D03ADB2ED1833071B0D007A009E35431D43019B63
:202460001D43029B1D43054390690D4B03400D482840C01890611068039B1843106008684C
:20248000204205D10868204202D108682042F6D004B0F0BD04020B4008010B40001340402E
:2024A0008D00F0FF72FF0F00F8B515462A4E0A0D771C3A40294B9A4213D00C46002A18D1E4
:2024C0000122D2079443044344D00022244BFFF79DFE0C4623498D4208DC234A234B2146F9
:2024E00036E002460B46FEF77EFFF8BD220D3A40363A5119B1420ADD02F052F822210160C9
:202500000120C00704401D4821180020F8BD012904DB174A144009052143F8BD3522D243CB
:2025200091420CDC02F03CF82221016012488542E6DA0120C007044000202146F8BD0C4A77
:20254000144009051B225205891821430022094BFFF75CFEF8BDC046FE070000FF070000F4
:2025600000005043AF3CFFFF59F3F8C21F6EA501FFFF0F800000903C51C300000000F07FCA
:20258000FCB40127FF07794002E0FCB40127FF070C024D002D0E03D1002C52D1FCBC7047BC
:2025A0003C43FF2D50D0A408002900D56442020243001B0E04D1002A43D10800FCBC704706
:2025C0003A43FF2B41D09208002800D552425E1B04D5170022003C0076422B00192E06D54C
:2025E00027003741D2191C27F71B7F42BC40002A27D002D55242012700E00027013B5200F6
:20260000FCD51500802635400FD01500202635402C43803208D21500402635402C4304D1DB
:2026200001263602B24300E05B1C5200023308DDFF2B0BD2500ADB051843FF073843FCBCAE
:2026400070470020FCBC70470800C70FFF07FF20C0053843FCBC704710B590B026480C9073
:20266000006826490B9100F0E7F901F04BF90B990F902348006800F0DFF901F043F90B9933
:2026800002460C980E92806800F0D6F901F03AF90D901C480078012825D1FFE71B4800689A
:2026A00001F030F907901A48006801F02BF908901848006801F026F909901748006801F0C9
:2026C00021F90799089A099B00240A94059404940394029401940090104800F07DFD0A9851
:2026E0000849087006E00F990E9A0D9B064800F073FDFFE710B010BD7402202000007A449E
:202700008402202072022020194F0000F0032020E8032020F4032020EC032020904E000035
:2027200080B58AB02548009001F0BEFC2448019001F0BAFC2348029001F076FD2248039080
:2027400001F072FD2148049001F06EFD2048059001F06AFD1F48069001F036FD1E4807904D
:2027600001F0B6FD1D48089001F0B2FD1C48099001F0AEFD009801F067FC019801F064FCA9
:20278000029801F045FD039801F042FD049801F03FFD059801F03CFD069801F0F1FC0798F6
:2027A00001F07EFD089801F07BFD099801F078FD102001F0CDFE0AB080BDC04600000A406A
:2027C00000200A400020864000008640004008400000094000000F400080104000001040A3
:2027E0000020104010B584B00120019041022248029001F091FD019902460298531E9A4138
:202800001E4B03931A70090301F086FD0199039B02460298541EA2415A70C90601F07CFD3D
:20282000039A014601984B1E994191700102144801F072FD0199039B02460298541EA241A9
:20284000DA70090701F068FD039A014602984B1E99411171802101F05FFD039A0146029819
:202860004B1E99415171042101F056FD0399421E9041887104B010BD00000A40D80320203E
:2028800000200A4080B588B007AA107006A801700078002806D0FFE705A940200870079890
:2028A000487005E005A90020087007984870FFE704A801F04BF91848029005A902220192C0
:2028C00000F02CFC0199029801F01EFCFFE7124801F082FD8006002801D4FFE7F7E70E4854
:2028E0003C210022022300F0FDFCFFE70A48022101F052FC00280DD1FFE703A801F026F90A
:20290000039804990A31884203D3FFE700F0D6FB00E0EBE708B080BD00000F4080B586B09C
:20292000059005981E49884203D3FFE71D480590FFE7059950204843059000200090049026
:2029400001F0FAFD014600980391029001A90870FFE701F0F1FD029002980399884204D934
:20296000FFE701A901200870FFE701A80078002807D0FFE703980299401A0B494018049072
:2029800004E003980299401A0490FFE704980599884201D3FFE700E0DBE706B080BDC046F0
:2029A0003433030033330300FFFFFF0080B584B01E491F48039001F013FB03981D49FFF787
:2029C000B3FA03980023019319461A4600F0E6FE019B0398009319461A4601F031FC019A23
:2029E0000398114601F0EEFA019A0398114601F077FD019B039801210291009119461A46DE
:202A000001F01EFC0199029A039801F0DBFA0199029A039801F064FD039801F005FD0398C8
:202A2000032101F00BFD04B080BDC046614F000000208640444F0000FCB40127FF07060075
:202A40004E4001D4002600E03E00020243001B0E30D03A43FF2B30D00C024D002D0E29D029
:202A60003C43FF2D29D05B194240504042404C4061404C4000B500F027FF20BCAE464240D4
:202A8000504042404C4061404C4025001400002C01D46400013B803401D3013364087E3BB0
:202AA00008DDFF2B09D2BC43200ADB0518433043FCBC70470020FCBC7047FF20C005304300
:202AC000FCBC704780B58AB00990089108980999FFF756FD014617480590016016490968EF
:202AE000039100680190154906910968FFF748FD0199029012480068FFF79EFF0299024644
:202B000003980492FFF798FF0499FFF73EFD01460C4807900068FFF738FD0599069A0346DD
:202B20000798036009681160006800F0EBFE0AB080BDC04694022020F4032020980220208C
:202B4000EC0320209C02202080B58AB00990089108980999FFF714FD0146174805900160E2
:202B600016490968039100680190154906910968FFF706FD0199029012480068FFF75CFF5A
:202B80000299024603980492FFF756FF0499FFF7FCFC01460C4807900068FFF7F6FC05992B
:202BA000069A03460798036009681160006800F0A9FE0AB080BDC046A0022020F003202037
:202BC000A4022020E8032020A802202070B582B0024601A80270009100214056002816D4E6
:202BE000FFE7002401A908570322D3431840174A805809578C07E50EFF24AC40A043009C82
:202C0000A401E4B2AC402043194088501AE001A908780F24204008380322D34318400A4A1B
:202C20008058002549578D07EE0EFF25B540A843009DAD01EDB2B54028432140083919401E
:202C40008850FFE702B070BD1CED00E000E400E0FCB40127FF0706004E40F60FF6070202B2
:202C600043001B0E2DD03A43FF2B2DD00C024D002D0E26D03C43FF2D26D05B1B0020202143
:202C800064085208A2424041A24200D3121B013904D0002A01D05200F4D18840384201D1F1
:202CA0004000013B803001D3013300E040007F3307DDFF2B08D2400ADB0518433043FCBC76
:202CC00070470020FCBC7047FF20C0053043FCBC70470000F8B5451C00780023082B32D00A
:202CE0002F78C2070CD16A780F241440E41C122C0BD102242E57F4B2002E08D4EE1C0EE0B1
:202D00006D1C4A1C0F7011461AE0AE1C08E02E1DED7800957F252C40009DED012C191234D7
:202D20003D0112095219094DAA420ED0D243002C05D08D5C4F1C0D70641E3946F7E735466E
:202D400040085B1CCAE72846C5E7F8BDFF0F0000FEB502930F46194D0024E143184E0097DE
:202D60003740019043422B46BB4101D20C4623E0084602990E405342B54101D204461BE057
:202D8000134601990B433E431E43029D009E13D02B46334004D401998B1A3346AB4103E0AD
:202DA0000199531A2B46B341044605DB51406E400E43701E864134462046FEBD0000F07F8E
:202DC000FFFFFF7F80B501F09BFA01F08DFA80BD0CB41B4B4A00D21A1BD2000D0A03104351
:202DE00001221202801802D3400812038918400A002902D50122D20710434900490D38229F
:202E00001201891A0CD4FF290DD2C90508430CBC7047DB431A40024305D0D8430CBC704751
:202E200000200CBC7047C90FC907FF20C00508430CBC7047C046C046C046C046C046C04679
:202E40000000E0FFB0B586B005AC207004A80170039202A8037001A900200870FFE7039825
:202E600001A90978405C002822D0FFE705A8007804A90978039A01AD2B785C1C2C70D25C08
:202E800002AB00931B78FEF72FFE00980078082805D1FFE70598801D05A9087007E002A850
:202EA000007841080598401805A90870FFE7D6E706B0B0BD80B584B003A900200870FFE7DD
:202EC00003A80078072828DCFFE70398B030C0B200210191FFF7D6FC01990846FFF7D2FCA2
:202EE00001991020FFF7CEFC019802A90870FFE702A800787F280ADCFFE700200121FFF7D9
:202F0000C1FCFFE70298401C02A90870F0E7FFE70398401C03A90870D2E704B080BD000073
:202F200080B584B015491648039001F059F803981449FEF7F9FF03980023029319461A46A0
:202F400000F02CFC029B0398009319461A4601F077F9029A0398114601F034F8029A03988C
:202F60007D21C90001F0BCFA039801F05DFA0398012101F063FA04B080BDC046644F0000AB
:202F8000000086404C4F000080B582B015491648019001F079FA0198144900F0D5FA01986A
:202FA000002100F073FF019815212D2200F010FA01980121009101F021F800990198890263
:202FC00001F056F9019801F05FF90198202100F05FFE0099019800F0F5FE019801F0BDF953
:202FE00002B080BD734F0000000010403A4F0000F8B50446164F174D0E462E400120009410
:2030000064423C46B4411AD31D405442AF4116D31046009C20433543054311D00020C043C1
:203020001C460C400ED4009CA41A0C469C4106DB0098504059400143481E81410846F8BD66
:203040000020F8BD009C141B1C468C41F0DAF6E70000F07FFFFFFF7F10B5FFF7C9FF002864
:2030600001D0002010BD012010BDC04610B5FFF7BFFF002801DB002010BD012010BDC04640
:2030800010B5FFF7B5FF002801DD002010BD012010BDC04610B5FFF75BFE002801DA0020A3
:2030A00010BD012010BDC04610B5FFF751FE002801DC002010BD012010BD000080B584B0FC
:2030C00003A90020087000F087FAFFE7124801900221009101F06CF90120029000F0AEFC13
:2030E0000099019800F0F8FF029800F0A7FC0198029901F027F9002801D0FFE708E0FFE798
:203100000398401C03A90870C0B26428DEDBFFE700F0BCF804B080BD00000A40F0B581B042
:20312000002A22D091235B01C3180F200402901E0090561E0020DF6927421BD00F5C1F60FB
:20314000864210D0DF69274211D00F187D781D60009D854207D0DD6925420AD0BD781D6028
:20316000C01C8242E7D1104604E0002002E0401C00E0801C80B201B0F0BD000080B582B0EC
:2031800012491348019001F07FF90198114900F0DBF90198002100F079FE019815212D2289
:2031A00000F016F9019801F06FF80198702100F06FFD0198022100F07FFD019801F0D8F817
:2031C000019801F0CAF802B080BDC0466F4F000000801040264F000083B01EB505AC0EC422
:2031E00001900F48006880470E4A9069401C0DD005A902910C48009018320C4B01A8FDF7CB
:2032000083FC04460A480068804704E00848006880470020C44320461EBC02BC03B00847DA
:20322000FC032020C8022020B9450000B14500000004202080B582B012491348019000F06F
:203240009CFD01980321490200F084FD019800F067FF019801F0CAF80198092100F0C0FFAF
:2032600001980021009100F0EBFC0099019800F0D3FC019800F06CFF019800F05DFF02B0B0
:2032800080BDC0466D4F000000000F4080B588B01348069000F08CFF002307930193012095
:2032A0000590C004039000900321049118461A4600F038FA039A04990598079B019300925A
:2032C0001A4600F02FFA079800F00CFE059800F009FE069800F048FF079808B080BDC046D9
:2032E00000000F4010B586B00192024601980592049103AA107002A8038005980949401843
:203300000499490012781143074A00F035FC05980649401802990904C91D054A00F02CFC3E
:2033200006B010BD10120000FF070000141200000700FF0F80B584B003900291039801F08C
:20334000EDF86946088001A900200880FFE701A800886946098888420DDAFFE7039801A9CC
:203360000988415C064800F071FDFFE70198401C01A90880EBE76846008804B080BDC04667
:2033800000201040F0B581B00646536894689589D0890090176950691C432C433C43009BBC
:2033A0001843000120430B01F3180924640218511078527889007118024304480B58BF2400
:2033C000A34322409A180A5001B0F0BD1011000080B584B003900291019203980B494018B1
:2033E00002990B4A00F0DCFB03980A49401801993F2200F0D5FB0399074A88188958012284
:20340000114000F0CDFB04B080BDC04610110000FFFF0000141100000411000080B582B0EC
:203420000020019000F0E8FE01200090400200F0FDFC019800F09CFD01F042F800F0E0FF0D
:203440000848FEF7C3FF102000F0A0FD00F0E2FF019800F0E5F800980199FFF7B7FB02B0E5
:2034600080BDC046684E000080B582B00E490F48019001F009F801980D4900F065F80198E6
:20348000002100F003FD0198412189001B22FFF79FFF01980121890200F0EAFE019800F01F
:2034A0005CFF02B080BDC046714F000000201040304F000080B5FFF733F9FDF7A1FDFFF72E
:2034C000ADFFFFF773FAFFF72BFD00F0A3F900F0C9F8FFF7AFFEFFF751FEFFF755FDFFF75C
:2034E000C3FFFFF76FFC01F003F80349B822002088540249885480BDC8002020840120206A
:2035000080B582B00D4800900021019100F0FCFB009801990A4A00F06BFB00980199094A64
:2035200000F052FB00980199C82200F06FFA0098019900F0FCFB02B080BDC04600A04240A9
:20354000243110400000202070B511221302C218C4580125AC43C4500C888D7825438C88E5
:203560002C43C558084E2E40084D25407419C4508879CB790343087A184351687E23994302
:2035800018400818506070BDE798FDFF1867000080B582B00D4800F06EFF014601910B28B7
:2035A00004D0FFE7019810280AD00CE0074800F04FFF074B1A78511C19700649885403E045
:2035C000FFF79EFFFFE7FFE702B080BD002010402A0420200000202080B586B00E4800F0CE
:2035E000E7FD0120029000F047FD0298002205920092C3041046114600F0A0F9074803903C
:203600000221049100F0D4FE0398049900F004FD059806B080BDC04600000F4000000A40D8
:2036200010B50E490E4A01235C0590600868204205D10868204202D108682042F6D0106844
:203640001B04034313600868C00605D40868C00602D40868C006F6D510BDC04604020B4052
:2036600004010B4080B582B00B490C48019000F0B7FC01980A49FEF755FD01980121009138
:2036800000F092FC00990220FFF7A0FA019800F0CBFE02B080BDC0466A4F00000000094018
:2036A000F44E00001CB50A0017D000230124E407A04200D20400944201D95200FBE7904265
:2036C0005B41904200D3801A914201D25208F6E719000200080011001CBD01000020FDF710
:2036E00046FF1CBD08B443001B0E0FD0FF2B11D00721C9015B18C10FC9020B4301004807FC
:203700004902090B1B05194308BC70470021002008BC704701004002C90DC900C91D0905C1
:2037200008BC704710B584B0079C069C039002910192009302980199084300990843069982
:203740000843079908430449084303998900034A885004B010BDC046800004000480424040
:2037600010B584B0079C069C039002910192009302980199084300990843069908430799D2
:2037800008430449084303998900034A885004B010BDC046800004000480424010B586B0F0
:2037A00001930B4601460198059104A90B8003AB1A8002AA10800598054C001909881B88B7
:2037C000194312881143034A00F0EAF906B010BD0418000080FF000080B584B003AA0092B9
:2037E000107002A801700298B030C0B200210191FFF748F800980199007800091030FFF770
:2038000041F80098019900780F221040FFF73AF804B080BD80B582B00A490B48019000F09D
:20382000DFFB01980949FEF77DFC0198012100F0BBFB10200021FFF7C9F9019800F0F4FD71
:2038400002B080BD674F000000400840E04E000006B49E22002802D404D106BC70474142C4
:2038600004D400E00100013A4900FCD5803101D3013200E04900490AD2051143002802D5DC
:203880000122D2071143080006BC704770B50A480A4C84420CD00A4D0A4EB54208D02A68D8
:2038A0006968501C12789200A25890470835F4E700BF00BF70BDC046C44F0000B84F0000FB
:2038C000CC4F0000DC4F0000FCB4020C0B0CFF242402FF34204021400C00444315005D4348
:2038E00006005E430F005743320C3B0CA818C01832043B040025A1186841C9186841FCBC1D
:203900007047000006B54100090E7F390DD41F22511A0CD9864600020122D2071043C8408E
:203920007246002A00D5404206BD002006BD02000120C007002A00D4401E06BD10B584B0A6
:20394000069C03900291019200930298019908430099084306990843034908430399890070
:20396000024A885004B010BD810004000480424010B584B0069C0390029101920093029896
:203980000199084300990843069908430349084303998900024A885004B010BD810004008E
:2039A0000480424084B002900191009202980099884203DDFFE7009803900AE0029801990B
:2039C000884203DAFFE70198039002E002980390FFE7039804B0704706B5002803D57346BF
:2039E000FFF790FF06BD4100090E7F3908D31F22511A07D300020122D2071043C84006BDF2
:203A0000002006BD0020401E06BD000085B000920A460099019202460198049203AA10709B
:203A200002A8018000880499127812018918024A885005B07047C0460C12000080B582B0DD
:203A4000019000200090FFE700980749884208DCFFE70198FEF762FFFFE70098401C00906A
:203A6000F2E702B080BDC046E703000083B002AA107001A8017001200090FFE701AA10784B
:203A8000411E1170002806D0FFE702A80078009948430090F2E7009803B0704781B0014639
:203AA0006846017000214056002809D4FFE7684601781F2001400120884002490860FFE71C
:203AC00001B0704780E200E081B001466846017000214056002809D4FFE7684601781F209D
:203AE00001400120884002490860FFE701B0704700E100E004B40422002802D1002104BC20
:203B0000704701D50832404212021F320100521E4900FCD30805090B1205114304BC70476B
:203B200080B582B001900091FFE7074800F0C4FB002801D0FFE7F8E701A80178024800F0FE
:203B400085F9019802B080BD0020104082B000900098002803D1FFE70120019006E00548CE
:203B600000680099086000200190FFE7019802B07047C046C402202084B00390029101924A
:203B8000039800680090009801998843009000980299019A114008430399086004B070472C
:203BA00084B0039002910192039800680090009801998843009000980299019A114008438E
:203BC0000399086004B0704784B0009202460098039202AA117001900198039912781201AB
:203BE0008918024A885004B07047C0460812000084B0009202460098039202AA117001907C
:203C000001980399127812018918024A885004B07047C0460412000080B584B00191014644
:203C20000198039102A908800398044A8018098807221202FFF7B4FF04B080BD38120000F1
:203C400080B584B0019101460198039102A908700398044A801809780722FFF7A1FF04B05D
:203C600080BDC0463812000081B000900549042008600098401E044908600449002008609C
:203C800001B0704710E000E014E000E018E000E080B584B0019101460198039102A90870AE
:203CA0000398044A801809787022FFF779FF04B080BDC0460C11000080B584B001910146AC
:203CC0000198039102A908700398044A801809780722FFF765FF04B080BDC0460C110000FB
:203CE000084880F3088800BF00BF00F095FC002801D0FFF7CBFD0020FDF7AAFD012000F0EF
:203D000071FCC0460080202083B0009101460098029101A908700298097809014118092071
:203D20004202885802239843885003B0704783B0009101460098029101A9087002980978AA
:203D40000901411809204202885802231843885003B0704780B584B0019101460198039182
:203D600002A908800398092252028018098803225202FFF715FF04B080BD70B501221203FC
:203D800083180C785D680C26B54334402C195C60497883580724A34321405918815070BD23
:203DA00083B0009101460098029101A9087002980978090140180249405880B203B07047AF
:203DC0000C12000080B582B001900091019805494018009909020F221202FFF7E1FE02B08D
:203DE00080BDC0460C110000B0B504460020002B08D0D2B20D782570954204D0641C491C63
:203E00005B1EF7D1B0BD601CB0BD000082B00190009100980349084301998900024A885041
:203E200002B07047800004000480424080B582B0014601A8018001880F2002020248FFF7BB
:203E4000AFFE02B080BDC04604010B40064A80180268120605D50268120602D50268120651
:203E6000F6D481617047C0460811000080B5064800F0F8FA002805D0FFE7FEF739FAFEF75B
:203E8000EBFBFFE780BDC0460000094080B582B00190009101981121090240180099032255
:203EA000D203FFF77DFE02B080BD000082B001900091009B0199034A88581843885002B032
:203EC0007047C0464810000082B001900091009B0199034A88581843885002B07047C04675
:203EE0004810000081B0009000988100034A885801235B061843885001B07047048042403D
:203F000081B0009000988100034A885801235B061843885001B070470480424082B00190B1
:203F20000091009B0199034A88581843885002B07047C0462810000082B0019000910098C8
:203F40008021084301998900014A885002B070470480424082B0019001980449405802215C
:203F6000084000906846007802B070473412000080B582B0014601A80170017802480322E4
:203F8000FFF70EFE02B080BD00010B4080B582B0014601A80170017802483022FFF700FE13
:203FA00002B080BD04010B4082B001900091009B0199034A88581843885002B07047C0466A
:203FC0002810000010B592008018044A83580724A404A34321405918815010BD3018000020
:203FE00010B50122120383180C789C604B7883508978014A815010BD0C11000082B0019049
:204000000091009B0199034A88581843885002B07047C0462810000082B0019000910098E7
:204020000199024A885002B07047C046D012000082B00190009100980199024A885002B015
:204040007047C046D012000081B0009000990120C2020248885001B07047C04601000026CB
:2040600082B0019000910198024940580099084002B070473810000081B000900098810004
:20408000024A8120885001B07047C0460480424081B0009000988100024A8120885001B097
:2040A0007047C0460480424081B000900099024A0248885001B0704704080000030000B14D
:2040C00082B00190009100980199024A885002B07047C0469012000082B001900091009839
:2040E0000199024A885002B07047C0469012000082B001900091009B01999D204201885888
:204100001843885002B0704782B00190009100980199024A885002B07047C0464810000092
:2041200081B00090009909204202885801231B021843885001B0704781B000900099034A55
:20414000885801231843885001B070472812000081B000900099034A8858042318438850A5
:2041600001B070472812000081B0009000990120C2020248885001B07047C04601000026A7
:2041800081B0009000990120C2020248885001B07047C0460100002682B00190009101983C
:2041A000024940580099084002B070473010000081B000900099024A0248885001B0704762
:2041C00004080000030000B181B000900099024A0248885001B0704704080000030000B12F
:2041E00082B001906846017000780199014A885002B070472412000081B001466846017072
:2042000000780249086001B07047C04608030B4081B0009000990120C2020248885001B09D
:204220007047C0460100002681B000900099024A0248885001B0704704080000030000B1AA
:2042400010B5029CA400001911431943014A815010BDC0465018000081B000900099034A90
:20426000885801231843885001B070470418000082B00190009100980199024A885002B027
:204280007047C0465810000081B00090009911200202885801235B041843885001B070476C
:2042A00081B0009000990120C2020248885001B07047C0460100002681B000900098034963
:2042C00040580121084001B07047C0460811000081B000900099024A0248885001B0704725
:2042E00004080000030000B180B5034A03480021FFF748F880BDC046B04E000000A0424077
:2043000080B5034A03480121FFF73CF880BDC046C84E000000A0424082B00190009101981C
:204320002721C90140580099084002B0704782B00190009101982721C90140580099084011
:2043400002B0704782B00190009101982721C90140580099084002B0704781B000900099B9
:2043600011200202885801231843885001B0704781B0009000991120020288580423184378
:20438000885001B0704703228058002805D0401E4A1C00230B701146F7E7704782B00190D2
:2043A00000910098019995225201885002B0704782B0019000910098019995225201885087
:2043C00002B0704782B0019000910098019995225201885002B0704781B0009000980249FF
:2043E000405801B07047C0461812000081B000900099024A0020885001B070471412000061
:204400000349086801221202904308607047C04608010B40034908680122120310430860AE
:204420007047C04604010B4081B000900099024A0120885001B070470811000082B001908C
:2044400000910098019911221202885002B0704781B00090009802494058C0B201B07047FB
:204460002411000081B000900098812149014058C0B201B0704781B000900098812149010B
:204480004058C0B201B0704710B50122120383180C789C604978815010BD10B500239A426F
:2044A00003D0CC5CC4545B1CF9E710BD80B50B4603214258C11D184600F076F880BD0000AA
:2044C00002490868012290430860704708010B4002490868052210430860704710E000E094
:2044E00092008018014A81507047C0461018000080B501200006FFF7B7FBFFF7E9FF80BD72
:204500000B4611461A4680B500F00FF880BD0021425C491C002AFBD1481E70470021425C34
:20452000491C002AFBD1481E704700239A4202D0C1545B1CFAE77047014800687047C046A0
:2045400018E000E00A46002180B5FFF7EEFF80BD811E091F00BFFCD2704702460B462846AB
:204560002146FFE782B00094014C019410BD00BF0D22000002460B4630463946F2E70246DC
:204580000B4606980599EDE7314622462B46FFE782B00094014C019410BD00BFDD13000060
:2045A00000487047F803202080B5FFF776FF80BD80B5FFF7B5FA80BD80B5FEF7BBFE80BDAD
:2045C00022462B4600E0000082B00094014C019410BD00BFE713000032463B46C2E73046DC
:2045E0002946BFE700F003F8FEE7FFE7FEE700BF70473B46E8E72346E6E72346B2E7334694
:20460000E2E701E07047000082B00094014C019410BD00BFE13C0000012070470000000010
:2046200000000000000000000000000000000000000000F80000000000000033300000001F
:2046400000100C06100C0600000000000000000040C07840C0784000043F04043F04040054
:20466000007088FC08300000001820FF211E0000F008F000E018000000211C031E211E001B
:2046800000F00888700000001E2123241927211010160E00000000000000000000000000FF
:2046A000000000E018040200000000071820400000020418E0000000004020180700000000
:2046C000404080F0804040000202010F01020200000000F0000000000101011F01010100BC
:2046E000000000000000000080B07000000000000000000000000000000101010101010113
:204700000000000000000000003030000000000000000000806018040060180601000000BE
:2047200000E010080810E000000F102020100F00001010F8000000000020203F2020000034
:204740000070080808887000003028242221300000300888884830000018202020110E0093
:204760000000C02010F8000000070424243F240000F80888880808000019212020110E00E2
:2047800000E0108888180000000F112020110E0000380808C83808000000003F00000000F3
:2047A0000070880808887000001C222121221C0000E010080810E0000000312222110F00B6
:2047C000000000C0C000000000000030300000000000008000000000000080600000000099
:2047E0000000804020100800000102040810200040404040404040000404040404040400A6
:2048000000081020408000000020100804020100007048080808F00000000030360100003A
:20482000C030C828E810E0000718272423140B000000C038E0000000203C2302022738203A
:2048400008F8888888700000203F202020110E00C030080808083800071820202010080093
:2048600008F808080810E000203F202020100F0008F88888E8081000203F20202320180048
:2048800008F88888E8081000203F200003000000C03008080838000007182020221E0200A5
:2048A00008F808000008F808203F210101213F20000808F8080800000020203F202000000F
:2048C00000000808F8080800C08080807F00000008F888C028180800203F20012638200073
:2048E00008F8080000000000203F20202020300008F8F800F8F80800203F003F003F2000B4
:2049000008F830C00008F808203F200007183F00E01008080810E0000F10202020100F002C
:2049200008F808080808F000203F210101010000E01008080810E0000F18242438504F00A6
:2049400008F8888888887000203F2000030C302000708808080838000038202121221C00C9
:20496000180808F8080818000000203F2000000008F808000008F808001F202020201F00A2
:204980000878880000C83808000007380E010000F80800F80008F800033C0700073C030035
:2049A000081868808068180820302C03032C30200838C800C83808000000203F200000005A
:2049C00010080808C83808002038262120201800000000FE020202000000007F404040006D
:2049E000000C30C000000000000000010638C00000020202FE000000004040407F00000079
:204A0000000004020202040000000000000000000000000000000000808080808080808088
:204A20000002020400000000000000000000000000008080808000000019242222223F206C
:204A400008F8008080000000003F112020110E000000008080800000000E11202020110097
:204A6000000000808088F800000E112020103F200000808080800000001F2222222213002E
:204A8000008080F0888888180020203F202000000000808080808000006B9494949360001D
:204AA00008F8008080800000203F210000203F2000809898000000000020203F2020000008
:204AC000000000809898000000C08080807F000008F8000080808000203F24022D302000E5
:204AE000000808F8000000000020203F202000008080808080808000203F20003F20003F52
:204B00008080008080800000203F210000203F200000808080800000001F202020201F0058
:204B2000808000808000000080FFA12020110E000000008080808000000E112020A0FF8078
:204B4000808080008080800020203F21200001000000808080808000003324242424190038
:204B6000008080E0808000000000001F202000008080000000808000001F202020103F2008
:204B8000808080000080808000010E300806010080800080008080800F300C030C300F002E
:204BA00000808000808080000020312E0E312000808080000080808080818E701806010079
:204BC00000808080808080000021302C2221300000000000807C020200000000003F404026
:204BE00000000000FF00000000000000FF0000000002027C800000000040403F00000000F8
:204C0000000601010202040400000000000000000000000000000000002F0000000007004A
:204C2000070000147F147F1400242A7F2A12006264081323003649552250000005030000D8
:204C400000001C224100000041221C000014083E08140008083E0808000000A0600000087A
:204C600008080808000060600000002010080402003E5149453E0000427F400000426151C6
:204C80004946002141454B31001814127F10002745454539003C4A4949300001710905039B
:204CA00000364949493600064949291E000036360000000056360000000814224100001443
:204CC0001414141400004122140800020151090600324959513E007C1211127C007F494901
:204CE0004936003E41414122007F4141221C007F49494941007F09090901003E4149497A12
:204D0000007F0808087F0000417F4100002040413F01007F08142241007F40404040007F9F
:204D2000020C027F007F0408107F003E4141413E007F09090906003E4151215E007F0919FB
:204D400029460046494949310001017F0101003F4040403F001F2040201F003F4038403FDD
:204D600000631408146300070870080700615149454300007F41410000552A552A550000D8
:204D800041417F00000402010204004040404040000001020400002054545478007F48441F
:204DA000443800384444442000384444487F00385454541800087E0901020018A4A4A47C6E
:204DC000007F080404780000447D4000004080847D00007F102844000000417F4000007C93
:204DE00004180478007C0804047800384444443800FC242424180018242418FC007C08045F
:204E0000040800485454542000043F444020003C4040207C001C2040201C003C4030403C03
:204E2000004428102844001CA0A0A07C004464544C44141414141414000000000000F03FDF
:204E4000000000000000F83F000000000000000006D0CF43EBFD4C3E0000000000000000C1
:204E60000000004003B8E23F010000000000000000000000400000000000000000000000D5
:204E80000200000004000000010000002C00C4417B4325643A25643A25643A25643A256487
:204EA0003A25643A25643A25643A25647D2400001500000000000000000000000000000030
:204EC0000000000000000300130000000000000000000000000000000000000000000300B9
:204EE00002000000D33000000100000000000000000000000200000023F400000100000092
:204F0000000000000000000030313233343536373839616263646566007B4225643A256426
:204F20003A25647D2400000018000000003000000000180000000030000000000800000075
:204F400000300000401F000020000100E80300000001000073656E3A0045423A0045413AB4
:184F60000008000008000008001F08003F08000800080008000000009B
:204F7800005500000F0112014001018F012202C01502030F01240440FF000004BF02017F15
:204F98007EB6013F20A03F0033C8410033006700232100330E7F000C42003300155AFFF0CD
:204FB800D52C0000AD4400008743000002000000C8020000784F0000C8022020C44F00006D
:084FD800000020200000000091
:00000001FF
