:20000000008020202D8F0000218F0000218F00000000000000000000000000000000000004
:20002000000000000000000000000000218F00000000000000000000218F0000858D00004E
:20004000218F00006931000039840000218F0000218F0000218F0000218F0000218F000029
:2000600000000000218F0000218F00000000000000000000218F000071750000218F0000DA
:2000800001740000218F0000218F0000218F0000218F0000218F000000000000000000007B
:2000A000218F0000218F00000000000000000000218F000000000000218F0000218F0000D0
:2000C000F0B5FFB08EB0049306920646929802900025E84305908C913468204608F071FEEC
:2000E00021188B9503918C4200D3BBE00020879087A908738890059889902F46049D207879
:20010000002800D1AFE0252805D0641C34600699A8477F1CF3E78B97601C306087AC204657
:20012000314600F0A7F88CAA2046314600F0BFF8306801787A2925D0682919D06A2908D071
:200140006C290ED0742908D04C2922D1879980221BE087990122D20217E0879901225203EC
:2001600013E0427887996C2A64D10122120205E042788799682A60D101225202114387914B
:20018000801C05E08799012212030A438792401C0178441C346087A8017373291FD06E2992
:2001A00029D1879832490840202850D040283CD001214A03904238D04A02904242D0CA0242
:2001C000904205D00A0390422FD0090288422CD1F8178C9904C98C91176050603BE087A839
:2001E0000078400619D4009587A88CAA8BAB069900F01DF92FE007AD87A98CAA284600F0F8
:200200006DF9024628460699029B9847411C059D00D0C5198B9503991FE0009587A88CAA45
:200220008BAB069900F09FF815E08C9802C88C900F6010E0401C402201E0401C2022114373
:200240008791A5E78C9802C88C900F7003E08C9802C88C900F8003998B9D681C00D042E7B4
:20026000059F00E02F4638467FB00EB0F0BDC046603F000010B50A681378302B0FD0232B7E
:2002800007D02B2B09D02D2B05D0202B0ED1042306E0082304E0012302E0022300E01023A7
:2002A00004681C430460521C0A60E5E710BDFEB516460D460446086802782A2A10D130683B
:2002C000011D316000686060002805D54042606020680121014321602868471C2F6017E01B
:2002E0000021303A092A08D84218531C2B60435C6F467B545278491CF3E76A460023535466
:2003000012784718002A03D0684607F0CDFA606038782E2826D1781C286079782A2908D195
:200320003068011D31600068A0602868401C2860FEBD00203039092908D839188A1C2A60C3
:200340004A786B461A548978401CF3E76A46002111541078002804D0684607F0A5FAA06087
:20036000FEBDA160FEBDF0B587B01E460C9F13681C1D14601D68002D3BD00491069084681F
:20038000002C04D4284608F00DFD844203D3284608F008FD044606984068A042039000DC01
:2003A000204601463068019140180296306005940398A0420EDD06980078C0070AD1059890
:2003C00001990E1A0024B44204DA20200499B847641CF8E70026049C069805998E420BDA71
:2003E0002868010A19D12D1DC0B22146B847761CF2E70020B84718E00599039A8A4214DDDC
:200400000078C00711D00198451A0024AC420CDA20200499B847641CF8E70020C0430299D3
:20042000086008F05BFD5821016007B0F0BDF0B585B00C4606460A9D1068011D1160006838
:200440000490002844D00393B768002F04D4049808F0B7FC874203D3049808F0B2FC07469B
:2004600002967268BA42114600DC3946039B18680091401818600192BA420FDD0298007850
:20048000C0070BD10098C01B039000260398864204DA20202146A847761CF7E70026BE4220
:2004A00005DA0498805D2146A847761CF7E70198B84210DD02980078C0070CD00098C61B70
:2004C0000027B74207DA20202146A8477F1CF8E700202146A84705B0F0BDC046F0B589B04F
:2004E00001920F460446FF210846FA30251878680290002607960391FE31202220460092C3
:2005000008F058FC7F20800006942118089104952E713D46387B0246613A172A2AD801234C
:2005200093402C46B44D2B42254608D007A908AA2846019B00F066F900260596B3E0712520
:200540002B42254622D1022A14D1019B1868021D1A600068C2B2534253410593039AFC32A2
:20056000069B9A18089208702868022188432860002698E001464539032907D3252860D02A
:20058000412803D058280596D0D08DE0019A1068C11D0720814308460830106005C9D14343
:2005A0002F7B4900490D0BD17B3F944911400143049C2CD01920C1438F4234D36E2033E098
:2005C000002A01D4114602E00121C9075140D60F002205923A46413A062A0BD9613F062FDE
:2005E00061D8C0467F443F797F00BF440B5C5C5C3B3631007A441279520097440354545489
:20060000332E290008AB2A4602F0E6F94BE0002311461A46059306F0EFF91921C9438F42CA
:2006200025D3662224E04E20E0708F4201D3612100E04121A17008946070002005900226B5
:2006400031E0002006994870252008700120A1E008AB2A4602F0CAFB25E008AB2A4606F0BB
:200660004FFC20E008AB2A4603F03EFE1BE04622E2708F4201D36E2200E04E22A2708F42C0
:2006800001D3692100E0492161703F21C900069A51180891002803D02D202070042602E032
:2006A0002B2020700326287B012701466F39092904D801228A4052490A4201D158286BD10C
:2006C000049B029C04972946069F3D1908980C460978C90707D1191D091A62689142069F22
:2006E00001DC691A4F1C411C0398430000263846324607F05FFE08900599002903D0411CF5
:200700000891067000E00146A94206D8481E691A491C202208F04EFB2E702078C00605D434
:200720000698391A202208F045FB2EE0069887422BD00698391A3026324608F03BFB079852
:200740004142414104980140012905D12078400702D43846069905E03878069A511C1070C3
:20076000781C3E70227B412A0CD0582A05D0612A08D0782A01D0702A07D123781B0701D422
:20078000612A02D142784A704670069808F019FB0599401809B0F0BD002E09D0012E049BF6
:2007A000029C8FD10120079029680220084007E0079A296802200840002A09D0049B029CC5
:2007C00008994A1E08922D220A704742474179E70028049B029C08D1480700D472E70898E2
:2007E000411E0891009901706CE70898411E08912B210170002765E708C19000FFFF0F0076
:2008000043020000F8B514460F4605468068002804D4286810218843286001E00120A860E6
:20082000287B1026582808D0782806D0702804D06F2801D1082600E00A262846194600F041
:2008400055F8AA68002A09D102460A4306D12878000749D52B7B0020024612E02B7B642BCF
:2008600003D1642300290BD504E0692B08D1002906D5692301223A60002240428A4100E027
:200880000A4600941146324600F0B0F8A968884206DA401C21684A1E226030220A70F5E7DB
:2008A000287B582803D0782801D070280FD1297809070CD5702800D1782021684A1E226053
:2008C00008702068411E216030210170287B6F280AD12878000707D520684178302903D071
:2008E000411E216030210170F8BDC04610B5037B702B05D10868021D0A60006800226FE015
:200900000068384A024001204403A24222D0402A20D00402A24230D04402A24246D0C40223
:20092000A2422AD00403A24214D0202A12D100221C46643C142C06D8A0402B4C204204D10D
:20094000212420423ED1582B49D10868031D0B60008845E000221C46643C142C06D8A0407A
:20096000214C204204D1212420422BD1582B36D10868031D0B60006832E01A46643A142AF5
:2009800006D89040184A104206D12122104203D10020582B024623D10868C21D072082439B
:2009A0001046083008601068526819E000221C46643C142C0CD8A0400B4C20420AD1212415
:2009C000204205D00868021D0A600068C21707E0582B04D10868031D0B60007800E01046BE
:2009E000114610BD603F000000081200FEB501920D460646582B01D0174800E015480090B5
:200A0000089802903046284305D1029A1068411E116030210170019C3046284313D0304670
:200A20002946224600F01AF807460D46224607F0AFFC301A0099085C029B19684A1E1A60EC
:200A400008703E46E8E70298006808F0BAF9401EFEBDC04648A6000059A6000080B5102AA3
:200A600006D0082A09D1C0084A078018C90880BD00090A078018090980BD002904D111467F
:200A800006F0D2FE002180BD002308F0F5F880BD10B5A0B000201F901E9006F0F5F802F086
:200AA000F1FF07F007FEEF4807F094FF01201A9007F08AFA1A9807F087FA0E201B9007F049
:200AC00083FA1A9807F096FA1A9807F093FA1B9807F090FA10201C9007F076FA02201D90E4
:200AE00007F072FA1C9807F085FA1D9807F082FA06F0D2FC03F0A2FDFFE705F06FF906F0B2
:200B00000DFCD94916910880D84A0220159001210E9108241994234605F0F6FDD448006823
:200B200007F060F90E990246009414200523179304F09EF90E99CF4A3C201090234605F037
:200B4000E3FDCD48006807F04DF90E99179B024600944E2004F08CF91599C84A0846234668
:200B600005F0D2FD159BC6480F900278009419201490194604F07CF90F98159B42780094FC
:200B80002620194604F074F90F98159B827800943320194604F06CF90F98159BC27800943A
:200BA0004020194604F064F90F98159B027900944D20194604F05CF90F98159B4279009404
:200BC0005A201190194604F053F90F98159B827900946720194604F04BF91598A94A032193
:200BE0001291234605F090FD12991498159BA64A1278009404F03CF910981299A34A234680
:200C000005F082FD11981299159BA14A1278009404F02EF91598199B9E4A0421139105F031
:200C200073FD9D48006806F01FFE02460B469B4818909B4907F038F81399189A199B1498F7
:200C400005F062FD15981799199B964A05F05CFD169918980A88944907F026F81799189ABC
:200C6000199B1E2005F050FD06F05EFC01280DD1FFE785480178491C01700078062804DB62
:200C8000FFE7814901200870FFE7FFE706F0FAFA01280DD1FFE77E480178491C01700078DB
:200CA000042804DBFFE77A4901200870FFE7FFE706F0C2FA012800D0D2E005F05DFD7B48AC
:200CC00007F088FEFFE706F029FB67490A910880664A022009900121029108240D9423466E
:200CE00005F012FD6248006807F07CF8029902460094142005230B9304F0BAF802995D4A1A
:200D00003C200490234605F0FFFC5B48006807F069F802990B9B024600944E2004F0A8F808
:200D20000999564A0846234605F0EEFC099B544803900278009419200890194604F098F846
:200D40000398099B427800942620194604F090F80398099B827800943320194604F088F8F2
:200D60000398099BC27800944020194604F080F80398099B027900944D20194604F078F8BD
:200D80000398099B427900945A200590194604F06FF80398099B827900946720194604F054
:200DA00067F80998374A03210691234605F0ACFC06990898099B344A1278009404F058F82E
:200DC00004980699314A234605F09EFC05980699099B2F4A1278009404F04AF809980D9B6F
:200DE0002C4A0421079105F08FFC2B48006806F03BFD02460B4629480C90294906F054FFD6
:200E000007990C9A0D9B089805F07EFC09980B990D9B244A05F078FC0A990C980A882249CD
:200E200006F042FF0B990C9A0D9B1E2005F06CFC06F002FA01280BD0FFE71D480068C1176D
:200E4000890F4018811010480078884207D1FFE7164807F0CBFD05F0DDFBFFE7FEE732E7EB
:200E60004BE6C0460080864032052020EBA6000018032020E7A600002C032020D4A600001C
:200E80002B052020D9A60000B8052020C8A60000BC052020DEA60000A4032020F602202054
:200EA00061A40000CEA60000E3A600000040084084052020F0B58BB00A460346E2490646EF
:200EC0003778C8194078761CC006F9D42D2F01D02B2F01D1307801E0761E384607F0E5FFD6
:200EE00001D3014601E0014620394E293FD0492959D1707807F0D9FF00D220384E284CD1C0
:200F0000B07807F0D2FF00D22038462845D1002A01D0F01C1060F07807F0C7FF00D220386D
:200F200049281FD1307907F0C0FF00D220384E2818D1707907F0B9FF00D22038492811D153
:200F4000B07907F0B2FF00D2203854280AD1F07907F0ABFF00D22038002A03D0592801D1BB
:200F6000083616602D2F00D1C7E0BA49C6E0707807F09BFF00D2203841280ED1B07807F036
:200F800094FF00D220384E2807D1B0490024002A00D127E1F01C106024E1002A00D0136038
:200FA000002421461EE1AC490791002530280292049317D1707807F078FF00D2203858288A
:200FC00010D1B078A04909184978890707D42E2808D1F0789C4908184078800702D5B61C4E
:200FE0009E4807902C469C4B07F063FF411E884108909A4B059507F05CFF411E8841039076
:201000000A9506952B46294632782E2A03D1002939D1012135E009911446303C0A2C01D30C
:20102000002100E001210898084201D0284611E00398002827D0844881184978890722D50C
:2010400028460A2C06D3114661391A2900D2203A1446373CE200824B99189D584C680A993A
:20106000059A079B04F06AF82A46234602F04DF905460A910999002902D00698401E0690B3
:201080000123761CC0E701202D2F099003D1C0070A9941400A91069FBC00039800282046F9
:2010A00000D13846002B00D181E00899002909D01346613B1A2B01D3134601E01346203BE5
:2010C000452B09D00399002912D01346613B1A2B00D2203A502A0DD172782D2A019501D0BA
:2010E0002B2A0DD1B11C0491B4780023DB430BE004963DE0049627463AE05549002471E018
:20110000711C0491002314462546303D092D25D800234D25AD00303C092C24D82D2A01D01E
:201120001E4600E05E423618F7177E40F61BAE42099F00D80027089939420AD10127B9022F
:201140008E4200D800270399394202D10A2159430B19049C611C64780491DCE70499C9181C
:20116000491E049100232D2A019D00D15B421F18002428460A992246234605F033FC002864
:2011800015D10898002817D04D20800087421ADD07F0A4FE22210160002428460A99224633
:2011A000234605F029FC002816D12A4915E02C46029A049B0A9912E028460A993A4604F06E
:2011C0007DF9044609E0274887420EDC07F086FE22210160214600E01D49029A049B002A13
:2011E00000D0136020460BB0F0BD002F15D41E4C029A049B002F0ED0F80709D00CCC2846F6
:201200000A99083C03F09AFF049B029A05460A917F080834EEE72C46CCE728467C42124DF2
:20122000029A049B002C0CD0E10707D00CCD0A99083D03F011FB049B029A0A91640808356D
:20124000F0E70446B6E7C04660A300000000F87F0000F0FF0000F07F00002440000030401E
:2012600068A40000CCFEFFFFE8A4000010B588B004F0B4FD06F02CF8C6490860C648006865
:20128000C649096802F03EFDC5480088AF214900884205DCFFE7C2480088002805DCFFE7E1
:2012A000C0480078012800D08FE0BD480088AF21490088421ADCFFE7BA480078002815D172
:2012C000FFE7B7480088012810DBFFE7BE4900200860BF490860BD490860BE490860B249D0
:2012E0000870B2490870B3490870FFE7AD4901200870BB480068002818D4FFE7B84800684D
:20130000282813DCFFE7AC480068B74904F047F9AA498860AA480068B24904F040F9A949C9
:201320008860AF490868401C08602CE0AC480068292818DBFFE7AA480068822813DCFFE72E
:201340009D480068A74904F02AF99C4988609C480068A54904F023F99A498860A0490868FE
:20136000401C08600EE09E480068832809DBFFE791480068914988609148006891498860F2
:20138000FFE7FFE7FFE706F0A7F9002804D0FFE7964901200870FFE794480078012813D164
:2013A000FFE792480078079006F096F901460798884208D0FFE77B49002008708B490870C3
:2013C00087490860FFE7FFE7B2E006F09DFB002815D0FFE774480078002810D1FFE7734818
:2013E000007800280BD1FFE771490868401C08606E49002008706C4901200870FFE706F024
:201400006BF9002834D0FFE76C4800696A49096804F0C0F8002105F035FB00280BD0FFE73A
:20142000654800686C4904F0BAF8644988606549002088600AE062480068674904F0AFF8AA
:20144000604988605D4900208860FFE759480078002809D1FFE7504800685B4908604F48C3
:2014600000685B490860FFE752490120087049E050480078002832D0FFE747480068524903
:201480000968411A5148016044490968504A12688A1A50490A6000680968401A06F0ECFFB9
:2014A00019214901884218DBFFE74348006839490691096804F06EF80699404A906040488D
:2014C0000068096804F06BF83E49886039490020087036490120087000E0FFE711E0364806
:2014E00000682C490591096804F054F80599334A906033480068096804F051F831498860CA
:20150000FFE7FFE729480078012810D1FFE73348C07801280BD1FFE723480078012806D1A5
:20152000FFE721490020087020490870FFE7FFE7224881680161234A00929168116181680E
:20154000006804F029FF01460098294C049421608168006804F0DEFE264903910860206886
:201560007D214A0102922449019106F007FC0199029A034603982360006806F0FFFB039965
:20158000024604980A600068096803F0DFF808B010BDC04664052020840320208803202094
:2015A00032052020B6052020B5052020B405202084052020B20520206805202018032020FE
:2015C0006C0520202C0320205C052020540520206005202058052020000020412B0520209E
:2015E00050052020000070410000C8C1B3052020640320206803202060F0FFFFF0B589B0A6
:201600000F4605460120C1073E468E43B14886420BD3D1483018284300D190E007F05EFCEF
:2016200021210160CD49002550E1AB48864212D8C64AC74B2846394601F067FE0022A54B7F
:2016400005F0F8F9002800D186E0C248864200D382E039463AE10291089700249D49204602
:201660002A46334601F04CFE9C4B224603F066FD05460F469A4A9B4B03F060FD9A4A9B4B1D
:2016800001F043FE07F0D8FB994A9A4B01F03DFE07F0D2FB984A994B01F037FE07F0CCFBEC
:2016A000974A984B01F031FE07F0C6FB964A974B01F02BFE07F0C0FB06900791944A954B14
:2016C00007F028FC944A954B01F01FFE07F0B4FB934A944B01F019FE07F0AEFB924A934B5F
:2016E00001F013FE07F0A8FB22467A4B01F00DFE039004912846394602F00CF905900C4632
:201700008B48864200D283E007F0B3FB02460B46059D2846214603F011FD2A4607F004FCDC
:2017200002460B4601F0F1FD824A864B01F0EDFD02460B468148844901F0E2FDC0E07D4A53
:201740007D4B07F0E7FB04460E467C4A7E4B07F0E1FB2246334657E0284639462A463B46F2
:2017600003F0ECFC064608970F465D4A5D4B03F0E5FC5D4A5D4B01F0C8FD07F075FB5C4A19
:201780005C4B01F0C2FD07F06FFB5B4A5B4B01F0BCFD07F069FB5A4A5A4B01F0B6FD07F05D
:2017A00063FB594A594B01F0B0FD07F05DFB04460791574A574B3046394603F0BFFC564A2F
:2017C000564B01F0A2FD07F04FFB554A554B01F09CFD07F049FB544A544B01F096FD07F0DB
:2017E00043FB00223B4B01F090FD02460B462046079903F031F802460B462846089C2146B8
:2018000003F09CFC2A46234601F07FFD05465DE000263046214632460196234603F08EFC77
:2018200002460B462846394601F06AFD00900F46059D28462146324607F076FB02460B46F5
:201840000098394603F008F806460F4607F011FB07900691284621462A4607F065FB05907B
:2018600004913046394632463B4601F04EFD02460B463048304901F043FD05460F460598B1
:201880000499079A069B03F059FC2A463B4601F037FD05460F4601982146024607F044FBED
:2018A00002460B46254C264E2046314601F028FD2A463B4601F024FD2246334601F025FDC0
:2018C00005460898002801DC02984140284609B0F0BDC0460000F03FFFFFDF3F0000E03FB9
:2018E00009F7FD0DE13D023F88B20175E0EF493F3B8F68B52882A4BF5544880E55C1C93F37
:201900007D6FEB0312D6D4BF555555555555C53F82922EB1C5B8B33F59018D1B6C06E6BFF5
:20192000C88A599CE52A00404B2D8A1C273A03C03333EF3F075C143326A6913C182D44541B
:20194000FB21E93F26A691BCFB21F93F9C7500883CE4377E0000503E000010C00000F87F93
:20196000F0B587B005460F460122D0070E468643924886420DD3B448864203D8002D3FD077
:2019800086423DD1284639462A463B4601F0BDFCE2E08B488642039112D8914A914B2846E9
:2019A000394601F0B2FC00248B4B224605F042F8E1430291002869D0B00DF92866D2CDE09D
:2019C0008048864220D8854886423FD8284631462A46334601F099FC00277C4B3A4601F020
:2019E00094FC044628460D4601218B07314602973A4601F08AFC02460B462046294636E00D
:201A0000002920DC924F1FE06F48864234D800246F4B284607F072FA2A4605460F466D4BBF
:201A200010463146224603F089FB6B4B224601F06CFC02460B462846394602F00DFF0546B4
:201A40000F46022021E0814F824D87E0029200245E4B284607F052FA2A4605460F465E4B3D
:201A6000104607F04BFA02460B462846394602F0F3FE05460F4609E0002054492A4633463C
:201A800002F0EAFE05460F46032002900695284639462A463B4603F051FB059004910246ED
:201AA0000B4603F04BFB04460D464F4A4F4B03F045FB4F4A4F4B01F028FC07F0CBF94E4AFE
:201AC0004E4B01F022FC07F0C5F94D4A4D4B01F01CFC07F0BFF94C4A4C4B01F016FC07F09B
:201AE000B9F94B4A4B4B01F010FC02460B460598049903F023FB04900591474A474B204675
:201B0000294603F01BFB464A464B01F0FEFB07F0A1F9454A454B01F0F8FB07F09BF9444A95
:201B2000444B01F0F2FB07F095F9434A434B01F0ECFB07F08FF9224A964213D8049A059BD4
:201B400001F0E3FB02460B4607F0C0F902460B462046394601F0D4FB05460F4628463946A2
:201B600007B0F0BD029AD400354A1319125902925A680192049A059B01F0C7FB02460B4608
:201B80003048011906594D6807F0A0F932462B4601F0B6FB22463B4601F0B2FB02460B4664
:201BA0000298019901F0ACFB05460F4603980028D4D50120C0074740D0E7C04600001044CD
:201BC000FFFFDB3FFFFFF23FFF7F03400000F0BF0000F8BF0000F83F0000F03FFFFFE53F0F
:201BE0009C7500883CE4377E11DA22E33AAD903FEB0D76244B7BA93F513DD0A0660DB13F30
:201C00006E204CC5CD45B73FFF8300922449C23F0D5555555555D53F2F6C6A2C44B4A2BF47
:201C20009AFDDE522DDEADBF6D9A74AFF2B0B3BF711623FEC671BCBFC4EB98999999C9BF34
:201C400030A5000050A500000000F07FFB21F93FFB21F9BF182D445480B58AB009A905918F
:201C6000088006AA049202201070CA205070E32090700920D0706820042104F007F8049AA0
:201C80000598A321117000884006002808D5FFE706A9C0204870C8208870C220C87005E083
:201CA00006A9A32048708870C870FFE709A80088C005800F002808D0FFE706A9C420087165
:201CC000CC204871C620887105E006A9A320087148718871FFE706AAA320D0711072507220
:201CE00075480A2103F0D2FF09A800888007002804D0FFE706A92020087003E006A9D820A5
:201D00000870FFE76D48012106AA03F0BFFF09A800888006002804D5FFE7012004F0C6FEAE
:201D200003E0002004F0C2FEFFE709A80088C005800F002820D0FFE709A80088C005002855
:201D40000AD5FFE706A9B22008708B204870B62088709B20C87009E006A9B0200870802021
:201D60004870B42088709020C870FFE75448042106AA03F08BFFFFE709A80088C007002815
:201D800026D0FFE706AAF82010708B2000010121039103F07BFF07200290FA2100F0BAF9D9
:201DA000029804F0BAFD039805F0FCFC642006F0ADF87D20800006F0C1F84248C82105F003
:201DC000CFFC282006F027F80A2006F03DF808E006AAD82010708B200001012103F056FF60
:201DE000FFE709A800888007002804D5FFE706A9D920087003E006A9D8200870FFE73248D4
:201E0000012106AA03F042FF09A800884007002804D5FFE7012005F0F3FB03E0002005F059
:201E2000EFFBFFE709A80088C006002804D5FFE7012005F0C1FB03E0002005F0BDFBFFE784
:201E400009980821084321490191488100F0AEFC01990020887309A800884006002805D5D8
:201E6000FFE71A49887B801D8873FFE709A80088C005800F002805D0FFE71449887B801D2B
:201E80008873FFE709A800881421084205D0FFE70E49887B10308873FFE709A800888007B3
:201EA000002805D0FFE70949887B001D8873FFE700200AB080BDC046A70A0000B60A00005E
:201EC000A20A000009E3CA023D0700000405202080B596B00E200721029106F051FB89489A
:201EE00014900421039106F019FC02990F20129006F046FB1498082106F010FC12200521A8
:201F0000099106F03DFB0120069001027E48109006F004FC262006210A9106F05DFA0698F0
:201F200000230B930193C0040D9000900321139118461A4605F052FD06980B9B0D9A1399FA
:201F4000019300921A4605F049FD0B9806F0FCFA069806F0F9FA03990B9B0D98019300909F
:201F6000252004901A4605F039FD03990B9B0D9801930090242005901A4605F02FFD0498FC
:201F800006F0E2FA059806F0DFFA14200221089106F0F6FA0899152006F01EFA0899342054
:201FA00006F0EEFA0899352006F016FA3B2006F0F1FB06980B990D9B009142040C922E205D
:201FC00005F0C2FE0B9A0D9B00922720114605F0BBFE0B990C9A0D9B0091332005F0B4FEA4
:201FE0000B990C9A0D9B0091172005F0ADFE0B990C9A0D9B00912F2005F0A6FE222006F0E4
:20200000C9FB212006F0C6FB232006F0C3FB2D2006F0C0FB0B990C9A0D9B0091362005F041
:2020200093FE0B990C9A0D9B00913A2005F08CFE06980B990D9B00910204079219200F90C1
:2020400005F082FE079A0B990D9B0091182005F07BFE08980B990C9A0D9B009105F074FE5D
:2020600009980B990C9A0D9B009105F06DFE0A980B990C9A0D9B009105F066FE0B990C9A14
:202080000D9B00912C2005F05FFE0B990C9A0D9B00912B2005F058FE0B990C9A0D9B0091CD
:2020A0000D2005F051FE0B990C9A0D9B0091162005F04AFE109815490E9106F078FD0E9902
:2020C000109806F02BFB1098114906F09FFB0F9910988905119106F00DFA1098119906F0E5
:2020E00041FA12991498090406F058FA139914980902159106F0FEF91498159906F032FA87
:2021000016B080BD00200A4000000A400070200800203C0080B58AB0024608A8027007AA8A
:20212000118000784007002806D0FFE707A800888049884204DBFFE70020C0430990F5E04B
:2021400007A8008806F08CF87B4904F0A9F9049005A8009004F09EFA00980078801E0190D8
:202160000E286BD80198810001A040588746C046AD2100003D220000D12100003D22000042
:202180003D2200003D220000F52100003D2200003D2200003D2200003D2200003D22000090
:2021A0003D2200003D2200001922000004988D21C90504F023F805F05BFD03A908800498E2
:2021C000614904F01BF805F053FD02A9088039E004982321490604F011F805F049FD03A9AA
:2021E00008800498574904F009F805F041FD02A9088027E004988B21C90503F0FFFF05F0BD
:2022000037FD03A9088004984D4903F0F7FF05F02FFD02A9088015E004984521090603F0EE
:20222000EDFF05F025FD03A908800498434903F0E5FF05F01DFD02A9088003E00020C04320
:20224000099073E003A8407806A908700398487002A8407888700298C87008A80078C0079A
:2022600000281CD0FFE775208000022106AA03F00DFD002804D0FFE70020C043099055E0AC
:2022800006A8821C49208000022103F0FFFC002804D0FFE70020C043099047E0FFE708A89D
:2022A0000078800700281CD5FFE73B20C000022106AA03F0EBFC002804D0FFE70020C04353
:2022C000099033E006A8821C2520C000022103F0DDFC002804D0FFE70020C043099025E06F
:2022E000FFE708A80078400700281CD5FFE777208000022106AA03F0C9FC002804D0FFE706
:202300000020C043099011E006A8821C4B208000022103F0BBFC002804D0FFE70020C04307
:20232000099003E0FFE700200990FFE709980AB080BDC04641060000000048430000C04428
:20234000000040450000C0450000404610B588B003F044FD04F0BCFF754908607548006842
:202360007549096801F0CEFC05F0CEFB002815D0FFE772480078002810D1FFE77048007871
:2023800000280BD1FFE76F490868401C08606C4900200870694901200870FFE705F09CF95F
:2023A000002834D0FFE76A4800696849096803F0F1F8002104F066FB00280BD0FFE76348E8
:2023C00000686A4903F0EBF8614988606249002088600AE05F480068644903F0E0F85E49AF
:2023E00088605B4900208860FFE757480078002809D1FFE74F480068584908604E4800685E
:2024000058490860FFE750490120087049E04E480078002832D0FFE7464800684F49096855
:20242000411A4F480160444909684E4A12688A1A4D490A6000680968401A06F01DF819211D
:202440004901884218DBFFE74048006838490791096803F09FF807993D4A90603D48006887
:20246000096803F09CF83C49886037490020087033490120087000E0FFE711E03348006830
:202480002B490691096803F085F80699304A906030480068096803F082F82F498860FFE743
:2024A000FFE727480078012810D1FFE73048C07801280BD1FFE721480078012806D1FFE7FD
:2024C0001E49002008701E490870FFE7204881680161214A0192916811618168006803F0D8
:2024E0005BFF01460198234C059421608168006803F010FF20490491086020687D214A01EF
:2025000003921E49029105F039FC0299039A034604982360006805F031FC04990246059856
:202520000A600068096802F011F908B010BDC046440520208403202088032020B1052020C0
:20254000B005202084052020AF05202048052020180320204C0520202C0320203C05202060
:20256000340520204005202038052020000020412B0520205C0320206003202060F0FFFF7F
:2025800080B5A4B0FFE77E4801907E4800907E487E497F4A7F4B00F02FFB2290FFE778488D
:2025A00000780028EFD1FFE72298002804D0FFE70020C0432390DFE075480390006805F0F7
:2025C000C1FA9D21C905049103F06AFF014603982191406805F0B6FA049903F061FF0146AB
:2025E00003982091806805F0ADFA049903F058FF014603981F91C06805F0A4FA049903F047
:202600004FFF1E902098032189070A9103F0F6FD06901E9805902199084602F0C0FF1F997F
:2026200003F0ECFD059902460698079203F0E6FD079902F0B4FF05F017F9FEF7DFFF564A0E
:202640001C92564B1D9302F079FD03F0E9FF544908601F990B91084602F0A1FF0C901E98AD
:2026600008902199084602F09AFF20990D9103F0C5FD089902460C98099203F0BFFD0999AA
:2026800002F08DFF05F0F0F802460D9810920A460A99119203F0B2FD0B9902460C980E92E8
:2026A00003F0ACFD0D9902460E980F9203F0A6FD0F9902F06FFF7F21C90502F070FF05F0E7
:2026C000D3F8024610980B46119900F0E3FE1C9A1D9B02F033FD03F0A3FF324908602098B3
:2026E00013901F981690219814901E99189103F085FD169902461398129203F07FFD129948
:2027000002F04DFF0146084602F049FF05F0ACF81A90084613991B90084603F06FFD14996A
:202720001590084603F06AFD159902F038FF16991790084603F062FD0146179802F02AFF6E
:2027400018991990084603F059FD0146199802F021FF05F089F802461A980B461B9900F019
:2027600099FE1C9A1D9B02F0E9FC03F059FF0E49086000202390FFE7239824B080BDC046E8
:20278000A9032020160320205603202050032020400320209C0320206666666666A64C4036
:2027A0009403202098032020A403202080B582B08848807A002804D1FFE70020C0430190B8
:2027C00004E16B46002018708249486800780968497C012203F0E8F8002804D0FFE700209A
:2027E000C0430190F2E07B49486800780968497901226B4603F0D8F8002804D0FFE70020BB
:20280000C0430190E2E07349486800780968097901226B4603F0C8F8002804D0FFE7002002
:20282000C0430190D2E06B482421405C002864D0FFE76B460C2018706649486800780968CF
:202840000979012203F0B0F8002804D0FFE70020C0430190BAE0322006F09CFA6946C0209B
:2028600008705C48807AC007002806D0FFE700982021084369460870FFE75649486800789F
:202880000968097901226B4603F08EF8002804D0FFE70020C043019098E04E48407C002870
:2028A00004D0FFE769460220087003E0694600200870FFE74749486800780968497C0122F4
:2028C0006B4603F071F8002804D0FFE70020C04301907BE06B46002018703E4948680078F2
:2028E00009684979012203F05FF8002804D0FFE70020C043019069E065E06B4604201870B7
:2029000034494868007809680979012203F04CF8002804D0FFE70020C043019056E02D4884
:20292000807C002806D1FFE72A48807AC007002804D1FFE769464020087003E06946602007
:202940000870FFE72349486800780968097901226B4603F029F8002804D0FFE70020C043A5
:20296000019033E0322006F015FA1A48407C002804D0FFE769460120087003E06946002062
:202980000870FFE71349486800780968497C01226B4603F009F8002804D0FFE70020C04352
:2029A000019013E00B4B58680078196849791033012202F0F9FF002804D0FFE70020C0436D
:2029C000019003E0FFE700200190FFE7019802B080BDC0469C042020F0B5A5B0049308926D
:2029E0000E46074600240A947E4D22462B4604F017F8002813D100247B4D38463146224678
:202A00002B4604F003F8002809D1002238463146134603F0E7FF00283C46354607D10AAA5A
:202A20002046294604F05EF90A98401E0A900899087B0BAE412801D06D4800E06B480990E4
:202A4000886801903020039030700022079220462946134603F0D0FF01210028029101D019
:202A6000C8074540771C20462946079A134603F0B9FF00280DD124AA2046294604F032F92D
:202A8000249801210A1A2046294602F017FD04460D462046294604F0D9FC064639460597B7
:202AA00004F002FA0690304605F0D0FA06F0B7F904460D460198471C20D30598069946188F
:202AC000002220462946134603F08CFF002848D1002220462946474B02F030FB04460D46A4
:202AE00004F0B4FC0999095C771C317005F0AEFA06F095F904460D463E46E1E70BA806999B
:202B00004618002F16D07F1E002220462946394B02F014FB04460D4604F098FC0999095CFD
:202B20003246761C517005F091FA06F078F904460D46E6E73178099C204606F0BBF8001B01
:202B400008280EDB0196741E089D079F099E2178304606F0AFF8801B0E2805DD2770641EC9
:202B6000F5E7089D079F04E00999081840782070019E37700A98297B4129049C01D0702148
:202B800000E05021069E059F224604F067FAAA68501C04D1384606F014F9421EAA60384623
:202BA0003146234605F082F9A8680028029A02D128680007C20F38463146234603F07AFEED
:202BC000287B412801D0782000E0582021684A1E226008702068411E21600399017025B0F3
:202BE000F0BDC0460000F07F0000F0FF48A6000059A600000000304010B594B0179C169CF9
:202C00001290119110920F9306A900200870169908807448807B179A07A901F027FF002857
:202C200004D0FFE70020C0431390D7E06D484089142108426CD0FFE70798000607A9009158
:202C40004A78120480188A7812028018CA788018109A1060089800064A79120480188A7948
:202C600012028018CA798018109A5060099800064A7A120480188A7A12028018CA7A8018CE
:202C8000109A90600A9800064A7B120480188A7B12028018C97B40181099C8600698103083
:202CA00006A9087010980221405E029010980621405E039010980A21405E049010980E2116
:202CC000405E059002984043039949434018049949434018059949434018019001980F21C7
:202CE0000906884205DBFFE701983F49884208DBFFE7FFF75BFD169900200880C043139036
:202D00006CE0169908880122120210430880FFE7344840894006002823D5FFE706A9087870
:202D200007AA1318105C00025B78C018119B18800878831898780002DB78C018119B58807E
:202D4000087882181079000252798018119A90800698801D087016990888082210430880B9
:202D6000FFE720484089C005800F002823D0FFE706A9087807AA1318105C00025B78C018C3
:202D8000129B18800878831898780002DB78C018129B588008788218107900025279801809
:202DA000129A90800698801D087016990888702210430880FFE70B4840898007002807D070
:202DC000FFE706A8017807A8401803F05DFAFFE70F9805F067F900201390FFE7139814B09B
:202DE00010BDC0460405202001000011F0B5A3B003930F46044604929168002903D00029C4
:202E000004D5062100E001210498816007910AA83021089101700025204639462A462B46A3
:202E200003F0EAFD01210028059101D0C8074740624E20463946604A334603F0FBFD0028E6
:202E400009D00022204639465E4B01F005FD04460F466D1CEDE75A4E0022204639460992B0
:202E6000134603F0BFFD002811D1002220463946334603F0C1FD002809D000222046394607
:202E8000504B02F05BF904460F466D1EE4E702950AA8451C2046394604F0D8FA06952946FD
:202EA00004F002F807998842019004DD481C0AA90A18085C1FE0C9430E180AA90D18681C1E
:202EC00007902046394604F0C1FA05F0BFF802460B462046394600F013FA0022394B02F008
:202EE0002DF904460F4604F0B1FA079A30306870761C1546E3D3C0B23528039E049F029B42
:202F0000099D0FD31446501E0178491CCAB201703A2A03D330210170401EF5E70AA98842E3
:202F2000224640D00198C41815700220C043844202DBB868844207DD601E397B891EC9B239
:202F4000324604F08BF80124069805F03AFF401E0599A0421ADB0028089A01D4069A125C11
:202F60001346303B5D1EAB41C9431943C90705D13978090702D40025059905E031684B1ED7
:202F800033600A7001250021401EE2E73868082202402A43501E824106982146334603F09B
:202FA00089FC23B0F0BD501E002101700198C018441C0AA80690B8E70000C0FFFFFFDF4177
:202FC0000000F03F0000244080B584B002A908706448807C0978884203D1FFE70020039072
:202FE000BDE002A80078002853D0FFE75D494868007809680979012201AB00F01DFF00281D
:2030000004D0FFE70020C0430390A8E001AB1878DF210840187053494868007809680979F5
:20302000012202F0C1FC002804D0FFE70020C043039094E0032005F0ADFE01A902200870AB
:2030400048482221405C002806D0FFE701988021084301A90870FFE742482321405C0028FE
:2030600006D0FFE701983021084301A90870FFE73C49486800780968C97D012201AB02F032
:2030800093FC002804D0FFE70020C043039066E05FE034494868007809680979012201AB1D
:2030A00000F0CAFE002804D0FFE70020C043039055E02C48807AC007002806D0FFE70198D9
:2030C0002021084301A9087005E001A90878DF2210400870FFE723494868007809680979FD
:2030E000012201AB02F060FC002804D0FFE70020C043039033E0032005F04CFE1948222102
:20310000405C002804D0FFE701A98020087003E001A900200870FFE712482321405C002802
:2031200006D0FFE701983021084301A90870FFE70C49486800780968C97D012201AB02F0A1
:2031400033FC002804D0FFE70020C043039006E0FFE702980349887400200390FFE70398C6
:2031600004B080BD9C04202080B58AB00320019041065D48029005F0E9FA014601985B4A80
:203180000592116001025A48049005F0DFFA01460298584A116001210391490605F091FCA5
:2031A000039902460298531E9A4109AB1A70890605F087FC039902460498531E9A4108AB81
:2031C0001A70490205F07DFC039902460498531E9A4107AB1A70090205F073FC0146059851
:2031E0004A1E914106AA1170C0788007002812D5FFE709A8007808A90978884205D0FFE7D0
:203200003D490868401C086004E03B490868401E0860FFE718E03548C0784007002812D56D
:20322000FFE709A8007808A90978884205D1FFE731490868401C086004E02F490868401EEF
:203240000860FFE7FFE7FFE72A4840788007002812D5FFE707A8007806A90978884205D0B8
:20326000FFE726490868401E086004E023490868401C0860FFE718E01E484078C007002854
:2032800012D0FFE707A8007806A90978884205D1FFE71A490868401E086004E0174908683C
:2032A000401C0860FFE7FFE7FFE70320009041060D4805F011F9009801020D4805F00CF960
:2032C000012005F0A3F901280BD1FFE7064805F0FBFC172803D1FFE7FFF752F900E0FFE717
:2032E00000E0FFE70AB080BD00000A408C03202000200A4090032020840320208803202029
:20330000FCB40124E407634002E0FCB40124E40708B41D03ED08D60D354356025F007F0D39
:2033200006D12C00344300D0AEE001B0FCBC7047A408254307242402FF34A74205D100201E
:20334000190D090501B0FCBC7047002B03D50024A61BAC4125000B03DB08C20D13434202C5
:203360004800400D07D11C00144300D08CE00EBC1000F0BC704701246407234307242402AD
:20338000FF34A04205D10020090D090501B0FCBC7047002903D50024A21A9C412300C11B21
:2033A00008D51C002B0025001400320026000024611A3800362925D502B4393949420C0069
:2033C000203C03D22F008F40374301E03700A740002F01D040210E4302BC20290BD5002983
:2033E0000ED04C42203420B4A5402C0020BC0D41CE40361904E000292E000D4120390E4170
:2034000092196B411C0014433ED00024002B04D5012400218A1A99410B00401E52005B4191
:20342000FBD50121890215000D400CD0521800277B4101D3401C0BE00721C90115000D4015
:2034400001D189008A43072109028A4352005B41801C19DD07210902FF31884209D30EBCF1
:203460000020C90F0902FF31C900C91D0905F0BC7047190B00050143E40721431805120B03
:20348000104301B0FCBC70470021002001B0FCBC70477047F0B585B01E46054602920390F1
:2034A000504B514F04963E40501E1446844134439C4207D80F40681E2C4684413C434948DC
:2034C000844208D90398029A049BFFF71EFF0C46214605B0F0BD4548049B181810431AD0A8
:2034E0000C46C90FD80F4000019141183D4316D032431CD03B48864217D187421DD1424C51
:203500003C48C0467944097949008F4401023B60DEE7414CDCE70398FEF722FAD7E702297E
:203520000398D5D3032918D015E0874218D10120C00704402E48241810E000242046C0462F
:203540007944097949008F4401020608C0E700200121CC07BCE72A4C00E02A4C2548B7E7C9
:20356000B81B00153C2803DD214C2248019918E0002B09D500253B22D243904204DA2846F8
:203580002C460EE0234C23E003980D462146029A01F062F90122D2079143FEF7E1F90C462B
:2035A0002946002994D0022905D0012912D10121C9074C408CE7104A104B2146FFF7A5FE5C
:2035C00002460B460B480E49FFF79AFE7FE70F4C0F487DE7084A094B2146FFF796FE054AB8
:2035E000084B72E70000F07FFFFFFF7F000010C0FB21F93F182D4454075C143326A6A1BC60
:20360000FB210940FB2109C0FB21E93F7CD902C0D221337F7CD90240FB21E9BF80B58AB096
:20362000014609A8017001784F48016000687B2804D1FFE74D4901200870FFE74A480068DB
:203640007D2804D1FFE7494902200870FFE74748007801280AD1FFE74348006844490B7804
:20366000444AD0540878401C0870FFE73F480078022876D1FFE73F48C078502804D1FFE716
:203680004449012008705EE03A484078232859D0FFE7374800900078021F36480290C11C9D
:2036A00004A8019005F01EFC00990198097809180A1F0021117005F0F3FB02F0B1FF014653
:2036C00002982D4A1160407830380390082838D80398810001A040588746C0460137000015
:2036E0000B370000153700001F37000029370000333700003D3700003F37000041370000BA
:203700001D480068224908601BE01B4800681F49086016E0184800681B49886011E016481A
:203720000068184908600CE0134800681449086007E0114800681149886002E001E000E057
:20374000FFE7FFE7FFE70949002008700849087011490870084908600648322105F054FB94
:20376000FFE70AB080BDC046A8052020B9052020BA052020C4022020A40520202C0320201E
:203780008C05202094052020180320208805202090052020A8032020BB052020B0B588B0FA
:2037A00006AB188003AC6C20A0705248208002A82C2181705049018001AA762191704F495E
:2037C00011806A46662191704D4911801A8803210A40A55C05AA1570069DED06AD0F655DA0
:2037E0005570069D2D06AD0F645D94701B880B40C45C04AB1C70069CE406A40F045D5C70F8
:20380000069C2406A40F005D98703E4802F03EFA002804D0FFE70020C043079066E03A48B0
:20382000032104AA02F032FA002804D0FFE70020C04307905AE0019805A9088001A8807852
:2038400088706846807804A988700098088006A80088400700280AD5FFE705980121084391
:2038600005AA10700498084304A90870FFE706A80088800600280AD5FFE705A948780122ED
:203880001043487004A9487810434870FFE706A80088C00500280AD5FFE705A98878012206
:2038A0001043887004A9887810438870FFE711208001032105AA02F0E9F9002804D0FFE7A4
:2038C0000020C043079011E01048032104AA02F0DDF9002804D0FFE70020C043079005E0CA
:2038E00006980B49088100200790FFE7079808B0B0BDC0464CCD00000CC90000365600006C
:2039000026460000260400002A0400003104000004052020F0B585B00D4604465448014011
:2039200081420CD12046294622462B4601F006FC22462B46FFF7E9FC04460D4693E04D4BEA
:20394000002D75DD012004900105280D06D10020002D05D11538E50A6405F9E72E460DE018
:2039600000220D4202D16D00521CFAE7801A401C2026B71A2646FE402E4394403E4A821829
:20398000481E304008430092D10703D0E10F400040186400E10F4000461800250498410548
:2039A00001956400002911D04A19B71A304600DB3846B24200DC5518B24202DC019A5218EC
:2039C00001924000E20F86184908EAE75F1C00221346002F23D0D019AE4216DD03930023C6
:2039E0000028049A00D41A46C11902910029049900DA1946761B844200D2761E039B0A40BC
:203A0000AD18241ADB19029A03E002D18442E5D23546E00F71000E1864007F08D9E73443BD
:203A200013D0581C019A12D001201840C31810E028461840204316D0002D83D505F04EFA9D
:203A4000212101600E4D00240DE0019A01E0521C002350105908D20754180099490809054C
:203A60000818064945182046294605B0F0BDC0460000F07FFFFFFF7F01FCFFFF0000E03F38
:203A80000000F87F80B58AB0494804F095FD002803D1FFE702F074FFFFE700F0FFFA09907A
:203AA0000998002801D0FFE77FE00020029009907820019000F05AFA02460198099989184B
:203AC000099101F0D3FF01460998401809903220039001F049FA014609984018099007A80F
:203AE00004F066F9014609984018099006A803F00DF8014609984018099008A802F0CAFDB2
:203B0000024602980999891809912A490491888148810881C8808880488008800320087048
:203B20000420888004F0D4FD0146099840180990214803F0D9FEFFF731FE01460998401823
:203B400009901E4805F0ACF801460998401809901B4805F09BF80246049809998918099148
:203B6000FF217431C180C088FEF776F80246039809998918099102F01BFA0146099840188D
:203B800009900120059001F0CFFF049903460598099AD218099248700998002801D0FFE734
:203BA00003E0084901200870FFE70AB080BDC04600200F401405202022052020DF8D0000BA
:203BC000978E0000BD052020F0B587B01D4616463024059004700027104619463A463B46E9
:203BE00002F00AFF0028019402D00120C00745400D9804900C9803903F4C304629463D4A67
:203C0000234602F017FF002809D00022304629463B4B00F021FE06460D467F1CEDE70598EB
:203C2000441C0022304629460692134602F0DAFE002811D1002230462946304B02F0DCFE0A
:203C4000002809D00022304629462D4B01F076FA06460D467F1EE4E70398C01903903046FF
:203C6000294603F0F3FB214603F01EF902942418C019049908600398471C012F1ADB30463A
:203C8000294603F0E3FB04F0E1F902460B4630462946FFF735FB0022194B01F04FFA064666
:203CA0000D4603F0D3FB3030611C20707F1E0C46E5D100E02146481E0278352A0DD3891ED1
:203CC000019C0A78521CD3B20A703A2B02D30C70491EF6E7059A914204D00699017002986E
:203CE00007B0F0BD0699017004990868401C08600598F5E70000C0FFFFFFDF410000F03FFA
:203D00000000244080B590B00F900E910F983E4A1168401A0D900E983C490B68C01A0C90D9
:203D20000F9810600E9808600D9839490A789300384AD0500C980A789300374AD0500878A6
:203D4000401C03221040087000200B900A900990FFE70998032813DCFFE7099881002D480E
:203D600041580B9840180B90099881002A4841580A9840180A90FFE70998401C0990E8E708
:203D80000B9803F0DFFE8121C905009102F088FB08900A9803F0D6FE009902F081FB07909B
:203DA00008981E49019102F029FA03F05DFD1C4A02921C4B039301F0C1F9002205921A4B48
:203DC000049301F0BBF9059A184B069300F044FD02F026FC0199164A1060079802F00EFAC4
:203DE00003F042FD029A039B01F0A8F9049B059A01F0A4F9059A069B00F02EFD02F010FCA0
:203E00000C49086010B080BD780520207C052020B7052020E4042020F40420200000C84204
:203E20006B195F6A3AF1CA3F0000594000609840180320202C03202010B58CB00AAC20701F
:203E400009A8017008A802700793002106910078002803D1FFE700200B907FE005A804F0B7
:203E600021F909A801783F48019004F056FE01983D4A20211160012104F0D4FCFFE739487F
:203E800004F0A0FE8006002801D4FFE7F7E70AA8017808A803783348012203F009F9FFE77A
:203EA000304804F0A5FB002814D1FFE72D4804F09DFE03A90870069808A90978884208D267
:203EC000FFE703980799069A88540698401C0690FFE7FFE704A804F0E5F8049805990A31F7
:203EE000884206D3FFE702F04BFD0020C0430B9034E0FFE71B48012104F0F4FC0028CFD017
:203F0000FFE7184804F074FB002814D1FFE7154804F06CFE02A90870069808A9097888428D
:203F200008D2FFE702980799069A88540698401C0690FFE7FFE70C4900200860094803F08E
:203F40006BFD069808A90978884203D1FFE700200B9003E00020C0430B90FFE70B980CB004
:203F600010BDC04600200F4014320F4080B584B0014602A8017000784006400F002804D096
:203F8000FFE701A9012008700DE002A80078002804D0FFE701A90020087003E001A94020D8
:203FA0000870FFE7FFE73C49486800780968497D012201AB01F0F8FC002806D0FFE73649C2
:203FC00000208872C043039063E001A90878BF221040314A10730020087002A80078400695
:203FE000002806D4FFE701980421084301A90870FFE702A800788006002806D4FFE701989F
:204000000221084301A90870FFE702A80078C006002806D4FFE701980121084301A9087032
:20402000FFE702A800780007002806D4FFE701983821084301A90870FFE7174948680078BC
:204040000968897D012201AB01F0AEFC002806D0FFE7114900208872C043039019E002A8EE
:204060000078002809D0FFE702A80078082804D0FFE7002001F002FFFFE7029806498872FA
:20408000002000900875322004F084FE00980390FFE7039804B080BD9C04202010B586B0B3
:2040A00003AB802018704549486800780968497D012201F079FC002804D0FFE70020C043AF
:2040C000059077E0642004F065FE03AB002018703A49486800780968497D012201F064FC6D
:2040E000002804D0FFE70020C043059062E03349019100200290C8740A460832FF238B723F
:204100000B724B72CB722E4CCC810B748B7401230B739376D076487508750884C8838883D6
:2041200048830883C88210775077C8847D20000101F0D8FB002804D0FFE70020C043059049
:2041400038E0022001F06CF8002804D0FFE70020C04305902EE02A2001F05CFB002804D09A
:20416000FFE70020C043059024E0322000F0FCFE002804D0FFE70020C04305901AE00020AD
:2041800001F074FC002804D0FFE70020C043059010E00020FEF718FF002804D0FFE7002006
:2041A000C043059006E000200090FFF7DFFE00980590FFE7059806B010BDC0469C042020E5
:2041C000FFFF000010B58EB00CAC20800B910AA8028009A8038043482521405C002804D019
:2041E000FFE70020C0430D9078E00B98002804D1FFE70020C0430D9070E008A900200880D2
:20420000FFE708A800880CA90988884248DAFFE70CA8008808A90988401A112803DBFFE793
:204220001020019006E00CA8008808A90988401A0190FFE7019807A9088008A800880988EE
:204240000B9A121801F022FD002804D0FFE70020C0430D9042E008A8008807A9098803AA95
:2042600001F0BEFC002804D0FFE70020C0430D9034E00B9808A90988401807A90A8803A9B2
:2042800004F0EAF8002804D0FFE70120C0430D9024E0FFE707990898401808A90880B0E753
:2042A0000AA8407802AB18700A9858700D49486800780968497F022201F076FB002804D0BC
:2042C000FFE70020C0430D9008E006492522012088540998C88400200D90FFE70D980EB0CA
:2042E00010BDC0469C042020F0B5A1B0049305469068002801D506209060029003920024DC
:204300003D4F2846224606913B4602F089FB06990028264614D10026384F284632463B4681
:2043200002F074FB069900280AD1002228460592134602F057FB069B00282E461F4622D121
:204340002F4D04F08CFD02F057FB002809D00022304639462B4B00F0F1FE06460F46641E90
:20436000EFE7284D04F07BFD02F05AFB002807D004F075FD00F070FA06460F46641CF1E787
:2043800035463B46059407A802990091019008A82A46FFF719FC0446079D022D0DD1059D54
:2043A0006D1C204604F00DFD2018401E0021017028460125049E039F02E0049E039F05984D
:2043C000397B324602F04AFEBA6820462946334603F06CFD204604F0F4FC854203D1386826
:2043E0000007C20F00E0012220462946334602F061FA21B0F0BDC0460000F07F0000F0FF65
:204400000000F03F00002440F0B583B03D4A8218029211231C028D7A6B1EDBB2022B08D800
:204420009E00394FBE594927FF017B43DA19019202E000220192022602190092CF68AD003B
:2044400045193120C0012C588F239C431F40374327432F504868029C6060087805283AD848
:2044600001263746874009231F420ED112231F4218D04F7A254AAE18AA58254D1540032FEE
:204480001ED0012F20D1244A1BE04B7A1F4C2F591F4A3A4077271F40D2197304D2182A5145
:2044A000029C18E04A7A194BEE18EB58184D1D40012A03D1184AAA18521C0BE0154A00E078
:2044C000164A1543356006E0772217403D43124AAA18FF3232600022009B1A60C01E032818
:2044E000019B01D220200343087A21680C4A0A40BD2101401943114302200843206003B0AD
:20450000F0BDC046041800008CA60000301800008888FDFF01020200010102000303020035
:204520004000FFCF10B58CB00BAC20700AA8017009A8027008A8037007AA002111700278EF
:20454000520806AB1A7005AA11800078082804D1FFE704A90620088012E008A8017801911B
:20456000C80802904907401C0029039001D102980390019803994008484304A90880FFE74F
:204580000998203807A908700BA800780AA9097803F07EFA05A900200880FFE705A80088BF
:2045A00004A90988884242DAFFE705A8008806A9097803F039F900290ED1FFE708A8007851
:2045C000082809D0FFE70BA800780AAB19784A1C1A7003F05DFAFFE708A8007808280DD125
:2045E000FFE707A80078062141431348401805A90988405C012101F08FFC12E008A80078BD
:2046000010280CD1FFE707A8007801010948401805A90988405C012101F07EFC00E006E09F
:20462000FFE7FFE70598401C05A90880B6E70CB010BDC046469B000036A1000080B584B032
:20464000414803F0C7FF002803D1FFE702F08EFAFFE7C820009003F041FCAE2000210391AB
:2046600001F05AFC0399084601F056FC0399102001F052FC03994020019001F04DFC039958
:20468000812001F049FC0399CF2001F045FC0399A12001F041FC0098039901F03DFC039901
:2046A000A620029001F038FC0399A82001F034FC03993F2001F030FC0399D32001F02CFC38
:2046C0000399084601F028FC0399D52001F024FC0399802001F020FC0399D92001F01CFC52
:2046E0000399F12001F018FC0399DA2001F014FC0399122001F010FC0399DB2001F00CFC16
:204700000198039901F008FC0399202001F004FC0399022001F000FC03998D2001F0FCFBC6
:204720000399142001F0F8FB0399A42001F0F4FB0298039901F0F0FB02F01EF80399AF2000
:2047400001F0EAFB04B080BD00000F4080B58EB00D900C910D9801281DDBFFE701200A902F
:2047600041053B480B9004F02DF80A990B98890304F0FFF90D98012803DBFFE70D9809902E
:2047800003E00D9840420990FFE709993148002204F0E8FA1CE00120079081032C48089039
:2047A00004F010F807990898490504F0E2F90D98012803DBFFE70D98069003E00D984042C9
:2047C0000690FFE706992348002204F0CBFAFFE70C9801281DDBFFE70120049041031C488A
:2047E000059003F0EFFF04990598090304F0C1F90C98012803DBFFE70C98039003E00C9800
:2048000040420390FFE703991248012204F0AAFA1CE00120019001030D48029003F0D2FF8F
:2048200001990298490304F0A4F90C98012803DBFFE70C98009003E00C9840420090FFE723
:2048400000990448012204F08DFAFFE70EB080BD00000A4000808640FCB40C005C40E40F19
:20486000E40710B41D032D0B56006D415F007F0D73D001246405254307242402FF34A7429C
:2048800061D00B031B0B42005B414800400D64D001246405234307242402FF34A04252D090
:2048A000C01B002100273624AB4200D1B24204D37F414941921BAB4101E07F414941641E62
:2048C00006D0002B01D1002A02D052005B41EBE7202C07D2162C0AD33900A7402026361B4E
:2048E000F1400BE0203C3900A140002706E0A1402026361B3D00F5402943A740012464054E
:20490000214202D17F004941401E00247F1C61410124A405214202D0401CA14301E0640809
:20492000A14303242402FF34001916DD2419A04209D8CC074908000501437808204310BCEB
:204940002143FCBC704702BC0020C90F0902FF21C900C91D0905FCBC70470021002001B085
:20496000FCBC704780B592B0119010913748006837490968FFF7C6F93F2000060F90354801
:204980000E9000200D900C901198109900F007FE02F03AFB0B900B982F49096800F0FAFDA4
:2049A00002F032FB0A900F9803900A9802900E9901912A490591096800F0ECFD0146019864
:2049C00001F01CFC029902460398049201F016FC049900F0E4FD059909900A980860099867
:2049E00003F046F92721C943282203F0C7F903F0A9F8099009991A48816009990122D20784
:204A00005140184A069291608168006801F0C4FC014606980D918168006801F07BFC0C9040
:204A20000D987D214A0108920F49079103F0A6F90799089A0D900C9803F0A0F90C900D987C
:204A40000C99FFF783FE12B080BDC0468403202088032020CDCCCC3EA40320208005202054
:204A6000180320202C03202060F0FFFF80B586B004AB1880039102923D482421405C0028B6
:204A800004D1FFE70020C04305906EE03848807A002804D1FFE70020C043059065E034497E
:204AA000486800780968097B022201ABFFF7C4F9002804D0FFE70020C043059055E00198EE
:204AC000000201A94978411868460180008804A90988884206DAFFE7029900200870C04355
:204AE000059042E068460088214949684988490888421DDDFFE71E49486800780968C97C9D
:204B0000012201ABFFF798F9002804D0FFE70020C043059029E001A80078C006002806D5B2
:204B2000FFE7FDF743FE0120C04305901DE0FFE70F49486800780968497B04AA1278039B33
:204B4000FFF77AF9002804D0FFE70020C04305900BE06846008804A9098802F065FE401E40
:204B60000299087000200590FFE7059806B080BD9C042020F0B5394A8218394BC0183A4D72
:204B80004C790B79002C22D0466F202B02D00524E70100E0354F2E40002B00D188273E43CD
:204BA0004667846F2C403C438467446B2D4E34404463846B3440846300244465846554687E
:204BC0008F26F643344054609468344094600C688979202B09D006467036002B15D1641E3C
:204BE0004460C46E2C40882715E0641E4460C46E2C401E4E3443C466046F2C40344304673D
:204C00001B4D01246707064607E00527FF0164084460C46E2C403C43C46634682C403C435C
:204C20003460C46A0F4D2C40C462046B2C4004630024C4640465C46F8F25ED432C40C4671F
:204C400014682C401460194302680A4B1340BD220A40D118891C0160F0BDC0468418000023
:204C6000041800008888FDFF24493E0001040000FFFFFFCF4000FFCF80B586B0014604A824
:204C80000180008800281DD1FFE70020029001F0F5F8029803AB1870072058703549486892
:204CA00000780968497D022200F07EFE002804D0FFE70020C043059058E02E4900200875CF
:204CC000059053E0012001F0D9F803A92020087004A80088012807D1FFE703A90020487026
:204CE000052000F097FD20E004A80088052807DCFFE703A901204870052000F08BFD13E0CC
:204D000004A80088142807DCFFE703A9022048700A2000F07FFD06E003A90320487014209D
:204D200000F078FDFFE7FFE7FFE703AB58788001C01D58700F49486800780968497D0222DD
:204D400000F032FE002804D0FFE70020C04305900CE0084A082090720020019010730121DB
:204D6000117500F083FE01980590FFE7059806B080BDC0469C042020F0B597B032481090AC
:204D800000683249119101F039FA02F071FF119916902F481290006801F030FA02F068FFC3
:204DA0001199024610981592806801F027FA02F05FFF1199024612981492806801F01EFA35
:204DC00002F056FF139023480078012830D1FFE72248006802F048FD0B900C9120480068E5
:204DE00002F042FD0E900D911E48006802F03CFD04460D461C48006802F036FD0B9A0C9B73
:204E000006460F460D9900200F900A9009900890079006900E9805970496039502940191F8
:204E20000090124801F0BAFF0F980A49087008E01699159A149B13980090074801F0AEFF4F
:204E4000FFE717B0F0BDC0461803202000007A442C032020A80320207CA600009005202088
:204E600088052020940520208C052020C0A50000B0B58CB002910446029810990BAD2C7041
:204E80000AAC2070099208A8037007A8017004AA0021117003AA11700078082804D1FFE70D
:204EA00004A902200870FFE706A900200870FFE706A8007808A90978884252DAFFE70998C3
:204EC000009008990698C0434018C1B20A20019003F04CF80146009802F0A6FC019902F044
:204EE000A3FC05A8017003A80078002822D1FFE706A8007808A90978491E88421ADAFFE76E
:204F000005A80078002810D1FFE70B9807A90B785908049A8A180699514340180AA9097847
:204F2000C0B22022FFF7FEFA16E003A901200870FFE7FFE70B9807A90B785908049A8A1851
:204F40000699514340180AA90978059A3032C0B2D2B2FFF7E7FAFFE70698401C06A90870BD
:204F6000A6E70CB0B0BD704780B584B002A908803648807A002804D1FFE70020C043039017
:204F800061E032482421405C002804D0FFE70020C043039057E02D48007D002815D0FFE7C1
:204FA00002A8008800280CD0FFE702A80088282807DCFFE702A80088FFF75EFE0020039053
:204FC00041E00020FFF758FEFFE702A80088032804DCFFE702A9042008800BE002A80088C7
:204FE0001B49884205DBFFE77D20C00002A90880FFE7FFE702A801887D20C00002F014FCCF
:20500000401E01AB187011494868007809684978012200F0C9FC002804D0FFE70020C0436D
:20502000039010E001A80078411C7D20C00002F0FBFB01460548C181C089400800F0EAFBEE
:2050400000200390FFE7039804B080BD9C042020E9030000B0B5364A80184A6842600A780C
:20506000222A56D8930001A4E3589F4609510000135100000951000013510000135100007E
:205080001351000013510000135100001351000013510000135100001351000013510000F0
:2050A000135100001351000013510000F950000013510000F9500000135100001351000006
:2050C0001351000013510000135100001351000013510000135100001351000013510000B0
:2050E000135100001351000013510000F950000013510000F9500000036803242407A343EB
:20510000012464071B1903E0036803242407A34303600B69C360CB68C46A064D2540064CE0
:205120001C402B19C362097A11430160B0BDC046041800008888FDFF77770200FCB50C002A
:205140005C40E40FE40710B4DD02540D2543D6025F007F0D60D00124E407254307242402AD
:20516000FF34A74250D0CB02440D2343C2024800400D51D00124E407234307242402FF34FB
:20518000A04241D0C01901B41800290002F052FD0F0001B41800310002F04CFD03000C00B5
:2051A0001000310002F046FD06001000290002F041FD05007618002202BC01BC55415141B2
:2051C000A419554151418024A4005B195141FF18514100D564003F19514102D47F004941F1
:2051E00000E0401C03242402FF34001B14DD2419A04209D80305F80A4C0520434900090BCC
:20520000194310BC2143FCBD0020FF21C900C91D090510BC2143FCBD0021002001B0FCBDB8
:2052200080B584B002A908703548807A002804D1FFE70020C04303905FE002A80078801ED3
:2052400000900E2832D80098810001A0405887468D520000AD52000095520000AD5200009B
:20526000AD520000AD5200009D520000AD520000AD520000AD520000AD520000AD52000046
:20528000AD520000AD520000A552000001A9002008700FE001A9082008700BE001A91020D9
:2052A000087007E001A91820087003E00020C043039022E01248407A01A90978C9088842C0
:2052C00003D1FFE70020039017E00D49486800780968C979012201AB00F066FB002804D01D
:2052E000FFE70020C043039007E001A80078C0080349487200200390FFE7039804B080BD17
:205300009C04202080B586B00021019105912E4803F01AF801990246C820821A04A80270FA
:205320000391007829490978884207D0FFE729490120087003F062FD05903FE005980090A9
:2053400003F05CFD01460098401A00022049884233D3FFE71F48007801282ED1FFE71D4954
:20536000002008701C48007802A90870FFE702A8007804A9097888420CDAFFE702A80178A7
:205380001648405CFEF74AF9FFE70298401C02A90870ECE704981049087004A800786428EC
:2053A0000ADBFFE704A9002008700B4908700749087002F071F8FFE7FFE7FFE70498034954
:2053C000087006B080BDC04600A04240AE05202000803801AD052020AC052020000020206B
:2053E000F0B584B03049314A0125AC0316682B0203939E4316600E68264205D10E682642E1
:2054000002D10E682642F6D06C02467E9769AF432E40BD1995612025455DD6690327BE4366
:205420003D407519D561224D2E680727374005262E60466A33681362736853622F60C369BD
:205440005B065B0CD5697F263602B543EB18D361E8C8009707680197476802971B071B0B5C
:205460002D03ADB2ED1833071B0D007A009E35431D43019B1D43029B1D43054390690D4BB4
:2054800003400D482840C01890611068039B184310600868204205D10868204202D10868A5
:2054A0002042F6D004B0F0BD04020B4008010B40001340408D00F0FF72FF0F00F8B5154627
:2054C0002A4E0A0D771C3A40294B9A4213D00C46002A18D10122D2079443044344D0002248
:2054E000244BFFF72BFE0C4623498D4208DC234A234B214636E002460B46FDF706FFF8BD0E
:20550000220D3A40363A5119B1420ADD03F0E6FC222101600120C00704401D4821180020CB
:20552000F8BD012904DB174A144009052143F8BD3522D24391420CDC03F0D0FC2221016047
:2055400012488542E6DA0120C007044000202146F8BD0C4A144009051B22520589182143B1
:205560000022094BFFF7EAFDF8BDC046FE070000FF07000000005043AF3CFFFF59F3F8C290
:205580001F6EA501FFFF0F800000903C51C300000000F07FFCB40127FF07794002E0FCB4D3
:2055A0000127FF070C024D002D0E03D1002C52D1FCBC70473C43FF2D50D0A408002900D520
:2055C0006442020243001B0E04D1002A43D10800FCBC70473A43FF2B41D09208002800D5DC
:2055E00052425E1B04D5170022003C0076422B00192E06D527003741D2191C27F71B7F42AB
:20560000BC40002A27D002D55242012700E00027013B5200FCD51500802635400FD0150050
:20562000202635402C43803208D21500402635402C4304D101263602B24300E05B1C520083
:20564000023308DDFF2B0BD2500ADB051843FF073843FCBC70470020FCBC70470800C70F37
:20566000FF07FF20C0053843FCBC704780B58CB02848019003F09AF82748029003F096F8DD
:205680002648039003F08EF92548049003F08AF92448059003F086F92348069003F082F936
:2056A0002248079003F07EF92148089003F04AF92048099003F046F91F480A9003F0D2F956
:2056C0001E480B9003F0CEF9019803F033F8029803F030F8039803F059F9049803F056F9E5
:2056E000059803F053F9069803F050F9079803F04DF9089803F0EAF8099803F0E7F80A9892
:2057000003F098F90B9803F095F9102003F082FB0CB080BD00000A4000200A40008086404E
:205720000000864000A08640004008400000094000000F4000200F4000801040002010406E
:2057400080B584B002A9087031482421405C002821D0FFE702A80078002804D0FFE701A9B6
:205760000220087003E001A900200870FFE72849486800780968497C012201AB00F014F9E9
:20578000002804D0FFE70020C04303903DE001981F49487436E01E48807A002804D1FFE73E
:2057A0000020C043039030E002A80078002808D0FFE71748407C002803D0FFE7002003906C
:2057C00023E002A80078002804D0FFE701A90120087003E001A900200870FFE70C4948686F
:2057E00000780968497C012201AB00F0DDF8002804D0FFE70020C043039006E00198044903
:205800004874FFE700200390FFE7039804B080BD9C04202080B584B002A908803048807AD3
:20582000002804D1FFE70020C043039054E002A80088BC2804DBFFE701A9012008702BE072
:2058400002A80088622804DBFFE701A90220087021E002A800882A2804DBFFE701A903206C
:20586000087017E002A80088142804DBFFE701A9042008700DE002A800880A2804DBFFE72A
:2058800001A90520087003E001A906200870FFE7FFE7FFE7FFE7FFE71148C07A01A909785A
:2058A000884203D1FFE70020039015E00C494868007809688978012201AB00F075F8002879
:2058C00004D0FFE70020C043039005E001980449C87200200390FFE7039804B080BDC04628
:2058E0009C04202080B584B002A908802D48807A002804D1FFE70020C04303904EE002A84C
:2059000000880090FA2812D0FFE700987D218900884210D0FFE700987D21C90088420ED08F
:20592000FFE700987D21090188420CD00FE001A9002008700FE001A9082008700BE001A99C
:205940001020087007E001A91820087003E00020C043039022E01348007A01A90978C908F2
:20596000884203D1FFE70020039017E00D494868007809688979012201AB00F015F8002814
:2059800004D0FFE70020C043039007E001A80078C0080449087200200390FFE7039804B018
:2059A00080BDC0469C04202010B58CB00AAC207009A8017008A802700793017806910799EF
:2059C00005910078002803D1FFE700200B9048E004A802F067FB09A801782348019003F0DB
:2059E0009CF80198022102F01DFFFFE71E4803F0E9F88006002801D4FFE7F7E70AA80178B7
:205A000008A80078431C1848002201F051FBFFE7059906A80288144801F0D8F8029002993A
:205A20000698401A0690029905984018059003A802F038FB039804990A31884206D3FFE7E7
:205A400000F09EFF0020C0430B900AE0FFE70648022102F047FF0028DAD0FFE700200B900F
:205A6000FFE70B980CB010BD00200F4080B584B002A90870002000900878FE221040087001
:205A800028482421405C002803D0FFE70020039045E02448807A002804D1FFE70020C04390
:205AA00003903CE01F48017C01AA11700299827A11400174007C02A90978884204D0FFE79E
:205AC0000020C043009002E000200090FFE702A80078002805D1FFE71248007D002804D0C2
:205AE000FFE70120FFF72CFE03E00020FFF728FEFFE702A8007800280DD0FFE7FCF756FE26
:205B0000002807D0FFE70198064908740020C043039004E0FFE7FFE700980390FFE703982A
:205B200004B080BD9C04202080B588B006A908702A482422805C0978884203D1FFE7002047
:205B4000079047E006A8007800282AD0FFE723482521405C002804D1FFE70020C04307906F
:205B600038E000200290FFF7EBFD0298FDF72CFA1A480390C08CFFF7F7F90299039805ABBC
:205B8000197040680078232101220492FFF70CFF0399049824228854FFF7D2FDFCF706FE48
:205BA00015E000200190FFF7CBFD0C480090017C05AB19704068007823210122FFF7F4FE78
:205BC0000099019824228854FCF7F0FDFFE700200790FFE7079808B080BDC0469C04202094
:205BE00080B586B004AB188003A8018002920298002804D1FFE70020C043059040E0224874
:205C0000807A002804D1FFE70020C043059037E004A8417801A8017004994170407803A9A7
:205C200009884018184949684989884204DDFFE70020C043059023E0134948680078096856
:205C4000C97E022201ABFFF7AFFE002804D0FFE70020C043059013E00B4948680078096810
:205C6000097E03AA1278029BFEF7E6F8002804D0FFE70020C043059002E000200590FFE7DF
:205C8000059806B080BDC0469C04202080B586B004AB188003A8018002920298002804D185
:205CA000FFE70020C043059040E02248807A002804D1FFE70020C043059037E004A84178AB
:205CC00001A8017004994170407803A909884018184949684989884204DDFFE70020C04377
:205CE000059023E01349486800780968C97E022201ABFFF759FE002804D0FFE70020C043AE
:205D0000059013E00B49486800780968097E03AA1278029BFFF748FE002804D0FFE7002075
:205D2000C043059002E000200590FFE7059806B080BDC0469C042020F0B58B4200D18242D1
:205D400004D90B0002000021002040E0002B00D1002A0CD10B00020000210020002B00D1AB
:205D6000002A01D0C943C043FFF7FDF82FE01C0015000B0002000CB4002126002F00FF1993
:205D8000764102D2491C4029F9D100201E001700FF19764102D2401C4028F9D10E1A210011
:205DA0002800320002F088FB0C0005000CBC00200021A34200D1AA4201D3521BA3414041B2
:205DC00049416D08E7073D436408761EF1D5059F002F01D03A607B60F0BD704710B584B01A
:205DE0000120009001072248019002F05FFE009902460198531E9A411E4B03931A70C90781
:205E000002F054FE039A014601984B1E99415170042102F04BFE039A014600984B1E99419E
:205E20009170C1041448029002F040FE0099039B02460298541EA241DA70890402F036FE13
:205E4000039A014601984B1E99411171802102F02DFE039A014602984B1E9941517140215E
:205E600002F024FE0399421E9041887104B010BD00000A402B05202000200A4080B584B03A
:205E800002A9087023482322805C0978884203D1FFE7002003903AE002A80078002804D063
:205EA000FFE701A93020087003E001A900200870FFE71848807C002806D0FFE70198022183
:205EC000084301A90870FFE712482221405C002806D0FFE701988021084301A90870FFE7C5
:205EE0000C49486800780968C97D012201ABFFF75BFD002804D0FFE70020C043039006E0D3
:205F0000029804492322885400200390FFE7039804B080BD9C04202080B588B007AA1070D6
:205F200006A801700078002806D0FFE705A9402008700798487005E005A90020087007983F
:205F40004870FFE704A802F0ADF81848029005A90222019200F03AFE0199029802F06EFC51
:205F6000FFE7124802F038FE8006002801D4FFE7F7E70E483C210022022301F0C1F8FFE7E8
:205F80000A48022102F0BAFC00280DD1FFE703A802F088F8039804990A31884203D3FFE7E2
:205FA00000F0E4FD00E0EBE708B080BD00000F4080B588B0014606A801801D4905911D49D5
:205FC00004911D4903910088C92804DBFFE70020C043079029E006A80188C82001F024FC01
:205FE000411E02A8018040786A4610700298507012480221FFF74AFE002804D0FFE7002018
:20600000C043079011E00E480C2103AAFFF73EFE002804D0FFE70020C043079005E0069874
:206020000849888100200790FFE7079808B080BDBBAFDFDFAAF1DFDFFEF2ABC416020000DD
:20604000C10A00000405202082B00190019800214056012804DBFFE76946002008803AE0BA
:20606000019800214056002804D5FFE76946042008802FE0019801214056012804DBFFE740
:2060800069460120088024E0019801214056002804D5FFE769460520088019E0019802215B
:2060A0004056012804DBFFE76946022008800EE0019802214056002804D5FFE76946062007
:2060C000088003E0694607200880FFE7FFE7FFE7FFE7FFE7FFE76846008802B070470000F4
:2060E00080B586B0059005981E49884203D3FFE71D480590FFE705995020484305900020E8
:206100000090049002F07AFE014600980391029001A90870FFE702F071FE029002980399BB
:20612000884204D9FFE701A901200870FFE701A80078002807D0FFE703980299401A0B49BF
:206140004018049004E003980299401A0490FFE704980599884201D3FFE700E0DBE706B04F
:2061600080BDC0463433030033330300FFFFFF0080B584B01E491F48039002F08DFA03982E
:206180001D49FEF7F7FC03980023019319461A4601F060FC019B0398009319461A4602F0D8
:2061A0000DFC019A0398114602F068FA019A0398114602F0D7FD019B039801210291009125
:2061C00019461A4602F0FAFB0199029A039802F055FA0199029A039802F0C4FD039802F0F6
:2061E0002DFD0398032102F033FD04B080BDC046EFA6000000808640B8A60000FCB401278C
:20620000FF0706004E4001D4002600E03E00020243001B0E30D03A43FF2B30D00C024D0059
:206220002D0E29D03C43FF2D29D05B194240504042404C4061404C4000B501F0FBFC20BC4C
:20624000AE464240504042404C4061404C4025001400002C01D46400013B803401D3013367
:2062600064087E3B08DDFF2B09D2BC43200ADB0518433043FCBC70470020FCBC7047FF201B
:20628000C0053043FCBC704780B586B005900598C078C021084003A908700598C0783F2100
:2062A000084004A9087005984078C007002819D0FFE704A80178C90802AA1170007807219B
:2062C0000840401C01A9087011480068002808D0FFE70F48026802A8007801A9097890476C
:2062E000FFE7FFE705984078000700280DD5FFE707484068002807D0FFE70548416803A809
:20630000007880098847FFE7FFE7002006B080BD0405202080B58AB00990089108980999A2
:20632000FFF738F9014617480590016016490968039100680190154906910968FFF72AF9BE
:206340000199029012480068FFF758FF0299024603980492FFF752FF0499FFF720F90146B4
:206360000C4807900068FFF71AF90599069A03460798036009681160006801F079FC0AB0CE
:2063800080BDC0466C03202094052020700320208C0520207403202080B58AB00990089156
:2063A00008980999FFF7F6F801461748059001601649096803910068019015490691096858
:2063C000FFF7E8F80199029012480068FFF716FF0299024603980492FFF710FF0499FFF742
:2063E000DEF801460C4807900068FFF7D8F80599069A03460798036009681160006801F0A3
:2064000037FC0AB080BDC04678032020900520207C032020880520208003202070B582B016
:20642000024601A80270009100214056002816D4FFE7002401A908570322D3431840174A98
:20644000805809578C07E50EFF24AC40A043009CA401E4B2AC402043194088501AE001A991
:2064600008780F24204008380322D34318400A4A8058002549578D07EE0EFF25B540A843B1
:20648000009DAD01EDB2B54028432140083919408850FFE702B070BD1CED00E000E400E06D
:2064A000FCB40127FF0706004E40F60FF607020243001B0E2DD03A43FF2B2DD00C024D00FC
:2064C0002D0E26D03C43FF2D26D05B1B0020202164085208A2424041A24200D3121B0139CA
:2064E00004D0002A01D05200F4D18840384201D14000013B803001D3013300E040007F339C
:2065000007DDFF2B08D2400ADB0518433043FCBC70470020FCBC7047FF20C0053043FCBC8E
:2065200070470000F8B5451C00780023082B32D02F78C2070CD16A780F241440E41C122CD2
:206540000BD102242E57F4B2002E08D4EE1C0EE06D1C4A1C0F7011461AE0AE1C08E02E1D50
:20656000ED7800957F252C40009DED012C1912343D0112095219094DAA420ED0D243002CD6
:2065800005D08D5C4F1C0D70641E3946F7E7354640085B1CCAE72846C5E7F8BDFF0F0000AE
:2065A000FEB502930F46194D0024E143184E00973740019043422B46BB4101D20C4623E071
:2065C000084602990E405342B54101D204461BE0134601990B433E431E43029D009E13D09E
:2065E0002B46334004D401998B1A3346AB4103E00199531A2B46B341044605DB51406E4083
:206600000E43701E864134462046FEBD0000F07FFFFFFF7F80B500210846FEF797F880BDE9
:206620000CB41B4B4A00D21A1BD2000D0A03104301221202801802D3400812038918400AB8
:20664000002902D50122D20710434900490D38221201891A0CD4FF290DD2C90508430CBC74
:206660007047DB431A40024305D0D8430CBC704700200CBC7047C90FC907FF20C0050843C1
:206680000CBC7047C046C046C046C046C046C0460000E0FF83B001901A48407A00900328DD
:2066A0001CD80098810001A040588746BD660000C5660000CD660000D5660000019902204F
:2066C00008700FE00199042008700BE001990820087007E001991020087003E00020C043C9
:2066E00002900CE00748C07C002805D0FFE70199087840000870FFE700200290FFE70298C4
:2067000003B070479C042020B0B586B005AC207004A80170039202A8037001A90020087042
:20672000FFE7039801A90978405C002822D0FFE705A8007804A90978039A01AD2B785C1C58
:206740002C70D25C02AB00931B78FDF7EBFE00980078082805D1FFE70598801D05A9087063
:2067600007E002A8007841080598401805A90870FFE7D6E706B0B0BD80B584B003A90020B1
:206780000870FFE703A80078072828DCFFE70398B030C0B200210191FFF7BEFB0199084628
:2067A000FFF7BAFB01991020FFF7B6FB019802A90870FFE702A800787F280ADCFFE7002066
:2067C0000121FFF7A9FBFFE70298401C02A90870F0E7FFE70398401C03A90870D2E704B0B9
:2067E00080BD000080B584B015491648039001F053FF03981449FEF7BDF90398002302936B
:2068000019461A4601F026F9029B0398009319461A4602F0D3F8029A0398114601F02EFFB6
:20682000029A03987D21090202F09CFA039802F005FA0398012102F00BFA04B080BDC046B9
:20684000F2A6000000008640C0A60000F8B50446164F174D0E462E400120009464423C4615
:20686000B4411AD31D405442AF4116D31046009C20433543054311D00020C0431C460C40A3
:206880000ED4009CA41A0C469C4106DB0098504059400143481E81410846F8BD0020F8BDA7
:2068A000009C141B1C468C41F0DAF6E70000F07FFFFFFF7FF8B51C4617460E46054602F04F
:2068C00080FA0021012E03DBB04201DBA919491E002F04D02268531E23602E23137032464C
:2068E000824206DD23685F1E276030271F70521EF6E7B04200DB3046012808DBA9420BD317
:2069000008782268531E23601070491EF6E72068411E216030210170F8BD80B582B0014628
:2069200001A801706A46002111700078C007002806D0FFE700983021084369460870FFE787
