:2000000000802020959300009D6A00009D6A000000000000000000000000000000000000EA
:200020000000000000000000000000009D6A000000000000000000009D6A0000E59100003C
:200040009D6A00006D3500007D8800009D6A00009D6A00009D6A00009D6A00009D6A0000CF
:20006000000000009D6A00009D6A000000000000000000009D6A0000F17900009D6A0000FA
:20008000817800009D6A00009D6A00009D6A00009D6A00009D6A0000000000000000000044
:2000A0009D6A00009D6A000000000000000000009D6A0000000000009D6A00009D6A00001D
:2000C000F0B5FFB08EB0049306920646929802900025E84305908C913468204609F0A1F8C1
:2000E00021188B9503918C4200D3BBE00020879087A908738890059889902F46049D207879
:20010000002800D1AFE0252805D0641C34600699A8477F1CF3E78B97601C306087AC204657
:20012000314600F0A7F88CAA2046314600F0BFF8306801787A2925D0682919D06A2908D071
:200140006C290ED0742908D04C2922D1879980221BE087990122D20217E0879901225203EC
:2001600013E0427887996C2A64D10122120205E042788799682A60D101225202114387914B
:20018000801C05E08799012212030A438792401C0178441C346087A8017373291FD06E2992
:2001A00029D1879832490840202850D040283CD001214A03904238D04A02904242D0CA0242
:2001C000904205D00A0390422FD0090288422CD1F8178C9904C98C91176050603BE087A839
:2001E0000078400619D4009587A88CAA8BAB069900F01DF92FE007AD87A98CAA284600F0F8
:200200006DF9024628460699029B9847411C059D00D0C5198B9503991FE0009587A88CAA45
:200220008BAB069900F09FF815E08C9802C88C900F6010E0401C402201E0401C2022114373
:200240008791A5E78C9802C88C900F7003E08C9802C88C900F8003998B9D681C00D042E7B4
:20026000059F00E02F4638467FB00EB0F0BDC046603F000010B50A681378302B0FD0232B7E
:2002800007D02B2B09D02D2B05D0202B0ED1042306E0082304E0012302E0022300E01023A7
:2002A00004681C430460521C0A60E5E710BDFEB516460D460446086802782A2A10D130683B
:2002C000011D316000686060002805D54042606020680121014321602868471C2F6017E01B
:2002E0000021303A092A08D84218531C2B60435C6F467B545278491CF3E76A460023535466
:2003000012784718002A03D0684607F00DFD606038782E2826D1781C286079782A2908D152
:200320003068011D31600068A0602868401C2860FEBD00203039092908D839188A1C2A60C3
:200340004A786B461A548978401CF3E76A46002111541078002804D0684607F0E5FCA06045
:20036000FEBDA160FEBDF0B587B01E460C9F13681C1D14601D68002D3BD00491069084681F
:20038000002C04D4284608F03DFF844203D3284608F038FF044606984068A042039000DC9D
:2003A000204601463068019140180296306005940398A0420EDD06980078C0070AD1059890
:2003C00001990E1A0024B44204DA20200499B847641CF8E70026049C069805998E420BDA71
:2003E0002868010A19D12D1DC0B22146B847761CF2E70020B84718E00599039A8A4214DDDC
:200400000078C00711D00198451A0024AC420CDA20200499B847641CF8E70020C0430299D3
:20042000086008F091FF5821016007B0F0BDF0B585B00C4606460A9D1068011D1160006800
:200440000490002844D00393B768002F04D4049808F0E7FE874203D3049808F0E2FE074637
:2004600002967268BA42114600DC3946039B18680091401818600192BA420FDD0298007850
:20048000C0070BD10098C01B039000260398864204DA20202146A847761CF7E70026BE4220
:2004A00005DA0498805D2146A847761CF7E70198B84210DD02980078C0070CD00098C61B70
:2004C0000027B74207DA20202146A8477F1CF8E700202146A84705B0F0BDC046F0B589B04F
:2004E00001920F460446FF210846FA30251878680290002607960391FE31202220460092C3
:2005000008F088FE7F20800006942118089104952E713D46387B0246613A172A2AD801231A
:2005200093402C46B44D2B42254608D007A908AA2846019B00F066F900260596B3E0712520
:200540002B42254622D1022A14D1019B1868021D1A600068C2B2534253410593039AFC32A2
:20056000069B9A18089208702868022188432860002698E001464539032907D3252860D02A
:20058000412803D058280596D0D08DE0019A1068C11D0720814308460830106005C9D14343
:2005A0002F7B4900490D0BD17B3F944911400143049C2CD01920C1438F4234D36E2033E098
:2005C000002A01D4114602E00121C9075140D60F002205923A46413A062A0BD9613F062FDE
:2005E00061D8C0467F443F797F00BF440B5C5C5C3B3631007A441279520097440354545489
:20060000332E290008AB2A4602F0E8FB4BE0002311461A46059306F02FFC1921C9438F4283
:2006200025D3662224E04E20E0708F4201D3612100E04121A17008946070002005900226B5
:2006400031E0002006994870252008700120A1E008AB2A4602F0CCFD25E008AB2A4606F0B7
:200660008FFE20E008AB2A4604F006F91BE04622E2708F4201D36E2200E04E22A2708F42BA
:2006800001D3692100E0492161703F21C900069A51180891002803D02D202070042602E032
:2006A0002B2020700326287B012701466F39092904D801228A4052490A4201D158286BD10C
:2006C000049B029C04972946069F3D1908980C460978C90707D1191D091A62689142069F22
:2006E00001DC691A4F1C411C0398430000263846324608F081F808900599002903D0411CD8
:200700000891067000E00146A94206D8481E691A491C202208F07EFD2E702078C00605D402
:200720000698391A202208F075FD2EE0069887422BD00698391A3026324608F06BFD0798EE
:200740004142414104980140012905D12078400702D43846069905E03878069A511C1070C3
:20076000781C3E70227B412A0CD0582A05D0612A08D0782A01D0702A07D123781B0701D422
:20078000612A02D142784A704670069808F049FD0599401809B0F0BD002E09D0012E049BC4
:2007A000029C8FD10120079029680220084007E0079A296802200840002A09D0049B029CC5
:2007C00008994A1E08922D220A704742474179E70028049B029C08D1480700D472E70898E2
:2007E000411E0891009901706CE70898411E08912B210170002765E708C19000FFFF0F0076
:2008000043020000F8B514460F4605468068002804D4286810218843286001E00120A860E6
:20082000287B1026582808D0782806D0702804D06F2801D1082600E00A262846194600F041
:2008400055F8AA68002A09D102460A4306D12878000749D52B7B0020024612E02B7B642BCF
:2008600003D1642300290BD504E0692B08D1002906D5692301223A60002240428A4100E027
:200880000A4600941146324600F0B0F8A968884206DA401C21684A1E226030220A70F5E7DB
:2008A000287B582803D0782801D070280FD1297809070CD5702800D1782021684A1E226053
:2008C00008702068411E216030210170287B6F280AD12878000707D520684178302903D071
:2008E000411E216030210170F8BDC04610B5037B702B05D10868021D0A60006800226FE015
:200900000068384A024001204403A24222D0402A20D00402A24230D04402A24246D0C40223
:20092000A2422AD00403A24214D0202A12D100221C46643C142C06D8A0402B4C204204D10D
:20094000212420423ED1582B49D10868031D0B60008845E000221C46643C142C06D8A0407A
:20096000214C204204D1212420422BD1582B36D10868031D0B60006832E01A46643A142AF5
:2009800006D89040184A104206D12122104203D10020582B024623D10868C21D072082439B
:2009A0001046083008601068526819E000221C46643C142C0CD8A0400B4C20420AD1212415
:2009C000204205D00868021D0A600068C21707E0582B04D10868031D0B60007800E01046BE
:2009E000114610BD603F000000081200FEB501920D460646582B01D0174800E015480090B5
:200A0000089802903046284305D1029A1068411E116030210170019C3046284313D0304670
:200A20002946224600F01AF807460D46224607F0D1FE301A0099085C029B19684A1E1A60C8
:200A400008703E46E8E70298006808F0EAFB401EFEBDC046A8AA0000B9AA000080B5102AA9
:200A600006D0082A09D1C0084A078018C90880BD00090A078018090980BD002904D111467F
:200A800007F012F9002180BD002308F025FB80BD10B5A2B000202190209006F035FB03F0CD
:200AA000B9FA08F037F8F94808F0C4F901201C9007F0ACFC1C9807F0A9FC0E201D9007F0D8
:200AC000A5FC1C9807F0B8FC1C9807F0B5FC1D9807F0B2FC10201E9007F098FC02201F9026
:200AE00007F094FC1E9807F0A7FC1F9807F0A4FC06F012FF04F06AF8FFE705F0B3FB06F0F5
:200B00004DFEF14911910880F04A0220169001210F9108231A9306F037F8ED48006807F0D1
:200B200083FB0F9902461A98009014200523149304F0E2FB0F991A9BE64A3C20109006F0B2
:200B400023F8E548006807F06FFB0F99149B02461A9800904E2004F0CFFB16991A9BDF4AEA
:200B6000084606F011F8169B1A98DD490A78009019201590194604F0BFFB109816991A9B96
:200B8000D84A06F001F8169B1A98D7490A7800905A20194604F0B0FB16981A9BD34A032193
:200BA000129105F0F1FF11980288D1481990D14907F09CFA1299199A1A9B1E2005F0E4FFE8
:200BC00016981A9BCC4A0421139105F0DDFFCB48006807F089F8024619980B46C84917910C
:200BE00007F084FA1399199A1A9B2D201B9005F0CBFF149916981A9BC24A05F0C5FFC248D6
:200C0000006807F071F8024619980B46179907F06DFA1499199A1A9B159805F0B5FF16989B
:200C20001A9BBA4A0621189105F0AEFFB848006807F05AF8024619980B46179907F056FA97
:200C40001899199A1A9B1B9805F09EFF06F0ACFE01280DD1FFE7A2480178491C01700078F8
:200C6000062804DBFFE79E4901200870FFE7FFE706F048FD01280DD1FFE79B480178491C4C
:200C800001700078042804DBFFE7974901200870FFE7FFE706F010FD012800D012E19D4861
:200CA0000078002809D1FFE7974800689A49086098490878401C0870FFE705F09DFF9748B7
:200CC00008F0B8F8FFE706F069FD7F49049108807E4A022009900121029108230D9305F04D
:200CE00053FF7B48006807F09FFA029902460D98009014200523079304F0FEFA02990D9BAA
:200D0000744A3C20039005F03FFF7348006807F08BFA0299079B02460D9800904E2004F038
:200D2000EBFA09990D9B6D4A084605F02DFF099B0D986B490A78009019200890194604F02B
:200D4000DBFA039809990D9B664A05F01DFF099B0D9865490A7800905A20194604F0CCFA7C
:200D600009980D9B614A0321059105F00DFF049802885F480C905F4907F0B8F905990C9AC7
:200D80000D9B1E2005F000FF09980D9B5A4A0421069105F0F9FE5948006806F0A5FF0246F9
:200DA0000C980B4656490A9107F0A0F906990C9A0D9B2D200E9005F0E7FE079909980D9BD9
:200DC000504A05F0E1FE5048006806F08DFF02460C980B460A9907F089F907990C9A0D9BDC
:200DE000089805F0D1FE09980D9B484A06210B9105F0CAFE4648006806F076FF02460C98E7
:200E00000B460A9907F072F90B990C9A0D9B0E9805F0BAFE06F050FC01280BD0FFE7404883
:200E20000068C117890F401881102D480078884247D1FFE7394808F009F82548006807F0F6
:200E400039F9002807D1FFE72348006807F032F9002808D0FFE733480078002803D1FFE7CA
:200E600008F0FBF922E01A48006807F023F900281BD1FFE71848006807F01CF9002814D1CC
:200E8000FFE72848007800280FD101E0008086402449012008702449002008602349086086
:200EA0002349086023490860FFE7FFE71D480078012804D1FFE7002002F0EEFCFFE7FFE735
:200EC000FEE700E719E6C0462A05202056AB0000180320204EAB00002C03202044AB00001F
:200EE000D70520203EAB0000DB05202038AB0000F602202052AB000028AB00008805202015
:200F0000C1A8000049AB00009C03202030AB00008C052020D5052020A4052020004008405E
:200F200084052020D405202074052020780520207C05202080052020F0B58BB00A4603465A
:200F4000E24906463778C8194078761CC006F9D42D2F01D02B2F01D1307801E0761E3846B9
:200F600008F0D9F901D3014601E0014620394E293FD0492959D1707808F0CDF900D2203819
:200F80004E284CD1B07808F0C6F900D22038462845D1002A01D0F01C1060F07808F0BBF9A6
:200FA00000D2203849281FD1307908F0B4F900D220384E2818D1707908F0ADF900D220381E
:200FC000492811D1B07908F0A6F900D2203854280AD1F07908F09FF900D22038002A03D05D
:200FE000592801D1083616602D2F00D1C7E0BA49C6E0707808F08FF900D2203841280ED193
:20100000B07808F088F900D220384E2807D1B0490024002A00D127E1F01C106024E1002AEC
:2010200000D01360002421461EE1AC490791002530280292049317D1707808F06CF900D2AF
:201040002038582810D1B078A04909184978890707D42E2808D1F0789C490818407880079E
:2010600002D5B61C9E4807902C469C4B08F057F9411E884108909A4B059508F050F9411ECA
:20108000884103900A9506952B46294632782E2A03D1002939D1012135E009911446303C3A
:2010A0000A2C01D3002100E001210898084201D0284611E00398002827D084488118497809
:2010C000890722D528460A2C06D3114661391A2900D2203A1446373CE200824B99189D588A
:2010E0004C680A99059A079B04F06CFA2A46234602F00DFB05460A910999002902D006980A
:20110000401E06900123761CC0E701202D2F099003D1C0070A9941400A91069FBC00039812
:201120000028204600D13846002B00D181E00899002909D01346613B1A2B01D3134601E08A
:201140001346203B452B09D00399002912D01346613B1A2B00D2203A502A0DD172782D2AEC
:20116000019501D02B2A0DD1B11C0491B4780023DB430BE004963DE0049627463AE05549A5
:20118000002471E0711C0491002314462546303D092D25D800234D25AD00303C092C24D851
:2011A0002D2A01D01E4600E05E423618F7177E40F61BAE42099F00D80027089939420AD16A
:2011C0000127B9028E4200D800270399394202D10A2159430B19049C611C64780491DCE737
:2011E0000499C918491E049100232D2A019D00D15B421F18002428460A992246234605F0BD
:2012000031FE002815D10898002817D04D20800087421ADD08F098F8222101600024284677
:201220000A992246234605F027FE002816D12A4915E02C46029A049B0A9912E028460A9956
:201240003A4604F07FFB044609E0274887420EDC08F07AF822210160214600E01D49029AF4
:20126000049B002A00D0136020460BB0F0BD002F15D41E4C029A049B002F0ED0F80709D0F2
:201280000CCC28460A99083C04F09CF9049B029A05460A917F080834EEE72C46CCE728464C
:2012A0007C42124D029A049B002C0CD0E10707D00CCD0A99083D03F097FD049B029A0A91F1
:2012C00064080835F0E70446B6E7C046C0A700000000F87F0000F0FF0000F07F0000244001
:2012E00000003040C8A80000CCFEFFFF48A9000010B588B004F0B6FF06F02AFAC64908601E
:20130000C6480068C649096802F0C4FFC5480088AF214900884205DCFFE7C2480088002829
:2013200005DCFFE7C0480078012800D08FE0BD480088AF21490088421ADCFFE7BA48007838
:20134000002815D1FFE7B7480088012810DBFFE7BE4900200860BF490860BD490860BE49A4
:201360000860B2490870B2490870B3490870FFE7AD4901200870BB480068002818D4FFE7D1
:20138000B8480068282813DCFFE7AC480068B74904F049FBAA498860AA480068B24904F008
:2013A00042FBA9498860AF490868401C08602CE0AC480068292818DBFFE7AA480068962840
:2013C00013DCFFE79D480068A74904F02CFB9C4988609C480068A54904F025FB9A498860FA
:2013E000A0490868401C08600EE09E480068972809DBFFE7914800689149886091480068C7
:2014000091498860FFE7FFE7FFE706F0A5FB002804D0FFE7964901200870FFE7944800782E
:20142000012813D1FFE792480078079006F094FB01460798884208D0FFE77B490020087081
:201440008B49087087490860FFE7FFE7B2E006F07DFD002815D0FFE774480078002810D10A
:20146000FFE77348007800280BD1FFE771490868401C08606E49002008706C4901200870DE
:20148000FFE706F069FB002834D0FFE76C4800696A49096804F0C2FA002105F033FD00289B
:2014A0000BD0FFE7654800686C4904F0BCFA644988606549002088600AE062480068674900
:2014C00004F0B1FA604988605D4900208860FFE759480078002809D1FFE7504800685B49A3
:2014E00008604F4800685B490860FFE752490120087049E050480078002832D0FFE7474887
:20150000006852490968411A5148016044490968504A12688A1A50490A6000680968401A16
:2015200007F0CCF919214901884218DBFFE74348006839490691096804F070FA0699404AC4
:20154000906040480068096804F06DFA3E49886039490020087036490120087000E0FFE778
:2015600011E0364800682C490591096804F056FA0599334A906033480068096804F053FA34
:2015800031498860FFE7FFE729480078012810D1FFE73348C07801280BD1FFE723480078C3
:2015A000012806D1FFE721490020087020490870FFE7FFE7224881680161234A00929168E9
:2015C00011618168006805F02BF901460098294C049421608168006805F0E0F826490391A1
:2015E000086020687D214A0102922449019106F0E7FD0199029A034603982360006806F0AA
:20160000DFFD0399024604980A600068096803F065FB08B010BDC0465C0520207C032020ED
:20162000800320202A052020CE052020CD052020CC05202084052020CA052020BC05202069
:2016400018032020C00520202C032020540520204C052020580520205005202000002041FE
:201660002305202048052020000070C10000C841CB052020640320206803202060F0FFFF8B
:2016800010B58AB004F0EEFDC2480078002800D18BE0CE49D3480860CD49086006F058F828
:2016A0000146D1480160006806F004FD07F006F9132804DBFFE7CC4900200860FFE7CB487E
:2016C0000068CB49096802F0E5FD06F045FA00282CD0FFE707F0C1FDB448006806F0EAFC15
:2016E00000281ED1FFE7B248006806F0E3FC002817D1FFE7AF48006832280DD1FFE7A64954
:2017000001200870A34900200870AB4A1168491C1160A8490860FFE7A6490868401C086006
:2017200003E0A44900200860FFE73DE0A7480068AD490391096804F071F903999B4A049287
:201740009060A3480068096804F06DF901460498974A059291608168006805F061F8014649
:201760000598A44C099421608168006805F016F8A1490891086020687D214A0107929F498D
:20178000069106F01DFD0699079A034608982360006806F015FD0899024609980A6000682A
:2017A000096803F09BFAFFE7F1E07B480078002800D184E0854900200860854908607E488F
:2017C0000068C117890F411803229143401A029003281DD80298810001A040588746C046AC
:2017E000F1170000F917000001180000091800006B49002008600BE069497748086007E0B0
:2018000067490020086003E0654972480860FFE76348006802F040F87048006806F04AFC5E
:20182000002847D1FFE76348006832283DD1FFE759490020087060480068C117890F41180E
:2018400003229143401A019003281DD80198810001A040588746C046691800007118000054
:2018600079180000811800004A49012008700BE04A490120087007E046490120087003E009
:20188000464901200870FFE750495548086050490860484900200860484908604849086090
:2018A0004849086048490860FFE742490868401C086003E03F4900200860FFE766E03748F3
:2018C0000078002861D0FFE73548006801F0E4FF3448007800283ED0FFE706F03DF9002834
:2018E00039D0FFE707F0B9FC3048006806F0E2FB00282BD1FFE72E48006806F0DBFB0028BE
:2019000024D1FFE72B48006832281AD1FFE7264900200090087023490870204908701E4A22
:2019200001211170244A1168491C1160214908602249086022490860224908602249086029
:20194000FFE71C490868401C086003E0194900200860FFE718E006F0FFF8002804D0FFE78E
:201960001149012008700EE006F0F6F8002809D1FFE70D480078002804D0FFE70949012098
:201980000870FFE7FFE7FFE7FFE7FFE7FFE70AB010BDC046D2052020D3052020D105202099
:2019A0008C052020CF052020D0052020180320202C03202060052020840520208005202030
:2019C0007C0520207805202074052020BC052020C0052020000007C30000074390052020E1
:2019E0000000704200002042640520207C032020800320206C0320207003202060F0FFFFF8
:201A0000F0B589B00F4605460120C1073E468E43B14886420BD3D1483018284300D190E05E
:201A200007F092FC21210160CD49002550E1AB48864212D8C64AC74B2846394601F067FE08
:201A40000022A54B05F036FA002800D186E0C248864200D382E039463AE1029108970024F9
:201A60009D4920462A46334601F04CFE9C4B224603F0A8FD05460F469A4A9B4B03F0A2FD13
:201A80009A4A9B4B01F043FE07F00CFC994A9A4B01F03DFE07F006FC984A994B01F037FE72
:201AA00007F000FC974A984B01F031FE07F0FAFB964A974B01F02BFE07F0F4FB0690079173
:201AC000944A954B07F05CFC944A954B01F01FFE07F0E8FB934A944B01F019FE07F0E2FBBB
:201AE000924A934B01F013FE07F0DCFB22467A4B01F00DFE039004912846394602F0D2F961
:201B000005900C468B48864200D283E007F0E7FB02460B46059D2846214603F053FD2A4672
:201B200007F036FC02460B4601F0F1FD824A864B01F0EDFD02460B468148844901F0E2FD8D
:201B4000C0E07D4A7D4B07F01BFC04460E467C4A7E4B07F015FC2246334657E0284639460E
:201B60002A463B4603F02EFD064608970F465D4A5D4B03F027FD5D4A5D4B01F0C8FD07F0B4
:201B8000A9FB5C4A5C4B01F0C2FD07F0A3FB5B4A5B4B01F0BCFD07F09DFB5A4A5A4B01F051
:201BA000B6FD07F097FB594A594B01F0B0FD07F091FB04460791574A574B3046394603F074
:201BC00001FD564A564B01F0A2FD07F083FB554A554B01F09CFD07F07DFB544A544B01F05B
:201BE00096FD07F077FB00223B4B01F090FD02460B462046079903F0F7F802460B4628463B
:201C0000089C214603F0DEFC2A46234601F07FFD05465DE0002630462146324601962346A3
:201C200003F0D0FC02460B462846394601F06AFD00900F46059D28462146324607F0A8FB99
:201C400002460B460098394603F0CEF806460F4607F045FB07900691284621462A4607F0D9
:201C600097FB059004913046394632463B4601F04EFD02460B463048304901F043FD054678
:201C80000F4605980499079A069B03F09BFC2A463B4601F037FD05460F46019821460246EB
:201CA00007F076FB02460B46254C264E2046314601F028FD2A463B4601F024FD2246334667
:201CC00001F025FD05460898002801DC02984140284609B0F0BDC0460000F03FFFFFDF3FC1
:201CE0000000E03F09F7FD0DE13D023F88B20175E0EF493F3B8F68B52882A4BF5544880E32
:201D000055C1C93F7D6FEB0312D6D4BF555555555555C53F82922EB1C5B8B33F59018D1BEA
:201D20006C06E6BFC88A599CE52A00404B2D8A1C273A03C03333EF3F075C143326A6913CDD
:201D4000182D4454FB21E93F26A691BCFB21F93F9C7500883CE4377E0000503E000010C029
:201D60000000F87FF0B587B005460F460122D0070E468643924886420DD3B448864203D838
:201D8000002D3FD086423DD1284639462A463B4601F0BDFCE2E08B488642039112D8914AF3
:201DA000914B2846394601F0B2FC00248B4B224605F080F8E1430291002869D0B00DF928F6
:201DC00066D2CDE08048864220D8854886423FD8284631462A46334601F099FC00277C4BA8
:201DE0003A4601F094FC044628460D4601218B07314602973A4601F08AFC02460B4620461D
:201E0000294636E0002920DC924F1FE06F48864234D800246F4B284607F0A6FA2A4605460F
:201E20000F466D4B10463146224603F0CBFB6B4B224601F06CFC02460B462846394602F0B8
:201E4000D3FF05460F46022021E0814F824D87E0029200245E4B284607F086FA2A460546E6
:201E60000F465E4B104607F07FFA02460B462846394602F0B9FF05460F4609E00020544928
:201E80002A46334602F0B0FF05460F46032002900695284639462A463B4603F093FB0590D4
:201EA000049102460B4603F08DFB04460D464F4A4F4B03F087FB4F4A4F4B01F028FC07F0F5
:201EC000FFF94E4A4E4B01F022FC07F0F9F94D4A4D4B01F01CFC07F0F3F94C4A4C4B01F0A8
:201EE00016FC07F0EDF94B4A4B4B01F010FC02460B460598049903F065FB04900591474AEA
:201F0000474B2046294603F05DFB464A464B01F0FEFB07F0D5F9454A454B01F0F8FB07F045
:201F2000CFF9444A444B01F0F2FB07F0C9F9434A434B01F0ECFB07F0C3F9224A964213D850
:201F4000049A059B01F0E3FB02460B4607F0F4F902460B462046394601F0D4FB05460F4619
:201F60002846394607B0F0BD029AD400354A1319125902925A680192049A059B01F0C7FBB0
:201F800002460B463048011906594D6807F0D4F932462B4601F0B6FB22463B4601F0B2FB2C
:201FA00002460B460298019901F0ACFB05460F4603980028D4D50120C0074740D0E7C04684
:201FC00000001044FFFFDB3FFFFFF23FFF7F03400000F0BF0000F8BF0000F83F0000F03FD9
:201FE000FFFFE53F9C7500883CE4377E11DA22E33AAD903FEB0D76244B7BA93F513DD0A06D
:20200000660DB13F6E204CC5CD45B73FFF8300922449C23F0D5555555555D53F2F6C6A2C39
:2020200044B4A2BF9AFDDE522DDEADBF6D9A74AFF2B0B3BF711623FEC671BCBFC4EB989991
:202040009999C9BF90A90000B0A900000000F07FFB21F93FFB21F9BF182D445480B58AB051
:2020600009A90591088006AA049202201070CA205070E32090700920D0706820042104F0F1
:2020800049F8049A0598A321117000884006002808D5FFE706A9C0204870C8208870C220BD
:2020A000C87005E006A9A32048708870C870FFE709A80088C005800F002808D0FFE706A9A1
:2020C000C4200871CC204871C620887105E006A9A320087148718871FFE706AAA320D07103
:2020E0001072507275480A2104F014F809A800888007002804D0FFE706A92020087003E0C8
:2021000006A9D8200870FFE76D48012106AA04F001F809A800888006002804D5FFE701207F
:2021200004F004FF03E0002004F000FFFFE709A80088C005800F002820D0FFE709A8008808
:20214000C00500280AD5FFE706A9B22008708B204870B62088709B20C87009E006A9B02048
:20216000087080204870B42088709020C870FFE75448042106AA03F0CDFFFFE709A80088A6
:20218000C007002826D0FFE706AAF82010708B2000010121039103F0BDFF07200290FA2147
:2021A00000F0BAF9029804F0F8FD039805F03AFD642006F0CDF87D20800006F0E1F842487D
:2021C000C82105F00DFD282006F047F80A2006F05DF808E006AAD82010708B200001012147
:2021E00003F098FFFFE709A800888007002804D5FFE706A9D920087003E006A9D8200870A6
:20220000FFE73248012106AA03F084FF09A800884007002804D5FFE7012005F031FC03E089
:20222000002005F02DFCFFE709A80088C006002804D5FFE7012005F0FFFB03E0002005F08C
:20224000FBFBFFE709980821084321490191488100F0AEFC01990020887309A800884006FA
:20226000002805D5FFE71A49887B801D8873FFE709A80088C005800F002805D0FFE71449C5
:20228000887B801D8873FFE709A800881421084205D0FFE70E49887B10308873FFE709A81E
:2022A00000888007002805D0FFE70949887B001D8873FFE700200AB080BDC046A70A00000B
:2022C000B60A0000A20A000009E3CA023D070000FC04202080B596B00E200721029106F0FC
:2022E00071FB894814900421039106F047FC02990F20129006F066FB1498082106F03EFC43
:2023000012200521099106F05DFB0120069001027E48109006F032FC262006210A9106F03B
:202320007DFA069800230B930193C0040D9000900321139118461A4605F072FD06980B9B14
:202340000D9A1399019300921A4605F069FD0B9806F01CFB069806F019FB03990B9B0D980A
:2023600001930090252004901A4605F059FD03990B9B0D9801930090242005901A4605F07C
:202380004FFD049806F002FB059806F0FFFA14200221089106F016FB0899152006F03EFADB
:2023A0000899342006F00EFB0899352006F036FA3B2006F01FFC06980B990D9B00914204E0
:2023C0000C922E2005F0E2FE0B9A0D9B00922720114605F0DBFE0B990C9A0D9B009133201B
:2023E00005F0D4FE0B990C9A0D9B0091172005F0CDFE0B990C9A0D9B00912F2005F0C6FE11
:20240000222006F0F7FB212006F0F4FB232006F0F1FB2D2006F0EEFB0B990C9A0D9B009198
:20242000362005F0B3FE0B990C9A0D9B00913A2005F0ACFE06980B990D9B0091020407920A
:2024400019200F9005F0A2FE079A0B990D9B0091182005F09BFE08980B990C9A0D9B0091A8
:2024600005F094FE09980B990C9A0D9B009105F08DFE0A980B990C9A0D9B009105F086FE93
:202480000B990C9A0D9B00912C2005F07FFE0B990C9A0D9B00912B2005F078FE0B990C9A78
:2024A0000D9B00910D2005F071FE0B990C9A0D9B0091162005F06AFE109815490E9106F0A1
:2024C000A6FD0E99109806F059FB1098114906F0CDFB0F9910988905119106F02DFA1098BB
:2024E000119906F061FA12991498090406F078FA139914980902159106F01EFA14981599A4
:2025000006F052FA16B080BD00200A4000000A400070200800203C0080B58AB0024608A867
:20252000027007AA118000784007002806D0FFE707A800888049884204DBFFE70020C04392
:202540000990F5E007A8008806F0ACF87B4904F0EBF9049005A8009004F0DCFA00980078F5
:20256000801E01900E286BD80198810001A040588746C046B125000041260000D525000056
:20258000412600004126000041260000F9250000412600004126000041260000412600004C
:2025A0004126000041260000412600001D26000004988D21C90504F065F805F07BFD03A921
:2025C00008800498614904F05DF805F073FD02A9088039E004982321490604F053F805F0D0
:2025E00069FD03A908800498574904F04BF805F061FD02A9088027E004988B21C90504F037
:2026000041F805F057FD03A9088004984D4904F039F805F04FFD02A9088015E00498452142
:20262000090604F02FF805F045FD03A908800498434904F027F805F03DFD02A9088003E085
:202640000020C043099073E003A8407806A908700398487002A8407888700298C87008A8B2
:202660000078C00700281CD0FFE775208000022106AA03F04FFD002804D0FFE70020C043F5
:20268000099055E006A8821C49208000022103F041FD002804D0FFE70020C043099047E01E
:2026A000FFE708A80078800700281CD5FFE73B20C000022106AA03F02DFD002804D0FFE799
:2026C0000020C043099033E006A8821C2520C000022103F01FFD002804D0FFE70020C043A3
:2026E000099025E0FFE708A80078400700281CD5FFE777208000022106AA03F00BFD0028DB
:2027000004D0FFE70020C043099011E006A8821C4B208000022103F0FDFC002804D0FFE72A
:202720000020C043099003E0FFE700200990FFE709980AB080BDC046410600000000484305
:202740000000C044000040450000C0450000404610B588B003F086FD04F0FAFF75490860DF
:20276000754800687549096801F094FD05F0EEFB002815D0FFE772480078002810D1FFE791
:202780007048007800280BD1FFE76F490868401C08606C4900200870694901200870FFE7B5
:2027A00005F0DAF9002834D0FFE76A4800696849096803F033F9002104F0A4FB00280BD02C
:2027C000FFE7634800686A4903F02DF9614988606249002088600AE05F480068644903F056
:2027E00022F95E4988605B4900208860FFE757480078002809D1FFE74F4800685849086096
:202800004E48006858490860FFE750490120087049E04E480078002832D0FFE7464800685C
:202820004F490968411A4F480160444909684E4A12688A1A4D490A6000680968401A06F05F
:202840003DF819214901884218DBFFE74048006838490791096803F0E1F807993D4A9060BF
:202860003D480068096803F0DEF83C49886037490020087033490120087000E0FFE711E0E0
:20288000334800682B490691096803F0C7F80699304A906030480068096803F0C4F82F49A6
:2028A0008860FFE7FFE727480078012810D1FFE73048C07801280BD1FFE7214800780128E8
:2028C00006D1FFE71E49002008701E490870FFE7204881680161214A019291681161816872
:2028E000006803F09DFF01460198234C059421608168006803F052FF2049049108602068F5
:202900007D214A0103921E49029105F059FC0299039A034604982360006805F051FC04990E
:20292000024605980A600068096802F0D7F908B010BDC0463C0520207C032020800320201F
:20294000C9052020C805202084052020C70520204005202018032020440520202C032020AF
:20296000340520202C052020380520203005202000002041230520205C0320206003202070
:2029800060F0FFFF80B5A4B0FFE77E4801907E4800907E487E497F4A7F4B00F02FFB2290E1
:2029A000FFE7784800780028EFD1FFE72298002804D0FFE70020C0432390DFE075480390AA
:2029C000006805F0E1FA9D21C905049103F0ACFF014603982191406805F0D6FA049903F06F
:2029E000A3FF014603982091806805F0CDFA049903F09AFF014603981F91C06805F0C4FA68
:202A0000049903F091FF1E902098032189070A9103F038FE06901E9805902199084603F0DC
:202A200002F81F9903F02EFE059902460698079203F028FE079902F0F6FF05F055F9FEF7D0
:202A4000DFFF564A1C92564B1D9302F0BBFD04F027F8544908601F990B91084602F0E3FFC1
:202A60000C901E9808902199084602F0DCFF20990D9103F007FE089902460C98099203F02D
:202A800001FE099902F0CFFF05F02EF902460D9810920A460A99119203F0F4FD0B990246C4
:202AA0000C980E9203F0EEFD0D9902460E980F9203F0E8FD0F9902F0B1FF7F21C90502F03D
:202AC000B2FF05F011F9024610980B46119900F0A9FF1C9A1D9B02F075FD03F0E1FF3249A3
:202AE0000860209813901F981690219814901E99189103F0C7FD169902461398129203F009
:202B0000C1FD129902F08FFF0146084602F08BFF05F0EAF81A90084613991B90084603F054
:202B2000B1FD14991590084603F0ACFD159902F07AFF16991790084603F0A4FD0146179864
:202B400002F06CFF18991990084603F09BFD0146199802F063FF05F0C7F802461A980B469A
:202B60001B9900F05FFF1C9A1D9B02F02BFD03F097FF0E49086000202390FFE7239824B03B
:202B800080BDC046A103202016032020560320205003202040032020940320206666666697
:202BA00066A64C408C032020900320209C03202080B582B08848807A002804D1FFE70020C8
:202BC000C043019004E16B46002018708249486800780968497C012203F02AF9002804D0C5
:202BE000FFE70020C0430190F2E07B49486800780968497901226B4603F01AF9002804D074
:202C0000FFE70020C0430190E2E07349486800780968097901226B4603F00AF9002804D0BB
:202C2000FFE70020C0430190D2E06B482421405C002864D0FFE76B460C20187066494868AE
:202C4000007809680979012203F0F2F8002804D0FFE70020C0430190BAE0322006F0CAFACD
:202C60006946C02008705C48807AC007002806D0FFE700982021084369460870FFE7564934
:202C8000486800780968097901226B4603F0D0F8002804D0FFE70020C043019098E04E48E6
:202CA000407C002804D0FFE769460220087003E0694600200870FFE74749486800780968F4
:202CC000497C01226B4603F0B3F8002804D0FFE70020C04301907BE06B46002018703E49EC
:202CE0004868007809684979012203F0A1F8002804D0FFE70020C043019069E065E06B46F5
:202D00000420187034494868007809680979012203F08EF8002804D0FFE70020C04301903D
:202D200056E02D48807C002806D1FFE72A48807AC007002804D1FFE769464020087003E087
:202D4000694660200870FFE72349486800780968097901226B4603F06BF8002804D0FFE753
:202D60000020C043019033E0322006F043FA1A48407C002804D0FFE769460120087003E0DC
:202D8000694600200870FFE71349486800780968497C01226B4603F04BF8002804D0FFE760
:202DA0000020C043019013E00B4B58680078196849791033012203F03BF8002804D0FFE72D
:202DC0000020C043019003E0FFE700200190FFE7019802B080BDC04694042020F0B5A5B07F
:202DE000049308920E46074600240A947E4D22462B4604F055F8002813D100247B4D3846E4
:202E0000314622462B4604F041F8002809D1002238463146134604F025F800283C4635468D
:202E200007D10AAA2046294604F09CF90A98401E0A900899087B0BAE412801D06D4800E062
:202E40006B480990886801903020039030700022079220462946134604F00EF801210028F5
:202E6000029101D0C8074540771C20462946079A134603F0F7FF00280DD124AA20462946A6
:202E800004F070F9249801210A1A2046294602F059FD04460D462046294604F017FD0646F0
:202EA0003946059704F040FA0690304605F0F0FA06F0EBF904460D460198471C20D30598DB
:202EC00006994618002220462946134603F0CAFF002848D1002220462946474B02F072FBC0
:202EE00004460D4604F0F2FC0999095C771C317005F0CEFA06F0C9F904460D463E46E1E7BA
:202F00000BA806994618002F16D07F1E002220462946394B02F056FB04460D4604F0D6FC2E
:202F20000999095C3246761C517005F0B1FA06F0ACF904460D46E6E73178099C204606F070
:202F4000E9F8001B08280EDB0196741E089D079F099E2178304606F0DDF8801B0E2805DDB4
:202F60002770641EF5E7089D079F04E00999081840782070019E37700A98297B4129049C8D
:202F800001D0702100E05021069E059F224604F0A5FAAA68501C04D1384606F042F9421ED9
:202FA000AA6038463146234605F0A2F9A8680028029A02D128680007C20F384631462346AC
:202FC00003F0B8FE287B412801D0782000E0582021684A1E226008702068411E216003998C
:202FE000017025B0F0BDC0460000F07F0000F0FFA8AA0000B9AA00000000304010B594B04C
:20300000179C169C1290119110920F9306A900200870169908807448807B179A07A901F03C
:2030200069FF002804D0FFE70020C0431390D7E06D484089142108426CD0FFE70798000605
:2030400007A900914A78120480188A7812028018CA788018109A1060089800064A7912049E
:2030600080188A7912028018CA798018109A5060099800064A7A120480188A7A120280180B
:20308000CA7A8018109A90600A9800064A7B120480188A7B12028018C97B40181099C86081
:2030A0000698103006A9087010980221405E029010980621405E039010980A21405E04900B
:2030C00010980E21405E0590029840430399494340180499494340180599494340180190B5
:2030E00001980F210906884205DBFFE701983F49884208DBFFE7FFF75BFD1699002008800F
:20310000C04313906CE0169908880122120210430880FFE7344840894006002823D5FFE7F5
:2031200006A9087807AA1318105C00025B78C018119B18800878831898780002DB78C018CF
:20314000119B5880087882181079000252798018119A90800698801D08701699088808220C
:2031600010430880FFE720484089C005800F002823D0FFE706A9087807AA1318105C00028F
:203180005B78C018129B18800878831898780002DB78C018129B58800878821810790002BD
:2031A00052798018129A90800698801D087016990888702210430880FFE70B484089800708
:2031C000002807D0FFE706A8017807A8401803F09FFAFFE70F9805F087F900201390FFE7A5
:2031E000139814B010BDC046FC04202001000011F0B5A3B003930F46044604929168002956
:2032000003D0002904D5062100E001210498816007910AA830210891017000252046394684
:203220002A462B4603F028FE01210028059101D0C8074740624E20463946604A334603F0E2
:2032400039FE002809D00022204639465E4B01F0CBFD04460F466D1CEDE75A4E00222046A1
:2032600039460992134603F0FDFD002811D1002220463946334603F0FFFD002809D0002252
:2032800020463946504B02F09DF904460F466D1EE4E702950AA8451C2046394604F016FB9D
:2032A0000695294604F040F807998842019004DD481C0AA90A18085C1FE0C9430E180AA97B
:2032C0000D18681C07902046394604F0FFFA05F0DFF802460B462046394600F013FA002273
:2032E000394B02F06FF904460F4604F0EFFA079A30306870761C1546E3D3C0B23528039E88
:20330000049F029B099D0FD31446501E0178491CCAB201703A2A03D330210170401EF5E71C
:203320000AA98842224640D00198C41815700220C043844202DBB868844207DD601E397BDA
:20334000891EC9B2324604F0C9F80124069805F068FF401E0599A0421ADB0028089A01D48D
:20336000069A125C1346303B5D1EAB41C9431943C90705D13978090702D40025059905E0C7
:2033800031684B1E33600A7001250021401EE2E73868082202402A43501E82410698214601
:2033A000334603F0C7FC23B0F0BD501E002101700198C018441C0AA80690B8E70000C0FFE7
:2033C000FFFFDF410000F03F0000244080B584B002A908706448807C0978884203D1FFE703
:2033E00000200390BDE002A80078002853D0FFE75D494868007809680979012201AB00F0AA
:20340000E3FF002804D0FFE70020C0430390A8E001AB1878DF2108401870534948680078DA
:2034200009680979012202F003FD002804D0FFE70020C043039094E0032005F0DBFE01A9DD
:203440000220087048482221405C002806D0FFE701988021084301A90870FFE74248232124
:20346000405C002806D0FFE701983021084301A90870FFE73C49486800780968C97D012208
:2034800001AB02F0D5FC002804D0FFE70020C043039066E05FE03449486800780968097908
:2034A000012201AB00F090FF002804D0FFE70020C043039055E02C48807AC007002806D0BE
:2034C000FFE701982021084301A9087005E001A90878DF2210400870FFE72349486800786D
:2034E00009680979012201AB02F0A2FC002804D0FFE70020C043039033E0032005F07AFE3F
:2035000019482221405C002804D0FFE701A98020087003E001A900200870FFE7124823211E
:20352000405C002806D0FFE701983021084301A90870FFE70C49486800780968C97D012277
:2035400001AB02F075FC002804D0FFE70020C043039006E0FFE70298034988740020039063
:20356000FFE7039804B080BD9404202080B58AB00320019041065D48029005F017FB014612
:2035800001985B4A0592116001025A48049005F00DFB01460298584A1160012103914906B6
:2035A00005F0BFFC039902460298531E9A4109AB1A70890605F0B5FC039902460498531E2D
:2035C0009A4108AB1A70490205F0ABFC039902460498531E9A4107AB1A70090205F0A1FC47
:2035E000014605984A1E914106AA1170C0788007002812D5FFE709A8007808A909788842A3
:2036000005D0FFE73D490868401C086004E03B490868401E0860FFE718E03548C0784007BD
:20362000002812D5FFE709A8007808A90978884205D1FFE731490868401C086004E02F49AA
:203640000868401E0860FFE7FFE7FFE72A4840788007002812D5FFE707A8007806A9097885
:20366000884205D0FFE726490868401E086004E023490868401C0860FFE718E01E484078A0
:20368000C007002812D0FFE707A8007806A90978884205D1FFE71A490868401E086004E019
:2036A00017490868401C0860FFE7FFE7FFE70320009041060D4805F031F9009801020D4866
:2036C00005F02CF9012005F0C3F901280BD1FFE7064805F029FD172803D1FFE7FFF752F970
:2036E00000E0FFE700E0FFE70AB080BD00000A408403202000200A40880320207C03202042
:2037000080032020FCB40124E407634002E0FCB40124E40708B41D03ED08D60D354356025D
:203720005F007F0D06D12C00344300D0AEE001B0FCBC7047A408254307242402FF34A74225
:2037400005D10020190D090501B0FCBC7047002B03D50024A61BAC4125000B03DB08C20D65
:20376000134342024800400D07D11C00144300D08CE00EBC1000F0BC704701246407234360
:2037800007242402FF34A04205D10020090D090501B0FCBC7047002903D50024A21A9C41CB
:2037A0002300C11B08D51C002B0025001400320026000024611A3800362925D502B43939FD
:2037C00049420C00203C03D22F008F40374301E03700A740002F01D040210E4302BC2029F1
:2037E0000BD500290ED04C42203420B4A5402C0020BC0D41CE40361904E000292E000D410B
:2038000020390E4192196B411C0014433ED00024002B04D5012400218A1A99410B00401ED3
:2038200052005B41FBD50121890215000D400CD0521800277B4101D3401C0BE00721C90185
:2038400015000D4001D189008A43072109028A4352005B41801C19DD07210902FF31884231
:2038600009D30EBC0020C90F0902FF31C900C91D0905F0BC7047190B00050143E407214393
:203880001805120B104301B0FCBC70470021002001B0FCBC7047704780B592B011905348B0
:2038A00000685349096800F0F5FC3F200006109050480F9000200E900D900C904E48006881
:2038C00005F01AF94D4908601198096802F0A6F803F0DAFD0C90109808900C9807900F99AF
:2038E000069147490A91096802F098F80146069802F0C8FE079902460898099202F0C2FEA1
:20390000099902F090F80A9A01463E480B9001600C991160006804F0CDFB2721C943282246
:2039200004F04EFC04F030FB01460B9801600068354903F0F1FA00280CD0FFE73148006850
:20394000002103F0CBFA002804D0FFE72D492E48086014E02B480068002103F0DDFA002876
:203960000CD0FFE727480068284903F0B7FA002804D0FFE7234925480860FFE7FFE724483E
:20398000006820490191096802F04DF80199214A0292906020480068096802F03FF80146E2
:2039A00002981E4A039291608168006802F038FF014603980E918168006802F0EFFE0D90B7
:2039C0000E987D214A0105921549049104F0F8FB0499059A0E900D9804F0F2FB0D900E9844
:2039E0000D9901F07BF912B080BDC0467C03202080032020CDCCCC3EA405202088052020DC
:203A00007005202090052020000040C000004040BC05202018032020C00520202C032020CC
:203A200060F0FFFFF0B585B01E46054602920390504B514F04963E40501E14468441344331
:203A40009C4207D80F40681E2C4684413C434948844208D90398029A049BFFF758FE0C4672
:203A6000214605B0F0BD4548049B181810431AD00C46C90FD80F4000019141183D4316D042
:203A800032431CD03B48864217D187421DD1424C3C48C0467944097949008F4401023B60CA
:203AA000DEE7414CDCE70398FEF75CF9D7E702290398D5D3032918D015E0874218D1012004
:203AC000C00704402E48241810E000242046C0467944097949008F4401020608C0E7002076
:203AE0000121CC07BCE72A4C00E02A4C2548B7E7B81B00153C2803DD214C2248019918E0C2
:203B0000002B09D500253B22D243904204DA28462C460EE0234C23E003980D462146029A24
:203B200001F062F90122D2079143FEF71BF90C462946002994D0022905D0012912D10121E3
:203B4000C9074C408CE7104A104B2146FFF7DFFD02460B460B480E49FFF7D4FD7FE70F4CDD
:203B60000F487DE7084A094B2146FFF7D0FD054A084B72E70000F07FFFFFFF7F000010C004
:203B8000FB21F93F182D4454075C143326A6A1BCFB210940FB2109C0FB21E93F7CD902C07C
:203BA000D221337F7CD90240FB21E9BF80B58AB0014609A8017001784F48016000687B28B1
:203BC00004D1FFE74D4901200870FFE74A4800687D2804D1FFE7494902200870FFE747481A
:203BE000007801280AD1FFE74348006844490B78444AD0540878401C0870FFE73F48007875
:203C0000022876D1FFE73F48C078502804D1FFE74449012008705EE03A484078232859D049
:203C2000FFE7374800900078021F36480290C11C04A8019005F08CFB00990198097809187C
:203C40000A1F0021117005F061FB02F029FF014602982D4A1160407830380390082838D872
:203C60000398810001A040588746C046913C00009B3C0000A53C0000AF3C0000B93C0000B7
:203C8000C33C0000CD3C0000CF3C0000D13C00001D480068224908601BE01B4800681F4936
:203CA000086016E0184800681B49886011E016480068184908600CE013480068144908609E
:203CC00007E0114800681149886002E001E000E0FFE7FFE7FFE709490020087008490870F2
:203CE00011490870084908600648322105F0C2FAFFE70AB080BDC046B8052020D8052020EA
:203D0000D9052020C4022020B40520202C03202098052020A0052020180320209405202021
:203D20009C052020A0032020DA052020B0B588B006AB188003AC6C20A0705248208002A88B
:203D40002C2181705049018001AA762191704F4911806A46662191704D4911801A8803217A
:203D60000A40A55C05AA1570069DED06AD0F655D5570069D2D06AD0F645D94701B880B40A6
:203D8000C45C04AB1C70069CE406A40F045D5C70069C2406A40F005D98703E4802F0BAF94D
:203DA000002804D0FFE70020C043079066E03A48032104AA02F0AEF9002804D0FFE7002032
:203DC000C04307905AE0019805A9088001A8807888706846807804A988700098088006A88E
:203DE0000088400700280AD5FFE705980121084305AA10700498084304A90870FFE706A82E
:203E00000088800600280AD5FFE705A9487801221043487004A9487810434870FFE706A8FF
:203E20000088C00500280AD5FFE705A9887801221043887004A9887810438870FFE711201D
:203E40008001032105AA02F065F9002804D0FFE70020C043079011E01048032104AA02F015
:203E600059F9002804D0FFE70020C043079005E006980B49088100200790FFE7079808B000
:203E8000B0BDC0464CCD00000CC900003656000026460000260400002A040000310400003C
:203EA000FC042020F0B585B00D4604465448014081420CD12046294622462B4601F082FBB2
:203EC00022462B46FFF723FC04460D4693E04D4B002D75DD012004900105280D06D10020E6
:203EE000002D05D11538E50A6405F9E72E460DE000220D4202D16D00521CFAE7801A401CE3
:203F00002026B71A2646FE402E4394403E4A8218481E304008430092D10703D0E10F4000EB
:203F200040186400E10F4000461800250498410501956400002911D04A19B71A304600DBA7
:203F40003846B24200DC5518B24202DC019A521801924000E20F86184908EAE75F1C0022AE
:203F60001346002F23D0D019AE4216DD039300230028049A00D41A46C11902910029049914
:203F800000DA1946761B844200D2761E039B0A40AD18241ADB19029A03E002D18442E5D27D
:203FA0003546E00F71000E1864007F08D9E7344313D0581C019A12D001201840C31810E0C6
:203FC00028461840204316D0002D83D505F0BCF9212101600E4D00240DE0019A01E0521CAA
:203FE000002350105908D20754180099490809050818064945182046294605B0F0BDC04697
:204000000000F07FFFFFFF7F01FCFFFF0000E03F0000F87F80B58AB0494804F0EFFC00281D
:2040200003D1FFE702F0ECFEFFE700F0FFFA09900998002801D0FFE77FE000200290099058
:204040007820019000F05AFA0246019809998918099101F04FFF01460998401809903220CB
:20406000039001F0C5F9014609984018099007A804F0C0F8014609984018099006A802F051
:2040800085FF014609984018099008A802F042FD024602980999891809912A490491888112
:2040A00048810881C880888048800880032008700420888004F03CFD014609984018099041
:2040C000214803F051FEFFF731FE01460998401809901E4805F014F80146099840180990F7
:2040E0001B4805F003F802460498099989180991FF217431C180C088FDF7B0FF02460398D8
:2041000009998918099102F097F901460998401809900120059001F04BFF049903460598F3
:20412000099AD218099248700998002801D0FFE703E0084901200870FFE70AB080BDC0466F
:2041400000200F400C0520201A0520203F92000003930000DC052020F0B587B01D4616461D
:204160003024059004700027104619463A463B4602F082FE0028019402D00120C007454097
:204180000D9804900C9803903F4C304629463D4A234602F08FFE002809D0002230462946C8
:2041A0003B4B00F021FE06460D467F1CEDE70598441C0022304629460692134602F052FE25
:2041C000002811D1002230462946304B02F054FE002809D00022304629462D4B01F0F2F9B3
:2041E00006460D467F1EE4E70398C01903903046294603F06BFB214603F096F802942418B9
:20420000C019049908600398471C012F1ADB3046294603F05BFB04F03BF902460B46304638
:204220002946FFF76FFA0022194B01F0CBF906460D4603F04BFB3030611C20707F1E0C4641
:20424000E5D100E02146481E0278352A0DD3891E019C0A78521CD3B20A703A2B02D30C7059
:20426000491EF6E7059A914204D006990170029807B0F0BD0699017004990868401C0860C5
:204280000598F5E70000C0FFFFFFDF410000F03F0000244080B590B00F900E910F983E4A53
:2042A0001168401A0D900E983C490B68C01A0C900F9810600E9808600D9839490A78930019
:2042C000384AD0500C980A789300374AD0500878401C03221040087000200B900A9009902B
:2042E000FFE70998032813DCFFE7099881002D4841580B9840180B90099881002A48415844
:204300000A9840180A90FFE70998401C0990E8E70B9803F039FE8121C905009102F004FBFF
:2043200008900A9803F030FE009902F0FDFA079008981E49019102F0A5F903F0D5FC1C4AB6
:2043400002921C4B039301F03DF9002205921A4B049301F037F9059A184B069300F044FD03
:2043600002F09EFB0199164A1060079802F08AF903F0BAFC029A039B01F024F9049B059A05
:2043800001F020F9059A069B00F02EFD02F088FB0C49086010B080BD680520206C0520202B
:2043A000D6052020DC042020EC0420200000C8426B195F6A3AF1CA3F000059400060984036
:2043C000180320202C03202010B58CB00AAC207009A8017008A802700793002106910078BE
:2043E000002803D1FFE700200B907FE005A804F07BF809A801783F48019004F0BEFD019823
:204400003D4A20211160012104F03CFCFFE7394804F008FE8006002801D4FFE7F7E70AA8BB
:20442000017808A803783348012203F081F8FFE7304804F0FFFA002814D1FFE72D4804F027
:2044400005FE03A90870069808A90978884208D2FFE703980799069A88540698401C069094
:20446000FFE7FFE704A804F03FF8049805990A31884206D3FFE702F0C3FC0020C0430B902C
:2044800034E0FFE71B48012104F05CFC0028CFD0FFE7184804F0CEFA002814D1FFE7154838
:2044A00004F0D4FD02A90870069808A90978884208D2FFE702980799069A88540698401C0A
:2044C0000690FFE7FFE70C4900200860094803F0C5FC069808A90978884203D1FFE7002024
:2044E0000B9003E00020C0430B90FFE70B980CB010BDC04600200F4014320F4080B584B0FB
:20450000014602A8017000784006400F002804D0FFE701A9012008700DE002A800780028D0
:2045200004D0FFE701A90020087003E001A940200870FFE7FFE73C49486800780968497D6A
:20454000012201AB01F074FC002806D0FFE7364900208872C043039063E001A90878BF22CA
:204560001040314A10730020087002A800784006002806D4FFE701980421084301A90870DA
:20458000FFE702A800788006002806D4FFE701980221084301A90870FFE702A80078C006AE
:2045A000002806D4FFE701980121084301A90870FFE702A800780007002806D4FFE701985B
:2045C0003821084301A90870FFE71749486800780968897D012201AB01F02AFC002806D04C
:2045E000FFE7114900208872C043039019E002A80078002809D0FFE702A80078082804D0A3
:20460000FFE7002001F07EFEFFE7029806498872002000900875322004F0ECFD00980390D7
:20462000FFE7039804B080BD9404202010B586B003AB802018704549486800780968497D72
:20464000012201F0F5FB002804D0FFE70020C043059077E0642004F0CDFD03AB00201870CD
:204660003A49486800780968497D012201F0E0FB002804D0FFE70020C043059062E0334911
:20468000019100200290C8740A460832FF238B720B724B72CB722E4CCC810B748B74012311
:2046A0000B739376D076487508750884C883888348830883C88210775077C8847D20000139
:2046C00001F054FB002804D0FFE70020C043059038E0022000F0E8FF002804D0FFE70020ED
:2046E000C04305902EE02A2001F0D8FA002804D0FFE70020C043059024E0322000F078FEB1
:20470000002804D0FFE70020C04305901AE0002001F0F0FB002804D0FFE70020C04305906F
:2047200010E00020FEF752FE002804D0FFE70020C043059006E000200090FFF7DFFE009889
:204740000590FFE7059806B010BDC04694042020FFFF000010B58EB00CAC20800B910AA839
:20476000028009A8038043482521405C002804D0FFE70020C0430D9078E00B98002804D17C
:20478000FFE70020C0430D9070E008A900200880FFE708A800880CA90988884248DAFFE794
:2047A0000CA8008808A90988401A112803DBFFE71020019006E00CA8008808A90988401AA5
:2047C0000190FFE7019807A9088008A8008809880B9A121801F09EFC002804D0FFE700206C
:2047E000C0430D9042E008A8008807A9098803AA01F03AFC002804D0FFE70020C0430D9008
:2048000034E00B9808A90988401807A90A8803A904F044F8002804D0FFE70120C0430D9086
:2048200024E0FFE707990898401808A90880B0E70AA8407802AB18700A9858700D49486817
:2048400000780968497F022201F0F2FA002804D0FFE70020C0430D9008E006492522012065
:2048600088540998C88400200D90FFE70D980EB010BDC04694042020F0B5A1B004930546E6
:204880009068002801D5062090600290039200243D4F2846224606913B4602F001FB0699BA
:2048A0000028264614D10026384F284632463B4602F0ECFA069900280AD1002228460592CA
:2048C000134602F0CFFA069B00282E461F4622D12F4D04F0FAFC02F0CFFA002809D00022EB
:2048E000304639462B4B00F06DFE06460F46641EEFE7284D04F0E9FC02F0D2FA002807D0EE
:2049000004F0E3FC00F070FA06460F46641CF1E735463B46059407A802990091019008A8C0
:204920002A46FFF719FC0446079D022D0DD1059D6D1C204604F075FC2018401E00210170E3
:2049400028460125049E039F02E0049E039F0598397B324602F0C2FDBA682046294633466F
:2049600003F0C6FC204604F05CFC854203D138680007C20F00E0012220462946334602F07A
:20498000D9F921B0F0BDC0460000F07F0000F0FF0000F03F00002440F0B583B03D4A8218D7
:2049A000029211231C028D7A6B1EDBB2022B08D89E00394FBE594927FF017B43DA190192F6
:2049C00002E000220192022602190092CF68AD0045193120C0012C588F239C431F40374329
:2049E00027432F504868029C6060087805283AD801263746874009231F420ED112231F4294
:204A000018D04F7A254AAE18AA58254D1540032F1ED0012F20D1244A1BE04B7A1F4C2F5985
:204A20001F4A3A4077271F40D2197304D2182A51029C18E04A7A194BEE18EB58184D1D4006
:204A4000012A03D1184AAA18521C0BE0154A00E0164A1543356006E0772217403D43124A9C
:204A6000AA18FF3232600022009B1A60C01E0328019B01D220200343087A21680C4A0A40D1
:204A8000BD2101401943114302200843206003B0F0BDC04604180000ECAA000030180000FA
:204AA0008888FDFF0102020001010200030302004000FFCF10B58CB00BAC20700AA8017060
:204AC00009A8027008A8037007AA002111700278520806AB1A7005AA11800078082804D171
:204AE000FFE704A90620088012E008A801780191C80802904907401C0029039001D1029892
:204B00000390019803994008484304A90880FFE70998203807A908700BA800780AA909785F
:204B200003F0D8F905A900200880FFE705A8008804A90988884242DAFFE705A8008806A952
:204B4000097803F0B1F800290ED1FFE708A80078082809D0FFE70BA800780AAB19784A1C5C
:204B60001A7003F0B7F9FFE708A8007808280DD1FFE707A80078062141431348401805A9D3
:204B80000988405C012101F00BFC12E008A8007810280CD1FFE707A80078010109484018E7
:204BA00005A90988405C012101F0FAFB00E006E0FFE7FFE70598401C05A90880B6E70CB0F8
:204BC00010BDC046A69F000096A5000080B584B0414803F021FF002803D1FFE702F006FAA9
:204BE000FFE7C820009003F09BFBAE200021039101F0D6FB0399084601F0D2FB0399102015
:204C000001F0CEFB03994020019001F0C9FB0399812001F0C5FB0399CF2001F0C1FB0399D6
:204C2000A12001F0BDFB0098039901F0B9FB0399A620029001F0B4FB0399A82001F0B0FB9D
:204C400003993F2001F0ACFB0399D32001F0A8FB0399084601F0A4FB0399D52001F0A0FB07
:204C60000399802001F09CFB0399D92001F098FB0399F12001F094FB0399DA2001F090FB18
:204C80000399122001F08CFB0399DB2001F088FB0198039901F084FB0399202001F080FBD6
:204CA0000399022001F07CFB03998D2001F078FB0399142001F074FB0399A42001F070FB35
:204CC0000298039901F06CFB01F096FF0399AF2001F066FB04B080BD00000F4080B58EB050
:204CE0000D900C910D9801281DDBFFE701200A9041053B480B9003F095FF0A990B98890356
:204D000004F067F90D98012803DBFFE70D98099003E00D9840420990FFE7099931480022A9
:204D200004F050FA1CE00120079081032C48089003F078FF07990898490504F04AF90D981D
:204D4000012803DBFFE70D98069003E00D9840420690FFE706992348002204F033FAFFE772
:204D60000C9801281DDBFFE70120049041031C48059003F057FF04990598090304F029F9F1
:204D80000C98012803DBFFE70C98039003E00C9840420390FFE703991248012204F012FAB0
:204DA0001CE00120019001030D48029003F03AFF01990298490304F00CF90C98012803DB0A
:204DC000FFE70C98009003E00C9840420090FFE700990448012204F0F5F9FFE70EB080BD6F
:204DE00000000A4000808640FCB40C005C40E40FE40710B41D032D0B56006D415F007F0DE2
:204E000073D001246405254307242402FF34A74261D00B031B0B42005B414800400D64D0E0
:204E200001246405234307242402FF34A04252D0C01B002100273624AB4200D1B24204D3F0
:204E40007F414941921BAB4101E07F414941641E06D0002B01D1002A02D052005B41EBE733
:204E6000202C07D2162C0AD33900A7402026361BF1400BE0203C3900A140002706E0A140B7
:204E80002026361B3D00F5402943A74001246405214202D17F004941401E00247F1C61412A
:204EA0000124A405214202D0401CA14301E06408A14303242402FF34001916DD2419A042D3
:204EC00009D8CC074908000501437808204310BC2143FCBC704702BC0020C90F0902FF2121
:204EE000C900C91D0905FCBC70470021002001B0FCBC704780B586B004AB1880039102924B
:204F00003D482421405C002804D1FFE70020C04305906EE03848807A002804D1FFE70020C5
:204F2000C043059065E03449486800780968097B022201ABFFF748FA002804D0FFE70020F0
:204F4000C043059055E00198000201A94978411868460180008804A90988884206DAFFE7A0
:204F6000029900200870C043059042E068460088214949684988490888421DDDFFE71E49C0
:204F8000486800780968C97C012201ABFFF71CFA002804D0FFE70020C043059029E001A80C
:204FA0000078C006002806D5FFE7FDF701FE0120C04305901DE0FFE70F494868007809684A
:204FC000497B04AA1278039BFFF7FEF9002804D0FFE70020C04305900BE06846008804A9E2
:204FE000098802F061FE401E0299087000200590FFE7059806B080BD94042020F0B5394A33
:205000008218394BC0183A4D4C790B79002C22D0466F202B02D00524E70100E0354F2E40F7
:20502000002B00D188273E434667846F2C403C438467446B2D4E34404463846B344084633F
:2050400000244465846554688F26F643344054609468344094600C688979202B09D006467E
:205060007036002B15D1641E4460C46E2C40882715E0641E4460C46E2C401E4E3443C46640
:20508000046F2C40344304671B4D01246707064607E00527FF0164084460C46E2C403C43C8
:2050A000C46634682C403C433460C46A0F4D2C40C462046B2C4004630024C4640465C46F65
:2050C0008F25ED432C40C46714682C401460194302680A4B1340BD220A40D118891C016073
:2050E000F0BDC04684180000041800008888FDFF24493E0001040000FFFFFFCF4000FFCFAF
:2051000080B586B0014604A80180008800281DD1FFE70020029001F0F5F8029803AB1870CC
:20512000072058703549486800780968497D022200F07EFE002804D0FFE70020C043059079
:2051400058E02E4900200875059053E0012001F0D9F803A92020087004A80088012807D1BF
:20516000FFE703A900204870052000F097FD20E004A80088052807DCFFE703A9012048706D
:20518000052000F08BFD13E004A80088142807DCFFE703A9022048700A2000F07FFD06E044
:2051A00003A903204870142000F078FDFFE7FFE7FFE703AB58788001C01D58700F49486871
:2051C00000780968497D022200F032FE002804D0FFE70020C04305900CE0084A08209072DA
:2051E0000020019010730121117500F083FE01980590FFE7059806B080BDC04694042020E0
:20520000F0B597B03248109000683249119101F039FA02F04FFF119916902F4812900068CE
:2052200001F030FA02F046FF1199024610981592806801F027FA02F03DFF11990246129817
:205240001492806801F01EFA02F034FF139023480078012830D1FFE72248006802F044FDF7
:205260000B900C912048006802F03EFD0E900D911E48006802F038FD04460D461C4800685F
:2052800002F032FD0B9A0C9B06460F460D9900200F900A9009900890079006900E98059761
:2052A00004960395029401910090124801F0B6FF0F980A49087008E01699159A149B1398F2
:2052C0000090074801F0AAFFFFE717B0F0BDC0461803202000007A442C032020A00320208A
:2052E000DCAA00009C05202094052020A00520209805202020AA0000B0B58CB00291044664
:20530000029810990BAD2C700AAC2070099208A8037007A8017004AA0021117003AA117054
:205320000078082804D1FFE704A902200870FFE706A900200870FFE706A8007808A9097858
:20534000884252DAFFE70998009008990698C0434018C1B20A20019003F02AF80146009884
:2053600002F0A2FC019902F09FFC05A8017003A80078002822D1FFE706A8007808A90978DC
:20538000491E88421ADAFFE705A80078002810D1FFE70B9807A90B785908049A8A180699D8
:2053A000514340180AA90978C0B22022FFF782FB16E003A901200870FFE7FFE70B9807A94C
:2053C0000B785908049A8A180699514340180AA90978059A3032C0B2D2B2FFF76BFBFFE7B1
:2053E0000698401C06A90870A6E70CB0B0BD704780B584B002A908803648807A002804D10E
:20540000FFE70020C043039061E032482421405C002804D0FFE70020C043039057E02D4810
:20542000007D002815D0FFE702A8008800280CD0FFE702A80088282807DCFFE702A8008863
:20544000FFF75EFE0020039041E00020FFF758FEFFE702A80088032804DCFFE702A90420E2
:2054600008800BE002A800881B49884205DBFFE77D20C00002A90880FFE7FFE702A8018804
:205480007D20C00002F010FC401E01AB187011494868007809684978012200F0C9FC00286B
:2054A00004D0FFE70020C043039010E001A80078411C7D20C00002F0F7FB01460548C181F7
:2054C000C089400800F0EAFB00200390FFE7039804B080BD94042020E9030000B0B5364A98
:2054E00080184A6842600A78222A56D8930001A4E3589F46915500009B55000091550000B0
:205500009B5500009B5500009B5500009B5500009B5500009B5500009B5500009B5500000B
:205520009B5500009B5500009B5500009B5500009B550000815500009B550000815500001F
:205540009B5500009B5500009B5500009B5500009B5500009B5500009B5500009B550000CB
:205560009B5500009B5500009B5500009B5500009B550000815500009B55000081550000DF
:20558000036803242407A343012464071B1903E0036803242407A34303600B69C360CB68F1
:2055A000C46A064D2540064C1C402B19C362097A11430160B0BDC046041800008888FDFF1B
:2055C00077770200FCB50C005C40E40FE40710B4DD02540D2543D6025F007F0D60D0012420
:2055E000E407254307242402FF34A74250D0CB02440D2343C2024800400D51D00124E407BD
:20560000234307242402FF34A04241D0C01901B41800290002F030FD0F0001B418003100B2
:2056200002F02AFD03000C001000310002F024FD06001000290002F01FFD050076180022EC
:2056400002BC01BC55415141A419554151418024A4005B195141FF18514100D564003F193A
:20566000514102D47F00494100E0401C03242402FF34001B14DD2419A04209D80305F80AE7
:205680004C0520434900090B194310BC2143FCBD0020FF21C900C91D090510BC2143FCBDCE
:2056A0000021002001B0FCBD80B584B002A908703548807A002804D1FFE70020C0430390A3
:2056C0005FE002A80078801E00900E2832D80098810001A0405887461557000035570000E4
:2056E0001D5700003557000035570000355700002557000035570000355700003557000072
:20570000355700003557000035570000355700002D57000001A9002008700FE001A90820D2
:2057200008700BE001A91020087007E001A91820087003E00020C043039022E01248407AC4
:2057400001A90978C908884203D1FFE70020039017E00D49486800780968C979012201AB1F
:2057600000F066FB002804D0FFE70020C043039007E001A80078C0080349487200200390B7
:20578000FFE7039804B080BD9404202080B586B00021019105912E4802F0F8FF01990246CA
:2057A000C820821A04A802700391007829490978884207D0FFE729490120087003F054FD72
:2057C00005903FE00598009003F04EFD01460098401A00022049884233D3FFE71F48007871
:2057E00001282ED1FFE71D49002008701C48007802A90870FFE702A8007804A9097888429E
:205800000CDAFFE702A801781648405CFEF7CEF9FFE70298401C02A90870ECE7049810491C
:20582000087004A8007864280ADBFFE704A9002008700B4908700749087002F06DF8FFE75F
:20584000FFE7FFE704980349087006B080BDC04600A04240C605202000803801C505202033
:20586000C405202000002020F0B584B03049314A0125AC0316682B0203939E4316600E682F
:20588000264205D10E68264202D10E682642F6D06C02467E9769AF432E40BD1995612025D2
:2058A000455DD6690327BE433D407519D561224D2E680727374005262E60466A3368136278
:2058C000736853622F60C3695B065B0CD5697F263602B543EB18D361E8C80097076801971D
:2058E000476802971B071B0B2D03ADB2ED1833071B0D007A009E35431D43019B1D43029B99
:205900001D43054390690D4B03400D482840C01890611068039B184310600868204205D13C
:205920000868204202D108682042F6D004B0F0BD04020B4008010B40001340408D00F0FF15
:2059400072FF0F00F8B515462A4E0A0D771C3A40294B9A4213D00C46002A18D10122D2078F
:205960009443044344D00022244BFFF72BFE0C4623498D4208DC234A234B214636E0024634
:205980000B46FDF7C4FEF8BD220D3A40363A5119B1420ADD03F0D8FC222101600120C0079B
:2059A00004401D4821180020F8BD012904DB174A144009052143F8BD3522D24391420CDC24
:2059C00003F0C2FC2221016012488542E6DA0120C007044000202146F8BD0C4A1440090571
:2059E0001B225205891821430022094BFFF7EAFDF8BDC046FE070000FF0700000000504362
:205A0000AF3CFFFF59F3F8C21F6EA501FFFF0F800000903C51C300000000F07FFCB40127B0
:205A2000FF07794002E0FCB40127FF070C024D002D0E03D1002C52D1FCBC70473C43FF2D14
:205A400050D0A408002900D56442020243001B0E04D1002A43D10800FCBC70473A43FF2B35
:205A600041D09208002800D552425E1B04D5170022003C0076422B00192E06D5270037417F
:205A8000D2191C27F71B7F42BC40002A27D002D55242012700E00027013B5200FCD51500DA
:205AA000802635400FD01500202635402C43803208D21500402635402C4304D1012636028E
:205AC000B24300E05B1C5200023308DDFF2B0BD2500ADB051843FF073843FCBC7047002062
:205AE000FCBC70470800C70FFF07FF20C0053843FCBC704780B58CB02848019003F086F8A2
:205B00002748029003F082F82648039003F07AF92548049003F076F92448059003F072F9EE
:205B20002348069003F06EF92248079003F06AF92148089003F036F92048099003F032F971
:205B40001F480A9003F0BEF91E480B9003F0BAF9019803F01FF8029803F01CF8039803F021
:205B600045F9049803F042F9059803F03FF9069803F03CF9079803F039F9089803F0D6F86A
:205B8000099803F0D3F80A9803F084F90B9803F081F9102003F074FB0CB080BD00000A40AF
:205BA00000200A40008086400000864000A08640004008400000094000000F4000200F407A
:205BC000008010400020104080B584B002A9087031482421405C002821D0FFE702A800787E
:205BE000002804D0FFE701A90220087003E001A900200870FFE72849486800780968497CA5
:205C0000012201AB00F014F9002804D0FFE70020C04303903DE001981F49487436E01E48CA
:205C2000807A002804D1FFE70020C043039030E002A80078002808D0FFE71748407C002876
:205C400003D0FFE70020039023E002A80078002804D0FFE701A90120087003E001A90020E1
:205C60000870FFE70C49486800780968497C012201AB00F0DDF8002804D0FFE70020C0437A
:205C8000039006E0019804494874FFE700200390FFE7039804B080BD9404202080B584B09D
:205CA00002A908803048807A002804D1FFE70020C043039054E002A80088BC2804DBFFE797
:205CC00001A9012008702BE002A80088622804DBFFE701A90220087021E002A800882A282C
:205CE00004DBFFE701A90320087017E002A80088142804DBFFE701A9042008700DE002A893
:205D000000880A2804DBFFE701A90520087003E001A906200870FFE7FFE7FFE7FFE7FFE714
:205D20001148C07A01A90978884203D1FFE70020039015E00C494868007809688978012267
:205D400001AB00F075F8002804D0FFE70020C043039005E001980449C87200200390FFE704
:205D6000039804B080BDC0469404202080B584B002A908802D48807A002804D1FFE70020AB
:205D8000C04303904EE002A800880090FA2812D0FFE700987D218900884210D0FFE70098AC
:205DA0007D21C90088420ED0FFE700987D21090188420CD00FE001A9002008700FE001A93E
:205DC000082008700BE001A91020087007E001A91820087003E00020C043039022E01348AF
:205DE000007A01A90978C908884203D1FFE70020039017E00D4948680078096889790122EB
:205E000001AB00F015F8002804D0FFE70020C043039007E001A80078C0080449087200208A
:205E20000390FFE7039804B080BDC0469404202010B58CB00AAC207009A8017008A80270F4
:205E4000079301780691079905910078002803D1FFE700200B9048E004A802F045FB09A896
:205E600001782348019003F088F80198022102F009FFFFE71E4803F0D5F88006002801D4F5
:205E8000FFE7F7E70AA8017808A80078431C1848002201F04DFBFFE7059906A802881448B9
:205EA00001F0D4F8029002990698401A0690029905984018059003A802F016FB039804995F
:205EC0000A31884206D3FFE700F09AFF0020C0430B900AE0FFE70648022102F033FF00282A
:205EE000DAD0FFE700200B90FFE70B980CB010BD00200F4080B584B002A90870002000909A
:205F00000878FE221040087028482421405C002803D0FFE70020039045E02448807A002881
:205F200004D1FFE70020C04303903CE01F48017C01AA11700299827A11400174007C02A940
:205F40000978884204D0FFE70020C043009002E000200090FFE702A80078002805D1FFE70B
:205F60001248007D002804D0FFE70120FFF72CFE03E00020FFF728FEFFE702A800780028D8
:205F80000DD0FFE7FCF714FE002807D0FFE70198064908740020C043039004E0FFE7FFE78A
:205FA00000980390FFE7039804B080BD9404202080B588B006A908702A482422805C0978C3
:205FC000884203D1FFE70020079047E006A8007800282AD0FFE723482521405C002804D1E7
:205FE000FFE70020C043079038E000200290FFF7EBFD0298FDF7EAF91A480390C08CFFF7B1
:20600000F7F90299039805AB197040680078232101220492FFF70CFF0399049824228854A9
:20602000FFF7D2FDFCF7C4FD15E000200190FFF7CBFD0C480090017C05AB197040680078C9
:2060400023210122FFF7F4FE0099019824228854FCF7AEFDFFE700200790FFE7079808B025
:2060600080BDC0469404202080B586B004AB188003A8018002920298002804D1FFE70020F6
:20608000C043059040E02248807A002804D1FFE70020C043059037E004A8417801A80170B3
:2060A00004994170407803A909884018184949684989884204DDFFE70020C043059023E015
:2060C0001349486800780968C97E022201ABFFF7AFFE002804D0FFE70020C043059013E084
:2060E0000B49486800780968097E03AA1278029BFEF76AF9002804D0FFE70020C043059066
:2061000002E000200590FFE7059806B080BDC0469404202080B586B004AB188003A80180B6
:2061200002920298002804D1FFE70020C043059040E02248807A002804D1FFE70020C0430C
:20614000059037E004A8417801A8017004994170407803A9098840181849496849898842CB
:2061600004DDFFE70020C043059023E01349486800780968C97E022201ABFFF759FE00281C
:2061800004D0FFE70020C043059013E00B49486800780968097E03AA1278029BFFF748FE16
:2061A000002804D0FFE70020C043059002E000200590FFE7059806B080BDC046940420205A
:2061C000F0B58B4200D1824204D90B0002000021002040E0002B00D1002A0CD10B0002005D
:2061E00000210020002B00D1002A01D0C943C043FFF7FDF82FE01C0015000B0002000CB460
:20620000002126002F00FF19764102D2491C4029F9D100201E001700FF19764102D2401C79
:206220004028F9D10E1A21002800320002F066FB0C0005000CBC00200021A34200D1AA427A
:2062400001D3521BA341404149416D08E7073D436408761EF1D5059F002F01D03A607B604C
:20626000F0BD704710B584B00120009001072248019002F04BFE009902460198531E9A410C
:206280001E4B03931A70C90702F040FE039A014601984B1E99415170042102F037FE039A0B
:2062A000014600984B1E99419170C1041448029002F02CFE0099039B02460298541EA2417E
:2062C000DA70890402F022FE039A014601984B1E99411171802102F019FE039A014602986B
:2062E0004B1E99415171402102F010FE0399421E9041887104B010BD00000A40230520203F
:2063000000200A4080B584B002A9087023482322805C0978884203D1FFE7002003903AE029
:2063200002A80078002804D0FFE701A93020087003E001A900200870FFE71848807C002858
:2063400006D0FFE701980221084301A90870FFE712482221405C002806D0FFE7019880211B
:20636000084301A90870FFE70C49486800780968C97D012201ABFFF75BFD002804D0FFE797
:206380000020C043039006E0029804492322885400200390FFE7039804B080BD940420205C
:2063A00080B588B007AA107006A801700078002806D0FFE705A9402008700798487005E002
:2063C00005A90020087007984870FFE704A802F08BF81848029005A90222019200F036FE9E
:2063E0000199029802F05AFCFFE7124802F024FE8006002801D4FFE7F7E70E483C210022B1
:20640000022301F0BDF8FFE70A48022102F0A6FC00280DD1FFE703A802F066F803980499A3
:206420000A31884203D3FFE700F0E0FD00E0EBE708B080BD00000F4080B588B0014606A876
:2064400001801D4905911D4904911D4903910088C92804DBFFE70020C043079029E006A81B
:206460000188C82001F020FC411E02A8018040786A4610700298507012480221FFF74AFE17
:20648000002804D0FFE70020C043079011E00E480C2103AAFFF73EFE002804D0FFE700200B
:2064A000C043079005E006980849888100200790FFE7079808B080BDBBAFDFDFAAF1DFDFB3
:2064C000FEF2ABC416020000C10A0000FC04202082B00190019800214056012804DBFFE739
:2064E0006946002008803AE0019800214056002804D5FFE76946042008802FE001980121CF
:206500004056012804DBFFE769460120088024E0019801214056002804D5FFE7694605208F
:20652000088019E0019802214056012804DBFFE76946022008800EE00198022140560028D9
:2065400004D5FFE769460620088003E0694607200880FFE7FFE7FFE7FFE7FFE7FFE76846CC
:20656000008802B07047000080B586B0059005981E49884203D3FFE71D480590FFE7059922
:2065800050204843059000200090049002F06CFE014600980391029001A90870FFE702F0CC
:2065A00063FE029002980399884204D9FFE701A901200870FFE701A80078002807D0FFE7F6
:2065C00003980299401A0B494018049004E003980299401A0490FFE704980599884201D325
:2065E000FFE700E0DBE706B080BDC0463433030033330300FFFFFF0080B584B01E491F4813
:20660000039002F06BFA03981D49FEF7F7FC03980023019319461A4601F03EFC019B039834
:20662000009319461A4602F0F9FB019A0398114602F046FA019A0398114602F0C3FD019B88
:20664000039801210291009119461A4602F0E6FB0199029A039802F033FA0199029A039806
:2066600002F0B0FD039802F019FD0398032102F01FFD04B080BDC0465AAB000000808640C9
:2066800018AB0000FCB40127FF0706004E4001D4002600E03E00020243001B0E30D03A43BF
:2066A000FF2B30D00C024D002D0E29D03C43FF2D29D05B194240504042404C4061404C40BC
:2066C00000B501F0D9FC20BCAE464240504042404C4061404C4025001400002C01D4640084
:2066E000013B803401D3013364087E3B08DDFF2B09D2BC43200ADB0518433043FCBC70474D
:206700000020FCBC7047FF20C0053043FCBC704780B586B005900598C078C021084003A97A
:2067200008700598C0783F21084004A9087005984078C007002819D0FFE704A80178C90836
:2067400002AA1170007807210840401C01A9087011480068002808D0FFE70F48026802A894
:20676000007801A909789047FFE7FFE705984078000700280DD5FFE707484068002807D091
:20678000FFE70548416803A8007880098847FFE7FFE7002006B080BDFC04202080B58AB014
:2067A0000990089108980999FFF738F90146174805900160164909680391006801901549E7
:2067C00006910968FFF72AF90199029012480068FFF758FF0299024603980492FFF752FF02
:2067E0000499FFF720F901460C4807900068FFF71AF90599069A03460798036009681160DF
:20680000006801F057FC0AB080BDC04674032020A0052020780520209805202080052020D4
:2068200080B58AB00990089108980999FFF7F6F80146174805900160164909680391006829
:206840000190154906910968FFF7E8F80199029012480068FFF716FF02990246039804925E
:20686000FFF710FF0499FFF7DEF801460C4807900068FFF7D8F80599069A034607980360C1
:2068800009681160006801F015FC0AB080BDC046780320209C052020740520209405202081
:2068A0007C05202070B582B0024601A80270009100214056002816D4FFE7002401A90857F0
:2068C0000322D3431840174A805809578C07E50EFF24AC40A043009CA401E4B2AC402043EE
:2068E000194088501AE001A908780F24204008380322D34318400A4A8058002549578D0758
:20690000EE0EFF25B540A843009DAD01EDB2B54028432140083919408850FFE702B070BD95
:206920001CED00E000E400E0FCB40127FF0706004E40F60FF607020243001B0E2DD03A434C
