:20000000008020206587000059870000598700000000000000000000000000000000000074
:2000200000000000000000000000000059870000000000000000000059870000B9850000C2
:2000400059870000E52C00007D7C0000598700005987000059870000598700005987000056
:200060000000000059870000598700000000000000000000598700008D6E00005987000005
:20008000892700005987000059870000598700005987000059870000000000000000000050
:2000A0005987000059870000000000000000000059870000000000005987000059870000E0
:2000C000F0B5FFB08EB0049306920646929802900025E84305908C913468204608F08BFAD6
:2000E00021188B9503918C4200D3BBE00020879087A908738890059889902F46049D207879
:20010000002800D1AFE0252805D0641C34600699A8477F1CF3E78B97601C306087AC204657
:20012000314600F0A7F88CAA2046314600F0BFF8306801787A2925D0682919D06A2908D071
:200140006C290ED0742908D04C2922D1879980221BE087990122D20217E0879901225203EC
:2001600013E0427887996C2A64D10122120205E042788799682A60D101225202114387914B
:20018000801C05E08799012212030A438792401C0178441C346087A8017373291FD06E2992
:2001A00029D1879832490840202850D040283CD001214A03904238D04A02904242D0CA0242
:2001C000904205D00A0390422FD0090288422CD1F8178C9904C98C91176050603BE087A839
:2001E0000078400619D4009587A88CAA8BAB069900F01DF92FE007AD87A98CAA284600F0F8
:200200006DF9024628460699029B9847411C059D00D0C5198B9503991FE0009587A88CAA45
:200220008BAB069900F09FF815E08C9802C88C900F6010E0401C402201E0401C2022114373
:200240008791A5E78C9802C88C900F7003E08C9802C88C900F8003998B9D681C00D042E7B4
:20026000059F00E02F4638467FB00EB0F0BDC046603F000010B50A681378302B0FD0232B7E
:2002800007D02B2B09D02D2B05D0202B0ED1042306E0082304E0012302E0022300E01023A7
:2002A00004681C430460521C0A60E5E710BDFEB516460D460446086802782A2A10D130683B
:2002C000011D316000686060002805D54042606020680121014321602868471C2F6017E01B
:2002E0000021303A092A08D84218531C2B60435C6F467B545278491CF3E76A460023535466
:2003000012784718002A03D0684606F05BFF606038782E2826D1781C286079782A2908D103
:200320003068011D31600068A0602868401C2860FEBD00203039092908D839188A1C2A60C3
:200340004A786B461A548978401CF3E76A46002111541078002804D0684606F033FFA060F5
:20036000FEBDA160FEBDF0B587B01E460C9F13681C1D14601D68002D3BD00491069084681F
:20038000002C04D4284608F027F9844203D3284608F022F9044606984068A042039000DCD5
:2003A000204601463068019140180296306005940398A0420EDD06980078C0070AD1059890
:2003C00001990E1A0024B44204DA20200499B847641CF8E70026049C069805998E420BDA71
:2003E0002868010A19D12D1DC0B22146B847761CF2E70020B84718E00599039A8A4214DDDC
:200400000078C00711D00198451A0024AC420CDA20200499B847641CF8E70020C0430299D3
:20042000086008F077F95821016007B0F0BDF0B585B00C4606460A9D1068011D1160006820
:200440000490002844D00393B768002F04D4049808F0D1F8874203D3049808F0CCF807466F
:2004600002967268BA42114600DC3946039B18680091401818600192BA420FDD0298007850
:20048000C0070BD10098C01B039000260398864204DA20202146A847761CF7E70026BE4220
:2004A00005DA0498805D2146A847761CF7E70198B84210DD02980078C0070CD00098C61B70
:2004C0000027B74207DA20202146A8477F1CF8E700202146A84705B0F0BDC046F0B589B04F
:2004E00001920F460446FF210846FA30251878680290002607960391FE31202220460092C3
:2005000008F072F87F20800006942118089104952E713D46387B0246613A172A2AD8012336
:2005200093402C46B44D2B42254608D007A908AA2846019B00F066F900260596B3E0712520
:200540002B42254622D1022A14D1019B1868021D1A600068C2B2534253410593039AFC32A2
:20056000069B9A18089208702868022188432860002698E001464539032907D3252860D02A
:20058000412803D058280596D0D08DE0019A1068C11D0720814308460830106005C9D14343
:2005A0002F7B4900490D0BD17B3F944911400143049C2CD01920C1438F4234D36E2033E098
:2005C000002A01D4114602E00121C9075140D60F002205923A46413A062A0BD9613F062FDE
:2005E00061D8C0467F443F797F00BF440B5C5C5C3B3631007A441279520097440354545489
:20060000332E290008AB2A4601F0B4FE4BE0002311461A46059305F027FF1921C9438F42BB
:2006200025D3662224E04E20E0708F4201D3612100E04121A17008946070002005900226B5
:2006400031E0002006994870252008700120A1E008AB2A4602F088F925E008AB2A4606F0FF
:2006600055F920E008AB2A4603F0FCFB1BE04622E2708F4201D36E2200E04E22A2708F4202
:2006800001D3692100E0492161703F21C900069A51180891002803D02D202070042602E032
:2006A0002B2020700326287B012701466F39092904D801228A4052490A4201D158286BD10C
:2006C000049B029C04972946069F3D1908980C460978C90707D1191D091A62689142069F22
:2006E00001DC691A4F1C411C0398430000263846324607F081FA08900599002903D0411CD7
:200700000891067000E00146A94206D8481E691A491C202207F068FF2E702078C00605D417
:200720000698391A202207F05FFF2EE0069887422BD00698391A3026324607F055FF079818
:200740004142414104980140012905D12078400702D43846069905E03878069A511C1070C3
:20076000781C3E70227B412A0CD0582A05D0612A08D0782A01D0702A07D123781B0701D422
:20078000612A02D142784A704670069807F033FF0599401809B0F0BD002E09D0012E049BD9
:2007A000029C8FD10120079029680220084007E0079A296802200840002A09D0049B029CC5
:2007C00008994A1E08922D220A704742474179E70028049B029C08D1480700D472E70898E2
:2007E000411E0891009901706CE70898411E08912B210170002765E708C19000FFFF0F0076
:2008000043020000F8B514460F4605468068002804D4286810218843286001E00120A860E6
:20082000287B1026582808D0782806D0702804D06F2801D1082600E00A262846194600F041
:2008400055F8AA68002A09D102460A4306D12878000749D52B7B0020024612E02B7B642BCF
:2008600003D1642300290BD504E0692B08D1002906D5692301223A60002240428A4100E027
:200880000A4600941146324600F0B0F8A968884206DA401C21684A1E226030220A70F5E7DB
:2008A000287B582803D0782801D070280FD1297809070CD5702800D1782021684A1E226053
:2008C00008702068411E216030210170287B6F280AD12878000707D520684178302903D071
:2008E000411E216030210170F8BDC04610B5037B702B05D10868021D0A60006800226FE015
:200900000068384A024001204403A24222D0402A20D00402A24230D04402A24246D0C40223
:20092000A2422AD00403A24214D0202A12D100221C46643C142C06D8A0402B4C204204D10D
:20094000212420423ED1582B49D10868031D0B60008845E000221C46643C142C06D8A0407A
:20096000214C204204D1212420422BD1582B36D10868031D0B60006832E01A46643A142AF5
:2009800006D89040184A104206D12122104203D10020582B024623D10868C21D072082439B
:2009A0001046083008601068526819E000221C46643C142C0CD8A0400B4C20420AD1212415
:2009C000204205D00868021D0A600068C21707E0582B04D10868031D0B60007800E01046BE
:2009E000114610BD603F000000081200FEB501920D460646582B01D0174800E015480090B5
:200A0000089802903046284305D1029A1068411E116030210170019C3046284313D0304670
:200A20002946224600F01AF807460D46224607F0D1F8301A0099085C029B19684A1E1A60CE
:200A400008703E46E8E70298006807F0D4FD401EFEBDC046789E0000899E000080B5102A36
:200A600006D0082A09D1C0084A078018C90880BD00090A078018090980BD002904D111467F
:200A800006F060FB002180BD002307F017FD80BDF0B58BB00A460346E24906463778C819BC
:200AA0004078761CC006F9D42D2F01D02B2F01D1307801E0761E384605F0E6FA01D3014675
:200AC00001E0014620394E293FD0492959D1707805F0DAFA00D220384E284CD1B07805F0E8
:200AE000D3FA00D22038462845D1002A01D0F01C1060F07805F0C8FA00D2203849281FD15A
:200B0000307905F0C1FA00D220384E2818D1707905F0BAFA00D22038492811D1B07905F0C6
:200B2000B3FA00D2203854280AD1F07905F0ACFA00D22038002A03D0592801D10836166055
:200B40002D2F00D1C7E0BA49C6E0707805F09CFA00D2203841280ED1B07805F095FA00D2B5
:200B600020384E2807D1B0490024002A00D127E1F01C106024E1002A00D013600024214636
:200B80001EE1AC490791002530280292049317D1707805F079FA00D22038582810D1B07836
:200BA000A04909184978890707D42E2808D1F0789C4908184078800702D5B61C9E480790FE
:200BC0002C469C4B07F091FD411E884108909A4B059507F08AFD411E884103900A95069585
:200BE0002B46294632782E2A03D1002939D1012135E009911446303C0A2C01D3002100E06A
:200C000001210898084201D0284611E00398002827D0844881184978890722D528460A2C8D
:200C200006D3114661391A2900D2203A1446373CE200824B99189D584C680A99059A079BC1
:200C400003F0B6FF2A46234602F01DF905460A910999002902D00698401E06900123761C40
:200C6000C0E701202D2F099003D1C0070A9941400A91069FBC0003980028204600D1384684
:200C8000002B00D181E00899002909D01346613B1A2B01D3134601E01346203B452B09D00F
:200CA0000399002912D01346613B1A2B00D2203A502A0DD172782D2A019501D02B2A0DD1F4
:200CC000B11C0491B4780023DB430BE004963DE0049627463AE05549002471E0711C04914D
:200CE000002314462546303D092D25D800234D25AD00303C092C24D82D2A01D01E4600E021
:200D00005E423618F7177E40F61BAE42099F00D80027089939420AD10127B9028E4200D8EF
:200D200000270399394202D10A2159430B19049C611C64780491DCE70499C918491E0491EC
:200D400000232D2A019D00D15B421F18002428460A992246234605F07DFB002815D10898B5
:200D6000002817D04D20800087421ADD07F0D2FC22210160002428460A992246234605F053
:200D800073FB002816D12A4915E02C46029A049B0A9912E028460A993A4604F0C9F804469C
:200DA00009E0274887420EDC07F0B4FC22210160214600E01D49029A049B002A00D0136088
:200DC00020460BB0F0BD002F15D41E4C029A049B002F0ED0F80709D00CCC28460A99083C76
:200DE00003F0E6FE049B029A05460A917F080834EEE72C46CCE728467C42124D029A049B78
:200E0000002C0CD0E10707D00CCD0A99083D03F0E1FA049B029A0A9164080835F0E70446DC
:200E2000B6E7C046909B00000000F87F0000F0FF0000F07F0000244000003040989C000007
:200E4000CCFEFFFF189D000010B59AB000201990189005F01FFC02F0D3FB07F04DF8CA4877
:200E600007F0DAF90120149006F0E2FC149806F0DFFC0E20159006F0DBFC149806F0EEFC66
:200E8000149806F0EBFC159806F0E8FC1020169006F0CEFC0220179006F0CAFC169806F083
:200EA000DDFC179806F0DAFC05F084FF03F084F9FFE704F0CDFCB54A02200F9001210991D7
:200EC00008241294234605F057F9B148006806F0BDFB099902460094142005230A9303F019
:200EE00001FD0999AB4A3C200C90234605F044F9A948006806F0AAFB09990A9B02460094B3
:200F00004E2003F0EFFC0F99A44A0846234605F033F90F9BA2480B900278009419201390FE
:200F2000194603F0DFFC0B980F9B427800942620194603F0D7FC0B980F9B82780094332050
:200F4000194603F0CFFC0B980F9BC27800944020194603F0C7FC0B980F9B027900944D201B
:200F6000194603F0BFFC0B980F9B427900945A200D90194603F0B6FC0B980F9B82790094D1
:200F80006720194603F0AEFC0F98864A03210E91234605F0F1F80E990F9B1398824A1278FB
:200FA000009403F09FFC0C980E99804A234605F0E3F80D980E990F9B7D4A1278009403F0F3
:200FC00091FC0F98129B7B4A0421109105F0D4F87948006806F0D6F802460B4677481190FE
:200FE000774906F095FA1099119A129B139805F0C3F805F027FF01280DD1FFE76A4801781D
:20100000491C01700078062804DBFFE7664901200870FFE7FFE705F00FFE01280DD1FFE78C
:2010200063480178491C01700078042804DBFFE75F4901200870FFE7FFE705F0D7FD01284E
:2010400000D0A0E05F4807F0E7F8FFE74F4A022008900121029108240194234605F08CF832
:201060004B48006806F0F2FA02990246009414200323079303F036FC0299464A3C200590E7
:20108000234605F079F84448006806F0DFFA0299079B024600944E2003F024FC08993F4AFA
:2010A0000846234605F068F8089B3D4803900278009419200490194603F014FC0398089BEE
:2010C000427800942620194603F00CFC0398089B827800943320194603F004FC0398089B73
:2010E000C27800944020194603F0FCFB0398089B027900944D20194603F0F4FB0398089B40
:20110000427900945A200690194603F0EBFB0398089B827900946720194603F0E3FB079914
:201120000898204A234605F027F804980799089B1D4A1278009403F0D5FB059807991B4A5F
:20114000234605F019F806980799089B184A1278009403F0C7FB05F049FD01280BD0FFE7E5
:2011600019480068C117890F401881100E480078884207D1FFE7134807F05AF807F057FA0B
:20118000FFE7FEE762E794E600808640119F0000180320200D9F00002C032020FE9E0000B9
:2011A00023052020039F00007D052020F89E000081052020089F00009C032020F602202049
:2011C000919C0000004008403C052020F0B589B00F4605460120C1073E468E43B14886425C
:2011E0000BD3D1483018284300D190E007F092FA21210160CD49002550E1AB48864212D8CD
:20120000C64AC74B2846394601F03DFE0022A54B05F048F9002800D186E0C248864200D347
:2012200082E039463AE10291089700249D4920462A46334601F022FE9C4B224603F0B8FC20
:2012400005460F469A4A9B4B03F0B2FC9A4A9B4B01F019FE07F010FA994A9A4B01F013FEE6
:2012600007F00AFA984A994B01F00DFE07F004FA974A984B01F007FE07F0FEF9964A974B52
:2012800001F001FE07F0F8F906900791944A954B07F05CFA944A954B01F0F5FD07F0ECF9C0
:2012A000934A944B01F0EFFD07F0E6F9924A934B01F0E9FD07F0E0F922467A4B01F0E3FD60
:2012C000039004912846394602F0E2F805900C468B48864200D283E007F0EBF902460B4602
:2012E000059D2846214603F063FC2A4607F038FA02460B4601F0C7FD824A864B01F0C3FDF0
:2013000002460B468148844901F0B8FDC0E07D4A7D4B07F01BFA04460E467C4A7E4B07F099
:2013200015FA2246334657E0284639462A463B4603F03EFC064608970F465D4A5D4B03F0F9
:2013400037FC5D4A5D4B01F09EFD07F0ADF95C4A5C4B01F098FD07F0A7F95B4A5B4B01F03C
:2013600092FD07F0A1F95A4A5A4B01F08CFD07F09BF9594A594B01F086FD07F095F9044675
:201380000791574A574B3046394603F011FC564A564B01F078FD07F087F9554A554B01F02F
:2013A00072FD07F081F9544A544B01F06CFD07F07BF900223B4B01F066FD02460B46204650
:2013C000079903F007F802460B462846089C214603F0EEFB2A46234601F055FD05465DE0E9
:2013E00000263046214632460196234603F0E0FB02460B462846394601F040FD00900F460B
:20140000059D28462146324607F0AAF902460B460098394602F0DEFF06460F4607F049F9EA
:2014200007900691284621462A4607F099F9059004913046394632463B4601F024FD02463E
:201440000B463048304901F019FD05460F4605980499079A069B03F0ABFB2A463B4601F0AC
:201460000DFD05460F4601982146024607F078F902460B46254C264E2046314601F0FEFCCC
:201480002A463B4601F0FAFC2246334601F0FBFC05460898002801DC02984140284609B079
:2014A000F0BDC0460000F03FFFFFDF3F0000E03F09F7FD0DE13D023F88B20175E0EF493F9F
:2014C0003B8F68B52882A4BF5544880E55C1C93F7D6FEB0312D6D4BF555555555555C53F74
:2014E00082922EB1C5B8B33F59018D1B6C06E6BFC88A599CE52A00404B2D8A1C273A03C099
:201500003333EF3F075C143326A6913C182D4454FB21E93F26A691BCFB21F93F9C750088CD
:201520003CE4377E0000503E000010C00000F87FF0B587B005460F460122D0070E4686436E
:20154000924886420DD3B448864203D8002D3FD086423DD1284639462A463B4601F093FCFA
:20156000E2E08B488642039112D8914A914B2846394601F088FC00248B4B224604F092FF90
:20158000E1430291002869D0B00DF92866D2CDE08048864220D8854886423FD82846314657
:2015A0002A46334601F06FFC00277C4B3A4601F06AFC044628460D4601218B073146029752
:2015C0003A4601F060FC02460B462046294636E0002920DC924F1FE06F48864234D8002406
:2015E0006F4B284607F0A6F82A4605460F466D4B10463146224603F0DBFA6B4B224601F05A
:2016000042FC02460B462846394602F0E3FE05460F46022021E0814F824D87E002920024B2
:201620005E4B284607F086F82A4605460F465E4B104607F07FF802460B462846394602F029
:20164000C9FE05460F4609E0002054492A46334602F0C0FE05460F46032002900695284686
:2016600039462A463B4603F0A3FA0590049102460B4603F09DFA04460D464F4A4F4B03F05A
:2016800097FA4F4A4F4B01F0FEFB07F003F84E4A4E4B01F0F8FB06F0FDFF4D4A4D4B01F083
:2016A000F2FB06F0F7FF4C4A4C4B01F0ECFB06F0F1FF4B4A4B4B01F0E6FB02460B46059833
:2016C000049903F075FA04900591474A474B2046294603F06DFA464A464B01F0D4FB06F0B8
:2016E000D9FF454A454B01F0CEFB06F0D3FF444A444B01F0C8FB06F0CDFF434A434B01F0D2
:20170000C2FB06F0C7FF224A964213D8049A059B01F0B9FB02460B4606F0F4FF02460B4623
:201720002046394601F0AAFB05460F462846394607B0F0BD029AD400354A13191259029223
:201740005A680192049A059B01F09DFB02460B463048011906594D6806F0D4FF32462B467C
:2017600001F08CFB22463B4601F088FB02460B460298019901F082FB05460F4603980028F6
:20178000D4D50120C0074740D0E7C04600001044FFFFDB3FFFFFF23FFF7F03400000F0BF69
:2017A0000000F8BF0000F83F0000F03FFFFFE53F9C7500883CE4377E11DA22E33AAD903FD6
:2017C000EB0D76244B7BA93F513DD0A0660DB13F6E204CC5CD45B73FFF8300922449C23F3F
:2017E0000D5555555555D53F2F6C6A2C44B4A2BF9AFDDE522DDEADBF6D9A74AFF2B0B3BF19
:20180000711623FEC671BCBFC4EB98999999C9BF609D0000809D00000000F07FFB21F93FF7
:20182000FB21F9BF182D445480B58AB009A90591088006AA049202201070CA205070E32023
:2018400090700920D0706820042103F059FF049A0598A321117000884006002808D5FFE7EE
:2018600006A9C0204870C8208870C220C87005E006A9A32048708870C870FFE709A80088C9
:20188000C005800F002808D0FFE706A9C4200871CC204871C620887105E006A9A3200871AE
:2018A00048718871FFE706AAA320D0711072507275480A2103F024FF09A8008880070028B2
:2018C00004D0FFE706A92020087003E006A9D8200870FFE76D48012106AA03F011FF09A8C4
:2018E00000888006002804D5FFE7012004F0E4FD03E0002004F0E0FDFFE709A80088C00545
:20190000800F002820D0FFE709A80088C00500280AD5FFE706A9B22008708B204870B6201D
:2019200088709B20C87009E006A9B020087080204870B42088709020C870FFE75448042129
:2019400006AA03F0DDFEFFE709A80088C007002826D0FFE706AAF82010708B200001012109
:20196000039103F0CDFE07200290FA2100F0BAF9029804F00AFD039805F0A2FB642005F063
:20198000F9FE7D20800005F00DFF4248C82105F075FB282005F073FE0A2005F089FE08E01E
:2019A00006AAD82010708B200001012103F0A8FEFFE709A800888007002804D5FFE706A95C
:2019C000D920087003E006A9D8200870FFE73248012106AA03F094FE09A800884007002835
:2019E00004D5FFE7012005F099FA03E0002005F095FAFFE709A80088C006002804D5FFE72C
:201A0000012005F067FA03E0002005F063FAFFE709980821084321490191488100F094FBBB
:201A200001990020887309A800884006002805D5FFE71A49887B801D8873FFE709A800886D
:201A4000C005800F002805D0FFE71449887B801D8873FFE709A800881421084205D0FFE7FE
:201A60000E49887B10308873FFE709A800888007002805D0FFE70949887B001D8873FFE7F5
:201A800000200AB080BDC046A70A0000B60A0000A20A000009E3CA023D070000FC042020D0
:201AA00080B594B00E200721029106F08BF9884812900421039106F053FA02990F20109072
:201AC00006F080F91298082106F04AFA12200521099106F077F90120069001027D480E9015
:201AE00006F03EFA0299084606F098F8069800230A930193C0040C90009003211191184643
:201B00001A4605F0DBFB06980A9B0C9A1199019300921A4605F0D2FB0A9806F037F9069859
:201B200006F034F903990A9B0C9801930090252004901A4605F0C2FB03990A9B0C98019315
:201B40000090242005901A4605F0B8FB049806F01DF9059806F01AF914200221089106F0E0
:201B600031F90899152006F059F80899342006F029F90899352006F051F83B2006F02CFA65
:201B800006980A990C9B009142040B92262005F00FFD0A9A0C9B00922720114605F008FD2D
:201BA0000A990B9A0C9B0091332005F001FD0A990B9A0C9B0091172005F0FAFC0A990B9A75
:201BC0000C9B00912F2005F0F3FC222006F004FA212006F001FA232006F0FEF92D2006F0BF
:201BE000FBF90A990B9A0C9B0091362005F0E0FC0A990B9A0C9B00913A2005F0D9FC069808
:201C00000A990C9B009102040792192005F0D0FC079A0A990C9B0091182005F0C9FC089842
:201C20000A990B9A0C9B009105F0C2FC09980A990B9A0C9B009105F0BBFC0A990B9A0C9BB5
:201C40000091062005F0B4FC0A990B9A0C9B00912C2005F0ADFC0A990B9A0C9B00912B20F3
:201C600005F0A6FC0A990B9A0C9B00910D2005F09FFC0A990B9A0C9B0091162005F098FC51
:201C80000E9815490D9106F0B4FB0D990E9806F067F90E98114906F0DBF90E9810490F91F2
:201CA00006F04AF80E980F9906F07EF810991298090406F095F8119912980902139106F056
:201CC0003BF81298139906F06FF814B080BDC04600200A4000000A400070200808003C0087
:201CE0000000020680B58AB0024608A8027007AA118000784007002806D0FFE707A80088E7
:201D00008049884204DBFFE70020C0430990F5E007A8008805F0D8FE7B4904F0FBF8049099
:201D200005A8009004F0EEF900980078801E01900E286BD80198810001A040588746C046AD
:201D40007D1D00000D1E0000A11D00000D1E00000D1E00000D1E0000C51D00000D1E000072
:201D60000D1E00000D1E00000D1E00000D1E00000D1E00000D1E0000E91D000004988D2111
:201D8000C90503F075FF05F0A7FB03A908800498614903F06DFF05F09FFB02A9088039E0C3
:201DA00004982321490603F063FF05F095FB03A908800498574903F05BFF05F08DFB02A935
:201DC000088027E004988B21C90503F051FF05F083FB03A9088004984D4903F049FF05F012
:201DE0007BFB02A9088015E004984521090603F03FFF05F071FB03A908800498434903F053
:201E000037FF05F069FB02A9088003E00020C043099073E003A8407806A908700398487031
:201E200002A8407888700298C87008A80078C00700281CD0FFE775208000022106AA03F0B2
:201E40005FFC002804D0FFE70020C043099055E006A8821C49208000022103F051FC002894
:201E600004D0FFE70020C043099047E0FFE708A80078800700281CD5FFE73B20C0000221F3
:201E800006AA03F03DFC002804D0FFE70020C043099033E006A8821C2520C000022103F04E
:201EA0002FFC002804D0FFE70020C043099025E0FFE708A80078400700281CD5FFE7772069
:201EC0008000022106AA03F01BFC002804D0FFE70020C043099011E006A8821C4B208000DF
:201EE000022103F00DFC002804D0FFE70020C043099003E0FFE700200990FFE709980AB062
:201F000080BDC04641060000000048430000C044000040450000C0450000404680B5A4B00F
:201F2000FFE77E4801907E4800907E487E497F4A7F4B00F02FFB2290FFE7784800780028DC
:201F4000EFD1FFE72298002804D0FFE70020C0432390DFE075480390006805F063FA9D21E2
:201F6000C905049103F0D6FF014603982191406805F058FA049903F0CDFF014603982091C4
:201F8000806805F04FFA049903F0C4FF014603981F91C06805F046FA049903F0BBFF1E90E1
:201FA0002098032189070A9103F062FE06901E9805902199084603F02CF81F9903F058FEC6
:201FC000059902460698079203F052FE079903F020F805F0D7F8FFF7F9F8564A1C92564B5C
:201FE0001D9302F0E5FD04F053F8544908601F990B91084603F00DF80C901E9808902199DB
:20200000084603F006F820990D9103F031FE089902460C98099203F02BFE099902F0F9FF38
:2020200005F0B0F802460D9810920A460A99119203F01EFE0B9902460C980E9203F018FE96
:202040000D9902460E980F9203F012FE0F9902F0DBFF7F21C90502F0DCFF05F093F80246D1
:2020600010980B46119900F0D3FF1C9A1D9B02F09FFD04F00DF832490860209813901F9811
:202080001690219814901E99189103F0F1FD169902461398129203F0EBFD129902F0B9FF86
:2020A0000146084602F0B5FF05F06CF81A90084613991B90084603F0DBFD14991590084684
:2020C00003F0D6FD159902F0A4FF16991790084603F0CEFD0146179802F096FF18991990BE
:2020E000084603F0C5FD0146199802F08DFF05F049F802461A980B461B9900F089FF1C9A04
:202100001D9B02F055FD03F0C3FF0E49086000202390FFE7239824B080BDC046A1032020E0
:2021200016032020560320205003202040032020940320206666666666A64C408C032020C1
:20214000900320209C03202080B582B08848807A002804D1FFE70020C043019004E16B466F
:20216000002018708249486800780968497C012203F054F9002804D0FFE70020C043019095
:20218000F2E07B49486800780968497901226B4603F044F9002804D0FFE70020C0430190B4
:2021A000E2E07349486800780968097901226B4603F034F9002804D0FFE70020C0430190FC
:2021C000D2E06B482421405C002864D0FFE76B460C20187066494868007809680979012225
:2021E00003F01CF9002804D0FFE70020C0430190BAE0322006F0E8F96946C02008705C48D3
:20220000807AC007002806D0FFE700982021084369460870FFE7564948680078096809792E
:2022200001226B4603F0FAF8002804D0FFE70020C043019098E04E48407C002804D0FFE7A3
:2022400069460220087003E0694600200870FFE74749486800780968497C01226B4603F070
:20226000DDF8002804D0FFE70020C04301907BE06B46002018703E4948680078096849795D
:20228000012203F0CBF8002804D0FFE70020C043019069E065E06B460420187034494868B7
:2022A000007809680979012203F0B8F8002804D0FFE70020C043019056E02D48807C002888
:2022C00006D1FFE72A48807AC007002804D1FFE769464020087003E0694660200870FFE734
:2022E0002349486800780968097901226B4603F095F8002804D0FFE70020C043019033E05A
:20230000322006F061F91A48407C002804D0FFE769460120087003E0694600200870FFE7C3
:202320001349486800780968497C01226B4603F075F8002804D0FFE70020C043019013E026
:202340000B4B58680078196849791033012203F065F8002804D0FFE70020C043019003E07D
:20236000FFE700200190FFE7019802B080BDC04694042020F0B5A5B0049308920E460746AE
:2023800000240A947E4D22462B4604F081F8002813D100247B4D3846314622462B4604F0B0
:2023A0006DF8002809D1002238463146134604F051F800283C46354607D10AAA2046294683
:2023C00004F096F90A98401E0A900899087B0BAE412801D06D4800E06B4809908868019067
:2023E0003020039030700022079220462946134604F03AF801210028029101D0C807454049
:20240000771C20462946079A134604F023F800280DD124AA2046294604F06AF9249801216D
:202420000A1A2046294602F083FD04460D462046294604F099FC06463946059704F03AFAA7
:202440000690304605F036FA06F009F904460D460198471C20D305980699461800222046A5
:202460002946134603F0F6FF002848D1002220462946474B02F09CFB04460D4604F074FC58
:202480000999095C771C317005F014FA06F0E7F804460D463E46E1E70BA806994618002F61
:2024A00016D07F1E002220462946394B02F080FB04460D4604F058FC0999095C3246761CBB
:2024C000517005F0F7F906F0CAF804460D46E6E73178099C204606F00FF8001B08280EDB4F
:2024E0000196741E089D079F099E2178304606F003F8801B0E2805DD2770641EF5E7089D74
:20250000079F04E00999081840782070019E37700A98297B4129049C01D0702100E05021DE
:20252000069E059F224604F074FAAA68501C04D1384606F060F8421EAA60384631462346A2
:2025400005F0E8F8A8680028029A02D128680007C20F38463146234603F0E4FE287B412858
:2025600001D0782000E0582021684A1E226008702068411E21600399017025B0F0BDC046B2
:202580000000F07F0000F0FF789E0000899E00000000304010B594B0179C169C129011917E
:2025A00010920F9306A900200870169908807448807B179A07A901F093FF002804D0FFE7DC
:2025C0000020C0431390D7E06D484089142108426CD0FFE70798000607A900914A781204A1
:2025E00080188A7812028018CA788018109A1060089800064A79120480188A7912028018DB
:20260000CA798018109A5060099800064A7A120480188A7A12028018CA7A8018109A906046
:202620000A9800064A7B120480188A7B12028018C97B40181099C8600698103006A908705C
:2026400010980221405E029010980621405E039010980A21405E049010980E21405E059070
:2026600002984043039949434018049949434018059949434018019001980F210906884287
:2026800005DBFFE701983F49884208DBFFE7FFF75BFD169900200880C04313906CE016997A
:2026A00008880122120210430880FFE7344840894006002823D5FFE706A9087807AA1318F6
:2026C000105C00025B78C018119B18800878831898780002DB78C018119B588008788218A7
:2026E0001079000252798018119A90800698801D087016990888082210430880FFE72048EC
:202700004089C005800F002823D0FFE706A9087807AA1318105C00025B78C018129B188032
:202720000878831898780002DB78C018129B5880087882181079000252798018129A9080F8
:202740000698801D087016990888702210430880FFE70B4840898007002807D0FFE706A8FE
:20276000017807A8401803F0C9FAFFE70F9805F0CDF800201390FFE7139814B010BDC046F1
:20278000FC0420200100001110B586B0624805F0C6FE002800D1BCE003F05AF804F072FA4F
:2027A0005E4908605E4800685E49096801F068F804F01AFE002815D0FFE75B480078002851
:2027C00010D1FFE75948007800280BD1FFE758490868401C08605549002008705249012068
:2027E0000870FFE704F006FC00280CD0FFE74C480068554908604B480068554908604D4902
:202800000120087047E04B480078002830D0FFE7434800684C490968411A4C48016041490C
:2028200009684B4A12688A1A4A490A6000680968401A05F043FAC82818DBFFE73E4800685B
:2028400036490591096802F0DFFB05993B4A90603B480068096802F0DCFB3A498860354905
:202860000020087031490120087000E0FFE711E03148006829490491096802F0C5FB04994E
:202880002E4A90602E480068096802F0C2FB2D498860FFE7FFE725480078012810D1FFE7D3
:2028A0002D48C07801280BD1FFE71F480078012806D1FFE71C49002008701C490870FFE7FB
:2028C0001E488168006803F0A1FA244C039420601C488168006803F057FA214902910860CE
:2028E00020687D214A0101921E49009104F07AFE0099019A034602982360006804F072FE0A
:202900000299024603980A600068096801F0DCFCFFE706B010BDC04600400840640520208D
:2029200074032020780320207B0520207A0520203C05202079052020700520201803202057
:20294000740520202C032020400520202C0520204405202030052020230520207C03202034
:202960008003202060F0FFFFF0B5A3B003930F46044604929168002903D0002904D5062165
:2029800000E001210498816007910AA83021089101700025204639462A462B4603F064FDD4
:2029A00001210028059101D0C8074740624E20463946604A334603F075FD002809D00022D0
:2029C000204639465E4B01F005FD04460F466D1CEDE75A4E0022204639460992134603F0E4
:2029E00039FD002811D1002220463946334603F03BFD002809D0002220463946504B02F057
:202A0000D7F804460F466D1EE4E702950AA8451C2046394604F0A8F90695294603F04AFF88
:202A200007998842019004DD481C0AA90A18085C1FE0C9430E180AA90D18681C0790204693
:202A4000394604F091F904F035FF02460B462046394600F013FA0022394B02F0A9F8044653
:202A60000F4604F081F9079A30306870761C1546E3D3C0B23528039E049F029B099D0FD3DF
:202A80001446501E0178491CCAB201703A2A03D330210170401EF5E70AA98842224640D078
:202AA0000198C41815700220C043844202DBB868844207DD601E397B891EC9B2324603F0CB
:202AC000A8FF0124069805F096FD401E0599A0421ADB0028089A01D4069A125C1346303BC0
:202AE0005D1EAB41C9431943C90705D13978090702D40025059905E031684B1E33600A7013
:202B000001250021401EE2E73868082202402A43501E824106982146334603F003FC23B05A
:202B2000F0BD501E002101700198C018441C0AA80690B8E70000C0FFFFFFDF410000F03F24
:202B40000000244080B584B002A908706448807C0978884203D1FFE700200390BDE002A8DE
:202B60000078002853D0FFE75D494868007809680979012201AB00F01DFF002804D0FFE72E
:202B80000020C0430390A8E001AB1878DF210840187053494868007809680979012202F01F
:202BA0003DFC002804D0FFE70020C043039094E0032005F009FD01A902200870484822219B
:202BC000405C002806D0FFE701988021084301A90870FFE742482321405C002806D0FFE79A
:202BE00001983021084301A90870FFE73C49486800780968C97D012201AB02F00FFC002840
:202C000004D0FFE70020C043039066E05FE034494868007809680979012201AB00F0CAFEA0
:202C2000002804D0FFE70020C043039055E02C48807AC007002806D0FFE701982021084389
:202C400001A9087005E001A90878DF2210400870FFE723494868007809680979012201AB3E
:202C600002F0DCFB002804D0FFE70020C043039033E0032005F0A8FC19482221405C0028BC
:202C800004D0FFE701A98020087003E001A900200870FFE712482321405C002806D0FFE78F
:202CA00001983021084301A90870FFE70C49486800780968C97D012201AB02F0AFFB002810
:202CC00004D0FFE70020C043039006E0FFE702980349887400200390FFE7039804B080BDB1
:202CE0009404202080B58AB00320019041065D48029005F04DF9014601985B4A0592116093
:202D000001025A48049005F043F901460298584A116001210391490605F0F5FA0399024688
:202D20000298531E9A4109AB1A70890605F0EBFA039902460498531E9A4108AB1A704902B2
:202D400005F0E1FA039902460498531E9A4107AB1A70090205F0D7FA014605984A1E9141AC
:202D600006AA1170C0788007002812D5FFE709A8007808A90978884205D0FFE73D49086898
:202D8000401C086004E03B490868401E0860FFE718E03548C0784007002812D5FFE709A851
:202DA000007808A90978884205D1FFE731490868401C086004E02F490868401E0860FFE7BD
:202DC000FFE7FFE72A4840788007002812D5FFE707A8007806A90978884205D0FFE7264936
:202DE0000868401E086004E023490868401C0860FFE718E01E484078C007002812D0FFE766
:202E000007A8007806A90978884205D1FFE71A490868401E086004E017490868401C0860C4
:202E2000FFE7FFE7FFE70320009041060D4804F075FF009801020D4804F070FF012005F0C0
:202E400007F801280BD1FFE7064805F05FFB122803D1FFE7FFF762F800E0FFE700E0FFE71B
:202E60000AB080BD00000A408403202000200A40880320207403202078032020FCB40124CE
:202E8000E407634002E0FCB40124E40708B41D03ED08D60D354356025F007F0D06D12C0090
:202EA000344300D0AEE001B0FCBC7047A408254307242402FF34A74205D10020190D090572
:202EC00001B0FCBC7047002B03D50024A61BAC4125000B03DB08C20D134342024800400DE9
:202EE00007D11C00144300D08CE00EBC1000F0BC704701246407234307242402FF34A042B2
:202F000005D10020090D090501B0FCBC7047002903D50024A21A9C412300C11B08D51C00C1
:202F20002B0025001400320026000024611A3800362925D502B4393949420C00203C03D2B5
:202F40002F008F40374301E03700A740002F01D040210E4302BC20290BD500290ED04C42CC
:202F6000203420B4A5402C0020BC0D41CE40361904E000292E000D4120390E4192196B4109
:202F80001C0014433ED00024002B04D5012400218A1A99410B00401E52005B41FBD501217B
:202FA000890215000D400CD0521800277B4101D3401C0BE00721C90115000D4001D1890031
:202FC0008A43072109028A4352005B41801C19DD07210902FF31884209D30EBC0020C90FD9
:202FE0000902FF31C900C91D0905F0BC7047190B00050143E40721431805120B104301B07C
:20300000FCBC70470021002001B0FCBC70477047F0B585B01E46054602920390504B514F3E
:2030200004963E40501E1446844134439C4207D80F40681E2C4684413C434948844208D9F4
:203040000398029A049BFFF71EFF0C46214605B0F0BD4548049B181810431AD00C46C90FA9
:20306000D80F4000019141183D4316D032431CD03B48864217D187421DD1424C3C48C04675
:203080007944097949008F4401023B60DEE7414CDCE70398FEF74CFAD7E702290398D5D320
:2030A000032918D015E0874218D10120C00704402E48241810E000242046C04679440979B8
:2030C00049008F4401020608C0E700200121CC07BCE72A4C00E02A4C2548B7E7B81B0015A5
:2030E0003C2803DD214C2248019918E0002B09D500253B22D243904204DA28462C460EE005
:20310000234C23E003980D462146029A01F062F90122D2079143FEF70BFA0C46294600294C
:2031200094D0022905D0012912D10121C9074C408CE7104A104B2146FFF7A5FE02460B46DF
:203140000B480E49FFF79AFE7FE70F4C0F487DE7084A094B2146FFF796FE054A084B72E729
:203160000000F07FFFFFFF7F000010C0FB21F93F182D4454075C143326A6A1BCFB2109402B
:20318000FB2109C0FB21E93F7CD902C0D221337F7CD90240FB21E9BF80B58AB0014609A888
:2031A000017001784F48016000687B2804D1FFE74D4901200870FFE74A4800687D2804D1DE
:2031C000FFE7494902200870FFE74748007801280AD1FFE74348006844490B78444AD05451
:2031E0000878401C0870FFE73F480078022876D1FFE73F48C078502804D1FFE7444901209F
:2032000008705EE03A484078232859D0FFE7374800900078021F36480290C11C04A8019092
:2032200005F07CFA00990198097809180A1F0021117005F055FA02F02BFF014602982D4ACC
:203240001160407830380390082838D80398810001A040588746C0467D320000873200007A
:20326000913200009B320000A5320000AF320000B9320000BB320000BD3200001D48006872
:20328000224908601BE01B4800681F49086016E0184800681B49886011E0164800681849A3
:2032A00008600CE0134800681449086007E0114800681149886002E001E000E0FFE7FFE7D9
:2032C000FFE70949002008700849087011490870084908600648322105F0B6F9FFE70AB0E5
:2032E00080BDC0466C0520207E0520207F052020C4022020680520202C0320204C052020A0
:2033000054052020180320204805202050052020A003202080052020B0B588B006AB188009
:2033200003AC6C20A0705248208002A82C2181705049018001AA762191704F4911806A46EA
:20334000662191704D4911801A8803210A40A55C05AA1570069DED06AD0F655D5570069DFD
:203360002D06AD0F645D94701B880B40C45C04AB1C70069CE406A40F045D5C70069C240618
:20338000A40F005D98703E4802F0BAF9002804D0FFE70020C043079066E03A48032104AAB4
:2033A00002F0AEF9002804D0FFE70020C04307905AE0019805A9088001A880788870684688
:2033C000807804A988700098088006A80088400700280AD5FFE705980121084305AA10708D
:2033E0000498084304A90870FFE706A80088800600280AD5FFE705A9487801221043487096
:2034000004A9487810434870FFE706A80088C00500280AD5FFE705A988780122104388704A
:2034200004A9887810438870FFE711208001032105AA02F065F9002804D0FFE70020C043D4
:20344000079011E01048032104AA02F059F9002804D0FFE70020C043079005E006980B4903
:20346000088100200790FFE7079808B0B0BDC0464CCD00000CC90000365600002646000076
:20348000260400002A04000031040000FC042020F0B585B00D4604465448014081420CD16B
:2034A0002046294622462B4601F082FB22462B46FFF7E9FC04460D4693E04D4B002D75DD15
:2034C000012004900105280D06D10020002D05D11538E50A6405F9E72E460DE000220D42AB
:2034E00002D16D00521CFAE7801A401C2026B71A2646FE402E4394403E4A8218481E304049
:2035000008430092D10703D0E10F400040186400E10F4000461800250498410501956400A8
:20352000002911D04A19B71A304600DB3846B24200DC5518B24202DC019A52180192400097
:20354000E20F86184908EAE75F1C00221346002F23D0D019AE4216DD039300230028049A57
:2035600000D41A46C11902910029049900DA1946761B844200D2761E039B0A40AD18241A03
:20358000DB19029A03E002D18442E5D23546E00F71000E1864007F08D9E7344313D0581CEE
:2035A000019A12D001201840C31810E028461840204316D0002D83D505F0ACF8212101607A
:2035C0000E4D00240DE0019A01E0521C002350105908D20754180099490809050818064905
:2035E00045182046294605B0F0BDC0460000F07FFFFFFF7F01FCFFFF0000E03F0000F87FB5
:2036000080B58AB0494804F0F9FB002803D1FFE702F0EEFEFFE700F0FFFA099009980028D1
:2036200001D0FFE77FE00020029009907820019000F05AFA0246019809998918099101F00D
:203640004FFF01460998401809903220039001F0C5F9014609984018099007A803F0DCFF59
:20366000014609984018099006A802F055FF014609984018099008A802F044FD02460298DF
:203680000999891809912A490491888148810881C880888048800880032008700420888083
:2036A00004F038FC0146099840180990214803F0A9FDFFF731FE01460998401809901E48A3
:2036C00004F010FF01460998401809901B4804F0FFFE02460498099989180991FF21743134
:2036E000C180C088FEF7A0F80246039809998918099102F097F90146099840180990012078
:20370000059001F04BFF049903460598099AD218099248700998002801D0FFE703E00849C2
:2037200001200870FFE70AB080BDC04600200F400C0520201A05202013860000D7860000F8
:2037400082052020F0B587B01D4616463024059004700027104619463A463B4602F084FE59
:203760000028019402D00120C00745400D9804900C9803903F4C304629463D4A234602F08B
:2037800091FE002809D00022304629463B4B00F021FE06460D467F1CEDE70598441C0022D0
:2037A000304629460692134602F054FE002811D1002230462946304B02F056FE002809D01C
:2037C0000022304629462D4B01F0F2F906460D467F1EE4E70398C01903903046294603F0A8
:2037E000C3FA214603F066F802942418C019049908600398471C012F1ADB3046294603F0A9
:20380000B3FA04F057F802460B4630462946FFF735FB0022194B01F0CBF906460D4603F047
:20382000A3FA3030611C20707F1E0C46E5D100E02146481E0278352A0DD3891E019C0A78AD
:20384000521CD3B20A703A2B02D30C70491EF6E7059A914204D006990170029807B0F0BDAD
:203860000699017004990868401C08600598F5E70000C0FFFFFFDF410000F03F000024407E
:2038800080B590B00F900E910F983E4A1168401A0D900E983C490B68C01A0C900F981060AB
:2038A0000E9808600D9839490A789300384AD0500C980A789300374AD0500878401C0322C1
:2038C0001040087000200B900A900990FFE70998032813DCFFE7099881002D4841580B98D8
:2038E00040180B90099881002A4841580A9840180A90FFE70998401C0990E8E70B9803F033
:2039000091FD8121C905009102F004FB08900A9803F088FD009902F0FDFA079008981E4955
:20392000019102F0A5F903F02DFC1C4A02921C4B039301F03DF9002205921A4B049301F085
:2039400037F9059A184B069300F044FD02F0A0FB0199164A1060079802F08AF903F012FC5F
:20396000029A039B01F024F9049B059A01F020F9059A069B00F02EFD02F08AFB0C49086028
:2039800010B080BD34052020380520207C052020DC042020EC0420200000C8426B195F6ACC
:2039A0003AF1CA3F0000594000609840180320202C03202010B58CB00AAC207009A80170CF
:2039C00008A802700793002106910078002803D1FFE700200B907FE005A803F097FF09A818
:2039E00001783F48019004F0BAFC01983D4A20211160012104F038FBFFE7394804F004FD15
:203A00008006002801D4FFE7F7E70AA8017808A803783348012203F025F8FFE7304804F009
:203A200009FA002814D1FFE72D4804F001FD03A90870069808A90978884208D2FFE7039810
:203A40000799069A88540698401C0690FFE7FFE704A803F05BFF049805990A31884206D3DD
:203A6000FFE702F0C5FC0020C0430B9034E0FFE71B48012104F058FB0028CFD0FFE718481C
:203A800004F0D8F9002814D1FFE7154804F0D0FC02A90870069808A90978884208D2FFE7D4
:203AA00002980799069A88540698401C0690FFE7FFE70C4900200860094803F01DFC06981C
:203AC00008A90978884203D1FFE700200B9003E00020C0430B90FFE70B980CB010BDC046BC
:203AE00000200F4014320F4080B584B0014602A8017000784006400F002804D0FFE701A95E
:203B0000012008700DE002A80078002804D0FFE701A90020087003E001A940200870FFE78E
:203B2000FFE73C49486800780968497D012201AB01F074FC002806D0FFE73649002088720E
:203B4000C043039063E001A90878BF221040314A10730020087002A800784006002806D431
:203B6000FFE701980421084301A90870FFE702A800788006002806D4FFE7019802210843B7
:203B800001A90870FFE702A80078C006002806D4FFE701980121084301A90870FFE702A895
:203BA00000780007002806D4FFE701983821084301A90870FFE71749486800780968897D5A
:203BC000012201AB01F02AFC002806D0FFE7114900208872C043039019E002A800780028CE
:203BE00009D0FFE702A80078082804D0FFE7002001F07EFEFFE702980649887200200090F4
:203C00000875322004F0E0FC00980390FFE7039804B080BD9404202010B586B003AB802047
:203C200018704549486800780968497D012201F0F5FB002804D0FFE70020C043059077E01A
:203C4000642004F0C1FC03AB002018703A49486800780968497D012201F0E0FB002804D00C
:203C6000FFE70020C043059062E03349019100200290C8740A460832FF238B720B724B7285
:203C8000CB722E4CCC810B748B7401230B739376D076487508750884C8838883488308833F
:203CA000C88210775077C8847D20000101F054FB002804D0FFE70020C043059038E002206E
:203CC00000F0E8FF002804D0FFE70020C04305902EE02A2001F0D8FA002804D0FFE7002056
:203CE000C043059024E0322000F078FE002804D0FFE70020C04305901AE0002001F0F0FBE0
:203D0000002804D0FFE70020C043059010E00020FEF718FF002804D0FFE70020C043059053
:203D200006E000200090FFF7DFFE00980590FFE7059806B010BDC04694042020FFFF00000B
:203D400010B58EB00CAC20800B910AA8028009A8038043482521405C002804D0FFE7002095
:203D6000C0430D9078E00B98002804D1FFE70020C0430D9070E008A900200880FFE708A8C6
:203D800000880CA90988884248DAFFE70CA8008808A90988401A112803DBFFE710200190ED
:203DA00006E00CA8008808A90988401A0190FFE7019807A9088008A8008809880B9A121865
:203DC00001F09EFC002804D0FFE70020C0430D9042E008A8008807A9098803AA01F03AFC47
:203DE000002804D0FFE70020C0430D9034E00B9808A90988401807A90A8803A903F04EFFA2
:203E0000002804D0FFE70120C0430D9024E0FFE707990898401808A90880B0E70AA8407843
:203E200002AB18700A9858700D49486800780968497F022201F0F2FA002804D0FFE7002029
:203E4000C0430D9008E006492522012088540998C88400200D90FFE70D980EB010BDC04681
:203E600094042020F0B5A1B0049305469068002801D5062090600290039200243D4F284641
:203E8000224606913B4602F003FB06990028264614D10026384F284632463B4602F0EEFAAC
:203EA000069900280AD1002228460592134602F0D1FA069B00282E461F4622D12F4D04F01E
:203EC000EEFB02F0D1FA002809D00022304639462B4B00F06DFE06460F46641EEFE7284DE5
:203EE00004F0DDFB02F0D4FA002807D004F0D7FB00F070FA06460F46641CF1E735463B4622
:203F0000059407A802990091019008A82A46FFF719FC0446079D022D0DD1059D6D1C2046E5
:203F200004F069FB2018401E0021017028460125049E039F02E0049E039F0598397B32463A
:203F400002F067FDBA6820462946334603F0E2FB204604F050FB854203D138680007C20F13
:203F600000E0012220462946334602F0DBF921B0F0BDC0460000F07F0000F0FF0000F03F19
:203F800000002440F0B583B03D4A8218029211231C028D7A6B1EDBB2022B08D89E00394F8E
:203FA000BE594927FF017B43DA19019202E000220192022602190092CF68AD004519312037
:203FC000C0012C588F239C431F40374327432F504868029C6060087805283AD801263746D8
:203FE000874009231F420ED112231F4218D04F7A254AAE18AA58254D1540032F1ED0012FF9
:2040000020D1244A1BE04B7A1F4C2F591F4A3A4077271F40D2197304D2182A51029C18E051
:204020004A7A194BEE18EB58184D1D40012A03D1184AAA18521C0BE0154A00E0164A1543DA
:20404000356006E0772217403D43124AAA18FF3232600022009B1A60C01E0328019B01D2E5
:2040600020200343087A21680C4A0A40BD2101401943114302200843206003B0F0BDC046ED
:2040800004180000BC9E0000301800008888FDFF0102020001010200030302004000FFCF37
:2040A00010B58CB00BAC20700AA8017009A8027008A8037007AA002111700278520806AB77
:2040C0001A7005AA11800078082804D1FFE704A90620088012E008A801780191C808029049
:2040E0004907401C0029039001D102980390019803994008484304A90880FFE7099820383D
:2041000007A908700BA800780AA9097803F030F905A900200880FFE705A8008804A909884D
:20412000884242DAFFE705A8008806A9097803F009F800290ED1FFE708A80078082809D03B
:20414000FFE70BA800780AAB19784A1C1A7003F00FF9FFE708A8007808280DD1FFE707A86C
:204160000078062141431348401805A90988405C012101F00BFC12E008A8007810280CD145
:20418000FFE707A8007801010948401805A90988405C012101F0FAFB00E006E0FFE7FFE7F2
:2041A0000598401C05A90880B6E70CB010BDC046769300006699000080B584B0414803F0B7
:2041C0002BFE002803D1FFE702F0D6F9FFE7C820009003F0B7FAAE200021039101F0D6FBCC
:2041E0000399084601F0D2FB0399102001F0CEFB03994020019001F0C9FB0399812001F021
:20420000C5FB0399CF2001F0C1FB0399A12001F0BDFB0098039901F0B9FB0399A6200290D3
:2042200001F0B4FB0399A82001F0B0FB03993F2001F0ACFB0399D32001F0A8FB039908463E
:2042400001F0A4FB0399D52001F0A0FB0399802001F09CFB0399D92001F098FB0399F12027
:2042600001F094FB0399DA2001F090FB0399122001F08CFB0399DB2001F088FB0198039926
:2042800001F084FB0399202001F080FB0399022001F07CFB03998D2001F078FB03991420C3
:2042A00001F074FB0399A42001F070FB0298039901F06CFB01F098FF0399AF2001F066FB0F
:2042C00004B080BD00000F4080B58EB00D900C910D9801281DDBFFE701200A9041053B48C1
:2042E0000B9003F091FE0A990B98890304F063F80D98012803DBFFE70D98099003E00D9828
:2043000040420990FFE709993148002204F044F91CE00120079081032C48089003F074FE85
:2043200007990898490504F046F80D98012803DBFFE70D98069003E00D9840420690FFE76A
:2043400006992348002204F027F9FFE70C9801281DDBFFE70120049041031C48059003F0A7
:2043600053FE04990598090304F025F80C98012803DBFFE70C98039003E00C984042039031
:20438000FFE703991248012204F006F91CE00120019001030D48029003F036FE0199029837
:2043A000490304F008F80C98012803DBFFE70C98009003E00C9840420090FFE70099044894
:2043C000012204F0E9F8FFE70EB080BD00000A4000808640FCB40C005C40E40FE40710B47A
:2043E0001D032D0B56006D415F007F0D73D001246405254307242402FF34A74261D00B0391
:204400001B0B42005B414800400D64D001246405234307242402FF34A04252D0C01B002157
:2044200000273624AB4200D1B24204D37F414941921BAB4101E07F414941641E06D0002BE1
:2044400001D1002A02D052005B41EBE7202C07D2162C0AD33900A7402026361BF1400BE0B7
:20446000203C3900A140002706E0A1402026361B3D00F5402943A74001246405214202D1B8
:204480007F004941401E00247F1C61410124A405214202D0401CA14301E06408A1430324B9
:2044A0002402FF34001916DD2419A04209D8CC074908000501437808204310BC2143FCBC5F
:2044C000704702BC0020C90F0902FF21C900C91D0905FCBC70470021002001B0FCBC7047B7
:2044E00080B586B004AB1880039102923D482421405C002804D1FFE70020C04305906EE093
:204500003848807A002804D1FFE70020C043059065E03449486800780968097B022201ABD7
:20452000FFF748FA002804D0FFE70020C043059055E00198000201A94978411868460180E6
:20454000008804A90988884206DAFFE7029900200870C043059042E06846008821494968C7
:204560004988490888421DDDFFE71E49486800780968C97C012201ABFFF71CFA002804D053
:20458000FFE70020C043059029E001A80078C006002806D5FFE7FDF7D7FD0120C043059023
:2045A0001DE0FFE70F49486800780968497B04AA1278039BFFF7FEF9002804D0FFE700209E
:2045C000C04305900BE06846008804A9098802F0B9FD401E0299087000200590FFE7059893
:2045E00006B080BD94042020F0B5394A8218394BC0183A4D4C790B79002C22D0466F202BE4
:2046000002D00524E70100E0354F2E40002B00D188273E434667846F2C403C438467446B94
:204620002D4E34404463846B3440846300244465846554688F26F6433440546094683440A2
:2046400094600C688979202B09D006467036002B15D1641E4460C46E2C40882715E0641EDF
:204660004460C46E2C401E4E3443C466046F2C40344304671B4D01246707064607E00527D0
:20468000FF0164084460C46E2C403C43C46634682C403C433460C46A0F4D2C40C462046B1D
:2046A0002C4004630024C4640465C46F8F25ED432C40C46714682C401460194302680A4B4D
:2046C0001340BD220A40D118891C0160F0BDC04684180000041800008888FDFF24493E004D
:2046E00001040000FFFFFFCF4000FFCF80B586B0014604A80180008800281DD1FFE7002058
:20470000029001F0F5F8029803AB1870072058703549486800780968497D022200F07EFEFD
:20472000002804D0FFE70020C043059058E02E4900200875059053E0012001F0D9F803A93C
:204740002020087004A80088012807D1FFE703A900204870052000F097FD20E004A8008825
:20476000052807DCFFE703A901204870052000F08BFD13E004A80088142807DCFFE703A949
:20478000022048700A2000F07FFD06E003A903204870142000F078FDFFE7FFE7FFE703AB43
:2047A00058788001C01D58700F49486800780968497D022200F032FE002804D0FFE7002006
:2047C000C04305900CE0084A082090720020019010730121117500F083FE01980590FFE778
:2047E000059806B080BDC04694042020F0B597B03248109000683249119101F039FA02F0AA
:204800006BFE119916902F481290006801F030FA02F062FE1199024610981592806801F0D7
:2048200027FA02F059FE1199024612981492806801F01EFA02F050FE1390234800780128EC
:2048400030D1FFE72248006802F09CFC0B900C912048006802F096FC0E900D911E4800687F
:2048600002F090FC04460D461C48006802F08AFC0B9A0C9B06460F460D9900200F900A90ED
:2048800009900890079006900E98059704960395029401910090124801F086FF0F980A49C4
:2048A000087008E01699159A149B13980090074801F07AFFFFE717B0F0BDC04618032020DC
:2048C00000007A442C032020A0032020AC9E00005005202048052020540520204C05202032
:2048E000F09D0000B0B58CB002910446029810990BAD2C700AAC2070099208A8037007A863
:20490000017004AA0021117003AA11700078082804D1FFE704A902200870FFE706A9002049
:204920000870FFE706A8007808A90978884252DAFFE70998009008990698C0434018C1B2A7
:204940000A20019002F046FF0146009802F0FAFB019902F0F7FB05A8017003A800780028B8
:2049600022D1FFE706A8007808A90978491E88421ADAFFE705A80078002810D1FFE70B9844
:2049800007A90B785908049A8A180699514340180AA90978C0B22022FFF782FB16E003A9BB
:2049A00001200870FFE7FFE70B9807A90B785908049A8A180699514340180AA90978059ABD
:2049C0003032C0B2D2B2FFF76BFBFFE70698401C06A90870A6E70CB0B0BD704780B584B046
:2049E00002A908803648807A002804D1FFE70020C043039061E032482421405C002804D0DB
:204A0000FFE70020C043039057E02D48007D002815D0FFE702A8008800280CD0FFE702A818
:204A20000088282807DCFFE702A80088FFF75EFE0020039041E00020FFF758FEFFE702A881
:204A40000088032804DCFFE702A9042008800BE002A800881B49884205DBFFE77D20C00018
:204A600002A90880FFE7FFE702A801887D20C00002F068FB401E01AB18701149486800783E
:204A800009684978012200F0C9FC002804D0FFE70020C043039010E001A80078411C7D2069
:204AA000C00002F04FFB01460548C181C089400800F0EAFB00200390FFE7039804B080BD99
:204AC00094042020E9030000B0B5364A80184A6842600A78222A56D8930001A4E3589F46ED
:204AE0007D4B0000874B00007D4B0000874B0000874B0000874B0000874B0000874B00003A
:204B0000874B0000874B0000874B0000874B0000874B0000874B0000874B0000874B000005
:204B20006D4B0000874B00006D4B0000874B0000874B0000874B0000874B0000874B000019
:204B4000874B0000874B0000874B0000874B0000874B0000874B0000874B0000874B0000C5
:204B60006D4B0000874B00006D4B0000036803242407A343012464071B1903E00368032417
:204B80002407A34303600B69C360CB68C46A064D2540064C1C402B19C362097A11430160A2
:204BA000B0BDC046041800008888FDFF77770200FCB50C005C40E40FE40710B4DD02540D2F
:204BC0002543D6025F007F0D60D00124E407254307242402FF34A74250D0CB02440D2343F1
:204BE000C2024800400D51D00124E407234307242402FF34A04241D0C01901B4180029007F
:204C000002F04CFC0F0001B41800310002F046FC03000C001000310002F040FC0600100085
:204C2000290002F03BFC05007618002202BC01BC55415141A419554151418024A4005B1929
:204C40005141FF18514100D564003F19514102D47F00494100E0401C03242402FF34001B40
:204C600014DD2419A04209D80305F80A4C0520434900090B194310BC2143FCBD0020FF21A3
:204C8000C900C91D090510BC2143FCBD0021002001B0FCBD80B584B002A908703548807AC0
:204CA000002804D1FFE70020C04303905FE002A80078801E00900E2832D80098810001A0D2
:204CC00040588746014D0000214D0000094D0000214D0000214D0000214D0000114D0000B5
:204CE000214D0000214D0000214D0000214D0000214D0000214D0000214D0000194D00004C
:204D000001A9002008700FE001A9082008700BE001A91020087007E001A91820087003E0B7
:204D20000020C043039022E01248407A01A90978C908884203D1FFE70020039017E00D4927
:204D4000486800780968C979012201AB00F066FB002804D0FFE70020C043039007E001A830
:204D60000078C0080349487200200390FFE7039804B080BD9404202080B586B000210191D2
:204D800005912E4802F014FF01990246C820821A04A802700391007829490978884207D0DE
:204DA000FFE729490120087003F048FC05903FE00598009003F042FC01460098401A00027E
:204DC0002049884233D3FFE71F48007801282ED1FFE71D49002008701C48007802A90870CA
:204DE000FFE702A8007804A9097888420CDAFFE702A801781648405CFEF7CEF9FFE702988E
:204E0000401C02A90870ECE704981049087004A8007864280ADBFFE704A9002008700B49BF
:204E200008700749087001F0C5FFFFE7FFE7FFE704980349087006B080BDC04600A0424050
:204E400078052020008038012B0520202A05202000002020F0B584B03049314A0125AC031B
:204E600016682B0203939E4316600E68264205D10E68264202D10E682642F6D06C02467E5F
:204E80009769AF432E40BD1995612025455DD6690327BE433D407519D561224D2E68072721
:204EA000374005262E60466A33681362736853622F60C3695B065B0CD5697F263602B543DC
:204EC000EB18D361E8C8009707680197476802971B071B0B2D03ADB2ED1833071B0D007A4D
:204EE000009E35431D43019B1D43029B1D43054390690D4B03400D482840C0189061106869
:204F0000039B184310600868204205D10868204202D108682042F6D004B0F0BD04020B4091
:204F200008010B40001340408D00F0FF72FF0F00F8B515462A4E0A0D771C3A40294B9A429A
:204F400013D00C46002A18D10122D2079443044344D00022244BFFF72BFE0C4623498D429E
:204F600008DC234A234B214636E002460B46FDF78AFFF8BD220D3A40363A5119B1420ADDCD
:204F800003F0C8FB222101600120C00704401D4821180020F8BD012904DB174A144009054C
:204FA0002143F8BD3522D24391420CDC03F0B2FB2221016012488542E6DA0120C007044060
:204FC00000202146F8BD0C4A144009051B225205891821430022094BFFF7EAFDF8BDC04636
:204FE000FE070000FF07000000005043AF3CFFFF59F3F8C21F6EA501FFFF0F800000903C98
:2050000051C300000000F07FFCB40127FF07794002E0FCB40127FF070C024D002D0E03D14C
:20502000002C52D1FCBC70473C43FF2D50D0A408002900D56442020243001B0E04D1002A28
:2050400043D10800FCBC70473A43FF2B41D09208002800D552425E1B04D5170022003C001B
:2050600076422B00192E06D527003741D2191C27F71B7F42BC40002A27D002D552420127DB
:2050800000E00027013B5200FCD51500802635400FD01500202635402C43803208D21500BB
:2050A000402635402C4304D101263602B24300E05B1C5200023308DDFF2B0BD2500ADB0579
:2050C0001843FF073843FCBC70470020FCBC70470800C70FFF07FF20C0053843FCBC704744
:2050E00080B58CB02848019002F082FF2748029002F07EFF2648039003F076F825480490F8
:2051000003F072F82448059003F06EF82348069003F06AF82248079003F066F8214808902F
:2051200003F032F82048099003F02EF81F480A9003F0BAF81E480B9003F0B6F8019802F065
:205140001BFF029802F018FF039803F041F8049803F03EF8059803F03BF8069803F038F882
:20516000079803F035F8089802F0D2FF099802F0CFFF0A9803F080F80B9803F07DF8102064
:2051800003F068FA0CB080BD00000A4000200A40008086400000864000A086400040084013
:2051A0000000094000000F4000200F40008010400020104080B584B002A90870314824215E
:2051C000405C002821D0FFE702A80078002804D0FFE701A90220087003E001A900200870C7
:2051E000FFE72849486800780968497C012201AB00F014F9002804D0FFE70020C043039096
:205200003DE001981F49487436E01E48807A002804D1FFE70020C043039030E002A8007873
:20522000002808D0FFE71748407C002803D0FFE70020039023E002A80078002804D0FFE7D2
:2052400001A90120087003E001A900200870FFE70C49486800780968497C012201AB00F08E
:20526000DDF8002804D0FFE70020C043039006E0019804494874FFE700200390FFE703981F
:2052800004B080BD9404202080B584B002A908803048807A002804D1FFE70020C04303909E
:2052A00054E002A80088BC2804DBFFE701A9012008702BE002A80088622804DBFFE701A966
:2052C0000220087021E002A800882A2804DBFFE701A90320087017E002A80088142804DB61
:2052E000FFE701A9042008700DE002A800880A2804DBFFE701A90520087003E001A9062072
:205300000870FFE7FFE7FFE7FFE7FFE71148C07A01A90978884203D1FFE70020039015E0AD
:205320000C494868007809688978012201AB00F075F8002804D0FFE70020C043039005E0D5
:2053400001980449C87200200390FFE7039804B080BDC0469404202080B584B002A908808E
:205360002D48807A002804D1FFE70020C04303904EE002A800880090FA2812D0FFE70098B3
:205380007D218900884210D0FFE700987D21C90088420ED0FFE700987D21090188420CD0E3
:2053A0000FE001A9002008700FE001A9082008700BE001A91020087007E001A91820087005
:2053C00003E00020C043039022E01348007A01A90978C908884203D1FFE70020039017E033
:2053E0000D494868007809688979012201AB00F015F8002804D0FFE70020C043039007E071
:2054000001A80078C0080449087200200390FFE7039804B080BDC0469404202010B58CB0D8
:205420000AAC207009A8017008A80270079301780691079905910078002803D1FFE7002088
:205440000B9048E004A802F061FA09A801782348019002F084FF0198022102F005FEFFE75E
:205460001E4802F0D1FF8006002801D4FFE7F7E70AA8017808A80078431C1848002201F098
:20548000F1FAFFE7059906A80288144801F0A4F8029002990698401A069002990598401831
:2054A000059003A802F032FA039804990A31884206D3FFE700F09CFF0020C0430B900AE05F
:2054C000FFE70648022102F02FFE0028DAD0FFE700200B90FFE70B980CB010BD00200F4062
:2054E00080B584B002A90870002000900878FE221040087028482421405C002803D0FFE7D6
:205500000020039045E02448807A002804D1FFE70020C04303903CE01F48017C01AA117088
:205520000299827A11400174007C02A90978884204D0FFE70020C043009002E0002000909D
:20554000FFE702A80078002805D1FFE71248007D002804D0FFE70120FFF72CFE03E0002062
:20556000FFF728FEFFE702A8007800280DD0FFE7FCF7EAFD002807D0FFE7019806490874F9
:205580000020C043039004E0FFE7FFE700980390FFE7039804B080BD9404202080B588B0C3
:2055A00006A908702A482422805C0978884203D1FFE70020079047E006A8007800282AD005
:2055C000FFE723482521405C002804D1FFE70020C043079038E000200290FFF7EBFD0298B9
:2055E000FDF7B0FA1A480390C08CFFF7F7F90299039805AB1970406800782321012204925A
:20560000FFF70CFF0399049824228854FFF7D2FDFCF79AFD15E000200190FFF7CBFD0C4828
:205620000090017C05AB19704068007823210122FFF7F4FE0099019824228854FCF784FDED
:20564000FFE700200790FFE7079808B080BDC0469404202080B586B004AB188003A8018077
:2056600002920298002804D1FFE70020C043059040E02248807A002804D1FFE70020C043D7
:20568000059037E004A8417801A8017004994170407803A909884018184949684989884296
:2056A00004DDFFE70020C043059023E01349486800780968C97E022201ABFFF7AFFE002891
:2056C00004D0FFE70020C043059013E00B49486800780968097E03AA1278029BFEF76AF9C5
:2056E000002804D0FFE70020C043059002E000200590FFE7059806B080BDC0469404202025
:2057000080B586B004AB188003A8018002920298002804D1FFE70020C043059040E0224858
:20572000807A002804D1FFE70020C043059037E004A8417801A8017004994170407803A98C
:2057400009884018184949684989884204DDFFE70020C043059023E013494868007809683B
:20576000C97E022201ABFFF759FE002804D0FFE70020C043059013E00B494868007809684B
:20578000097E03AA1278029BFFF748FE002804D0FFE70020C043059002E000200590FFE75B
:2057A000059806B080BDC04694042020F0B58B4200D1824204D90B0002000021002040E029
:2057C000002B00D1002A0CD10B00020000210020002B00D1002A01D0C943C043FFF7FDF887
:2057E0002FE01C0015000B0002000CB4002126002F00FF19764102D2491C4029F9D10020CB
:205800001E001700FF19764102D2401C4028F9D10E1A21002800320002F070FA0C00050012
:205820000CBC00200021A34200D1AA4201D3521BA341404149416D08E7073D436408761EAA
:20584000F1D5059F002F01D03A607B60F0BD704710B584B00120009001072248019002F066
:2058600047FD009902460198531E9A411E4B03931A70C90702F03CFD039A014601984B1EB4
:2058800099415170042102F033FD039A014600984B1E99419170C1041448029002F028FD9C
:2058A0000099039B02460298541EA241DA70890402F01EFD039A014601984B1E9941117154
:2058C000802102F015FD039A014602984B1E99415171402102F00CFD0399421E904188717E
:2058E00004B010BD00000A402305202000200A4080B584B002A9087023482322805C097872
:20590000884203D1FFE7002003903AE002A80078002804D0FFE701A93020087003E001A933
:2059200000200870FFE71848807C002806D0FFE701980221084301A90870FFE712482221FD
:20594000405C002806D0FFE701988021084301A90870FFE70C49486800780968C97D0122E3
:2059600001ABFFF75BFD002804D0FFE70020C043039006E0029804492322885400200390F4
:20598000FFE7039804B080BD9404202080B588B007AA107006A801700078002806D0FFE7A4
:2059A00005A9402008700798487005E005A90020087007984870FFE704A801F0A7FF1848FF
:2059C000029005A90222019200F006FE0199029802F056FBFFE7124802F020FD8006002868
:2059E00001D4FFE7F7E70E483C210022022301F061F8FFE70A48022102F0A2FB00280DD1DA
:205A0000FFE703A801F082FF039804990A31884203D3FFE700F0B0FD00E0EBE708B080BD46
:205A200000000F4080B588B0014606A801801D4905911D4904911D4903910088C92804DBEB
:205A4000FFE70020C043079029E006A80188C82001F078FB411E02A8018040786A461070A8
:205A60000298507012480221FFF74AFE002804D0FFE70020C043079011E00E480C2103AA54
:205A8000FFF73EFE002804D0FFE70020C043079005E006980849888100200790FFE707981F
:205AA00008B080BDBBAFDFDFAAF1DFDFFEF2ABC416020000C10A0000FC04202082B001902B
:205AC000019800214056012804DBFFE76946002008803AE0019800214056002804D5FFE7E0
:205AE0006946042008802FE0019801214056012804DBFFE769460120088024E001980121E6
:205B00004056002804D5FFE769460520088019E0019802214056012804DBFFE769460220A2
:205B200008800EE0019802214056002804D5FFE769460620088003E0694607200880FFE732
:205B4000FFE7FFE7FFE7FFE7FFE76846008802B07047000080B586B0059005981E4988425A
:205B600003D3FFE71D480590FFE7059950204843059000200090049002F060FD01460098E9
:205B80000391029001A90870FFE702F057FD029002980399884204D9FFE701A901200870F9
:205BA000FFE701A80078002807D0FFE703980299401A0B494018049004E003980299401AB5
:205BC0000490FFE704980599884201D3FFE700E0DBE706B080BDC04634330300333303001F
:205BE000FFFFFF0080B584B01E491F48039002F075F903981D49FEF7F7FC03980023019343
:205C000019461A4601F096FB019B0398009319461A4602F0F5FA019A0398114602F050F911
:205C2000019A0398114602F0B7FC019B039801210291009119461A4602F0E2FA0199029AF2
:205C4000039802F03DF90199029A039802F0A4FC039802F015FC0398032102F01BFC04B004
:205C600080BDC046159F000000808640E89E0000FCB40127FF0706004E4001D4002600E014
:205C80003E00020243001B0E30D03A43FF2B30D00C024D002D0E29D03C43FF2D29D05B1908
:205CA0004240504042404C4061404C4000B501F0F5FB20BCAE464240504042404C40614070
:205CC0004C4025001400002C01D46400013B803401D3013364087E3B08DDFF2B09D2BC4394
:205CE000200ADB0518433043FCBC70470020FCBC7047FF20C0053043FCBC704780B586B09D
:205D000005900598C078C021084003A908700598C0783F21084004A9087005984078C0070E
:205D2000002819D0FFE704A80178C90802AA1170007807210840401C01A908701148006822
:205D4000002808D0FFE70F48026802A8007801A909789047FFE7FFE7059840780007002828
:205D60000DD5FFE707484068002807D0FFE70548416803A8007880098847FFE7FFE7002022
:205D800006B080BDFC04202080B58AB00990089108980999FFF738F901461748059001602A
:205DA00016490968039100680190154906910968FFF72AF90199029012480068FFF758FFCC
:205DC0000299024603980492FFF752FF0499FFF720F901460C4807900068FFF71AF905997B
:205DE000069A03460798036009681160006801F073FB0AB080BDC0465C03202054052020DA
:205E0000600320204C0520206403202080B58AB00990089108980999FFF7F6F8014617483A
:205E20000590016016490968039100680190154906910968FFF7E8F80199029012480068E5
:205E4000FFF716FF0299024603980492FFF710FF0499FFF7DEF801460C4807900068FFF725
:205E6000D8F80599069A03460798036009681160006801F031FB0AB080BDC04668032020BA
:205E8000500520206C032020480520207003202070B582B0024601A802700091002140567C
:205EA000002816D4FFE7002401A908570322D3431840174A805809578C07E50EFF24AC40FC
:205EC000A043009CA401E4B2AC402043194088501AE001A908780F24204008380322D34356
:205EE00018400A4A8058002549578D07EE0EFF25B540A843009DAD01EDB2B540284321401A
:205F0000083919408850FFE702B070BD1CED00E000E400E0FCB40127FF0706004E40F60F26
:205F2000F607020243001B0E2DD03A43FF2B2DD00C024D002D0E26D03C43FF2D26D05B1BB0
:205F40000020202164085208A2424041A24200D3121B013904D0002A01D05200F4D18840E9
:205F6000384201D14000013B803001D3013300E040007F3307DDFF2B08D2400ADB05184362
:205F80003043FCBC70470020FCBC7047FF20C0053043FCBC70470000F8B5451C0078002321
:205FA000082B32D02F78C2070CD16A780F241440E41C122C0BD102242E57F4B2002E08D481
:205FC000EE1C0EE06D1C4A1C0F7011461AE0AE1C08E02E1DED7800957F252C40009DED0178
:205FE0002C1912343D0112095219094DAA420ED0D243002C05D08D5C4F1C0D70641E39464A
:20600000F7E7354640085B1CCAE72846C5E7F8BDFF0F0000FEB502930F46194D0024E1438F
:20602000184E00973740019043422B46BB4101D20C4623E0084602990E405342B54101D2AC
:2060400004461BE0134601990B433E431E43029D009E13D02B46334004D401998B1A334644
:20606000AB4103E00199531A2B46B341044605DB51406E400E43701E864134462046FEBD3B
:206080000000F07FFFFFFF7F014661391A2970470CB41B4B4A00D21A1BD2000D0A03104384
:2060A00001221202801802D3400812038918400A002902D50122D20710434900490D3822AC
:2060C0001201891A0CD4FF290DD2C90508430CBC7047DB431A40024305D0D8430CBC70475F
:2060E00000200CBC7047C90FC907FF20C00508430CBC7047C046C046C046C046C046C04687
:206100000000E0FF83B001901A48407A009003281CD80098810001A0405887462D61000064
:20612000356100003D610000456100000199022008700FE00199042008700BE0019908207F
:20614000087007E001991020087003E00020C04302900CE00748C07C002805D0FFE7019912
:20616000087840000870FFE700200290FFE7029803B0704794042020B0B586B005AC2070B1
:2061800004A80170039202A8037001A900200870FFE7039801A90978405C002822D0FFE7A6
:2061A00005A8007804A90978039A01AD2B785C1C2C70D25C02AB00931B78FDF771FF00988D
:2061C0000078082805D1FFE70598801D05A9087007E002A8007841080598401805A908708E
:2061E000FFE7D6E706B0B0BD80B584B003A900200870FFE703A80078072828DCFFE703986F
:20620000B030C0B200210191FFF7C0FB01990846FFF7BCFB01991020FFF7B8FB019802A97C
:206220000870FFE702A800787F280ADCFFE700200121FFF7ABFBFFE70298401C02A908708E
:20624000F0E7FFE70398401C03A90870D2E704B080BD000080B584B015491648039001F013
:206260003DFE03981449FEF7BFF903980023029319461A4601F05EF8029B039800931946BB
:206280001A4601F0BDFF029A0398114601F018FE029A03987D21090202F07EF9039802F086
:2062A000EFF80398012102F0F5F804B080BDC046189F000000008640F09E0000F8B5044662
:2062C000164F174D0E462E400120009464423C46B4411AD31D405442AF4116D31046009CB6
:2062E00020433543054311D00020C0431C460C400ED4009CA41A0C469C4106DB0098504055
:2063000059400143481E81410846F8BD0020F8BD009C141B1C468C41F0DAF6E70000F07F90
:20632000FFFFFF7FF8B51C4617460E46054602F062F90021012E03DBB04201DBA919491E64
:20634000002F04D02268531E23602E2313703246824206DD23685F1E276030271F70521EE4
:20636000F6E7B04200DB3046012808DBA9420BD308782268531E23601070491EF6E72068DE
:20638000411E216030210170F8BD80B582B0014601A801706A46002111700078C007002825
:2063A00006D0FFE700983021084369460870FFE701A800788007002806D5FFE700980C218A
:2063C000084369460870FFE701A800784007002806D5FFE700980321084369460870FFE700
:2063E0002920C00001216A46FFF78AF902B080BD80B584B003A90020087000F0B3FDFFE727
:2064000001200190C10300911148029001F0DDFF019802F0D9F80099029801F001FE0198A5
:2064200002F0D2F801990298090401F082FF002801D0FFE708E0FFE70398401C03A9087025
:20644000C0B26428DCDBFFE700F080F904B080BD00000A4010B5FFF731FF002801D00020F9
:2064600010BD012010BDC04610B5FFF727FF002801DB002010BD012010BDC04610B5FFF7DA
:206480001DFF002801DD002010BD012010BDC04610B5FFF7BFFD002801DA002010BD012071
:2064A00010BDC04610B5FFF7B5FD002801DC002010BD012010BD000080B588B0014606A85A
:2064C0000170007800280ED0FFE703AA5D2010720F4804900F4803909720C0000921FFF7CF
:2064E0000FF907900DE06A46C720107206480190064800909720C0000921FFF701F9079012
:20650000FFE7079808B080BDB088C3C5B8AAAAAAB4980D35B8AAB38D82B001901548007AC1
:20652000009003281FD80098810001A0405887464165000049650000536500005D650000BC
:206540000199FA20088012E001997D20800008800DE001997D20C000088008E001997D2043
:206560000001088003E0019900200880FFE7002002B070479404202080B584B003A90020F1
:20658000087000F013FDFFE7124801900221009101F025FF0120029001F0D4F80099019847
:2065A00001F04AFD029801F0CDF80198029901F0CBFE002801D0FFE708E0FFE70398401CC1
:2065C00003A90870C0B26428DEDBFFE700F0CAF904B080BD00000A40F0B581B0002A22D01A
:2065E00091235B01C3180F200402901E0090561E0020DF6927421BD00F5C1F60864210D07B
:20660000DF69274211D00F187D781D60009D854207D0DD6925420AD0BD781D60C01C82423B
:20662000E7D1104604E0002002E0401C00E0801C80B201B0F0BD000080B582B012491348E1
:20664000019001F07EFF0198114900F0D7FB0198002101F043FB019815212D2200F0A0FAF5
:20666000019801F0FDFD0198702101F005FA0198022101F015FA019801F087FE019801F027
:2066800079FE02B080BDC046219F000000801040D49E000080B5FEF723FDFBF701FA00F065
:2066A00017FBFFF79FFAFFF7D5FD01F0ABF800F07DFE00F027FD00F0D1F800F0A3F8FFF724
:2066C000BBFF00F02BFB02F021F801F06DFF05499C22002088540449B823C854034988540E
:2066E00080BDC04624022020C80020208401202070B514460F4D0B462B40002222600E4E8D
:20670000B34215D81E46064312D01E0D07D100220A4BFEF74DFA0D403522D2432B461B0D00
:206720009A18074BD2182260064A0A400649511870BDC046FFFFFF7FFFFFEF7F00005043E9
:2067400002FCFFFFFFFF0F800000E03F80B588B01448069001F000FD0023079301930120D2
:20676000C0040290009025200490042103911A4600F068FD02980399079B019300902420AC
:2067800005901A4600F05EFD049801F0E3FA059801F0E0FA069801F0A3FC00F033F80798FF
:2067A00008B080BD00200F4083B01EB505AC0EC401900F48006880470E4A9069401C0DD04B
:2067C00005A902910C48009018320C4B01A8F9F777FC04460A480068804704E00848006880
:2067E00080470020C44320461EBC02BC03B008475C052020A40320202D87000025870000C3
:206800006005202080B582B012491348019001F0BCF901980321490201F0A4F9019801F05F
:206820003BFC019801F00EFE0198092101F0B8FC01980021009101F0F7F80099019801F0D5
:20684000DFF8019801F040FC019801F031FC02B080BDC0468E9B000000200F4080B582B0F0
:2068600012491348019001F090F901980321490201F078F9019801F00FFC019801F0E2FDEF
:206880000198092101F08CFC01980021009101F0CBF80099019801F0B3F8019801F014FC55
:2068A000019801F005FC02B080BDC0469A9E000000000F40F0B587B00191064602AD002048
:2068C000E874123537460A243846214600F076F84443391BCA175140891A303129700937FD
:2068E0006D1E122F0746EED8002E01D46D1C01E02D20287002A8441B2246143201982946A8
:2069000001F00CFF1334204607B0F0BDF0B5FFB086B01C4615460246A868002801D50620A7
:20692000A8602368039304AB0090019305A80B46FCF708FF0646049FAA683946234600F08A
