:20000000008020207D95000071950000719500000000000000000000000000000000000002
:2000200000000000000000000000000071950000000000000000000071950000D193000050
:2000400071950000DD360000818A000071950000719500007195000071950000719500005E
:20006000000000007195000071950000000000000000000071950000657C00007195000087
:200080008D7100007195000071950000719500007195000071950000000000000000000044
:2000A000719500007195000000000000000000007195000000000000719500007195000022
:2000C000F0B5FFB08EB0049306920646929802900025E84305908C913468204609F097F9CA
:2000E00021188B9503918C4200D3BBE00020879087A908738890059889902F46049D207879
:20010000002800D1AFE0252805D0641C34600699A8477F1CF3E78B97601C306087AC204657
:20012000314600F0A7F88CAA2046314600F0BFF8306801787A2925D0682919D06A2908D071
:200140006C290ED0742908D04C2922D1879980221BE087990122D20217E0879901225203EC
:2001600013E0427887996C2A64D10122120205E042788799682A60D101225202114387914B
:20018000801C05E08799012212030A438792401C0178441C346087A8017373291FD06E2992
:2001A00029D1879832490840202850D040283CD001214A03904238D04A02904242D0CA0242
:2001C000904205D00A0390422FD0090288422CD1F8178C9904C98C91176050603BE087A839
:2001E0000078400619D4009587A88CAA8BAB069900F01DF92FE007AD87A98CAA284600F0F8
:200200006DF9024628460699029B9847411C059D00D0C5198B9503991FE0009587A88CAA45
:200220008BAB069900F09FF815E08C9802C88C900F6010E0401C402201E0401C2022114373
:200240008791A5E78C9802C88C900F7003E08C9802C88C900F8003998B9D681C00D042E7B4
:20026000059F00E02F4638467FB00EB0F0BDC046603F000010B50A681378302B0FD0232B7E
:2002800007D02B2B09D02D2B05D0202B0ED1042306E0082304E0012302E0022300E01023A7
:2002A00004681C430460521C0A60E5E710BDFEB516460D460446086802782A2A10D130683B
:2002C000011D316000686060002805D54042606020680121014321602868471C2F6017E01B
:2002E0000021303A092A08D84218531C2B60435C6F467B545278491CF3E76A460023535466
:2003000012784718002A03D0684607F047FE606038782E2826D1781C286079782A2908D117
:200320003068011D31600068A0602868401C2860FEBD00203039092908D839188A1C2A60C3
:200340004A786B461A548978401CF3E76A46002111541078002804D0684607F01FFEA06009
:20036000FEBDA160FEBDF0B587B01E460C9F13681C1D14601D68002D3BD00491069084681F
:20038000002C04D4284609F033F8844203D3284609F02EF8044606984068A042039000DCBD
:2003A000204601463068019140180296306005940398A0420EDD06980078C0070AD1059890
:2003C00001990E1A0024B44204DA20200499B847641CF8E70026049C069805998E420BDA71
:2003E0002868010A19D12D1DC0B22146B847761CF2E70020B84718E00599039A8A4214DDDC
:200400000078C00711D00198451A0024AC420CDA20200499B847641CF8E70020C0430299D3
:20042000086009F083F85821016007B0F0BDF0B585B00C4606460A9D1068011D1160006814
:200440000490002844D00393B768002F04D4049808F0DDFF874203D3049808F0D8FF074649
:2004600002967268BA42114600DC3946039B18680091401818600192BA420FDD0298007850
:20048000C0070BD10098C01B039000260398864204DA20202146A847761CF7E70026BE4220
:2004A00005DA0498805D2146A847761CF7E70198B84210DD02980078C0070CD00098C61B70
:2004C0000027B74207DA20202146A8477F1CF8E700202146A84705B0F0BDC046F0B589B04F
:2004E00001920F460446FF210846FA30251878680290002607960391FE31202220460092C3
:2005000008F07EFF7F20800006942118089104952E713D46387B0246613A172A2AD8012323
:2005200093402C46B44D2B42254608D007A908AA2846019B00F066F900260596B3E0712520
:200540002B42254622D1022A14D1019B1868021D1A600068C2B2534253410593039AFC32A2
:20056000069B9A18089208702868022188432860002698E001464539032907D3252860D02A
:20058000412803D058280596D0D08DE0019A1068C11D0720814308460830106005C9D14343
:2005A0002F7B4900490D0BD17B3F944911400143049C2CD01920C1438F4234D36E2033E098
:2005C000002A01D4114602E00121C9075140D60F002205923A46413A062A0BD9613F062FDE
:2005E00061D8C0467F443F797F00BF440B5C5C5C3B3631007A441279520097440354545489
:20060000332E290008AB2A4602F0A0FC4BE0002311461A46059306F05FFD1921C9438F4299
:2006200025D3662224E04E20E0708F4201D3612100E04121A17008946070002005900226B5
:2006400031E0002006994870252008700120A1E008AB2A4602F084FE25E008AB2A4606F0FE
:20066000EFFF20E008AB2A4604F0BEF91BE04622E2708F4201D36E2200E04E22A2708F42A1
:2006800001D3692100E0492161703F21C900069A51180891002803D02D202070042602E032
:2006A0002B2020700326287B012701466F39092904D801228A4052490A4201D158286BD10C
:2006C000049B029C04972946069F3D1908980C460978C90707D1191D091A62689142069F22
:2006E00001DC691A4F1C411C0398430000263846324608F083F908900599002903D0411CD5
:200700000891067000E00146A94206D8481E691A491C202208F074FE2E702078C00605D40B
:200720000698391A202208F06BFE2EE0069887422BD00698391A3026324608F061FE079800
:200740004142414104980140012905D12078400702D43846069905E03878069A511C1070C3
:20076000781C3E70227B412A0CD0582A05D0612A08D0782A01D0702A07D123781B0701D422
:20078000612A02D142784A704670069808F03FFE0599401809B0F0BD002E09D0012E049BCD
:2007A000029C8FD10120079029680220084007E0079A296802200840002A09D0049B029CC5
:2007C00008994A1E08922D220A704742474179E70028049B029C08D1480700D472E70898E2
:2007E000411E0891009901706CE70898411E08912B210170002765E708C19000FFFF0F0076
:2008000043020000F8B514460F4605468068002804D4286810218843286001E00120A860E6
:20082000287B1026582808D0782806D0702804D06F2801D1082600E00A262846194600F041
:2008400055F8AA68002A09D102460A4306D12878000749D52B7B0020024612E02B7B642BCF
:2008600003D1642300290BD504E0692B08D1002906D5692301223A60002240428A4100E027
:200880000A4600941146324600F0B0F8A968884206DA401C21684A1E226030220A70F5E7DB
:2008A000287B582803D0782801D070280FD1297809070CD5702800D1782021684A1E226053
:2008C00008702068411E216030210170287B6F280AD12878000707D520684178302903D071
:2008E000411E216030210170F8BDC04610B5037B702B05D10868021D0A60006800226FE015
:200900000068384A024001204403A24222D0402A20D00402A24230D04402A24246D0C40223
:20092000A2422AD00403A24214D0202A12D100221C46643C142C06D8A0402B4C204204D10D
:20094000212420423ED1582B49D10868031D0B60008845E000221C46643C142C06D8A0407A
:20096000214C204204D1212420422BD1582B36D10868031D0B60006832E01A46643A142AF5
:2009800006D89040184A104206D12122104203D10020582B024623D10868C21D072082439B
:2009A0001046083008601068526819E000221C46643C142C0CD8A0400B4C20420AD1212415
:2009C000204205D00868021D0A600068C21707E0582B04D10868031D0B60007800E01046BE
:2009E000114610BD603F000000081200FEB501920D460646582B01D0174800E015480090B5
:200A0000089802903046284305D1029A1068411E116030210170019C3046284313D0304670
:200A20002946224600F01AF807460D46224607F0D3FF301A0099085C029B19684A1E1A60C5
:200A400008703E46E8E70298006808F0E0FC401EFEBDC04698AC0000A9AC000080B5102ACE
:200A600006D0082A09D1C0084A078018C90880BD00090A078018090980BD002904D111467F
:200A800007F04CFA002180BD002308F01BFC80BD10B5AEB000202D902C9006F095FC03F016
:200AA00071FB08F039F9E44808F0C6FA0120289007F0AEFD289807F0ABFD0E20299007F004
:200AC000A7FD289807F0BAFD289807F0B7FD299807F0B4FD10202A9007F09AFD02202B90DB
:200AE00007F096FD2A9807F0A9FD2B9807F0A6FD07F04CF804F022F9FFE705F0E1FC06F0B8
:200B0000ADFFCE491D910880CD4A0220229001211B910823269306F067F9CA48006807F078
:200B20001DFA02460B46C8482590C849239107F0F9FB1B99259A269B142006F055F91B9930
:200B4000269BC34A3C201C9006F04EF9C148006807F004FA024625980B46239907F0E2FB36
:200B60001B99259A269B502006F03EF92299269BB94A084606F038F9229B2698B7490A78B3
:200B8000009019202190194604F06EFC1C982299269BB34A06F028F9229B2698B1490A78E3
:200BA00000905A20194604F05FFC2298269BAE4A03211E9106F018F91D9925980A88AB4937
:200BC00007F0B0FB1E99259A269B1E2006F00CF92298269BA64A04211F9106F005F9A548E2
:200BE000006807F0BBF9024625980B46239907F099FB1F99259A269B2D20279006F0F4F827
:200C00002298269B9C4A0521209106F0EDF89B48006807F0A3F9024625980B46239907F0DA
:200C200081FB2099259A269B219806F0DDF82298269BFD4A0621249106F0D6F8FB4800686E
:200C400007F08CF9024625980B46239907F06AFB2499259A269B279806F0C6F806F0DEFF27
:200C600001280DD1FFE7E7480178491C01700078062804DBFFE7E34901200870FFE7FFE70D
:200C800006F0A0FE01280DD1FFE7E0480178491C01700078042804DBFFE7DC490120087035
:200CA000FFE7FFE706F068FE012800D098E106F0D3F8DF4808F0C0F9FFE706F0CFFEC94946
:200CC00010910880C84A0220159001210E910823199306F089F8C548006807F03FF9024617
:200CE0000B46C3481890C349169107F01BFB0E99189A199B142006F077F80E99199BBE4A27
:200D00003C200F9006F070F8BC48006807F026F9024618980B46169907F004FB0E99189AB1
:200D2000199B502006F060F81599199BB44A084606F05AF8159B1998B2490A7800901920A4
:200D40001490194604F090FB0F981599199BAE4A06F04AF8159B1998AC490A7800905A20F6
:200D6000194604F081FB1598199BA94A0321119106F03AF8109918980A88A64907F0D2FAC5
:200D80001199189A199B1E2006F02EF81598199BA14A0421129106F027F8A048006807F079
:200DA000DDF8024618980B46169907F0BBFA1299189A199B2D201A9006F016F81598199B4D
:200DC000974A0521139106F00FF89648006807F0C5F8024618980B46169907F0A3FA139939
:200DE000189A199B149805F0FFFF1598199B8E4A0621179105F0F8FF8C48006807F0AEF821
:200E0000024618980B46169907F08CFA1799189A199B1A9805F0E8FF06F0AEFD01282FD0F0
:200E2000FFE784480068C117890F4018811075480078884224D0D2E0008086402A052020E5
:200E400046AD000018032020F6022020B1AA00003EAD00002C03202039AD0000DF0520204D
:200E600028AD0000E30520202EAD000042AD000018AD00008805202034AD00009C03202059
:200E8000624904200870FFE7574A022008900121029108230C9305F0A7FF5448006807F0B5
:200EA0005DF802460B4652480B905249099107F039FA02990B9A0C9B142005F095FF029971
:200EC0000C9B4D4A3C20039005F08EFF4B48006807F044F802460B980B46099907F022FA44
:200EE00002990B9A0C9B502005F07EFF08990C9B434A084605F078FF089B0C9841490A7847
:200F0000009019200790194604F0AEFA039808990C9B3D4A05F068FF089B0C983B490A7863
:200F200000905A20194604F09FFA08980C9B384A0321049105F058FF0B982A490A883549C7
:200F400007F0F0F904990B9A0C9B1E2005F04CFF08980C9B304A0421059105F045FF2F481E
:200F6000006806F0FBFF02460B980B46099907F0D9F905990B9A0C9B2D200D9005F034FF76
:200F800008980C9B264A0521069105F02DFF2548006806F0E3FF02460B980B46099907F03A
:200FA000C1F906990B9A0C9B079805F01DFF08980C9B1D4A06210A9105F016FF1B48006897
:200FC00006F0CCFF02460B980B46099907F0AAF90A990B9A0C9B0D9805F006FF54E76CE6BD
:200FE0008BE5C0462A05202046AD000018032020F6022020B1AA00003EAD00002C032020D1
:2010000039AD0000DF05202028AD0000E30520202EAD000042AD000018AD0000880520206D
:2010200034AD00009C03202020AD00008C052020004008408405202010B58AB0D74800786B
:20104000002809D1FFE7D6480068D6490860D3490878401C0870FFE705F032FAD248007892
:20106000002800D1A1E0DE49E3480860DD49086006F0CEFC0146E1480160006807F036F98F
:2010800007F01EFD132804DBFFE7DC4900200860FFE7DB480068DB49096803F0B3F906F0F6
:2010A00095FE00283FD0FFE7D7480078142805DCFFE7D5490878401C087002E008F0C3F9DE
:2010C000FFE7BF48006807F011F9002826D1FFE7BC48006807F00AF900281FD1FFE7BA484F
:2010E00000684B2815D1FFE7B04901200870AE4900200870B54A1168491C1160B249086077
:20110000B3490860B3490860B3490860B3490860FFE7AD490868401C086003E0AA49002039
:201120000860FFE740E0B84900200870AC480068B2490391096804F09FFD0399A04A0492A0
:201140009060A8480068096804F09BFD014604989C4A059291608168006805F08FFC0146E1
:201160000598AA4C099421608168006805F044FCA7490891086020687D214A010792A5494F
:20118000069107F039F90699079A034608982360006807F031F90899024609980A600068FE
:2011A000096803F053FEFFE7F6E080480078002800D189E08A49002008608A4908608348BB
:2011C0000068C117890F411803229143401A029003281DD80298810001A040588746C046B2
:2011E000F1110000F911000001120000091200007049002008600BE06E497C48086007E0BF
:201200006C490020086003E06A4977480860FFE76848006802F0F8FB7548006807F066F877
:2012200000284CD1FFE7684800684B2842D1FFE75E490020087065480068C117890F4118E2
:2012400003229143401A0190032827D80198810001A040588746C04669120000711200005C
:20126000831200008B1200004F490120087015E04F49012008705A495E480860594908602A
:201280000CE049490120087008E049490120087053495848086053490860FFE74A490020E3
:2012A00008604B4908604B4908604B4908604B490860FFE744490868401C086003E04249C1
:2012C00000200860FFE766E039480078002861D0FFE73848006802F097FB37480078002897
:2012E0003ED0FFE706F072FD002839D0FFE708F0AAF83348006806F0F9FF00282BD1FFE709
:201300003048006806F0F2FF002824D1FFE72E4800684B281AD1FFE7284900200090087048
:201320002549087022490870204A01211170274A1168491C116024490860254908602549FE
:2013400008602549086025490860FFE71E490868401C086003E01C4900200860FFE718E04A
:2013600006F034FD002804D0FFE71449012008700EE006F02BFD002809D1FFE70F480078AB
:20138000002804D0FFE70C4901200870FFE7FFE7FFE7FFE7FFE7FFE70AB010BDD605202077
:2013A0009C032020A4052020D8052020D9052020D70520208C052020D4052020D50520200A
:2013C000180320202C0320206005202084052020800520207C0520207805202074052020D9
:2013E000BC052020C0052020000007C300000743900520200000824200002042640520202F
:201400007C03202080032020D30520206C0320207003202060F0FFFFF0B58BB00A46034609
:20142000E24906463778C8194078761CC006F9D42D2F01D02B2F01D1307801E0761E3846D4
:2014400005F05AFC01D3014601E0014620394E293FD0492959D1707805F04EFC00D2203832
:201460004E284CD1B07805F047FC00D22038462845D1002A01D0F01C1060F07805F03CFCBF
:2014800000D2203849281FD1307905F035FC00D220384E2818D1707905F02EFC00D2203837
:2014A000492811D1B07905F027FC00D2203854280AD1F07905F020FC00D22038002A03D076
:2014C000592801D1083616602D2F00D1C7E0BA49C6E0707805F010FC00D2203841280ED12D
:2014E000B07805F009FC00D220384E2807D1B0490024002A00D127E1F01C106024E1002A87
:2015000000D01360002421461EE1AC490791002530280292049317D1707805F0EDFB00D24A
:201520002038582810D1B078A04909184978890707D42E2808D1F0789C49081840788007B9
:2015400002D5B61C9E4807902C469C4B07F0D9FF411E884108909A4B059507F0D2FF411ED7
:20156000884103900A9506952B46294632782E2A03D1002939D1012135E009911446303C55
:201580000A2C01D3002100E001210898084201D0284611E00398002827D084488118497824
:2015A000890722D528460A2C06D3114661391A2900D2203A1446373CE200824B99189D58A5
:2015C0004C680A99059A079B04F02AF92A46234602F055F905460A910999002902D0069822
:2015E000401E06900123761CC0E701202D2F099003D1C0070A9941400A91069FBC0003982E
:201600000028204600D13846002B00D181E00899002909D01346613B1A2B01D3134601E0A5
:201620001346203B452B09D00399002912D01346613B1A2B00D2203A502A0DD172782D2A07
:20164000019501D02B2A0DD1B11C0491B4780023DB430BE004963DE0049627463AE05549C0
:20166000002471E0711C0491002314462546303D092D25D800234D25AD00303C092C24D86C
:201680002D2A01D01E4600E05E423618F7177E40F61BAE42099F00D80027089939420AD185
:2016A0000127B9028E4200D800270399394202D10A2159430B19049C611C64780491DCE752
:2016C0000499C918491E049100232D2A019D00D15B421F18002428460A992246234605F0D8
:2016E000F1FC002815D10898002817D04D20800087421ADD07F01AFF22210160002428464D
:201700000A992246234605F0E7FC002816D12A4915E02C46029A049B0A9912E028460A99B3
:201720003A4604F03DFA044609E0274887420EDC07F0FCFE22210160214600E01D49029ACB
:20174000049B002A00D0136020460BB0F0BD002F15D41E4C029A049B002F0ED0F80709D00D
:201760000CCC28460A99083C04F05AF8049B029A05460A917F080834EEE72C46CCE72846AA
:201780007C42124D029A049B002C0CD0E10707D00CCD0A99083D03F0DFFB049B029A0A91C6
:2017A00064080835F0E70446B6E7C046B0A900000000F87F0000F0FF0000F07F000024402A
:2017C00000003040B8AA0000CCFEFFFF38AB000010B588B0C2480078002809D1FFE7C1481C
:2017E0000068C1490860BE490878401C0870FFE704F066FE06F00CF9BC490860BC480068A2
:20180000BC49096802F0FEFDBB480088AF214900884216DCFFE7B8480088012811DBFFE79C
:20182000B64901200870B64900200860B5490860B5490860B5490860B5490870B54908706B
:20184000FFE7AE48007800286CD0FFE7BA480068002818D4FFE7B8480068282813DCFFE7F9
:20186000AF480068B64904F00CFAAE498860AE480068B24904F005FAAC498860AE490868A1
:20188000401C08602CE0AC480068292818DBFFE7A9480068962813DCFFE7A1480068A749C5
:2018A00004F0EFF99F4988609F480068A44904F0E8F99E498860A0490868401C08600EE091
:2018C0009D480068972809DBFFE795480068954988609548006895498860FFE7FFE7FFE76A
:2018E00006F074FA002804D0FFE7964901200870FFE794480078012813D1FFE791480078AC
:20190000079006F063FA01460798884208D0FFE77A49002008708B49087087490860FFE7AA
:20192000FFE7ACE006F052FA00284FD0FFE77B490020087078480078142805DCFFE7764970
:201940000878401C087040E071480078002808D1FFE777490868401C08606D4901200870B8
:20196000FFE7704800696E49096804F085F9002105F0F8FB00280BD0FFE7694800686D4905
:2019800004F07FF9674988606849002088600AE065480068674904F074F96449886061493B
:2019A00000208860FFE75B480078002809D1FFE74F480068524908604E4800685149086034
:2019C000FFE7544901200870FFE757E052490020087052480078042805DCFFE74F4908787E
:2019E000401C087049E04A49002008704948007800282FD0FFE73E48006841490968411A65
:201A0000414801603B4909683E4A12688A1A3F490A6000680968401A07F052F87D218900B4
:201A2000884215DBFFE73E48006830490691096804F022F906993B4A90603B480068096818
:201A400004F01FF93949886032490020087000E0FFE711E03248006824490591096804F0FC
:201A60000BF905992F4A90602F480068096804F008F92E498860FFE7FFE7FFE7FFE72948AE
:201A800081680161294A0092916811618168006804F0F4FF014600982B4C049421608168FB
:201AA000006804F0A9FF29490391086020687D214A0102922649019106F09EFC0199029AE8
:201AC000034603982360006806F096FC0399024604980A600068096803F0B8F908B010BDC3
:201AE000D00520209C032020A40520205C0520207C032020800320202A052020CD05202065
:201B000054052020580520204C05202050052020D1052020CE052020CC052020D205202018
:201B2000BC05202018032020C00520202C032020840520200000A04148052020000070C16D
:201B40000000C841CF052020640320206803202060F0FFFFF0B589B00F4605460120C10761
:201B60003E468E43B14886420BD3D1483018284300D190E007F0DAFC21210160CD490025B9
:201B800050E1AB48864212D8C64AC74B2846394601F075FE0022A54B05F0BCFA002800D146
:201BA00086E0C248864200D382E039463AE10291089700249D4920462A46334601F05AFE4A
:201BC0009C4B224603F02CFE05460F469A4A9B4B03F026FE9A4A9B4B01F051FE07F058FCC3
:201BE000994A9A4B01F04BFE07F052FC984A994B01F045FE07F04CFC974A984B01F03FFE73
:201C000007F046FC964A974B01F039FE07F040FC06900791944A954B07F0A4FC944A954B2D
:201C200001F02DFE07F034FC934A944B01F027FE07F02EFC924A934B01F021FE07F028FC89
:201C400022467A4B01F01BFE039004912846394602F0E0F905900C468B48864200D283E0B6
:201C600007F033FC02460B46059D2846214603F0D7FD2A4607F080FC02460B4601F0FFFDFE
:201C8000824A864B01F0FBFD02460B468148844901F0F0FDC0E07D4A7D4B07F063FC0446E2
:201CA0000E467C4A7E4B07F05DFC2246334657E0284639462A463B4603F0B2FD064608976E
:201CC0000F465D4A5D4B03F0ABFD5D4A5D4B01F0D6FD07F0F5FB5C4A5C4B01F0D0FD07F0C9
:201CE000EFFB5B4A5B4B01F0CAFD07F0E9FB5A4A5A4B01F0C4FD07F0E3FB594A594B01F014
:201D0000BEFD07F0DDFB04460791574A574B3046394603F085FD564A564B01F0B0FD07F0D4
:201D2000CFFB554A554B01F0AAFD07F0C9FB544A544B01F0A4FD07F0C3FB00223B4B01F02A
:201D40009EFD02460B462046079903F005F902460B462846089C214603F062FD2A4623461B
:201D600001F08DFD05465DE000263046214632460196234603F054FD02460B46284639461B
:201D800001F078FD00900F46059D28462146324607F0F2FB02460B460098394603F0DCF8AE
:201DA00006460F4607F091FB07900691284621462A4607F0E1FB0590049130463946324622
:201DC0003B4601F05CFD02460B463048304901F051FD05460F4605980499079A069B03F060
:201DE0001FFD2A463B4601F045FD05460F4601982146024607F0C0FB02460B46254C264E8B
:201E00002046314601F036FD2A463B4601F032FD2246334601F033FD05460898002801DCBE
:201E200002984140284609B0F0BDC0460000F03FFFFFDF3F0000E03F09F7FD0DE13D023FDA
:201E400088B20175E0EF493F3B8F68B52882A4BF5544880E55C1C93F7D6FEB0312D6D4BFE5
:201E6000555555555555C53F82922EB1C5B8B33F59018D1B6C06E6BFC88A599CE52A00404F
:201E80004B2D8A1C273A03C03333EF3F075C143326A6913C182D4454FB21E93F26A691BCEF
:201EA000FB21F93F9C7500883CE4377E0000503E000010C00000F87FF0B587B005460F460F
:201EC0000122D0070E468643924886420DD3B448864203D8002D3FD086423DD128463946CB
:201EE0002A463B4601F0CBFCE2E08B488642039112D8914A914B2846394601F0C0FC0024E9
:201F00008B4B224605F006F9E1430291002869D0B00DF92866D2CDE08048864220D885485F
:201F200086423FD8284631462A46334601F0A7FC00277C4B3A4601F0A2FC044628460D4658
:201F400001218B07314602973A4601F098FC02460B462046294636E0002920DC924F1FE02F
:201F60006F48864234D800246F4B284607F0EEFA2A4605460F466D4B10463146224603F0BB
:201F80004FFC6B4B224601F07AFC02460B462846394602F0E1FF05460F46022021E0814F86
:201FA000824D87E0029200245E4B284607F0CEFA2A4605460F465E4B104607F0C7FA02464E
:201FC0000B462846394602F0C7FF05460F4609E0002054492A46334602F0BEFF05460F468D
:201FE000032002900695284639462A463B4603F017FC0590049102460B4603F011FC0446A0
:202000000D464F4A4F4B03F00BFC4F4A4F4B01F036FC07F04BFA4E4A4E4B01F030FC07F069
:2020200045FA4D4A4D4B01F02AFC07F03FFA4C4A4C4B01F024FC07F039FA4B4A4B4B01F067
:202040001EFC02460B460598049903F0E9FB04900591474A474B2046294603F0E1FB464A3B
:20206000464B01F00CFC07F021FA454A454B01F006FC07F01BFA444A444B01F000FC07F0A5
:2020800015FA434A434B01F0FAFB07F00FFA224A964213D8049A059B01F0F1FB02460B464D
:2020A00007F03CFA02460B462046394601F0E2FB05460F462846394607B0F0BD029AD40046
:2020C000354A1319125902925A680192049A059B01F0D5FB02460B463048011906594D68C3
:2020E00007F01CFA32462B4601F0C4FB22463B4601F0C0FB02460B460298019901F0BAFB32
:2021000005460F4603980028D4D50120C0074740D0E7C04600001044FFFFDB3FFFFFF23FEC
:20212000FF7F03400000F0BF0000F8BF0000F83F0000F03FFFFFE53F9C7500883CE4377E82
:2021400011DA22E33AAD903FEB0D76244B7BA93F513DD0A0660DB13F6E204CC5CD45B73F91
:20216000FF8300922449C23F0D5555555555D53F2F6C6A2C44B4A2BF9AFDDE522DDEADBF4B
:202180006D9A74AFF2B0B3BF711623FEC671BCBFC4EB98999999C9BF80AB0000A0AB000097
:2021A0000000F07FFB21F93FFB21F9BF182D445480B58AB009A90591088006AA0492022004
:2021C0001070CA205070E32090700920D0706820042104F0CDF8049A0598A32111700088FB
:2021E0004006002808D5FFE706A9C0204870C8208870C220C87005E006A9A3204870887066
:20220000C870FFE709A80088C005800F002808D0FFE706A9C4200871CC204871C62088719D
:2022200005E006A9A320087148718871FFE706AAA320D0711072507275480A2104F098F8D2
:2022400009A800888007002804D0FFE706A92020087003E006A9D8200870FFE76D480121B6
:2022600006AA04F085F809A800888006002804D5FFE7012004F0BAFF03E0002004F0B6FF1D
:20228000FFE709A80088C005800F002820D0FFE709A80088C00500280AD5FFE706A9B22061
:2022A00008708B204870B62088709B20C87009E006A9B020087080204870B42088709020CE
:2022C000C870FFE75448042106AA04F051F8FFE709A80088C007002826D0FFE706AAF82080
:2022E00010708B2000010121039104F041F807200290FA2100F0E2FA029804F07EFE03988A
:2023000005F0CAFD642006F025F97D20800006F039F94248C82105F09DFD282006F0A0F84C
:202320000A2006F0B6F808E006AAD82010708B200001012104F01CF8FFE709A80088800743
:20234000002804D5FFE706A9D920087003E006A9D8200870FFE73248012106AA04F008F84E
:2023600009A800884007002804D5FFE7012005F0C1FC03E0002005F0BDFCFFE709A8008853
:20238000C006002804D5FFE7012005F08FFC03E0002005F08BFCFFE709980821084321490B
:2023A0000191488100F0BCFC01990020887309A800884006002805D5FFE71A49887B801DFB
:2023C0008873FFE709A80088C005800F002805D0FFE71449887B801D8873FFE709A8008895
:2023E0001421084205D0FFE70E49887B10308873FFE709A800888007002805D0FFE7094933
:20240000887B001D8873FFE700200AB080BDC046A70A0000B60A0000A20A000009E3CA02C9
:202420003D070000FC04202010B588B07B480078002809D1FFE77A4800687A4908607749E3
:202440000878401C0870FFE704F03AF805F0E0FA75490860754800687549096801F0D2FF11
:2024600005F0B4FC00284FD0FFE773490020087070480078142805DCFFE76E490878401C70
:20248000087040E06D480078002808D1FFE775490868401C0860694901200870FFE76A48BB
:2024A00000696849096803F0E7FB002104F05AFE00280BD0FFE7634800686B4903F0E1FBD0
:2024C000614988606249002088600AE05F480068654903F0D6FB5E4988605B490020886011
:2024E000FFE757480078002809D1FFE74F480068584908604E48006858490860FFE7504969
:2025000001200870FFE757E04A49002008704A480078042805DCFFE747490878401C0870F9
:2025200049E04649002008704548007800282FD0FFE73E48006847490968411A4648016000
:202540003B490968454A12688A1A45490A6000680968401A06F0B4FA7D218900884215DB29
:20256000FFE73848006830490791096803F084FB0799354A906035480068096803F081FBC5
:20258000334988602E490020087000E0FFE711E02C48006824490691096803F06DFB0699C6
:2025A000294A906029480068096803F06AFB28498860FFE7FFE7FFE7234881680161244AE7
:2025C0000192916811618168006804F057FA01460198264C059421608168006804F00CFAB0
:2025E00023490491086020687D214A0103922149029105F001FF0299039A034604982360DA
:20260000006805F0F9FE0499024605980A600068096802F01BFC08B010BDC046C9052020FF
:202620009C032020A40520203C0520207C03202080032020C7052020CB052020CA052020A4
:20264000C80520204005202018032020440520202C032020340520202C052020380520202E
:2026600030052020840520200000A0415C0320206003202060F0FFFF80B596B00E200721DA
:20268000029106F0A1FA894814900421039106F077FB02990F20129006F096FA14980821B9
:2026A00006F06EFB12200521099106F08DFA0120069001027E48109006F062FB262006216C
:2026C0000A9106F0ADF9069800230B930193C0040D9000900321139118461A4605F0DAFC8E
:2026E00006980B9B0D9A1399019300921A4605F0D1FC0B9806F04CFA069806F049FA0399A9
:202700000B9B0D9801930090252004901A4605F0C1FC03990B9B0D9801930090242005907B
:202720001A4605F0B7FC049806F032FA059806F02FFA14200221089106F046FA089915201B
:2027400006F06EF90899342006F03EFA0899352006F066F93B2006F04FFB06980B990D9B29
:20276000009142040C922E2005F02CFE0B9A0D9B00922720114605F025FE0B990C9A0D9BF0
:202780000091332005F01EFE0B990C9A0D9B0091172005F017FE0B990C9A0D9B00912F20AE
:2027A00005F010FE222006F027FB212006F024FB232006F021FB2D2006F01EFB0B990C9A6B
:2027C0000D9B0091362005F0FDFD0B990C9A0D9B00913A2005F0F6FD06980B990D9B00913B
:2027E0000204079219200F9005F0ECFD079A0B990D9B0091182005F0E5FD08980B990C9A0D
:202800000D9B009105F0DEFD09980B990C9A0D9B009105F0D7FD0A980B990C9A0D9B00919D
:2028200005F0D0FD0B990C9A0D9B00912C2005F0C9FD0B990C9A0D9B00912B2005F0C2FDCA
:202840000B990C9A0D9B00910D2005F0BBFD0B990C9A0D9B0091162005F0B4FD10981549B6
:202860000E9106F0CAFC0E99109806F089FA1098114906F0FDFA0F9910988905119106F0D0
:202880005DF91098119906F091F912991498090406F0A8F9139914980902159106F04EF9CF
:2028A0001498159906F082F916B080BD00200A4000000A400070200800203C0080B58AB033
:2028C000024608A8027007AA118000784007002806D0FFE707A800888049884204DBFFE71A
:2028E0000020C0430990F5E007A8008805F0DCFF7B4904F047F9049005A8009004F03AFA4F
:2029000000980078801E01900E286BD80198810001A040588746C04655290000E52900004D
:2029200079290000E5290000E5290000E52900009D290000E5290000E5290000E5290000DB
:20294000E5290000E5290000E5290000E5290000C129000004988D21C90503F0C1FF05F095
:20296000C5FC03A908800498614903F0B9FF05F0BDFC02A9088039E004982321490603F055
:20298000AFFF05F0B3FC03A908800498574903F0A7FF05F0ABFC02A9088027E004988B21BE
:2029A000C90503F09DFF05F0A1FC03A9088004984D4903F095FF05F099FC02A9088015E089
:2029C00004984521090603F08BFF05F08FFC03A908800498434903F083FF05F087FC02A9F5
:2029E000088003E00020C043099073E003A8407806A908700398487002A84078887002988C
:202A0000C87008A80078C00700281CD0FFE775208000022106AA03F0ABFC002804D0FFE731
:202A20000020C043099055E006A8821C49208000022103F09DFC002804D0FFE70020C043BC
:202A4000099047E0FFE708A80078800700281CD5FFE73B20C000022106AA03F089FC002894
:202A600004D0FFE70020C043099033E006A8821C2520C000022103F07BFC002804D0FFE70D
:202A80000020C043099025E0FFE708A80078400700281CD5FFE777208000022106AA03F044
:202AA00067FC002804D0FFE70020C043099011E006A8821C4B208000022103F059FC00285A
:202AC00004D0FFE70020C043099003E0FFE700200990FFE709980AB080BDC0464106000033
:202AE000000048430000C044000040450000C0450000404680B5A4B0FFE77E4801907E48AB
:202B000000907E487E497F4A7F4B00F02FFB2290FFE7784800780028EFD1FFE7229800286B
:202B200004D0FFE70020C0432390DFE075480390006805F045FB9D21C905049104F022F82A
:202B4000014603982191406805F03AFB049904F019F8014603982091806805F031FB049934
:202B600004F010F8014603981F91C06805F028FB049904F007F81E902098032189070A9142
:202B800003F0AEFE06901E9805902199084603F078F81F9903F0A4FE0599024606980792E0
:202BA00003F09EFE079903F06CF805F0D7F9FEF7D1FF564A1C92564B1D9302F031FE04F051
:202BC0009FF8544908601F990B91084603F059F80C901E9808902199084603F052F820998B
:202BE0000D9103F07DFE089902460C98099203F077FE099903F045F805F0B0F902460D98DC
:202C000010920A460A99119203F06AFE0B9902460C980E9203F064FE0D9902460E980F9267
:202C200003F05EFE0F9903F027F87F21C90503F028F805F093F9024610980B46119900F0AE
:202C4000A9FF1C9A1D9B02F0EBFD04F059F832490860209813901F981690219814901E9990
:202C6000189103F03DFE169902461398129203F037FE129903F005F80146084603F001F8F3
:202C800005F06CF91A90084613991B90084603F027FE14991590084603F022FE159902F0D2
:202CA000F0FF16991790084603F01AFE0146179802F0E2FF18991990084603F011FE0146BC
:202CC000199802F0D9FF05F049F902461A980B461B9900F05FFF1C9A1D9B02F0A1FD04F003
:202CE0000FF80E49086000202390FFE7239824B080BDC046A10320201603202056032020AD
:202D00005003202040032020940320206666666666A64C408C032020900320209C03202015
:202D200080B582B08848807A002804D1FFE70020C043019004E16B46002018708249486812
:202D400000780968497C012203F0A0F9002804D0FFE70020C0430190F2E07B4948680078C2
:202D60000968497901226B4603F090F9002804D0FFE70020C0430190E2E073494868007894
:202D80000968097901226B4603F080F9002804D0FFE70020C0430190D2E06B482421405C24
:202DA000002864D0FFE76B460C20187066494868007809680979012203F068F9002804D02F
:202DC000FFE70020C0430190BAE0322006F008FB6946C02008705C48807AC007002806D00A
:202DE000FFE700982021084369460870FFE75649486800780968097901226B4603F046F9FC
:202E0000002804D0FFE70020C043019098E04E48407C002804D0FFE769460220087003E044
:202E2000694600200870FFE74749486800780968497C01226B4603F029F9002804D0FFE7AC
:202E40000020C04301907BE06B46002018703E494868007809684979012203F017F90028DA
:202E600004D0FFE70020C043019069E065E06B46042018703449486800780968097901223E
:202E800003F004F9002804D0FFE70020C043019056E02D48807C002806D1FFE72A48807AB4
:202EA000C007002804D1FFE769464020087003E0694660200870FFE723494868007809686C
:202EC000097901226B4603F0E1F8002804D0FFE70020C043019033E0322006F081FA1A4802
:202EE000407C002804D0FFE769460120087003E0694600200870FFE71349486800780968E7
:202F0000497C01226B4603F0C1F8002804D0FFE70020C043019013E00B4B586800781968D4
:202F200049791033012203F0B1F8002804D0FFE70020C043019003E0FFE700200190FFE7D7
:202F4000019802B080BDC04694042020F0B5A5B0049308920E46074600240A947E4D22464A
:202F60002B4604F0CDF8002813D100247B4D3846314622462B4604F0B9F8002809D1002298
:202F800038463146134604F09DF800283C46354607D10AAA2046294604F044FA0A98401EA2
:202FA0000A900899087B0BAE412801D06D4800E06B48099088680190302003903070002259
:202FC000079220462946134604F086F801210028029101D0C8074540771C20462946079AAD
:202FE000134604F06FF800280DD124AA2046294604F018FA249801210A1A2046294602F0A5
:20300000CFFD04460D462046294604F099FD06463946059704F0E8FA0690304605F03AFB75
:2030200006F029FA04460D460198471C20D3059806994618002220462946134604F042F8D3
:20304000002848D1002220462946474B02F0E8FB04460D4604F074FD0999095C771C317094
:2030600005F018FB06F007FA04460D463E46E1E70BA806994618002F16D07F1E002220467E
:203080002946394B02F0CCFB04460D4604F058FD0999095C3246761C517005F0FBFA06F0EC
:2030A000EAF904460D46E6E73178099C204606F027F9001B08280EDB0196741E089D079F51
:2030C000099E2178304606F01BF9801B0E2805DD2770641EF5E7089D079F04E00999081897
:2030E00040782070019E37700A98297B4129049C01D0702100E05021069E059F224604F09B
:203100004DFBAA68501C04D1384606F080F9421EAA6038463146234605F0ECF9A86800284D
:20312000029A02D128680007C20F38463146234603F030FF287B412801D0782000E058206B
:2031400021684A1E226008702068411E21600399017025B0F0BDC0460000F07F0000F0FF29
:2031600098AC0000A9AC00000000304010B594B0179C169C1290119110920F9306A9002081
:203180000870169908807448807B179A07A901F069FF002804D0FFE70020C0431390D7E0B0
:2031A0006D484089142108426CD0FFE70798000607A900914A78120480188A7812028018EC
:2031C000CA788018109A1060089800064A79120480188A7912028018CA798018109A506000
:2031E000099800064A7A120480188A7A12028018CA7A8018109A90600A9800064A7B12040D
:2032000080188A7B12028018C97B40181099C8600698103006A9087010980221405E0290F8
:2032200010980621405E039010980A21405E049010980E21405E059002984043039949433A
:203240004018049949434018059949434018019001980F210906884205DBFFE701983F49F9
:20326000884208DBFFE7FFF75BFD169900200880C04313906CE0169908880122120210435B
:203280000880FFE7344840894006002823D5FFE706A9087807AA1318105C00025B78C0180B
:2032A000119B18800878831898780002DB78C018119B5880087882181079000252798018E6
:2032C000119A90800698801D087016990888082210430880FFE720484089C005800F0028A9
:2032E00023D0FFE706A9087807AA1318105C00025B78C018129B188008788318987800025F
:20330000DB78C018129B5880087882181079000252798018129A90800698801D08701699D7
:203320000888702210430880FFE70B4840898007002807D0FFE706A8017807A8401803F001
:2033400015FBFFE70F9805F0D1F900201390FFE7139814B010BDC046FC04202001000011D4
:20336000F0B5A3B003930F46044604929168002903D0002904D5062100E0012104988160ED
:2033800007910AA83021089101700025204639462A462B4603F0A0FE01210028059101D05B
:2033A000C8074740624E20463946604A334603F0B1FE002809D00022204639465E4B01F0BB
:2033C000CBFD04460F466D1CEDE75A4E0022204639460992134603F075FE002811D10022F4
:2033E00020463946334603F077FE002809D0002220463946504B02F013FA04460F466D1E3B
:20340000E4E702950AA8451C2046394604F098FB0695294604F0E8F807998842019004DD11
:20342000481C0AA90A18085C1FE0C9430E180AA90D18681C07902046394604F081FB05F081
:2034400029F902460B462046394600F013FA0022394B02F0E5F904460F4604F071FB079AB9
:2034600030306870761C1546E3D3C0B23528039E049F029B099D0FD31446501E0178491C93
:20348000CAB201703A2A03D330210170401EF5E70AA98842224640D00198C41815700220F8
:2034A000C043844202DBB868844207DD601E397B891EC9B2324604F071F90124069805F0BA
:2034C000A6FF401E0599A0421ADB0028089A01D4069A125C1346303B5D1EAB41C943194334
:2034E000C90705D13978090702D40025059905E031684B1E33600A7001250021401EE2E76A
:203500003868082202402A43501E824106982146334603F03FFD23B0F0BD501E00210170D4
:203520000198C018441C0AA80690B8E70000C0FFFFFFDF410000F03F0000244080B584B0FA
:2035400002A908706448807C0978884203D1FFE700200390BDE002A80078002853D0FFE7F8
:203560005D494868007809680979012201AB00F0E3FF002804D0FFE70020C0430390A8E0C9
:2035800001AB1878DF210840187053494868007809680979012202F079FD002804D0FFE7FB
:2035A0000020C043039094E0032005F019FF01A90220087048482221405C002806D0FFE71A
:2035C00001988021084301A90870FFE742482321405C002806D0FFE701983021084301A931
:2035E0000870FFE73C49486800780968C97D012201AB02F04BFD002804D0FFE70020C043FB
:20360000039066E05FE034494868007809680979012201AB00F090FF002804D0FFE70020AA
:20362000C043039055E02C48807AC007002806D0FFE701982021084301A9087005E001A9D0
:203640000878DF2210400870FFE723494868007809680979012201AB02F018FD002804D0E2
:20366000FFE70020C043039033E0032005F0B8FE19482221405C002804D0FFE701A9802061
:20368000087003E001A900200870FFE712482321405C002806D0FFE701983021084301A9AA
:2036A0000870FFE70C49486800780968C97D012201AB02F0EBFC002804D0FFE70020C043CB
:2036C000039006E0FFE702980349887400200390FFE7039804B080BD9404202080B58AB03D
:2036E0000320019041065D48029005F061FB014601985B4A0592116001025A48049005F08C
:2037000057FB01460298584A116001210391490605F0FDFC039902460298531E9A4109ABF2
:203720001A70890605F0F3FC039902460498531E9A4108AB1A70490205F0E9FC039902467A
:203740000498531E9A4107AB1A70090205F0DFFC014605984A1E914106AA1170C07880075C
:20376000002812D5FFE709A8007808A90978884205D0FFE73D490868401C086004E03B4952
:203780000868401E0860FFE718E03548C0784007002812D5FFE709A8007808A909788842FF
:2037A00005D1FFE731490868401C086004E02F490868401E0860FFE7FFE7FFE72A48407831
:2037C0008007002812D5FFE707A8007806A90978884205D0FFE726490868401E086004E008
:2037E00023490868401C0860FFE718E01E484078C007002812D0FFE707A8007806A909781F
:20380000884205D1FFE71A490868401E086004E017490868401C0860FFE7FFE7FFE703203C
:20382000009041060D4805F07BF9009801020D4805F076F9012005F00DFA01280BD1FFE797
:20384000064805F067FD172803D1FFE7FFF752F900E0FFE700E0FFE70AB080BD00000A40BA
:203860008403202000200A40880320207C03202080032020FCB40124E407634002E0FCB4D5
:203880000124E40708B41D03ED08D60D354356025F007F0D06D12C00344300D0AEE001B020
:2038A000FCBC7047A408254307242402FF34A74205D10020190D090501B0FCBC7047002BA3
:2038C00003D50024A61BAC4125000B03DB08C20D134342024800400D07D11C00144300D00F
:2038E0008CE00EBC1000F0BC704701246407234307242402FF34A04205D10020090D0905A9
:2039000001B0FCBC7047002903D50024A21A9C412300C11B08D51C002B002500140032003B
:2039200026000024611A3800362925D502B4393949420C00203C03D22F008F40374301E0E8
:203940003700A740002F01D040210E4302BC20290BD500290ED04C42203420B4A5402C00E2
:2039600020BC0D41CE40361904E000292E000D4120390E4192196B411C0014433ED0002493
:20398000002B04D5012400218A1A99410B00401E52005B41FBD50121890215000D400CD04D
:2039A000521800277B4101D3401C0BE00721C90115000D4001D189008A43072109028A4323
:2039C00052005B41801C19DD07210902FF31884209D30EBC0020C90F0902FF31C900C91DB2
:2039E0000905F0BC7047190B00050143E40721431805120B104301B0FCBC704700210020AC
:203A000001B0FCBC7047704780B592B01190534800685349096800F0F5FC3F2000061090C1
:203A200050480F9000200E900D900C904E48006805F064F94D4908601198096802F01CF9E9
:203A400003F082FE0C90109808900C9807900F99069147490A91096802F00EF90146069823
:203A600002F03EFF079902460898099202F038FF099902F006F90A9A01463E480B900160CB
:203A80000C991160006804F031FC2721C943282204F0B2FC04F094FB01460B980160006811
:203AA000354903F069FB00280CD0FFE731480068002103F043FB002804D0FFE72D492E4846
:203AC000086014E02B480068002103F055FB00280CD0FFE727480068284903F02FFB0028D4
:203AE00004D0FFE7234925480860FFE7FFE72448006820490191096802F0C3F80199214A0D
:203B00000292906020480068096802F0B5F8014602981E4A039291608168006802F0AEFF82
:203B2000014603980E918168006802F065FF0D900E987D214A0105921549049104F05CFC5B
:203B40000499059A0E900D9804F056FC0D900E980D9901F07BF912B080BDC0467C0320208E
:203B600080032020CDCCCC3EA4052020880520207005202090052020000040C0000040401F
:203B8000BC05202018032020C00520202C03202060F0FFFFF0B585B01E4605460292039057
:203BA000504B514F04963E40501E1446844134439C4207D80F40681E2C4684413C434948D5
:203BC000844208D90398029A049BFFF758FE0C46214605B0F0BD4548049B181810431AD068
:203BE0000C46C90FD80F4000019141183D4316D032431CD03B48864217D187421DD1424C4A
:203C00003C48C0467944097949008F4401023B60DEE7414CDCE70398FEF74EF9D7E702294C
:203C20000398D5D3032918D015E0874218D10120C00704402E48241810E000242046C04628
:203C40007944097949008F4401020608C0E700200121CC07BCE72A4C00E02A4C2548B7E7C2
:203C6000B81B00153C2803DD214C2248019918E0002B09D500253B22D243904204DA2846F1
:203C80002C460EE0234C23E003980D462146029A01F062F90122D2079143FEF70DF90C46F8
:203CA0002946002994D0022905D0012912D10121C9074C408CE7104A104B2146FFF7DFFD1C
:203CC00002460B460B480E49FFF7D4FD7FE70F4C0F487DE7084A094B2146FFF7D0FD054A3F
:203CE000084B72E70000F07FFFFFFF7F000010C0FB21F93F182D4454075C143326A6A1BC59
:203D0000FB210940FB2109C0FB21E93F7CD902C0D221337F7CD90240FB21E9BF80B58AB08F
:203D2000014609A8017001784F48016000687B2804D1FFE74D4901200870FFE74A480068D4
:203D40007D2804D1FFE7494902200870FFE74748007801280AD1FFE74348006844490B78FD
:203D6000444AD0540878401C0870FFE73F480078022876D1FFE73F48C078502804D1FFE70F
:203D80004449012008705EE03A484078232859D0FFE7374800900078021F36480290C11C96
:203DA00004A8019005F0C6FB00990198097809180A1F0021117005F09FFB02F0A1FF014609
:203DC00002982D4A1160407830380390082838D80398810001A040588746C046013E000007
:203DE0000B3E0000153E00001F3E0000293E0000333E00003D3E00003F3E0000413E00007B
:203E00001D480068224908601BE01B4800681F49086016E0184800681B49886011E0164813
:203E20000068184908600CE0134800681449086007E0114800681149886002E001E000E050
:203E4000FFE7FFE7FFE70949002008700849087011490870084908600648322105F000FBE1
:203E6000FFE70AB080BDC046B8052020E0052020E1052020C4022020B40520202C032020A9
:203E800098052020A005202018032020940520209C052020A0032020E2052020B0B588B0A4
:203EA00006AB188003AC6C20A0705248208002A82C2181705049018001AA762191704F4957
:203EC00011806A46662191704D4911801A8803210A40A55C05AA1570069DED06AD0F655D99
:203EE0005570069D2D06AD0F645D94701B880B40C45C04AB1C70069CE406A40F045D5C70F1
:203F0000069C2406A40F005D98703E4802F030FA002804D0FFE70020C043079066E03A48B7
:203F2000032104AA02F024FA002804D0FFE70020C04307905AE0019805A9088001A8807859
:203F400088706846807804A988700098088006A80088400700280AD5FFE70598012108438A
:203F600005AA10700498084304A90870FFE706A80088800600280AD5FFE705A948780122E6
:203F80001043487004A9487810434870FFE706A80088C00500280AD5FFE705A988780122FF
:203FA0001043887004A9887810438870FFE711208001032105AA02F0DBF9002804D0FFE7AB
:203FC0000020C043079011E01048032104AA02F0CFF9002804D0FFE70020C043079005E0D1
:203FE00006980B49088100200790FFE7079808B0B0BDC0464CCD00000CC900003656000065
:2040000026460000260400002A04000031040000FC042020F0B585B00D4604465448014013
:2040200081420CD12046294622462B4601F0F8FB22462B46FFF723FC04460D4693E04D4BB8
:20404000002D75DD012004900105280D06D10020002D05D11538E50A6405F9E72E460DE011
:2040600000220D4202D16D00521CFAE7801A401C2026B71A2646FE402E4394403E4A821822
:20408000481E304008430092D10703D0E10F400040186400E10F4000461800250498410541
:2040A00001956400002911D04A19B71A304600DB3846B24200DC5518B24202DC019A5218E5
:2040C00001924000E20F86184908EAE75F1C00221346002F23D0D019AE4216DD03930023BF
:2040E0000028049A00D41A46C11902910029049900DA1946761B844200D2761E039B0A40B5
:20410000AD18241ADB19029A03E002D18442E5D23546E00F71000E1864007F08D9E73443B6
:2041200013D0581C019A12D001201840C31810E028461840204316D0002D83D505F0F6F9EF
:20414000212101600E4D00240DE0019A01E0521C002350105908D207541800994908090545
:204160000818064945182046294605B0F0BDC0460000F07FFFFFFF7F01FCFFFF0000E03F31
:204180000000F87F80B58AB0494804F039FD002803D1FFE702F064FFFFE700F0FFFA0990DF
:2041A0000998002801D0FFE77FE00020029009907820019000F05AFA024601980999891844
:2041C000099101F0C5FF01460998401809903220039001F03BFA014609984018099007A824
:2041E00004F024F9014609984018099006A803F02DF8014609984018099008A802F0BAFDDD
:20420000024602980999891809912A490491888148810881C8808880488008800320087041
:204220000420888004F086FD0146099840180990214803F0D3FEFFF731FE01460998401870
:2042400009901E4805F052F801460998401809901B4805F041F802460498099989180991F5
:20426000FF217431C180C088FDF7A2FF0246039809998918099102F00DFA01460998401862
:2042800009900120059001F0C1FF049903460598099AD218099248700998002801D0FFE73B
:2042A00003E0084901200870FFE70AB080BDC04600200F400C0520201A0520202B94000070
:2042C000EF940000E4052020F0B587B01D4616463024059004700027104619463A463B465D
:2042E00002F0FAFE0028019402D00120C00745400D9804900C9803903F4C304629463D4A71
:20430000234602F007FF002809D00022304629463B4B00F021FE06460D467F1CEDE70598F4
:20432000441C0022304629460692134602F0CAFE002811D1002230462946304B02F0CCFE23
:20434000002809D00022304629462D4B01F068FA06460D467F1EE4E70398C0190390304606
:20436000294603F0EDFB214603F03EF902942418C019049908600398471C012F1ADB304619
:20438000294603F0DDFB04F085F902460B4630462946FFF76FFA0022194B01F041FA064696
:2043A0000D4603F0CDFB3030611C20707F1E0C46E5D100E02146481E0278352A0DD3891ED0
:2043C000019C0A78521CD3B20A703A2B02D30C70491EF6E7059A914204D006990170029867
:2043E00007B0F0BD0699017004990868401C08600598F5E70000C0FFFFFFDF410000F03FF3
:204400000000244080B590B00F900E910F983E4A1168401A0D900E983C490B68C01A0C90D2
:204420000F9810600E9808600D9839490A789300384AD0500C980A789300374AD05008789F
:20444000401C03221040087000200B900A900990FFE70998032813DCFFE7099881002D4807
:2044600041580B9840180B90099881002A4841580A9840180A90FFE70998401C0990E8E701
:204480000B9803F09DFE8121C905009102F07AFB08900A9803F094FE009902F073FB079034
:2044A00008981E49019102F01BFA03F057FD1C4A02921C4B039301F0B3F9002205921A4B63
:2044C000049301F0ADF9059A184B069300F044FD02F016FC0199164A1060079802F000FAE9
:2044E00003F03CFD029A039B01F09AF9049B059A01F096F9059A069B00F02EFD02F000FCCB
:204500000C49086010B080BD680520206C052020DE052020DC042020EC0420200000C84206
:204520006B195F6A3AF1CA3F0000594000609840180320202C03202010B58CB00AAC207018
:2045400009A8017008A802700793002106910078002803D1FFE700200B907FE005A804F0B0
:20456000C5F809A801783F48019004F0FCFD01983D4A20211160012104F086FCFFE739487E
:2045800004F046FE8006002801D4FFE7F7E70AA8017808A803783348012203F029F9FFE7AD
:2045A000304804F049FB002814D1FFE72D4804F043FE03A90870069808A90978884208D216
:2045C000FFE703980799069A88540698401C0690FFE7FFE704A804F089F8049805990A314C
:2045E000884206D3FFE702F03BFD0020C0430B9034E0FFE71B48012104F0A6FC0028CFD06E
:20460000FFE7184804F018FB002814D1FFE7154804F012FE02A90870069808A9097888423C
:2046200008D2FFE702980799069A88540698401C0690FFE7FFE70C4900200860094803F087
:2046400047FD069808A90978884203D1FFE700200B9003E00020C0430B90FFE70B980CB021
:2046600010BDC04600200F4014320F4080B584B0014602A8017000784006400F002804D08F
:20468000FFE701A9012008700DE002A80078002804D0FFE701A90020087003E001A94020D1
:2046A0000870FFE7FFE73C49486800780968497D012201AB01F0EAFC002806D0FFE73649C9
:2046C00000208872C043039063E001A90878BF221040314A10730020087002A8007840068E
:2046E000002806D4FFE701980421084301A90870FFE702A800788006002806D4FFE7019898
:204700000221084301A90870FFE702A80078C006002806D4FFE701980121084301A908702B
:20472000FFE702A800780007002806D4FFE701983821084301A90870FFE7174948680078B5
:204740000968897D012201AB01F0A0FC002806D0FFE7114900208872C043039019E002A8F5
:204760000078002809D0FFE702A80078082804D0FFE7002001F0F4FEFFE702980649887202
:20478000002000900875322004F02AFE00980390FFE7039804B080BD9404202010B586B00E
:2047A00003AB802018704549486800780968497D012201F06BFC002804D0FFE70020C043B6
:2047C000059077E0642004F00BFE03AB002018703A49486800780968497D012201F056FCCE
:2047E000002804D0FFE70020C043059062E03349019100200290C8740A460832FF238B7238
:204800000B724B72CB722E4CCC810B748B7401230B739376D076487508750884C8838883CF
:2048200048830883C88210775077C8847D20000101F0CAFB002804D0FFE70020C043059050
:2048400038E0022001F05EF8002804D0FFE70020C04305902EE02A2001F04EFB002804D0AF
:20486000FFE70020C043059024E0322000F0EEFE002804D0FFE70020C04305901AE00020B4
:2048800001F066FC002804D0FFE70020C043059010E00020FEF752FE002804D0FFE70020D4
:2048A000C043059006E000200090FFF7DFFE00980590FFE7059806B010BDC04694042020E6
:2048C000FFFF000010B58EB00CAC20800B910AA8028009A8038043482521405C002804D012
:2048E000FFE70020C0430D9078E00B98002804D1FFE70020C0430D9070E008A900200880CB
:20490000FFE708A800880CA90988884248DAFFE70CA8008808A90988401A112803DBFFE78C
:204920001020019006E00CA8008808A90988401A0190FFE7019807A9088008A800880988E7
:204940000B9A121801F014FD002804D0FFE70020C0430D9042E008A8008807A9098803AA9C
:2049600001F0B0FC002804D0FFE70020C0430D9034E00B9808A90988401807A90A8803A9B9
:2049800004F08EF8002804D0FFE70120C0430D9024E0FFE707990898401808A90880B0E7A8
:2049A0000AA8407802AB18700A9858700D49486800780968497F022201F068FB002804D0C3
:2049C000FFE70020C0430D9008E006492522012088540998C88400200D90FFE70D980EB0C3
:2049E00010BDC04694042020F0B5A1B0049305469068002801D506209060029003920024DD
:204A00003D4F2846224606913B4602F079FB06990028264614D10026384F284632463B468A
:204A200002F064FB069900280AD1002228460592134602F047FB069B00282E461F4622D13A
:204A40002F4D04F038FD02F047FB002809D00022304639462B4B00F0E3FE06460F46641EFB
:204A6000EFE7284D04F027FD02F04AFB002807D004F021FD00F070FA06460F46641CF1E738
:204A800035463B46059407A802990091019008A82A46FFF719FC0446079D022D0DD1059D4D
:204AA0006D1C204604F0B3FC2018401E0021017028460125049E039F02E0049E039F0598A1
:204AC000397B324602F06AFEBA6820462946334603F010FD204604F09AFC854203D13868B5
:204AE0000007C20F00E0012220462946334602F051FA21B0F0BDC0460000F07F0000F0FF6E
:204B00000000F03F00002440F0B583B03D4A8218029211231C028D7A6B1EDBB2022B08D8F9
:204B20009E00394FBE594927FF017B43DA19019202E000220192022602190092CF68AD0034
:204B400045193120C0012C588F239C431F40374327432F504868029C6060087805283AD841
:204B600001263746874009231F420ED112231F4218D04F7A254AAE18AA58254D1540032FE7
:204B80001ED0012F20D1244A1BE04B7A1F4C2F591F4A3A4077271F40D2197304D2182A513E
:204BA000029C18E04A7A194BEE18EB58184D1D40012A03D1184AAA18521C0BE0154A00E071
:204BC000164A1543356006E0772217403D43124AAA18FF3232600022009B1A60C01E032811
:204BE000019B01D220200343087A21680C4A0A40BD2101401943114302200843206003B0A6
:204C0000F0BDC04604180000DCAC0000301800008888FDFF010202000101020003030200D8
:204C20004000FFCF10B58CB00BAC20700AA8017009A8027008A8037007AA002111700278E8
:204C4000520806AB1A7005AA11800078082804D1FFE704A90620088012E008A80178019114
:204C6000C80802904907401C0029039001D102980390019803994008484304A90880FFE748
:204C80000998203807A908700BA800780AA9097803F05AFA05A900200880FFE705A80088DC
:204CA00004A90988884242DAFFE705A8008806A9097803F033F900290ED1FFE708A8007850
:204CC000082809D0FFE70BA800780AAB19784A1C1A7003F039FAFFE708A8007808280DD142
:204CE000FFE707A80078062141431348401805A90988405C012101F081FC12E008A80078C4
:204D000010280CD1FFE707A8007801010948401805A90988405C012101F070FC00E006E0A6
:204D2000FFE7FFE70598401C05A90880B6E70CB010BDC04696A1000086A7000080B584B07F
:204D4000414803F06BFF002803D1FFE702F0AEFAFFE7C820009003F0E5FBAE20002103913D
:204D600001F04CFC0399084601F048FC0399102001F044FC03994020019001F03FFC039989
:204D8000812001F03BFC0399CF2001F037FC0399A12001F033FC0098039901F02FFC039932
:204DA000A620029001F02AFC0399A82001F026FC03993F2001F022FC0399D32001F01EFC69
:204DC0000399084601F01AFC0399D52001F016FC0399802001F012FC0399D92001F00EFC83
:204DE0000399F12001F00AFC0399DA2001F006FC0399122001F002FC0399DB2001F0FEFB48
:204E00000198039901F0FAFB0399202001F0F6FB0399022001F0F2FB03998D2001F0EEFBFA
:204E20000399142001F0EAFB0399A42001F0E6FB0298039901F0E2FB02F00EF80399AF2033
:204E400001F0DCFB04B080BD00000F4080B58EB00D900C910D9801281DDBFFE701200A9036
:204E600041053B480B9003F0DFFF0A990B98890304F0A5F90D98012803DBFFE70D980990C9
:204E800003E00D9840420990FFE709993148002204F08EFA1CE00120079081032C4808908C
:204EA00003F0C2FF07990898490504F088F90D98012803DBFFE70D98069003E00D98404264
:204EC0000690FFE706992348002204F071FAFFE70C9801281DDBFFE70120049041031C48DD
:204EE000059003F0A1FF04990598090304F067F90C98012803DBFFE70C98039003E00C98A1
:204F000040420390FFE703991248012204F050FA1CE00120019001030D48029003F084FF30
:204F200001990298490304F04AF90C98012803DBFFE70C98009003E00C9840420090FFE776
:204F400000990448012204F033FAFFE70EB080BD00000A4000808640FCB40C005C40E40F6C
:204F6000E40710B41D032D0B56006D415F007F0D73D001246405254307242402FF34A74295
:204F800061D00B031B0B42005B414800400D64D001246405234307242402FF34A04252D089
:204FA000C01B002100273624AB4200D1B24204D37F414941921BAB4101E07F414941641E5B
:204FC00006D0002B01D1002A02D052005B41EBE7202C07D2162C0AD33900A7402026361B47
:204FE000F1400BE0203C3900A140002706E0A1402026361B3D00F5402943A7400124640547
:20500000214202D17F004941401E00247F1C61410124A405214202D0401CA14301E0640802
:20502000A14303242402FF34001916DD2419A04209D8CC074908000501437808204310BCE4
:205040002143FCBC704702BC0020C90F0902FF21C900C91D0905FCBC70470021002001B07E
:20506000FCBC704780B586B004AB1880039102923D482421405C002804D1FFE70020C0437B
:2050800005906EE03848807A002804D1FFE70020C043059065E03449486800780968097B39
:2050A000022201ABFFF748FA002804D0FFE70020C043059055E00198000201A949784118BA
:2050C00068460180008804A90988884206DAFFE7029900200870C043059042E06846008828
:2050E000214949684988490888421DDDFFE71E49486800780968C97C012201ABFFF71CFAA9
:20510000002804D0FFE70020C043059029E001A80078C006002806D5FFE7FDF701FE012008
:20512000C04305901DE0FFE70F49486800780968497B04AA1278039BFFF7FEF9002804D080
:20514000FFE70020C04305900BE06846008804A9098802F0E3FE401E029908700020059059
:20516000FFE7059806B080BD94042020F0B5394A8218394BC0183A4D4C790B79002C22D0D5
:20518000466F202B02D00524E70100E0354F2E40002B00D188273E434667846F2C403C43A3
:2051A0008467446B2D4E34404463846B3440846300244465846554688F26F64334405460ED
:2051C0009468344094600C688979202B09D006467036002B15D1641E4460C46E2C4088275B
:2051E00015E0641E4460C46E2C401E4E3443C466046F2C40344304671B4D012467070646E1
:2052000007E00527FF0164084460C46E2C403C43C46634682C403C433460C46A0F4D2C4013
:20522000C462046B2C4004630024C4640465C46F8F25ED432C40C46714682C4014601943EB
:2052400002680A4B1340BD220A40D118891C0160F0BDC04684180000041800008888FDFFAD
:2052600024493E0001040000FFFFFFCF4000FFCF80B586B0014604A80180008800281DD127
:20528000FFE70020029001F06BF9029803AB1870072058703549486800780968497D022261
:2052A00000F0F4FE002804D0FFE70020C043059058E02E4900200875059053E0012001F04C
:2052C0004FF903A92020087004A80088012807D1FFE703A900204870052000F00DFE20E063
:2052E00004A80088052807DCFFE703A901204870052000F001FE13E004A80088142807DCA5
:20530000FFE703A9022048700A2000F0F5FD06E003A903204870142000F0EEFDFFE7FFE7CD
:20532000FFE703AB58788001C01D58700F49486800780968497D022200F0A8FE002804D076
:20534000FFE70020C04305900CE0084A082090720020019010730121117500F0F9FE0198EB
:205360000590FFE7059806B080BDC04694042020F0B597B03248109000683249119101F0C8
:20538000AFFA02F0B3FF119916902F481290006801F0A6FA02F0AAFF119902461098159282
:2053A000806801F09DFA02F0A1FF1199024612981492806801F094FA02F098FF13902348AB
:2053C0000078012830D1FFE72248006802F0C6FD0B900C912048006802F0C0FD0E900D91CB
:2053E0001E48006802F0BAFD04460D461C48006802F0B4FD0B9A0C9B06460F460D99002077
:205400000F900A9009900890079006900E98059704960395029401910090124802F05EF827
:205420000F980A49087008E01699159A149B13980090074802F052F8FFE717B0F0BDC046DF
:205440001803202000007A442C032020A0032020CCAC00009C05202094052020A0052020CA
:205460009805202010AC0000B0B58CB002910446029810990BAD2C700AAC2070099208A8ED
:20548000037007A8017004AA0021117003AA11700078082804D1FFE704A902200870FFE76B
:2054A00006A900200870FFE706A8007808A90978884252DAFFE70998009008990698C04318
:2054C0004018C1B20A20019003F074F80146009802F024FD019902F021FD05A8017003A882
:2054E0000078002822D1FFE706A8007808A90978491E88421ADAFFE705A80078002810D1A2
:20550000FFE70B9807A90B785908049A8A180699514340180AA90978C0B22022FFF782FB48
:2055200016E003A901200870FFE7FFE70B9807A90B785908049A8A180699514340180AA9AF
:205540000978059A3032C0B2D2B2FFF76BFBFFE70698401C06A90870A6E70CB0B0BD704703
:2055600080B52B4800682B490968FEF74BFF2A48007800281FD1FFE72848007800281AD114
:20558000FFE727490020086026490860264908602649086026490860264908601E4A117809
:2055A000491C1170244908601C490878401C087003F049FFFFE72148006802F097FE0028D6
:2055C00017D1FFE71E48006802F090FE002810D1FFE71C4800784A2805DCFFE719490878C9
:2055E000401C087004E018490878401C0870FFE703E0144900200870FFE71348007800289F
:2056000005D0FFE70C480068FEF7FEF9FFE780BD7C03202080032020DA052020DD05202041
:20562000800520207C0520207805202074052020BC052020C00520208C052020180320203C
:205640002C032020DC052020DB05202080B584B002A908803648807A002804D1FFE7002083
:20566000C043039061E032482421405C002804D0FFE70020C043039057E02D48007D00280F
:2056800015D0FFE702A8008800280CD0FFE702A80088282807DCFFE702A80088FFF7E8FDCB
:2056A0000020039041E00020FFF7E2FDFFE702A80088032804DCFFE702A9042008800BE0D6
:2056C00002A800881B49884205DBFFE77D20C00002A90880FFE7FFE702A801887D20C000B8
:2056E00002F01CFC401E01AB187011494868007809684978012200F0C9FC002804D0FFE7A0
:205700000020C043039010E001A80078411C7D20C00002F003FC01460548C181C0894008B0
:2057200000F0EAFB00200390FFE7039804B080BD94042020E9030000B0B5364A80184A687C
:2057400042600A78222A56D8930001A4E3589F46ED570000F7570000ED570000F75700002F
:20576000F7570000F7570000F7570000F7570000F7570000F7570000F7570000F7570000B9
:20578000F7570000F7570000F7570000F7570000DD570000F7570000DD570000F7570000CD
:2057A000F7570000F7570000F7570000F7570000F7570000F7570000F7570000F757000079
:2057C000F7570000F7570000F7570000F7570000DD570000F7570000DD5700000368032449
:2057E0002407A343012464071B1903E0036803242407A34303600B69C360CB68C46A064DA0
:205800002540064C1C402B19C362097A11430160B0BDC046041800008888FDFF7777020049
:20582000FCB50C005C40E40FE40710B4DD02540D2543D6025F007F0D60D00124E40725435A
:2058400007242402FF34A74250D0CB02440D2343C2024800400D51D00124E407234307241C
:205860002402FF34A04241D0C01901B41800290002F01EFD0F0001B41800310002F018FDEC
:2058800003000C001000310002F012FD06001000290002F00DFD05007618002202BC01BC4C
:2058A00055415141A419554151418024A4005B195141FF18514100D564003F19514102D4EB
:2058C0007F00494100E0401C03242402FF34001B14DD2419A04209D80305F80A4C05204339
:2058E0004900090B194310BC2143FCBD0020FF21C900C91D090510BC2143FCBD00210020DF
:2059000001B0FCBD80B584B002A908703548807A002804D1FFE70020C04303905FE002A898
:205920000078801E00900E2832D80098810001A040588746715900009159000079590000DC
:20594000915900009159000091590000815900009159000091590000915900009159000007
:205960009159000091590000915900008959000001A9002008700FE001A9082008700BE021
:2059800001A91020087007E001A91820087003E00020C043039022E01248407A01A909789A
:2059A000C908884203D1FFE70020039017E00D49486800780968C979012201AB00F066FB97
:2059C000002804D0FFE70020C043039007E001A80078C0080349487200200390FFE7039825
:2059E00004B080BD9404202080B586B00021019105912E4802F0CCFF01990246C820821A91
:205A000004A802700391007829490978884207D0FFE729490120087003F01CFD05903FE017
:205A20000598009003F016FD01460098401A00022049884233D3FFE71F48007801282ED1D2
:205A4000FFE71D49002008701C48007802A90870FFE702A8007804A9097888420CDAFFE797
:205A600002A801781648405CFEF758F9FFE70298401C02A90870ECE704981049087004A8D8
:205A8000007864280ADBFFE704A9002008700B4908700749087002F079F8FFE7FFE7FFE749
:205AA00004980349087006B080BDC04600A04240C605202000803801C5052020C405202094
:205AC00000002020F0B584B03049314A0125AC0316682B0203939E4316600E68264205D198
:205AE0000E68264202D10E682642F6D06C02467E9769AF432E40BD1995612025455DD669CD
:205B00000327BE433D407519D561224D2E680727374005262E60466A336813627368536266
:205B20002F60C3695B065B0CD5697F263602B543EB18D361E8C80097076801974768029702
:205B40001B071B0B2D03ADB2ED1833071B0D007A009E35431D43019B1D43029B1D430543D6
:205B600090690D4B03400D482840C01890611068039B184310600868204205D108682042B0
:205B800002D108682042F6D004B0F0BD04020B4008010B40001340408D00F0FF72FF0F0005
:205BA000F8B515462A4E0A0D771C3A40294B9A4213D00C46002A18D10122D207944304438F
:205BC00044D00022244BFFF72BFE0C4623498D4208DC234A234B214636E002460B46FDF7AB
:205BE0004EFEF8BD220D3A40363A5119B1420ADD03F09CFC222101600120C00704401D4887
:205C000021180020F8BD012904DB174A144009052143F8BD3522D24391420CDC03F086FCF5
:205C20002221016012488542E6DA0120C007044000202146F8BD0C4A144009051B2252052B
:205C4000891821430022094BFFF7EAFDF8BDC046FE070000FF07000000005043AF3CFFFFAA
:205C600059F3F8C21F6EA501FFFF0F800000903C51C300000000F07FFCB40127FF07794078
:205C800002E0FCB40127FF070C024D002D0E03D1002C52D1FCBC70473C43FF2D50D0A408A5
:205CA000002900D56442020243001B0E04D1002A43D10800FCBC70473A43FF2B41D09208F4
:205CC000002800D552425E1B04D5170022003C0076422B00192E06D527003741D2191C279A
:205CE000F71B7F42BC40002A27D002D55242012700E00027013B5200FCD51500802635408B
:205D00000FD01500202635402C43803208D21500402635402C4304D101263602B24300E071
:205D20005B1C5200023308DDFF2B0BD2500ADB051843FF073843FCBC70470020FCBC704765
:205D40000800C70FFF07FF20C0053843FCBC704780B58CB02848019003F05AF827480290D9
:205D600003F056F82648039003F04EF92548049003F04AF92448059003F046F9234806903C
:205D800003F042F92248079003F03EF92148089003F00AF92048099003F006F91F480A90BF
:205DA00003F086F91E480B9003F082F9019802F0F3FF029802F0F0FF039803F019F90498CE
:205DC00003F016F9059803F013F9069803F010F9079803F00DF9089803F0AAF8099803F02A
:205DE000A7F80A9803F04CF90B9803F049F9102003F03CFB0CB080BD00000A4000200A404B
:205E0000008086400000864000A08640004008400000094000000F4000200F4000801040B1
:205E20000020104080B584B002A9087031482421405C002821D0FFE702A80078002804D0EF
:205E4000FFE701A90220087003E001A900200870FFE72849486800780968497C012201AB6F
:205E600000F014F9002804D0FFE70020C04303903DE001981F49487436E01E48807A002815
:205E800004D1FFE70020C043039030E002A80078002808D0FFE71748407C002803D0FFE77D
:205EA0000020039023E002A80078002804D0FFE701A90120087003E001A900200870FFE7DA
:205EC0000C49486800780968497C012201AB00F0DDF8002804D0FFE70020C043039006E0FD
:205EE000019804494874FFE700200390FFE7039804B080BD9404202080B584B002A9088081
:205F00003048807A002804D1FFE70020C043039054E002A80088BC2804DBFFE701A901209C
:205F200008702BE002A80088622804DBFFE701A90220087021E002A800882A2804DBFFE7CF
:205F400001A90320087017E002A80088142804DBFFE701A9042008700DE002A800880A283B
:205F600004DBFFE701A90520087003E001A906200870FFE7FFE7FFE7FFE7FFE71148C07AD9
:205F800001A90978884203D1FFE70020039015E00C494868007809688978012201AB00F0FC
:205FA00075F8002804D0FFE70020C043039005E001980449C87200200390FFE7039804B0EF
:205FC00080BDC0469404202080B584B002A908802D48807A002804D1FFE70020C043039002
:205FE0004EE002A800880090FA2812D0FFE700987D218900884210D0FFE700987D21C90079
:2060000088420ED0FFE700987D21090188420CD00FE001A9002008700FE001A908200870A2
:206020000BE001A91020087007E001A91820087003E00020C043039022E01348007A01A9C8
:206040000978C908884203D1FFE70020039017E00D494868007809688979012201AB00F010
:2060600015F8002804D0FFE70020C043039007E001A80078C0080449087200200390FFE74B
:20608000039804B080BDC0469404202010B58CB00AAC207009A8017008A8027007930178F8
:2060A0000691079905910078002803D1FFE700200B9048E004A802F019FB09A8017823488F
:2060C000019003F050F80198022102F0DDFEFFE71E4803F09DF88006002801D4FFE7F7E750
:2060E0000AA8017808A80078431C1848002201F07FFBFFE7059906A80288144801F006F9F9
:20610000029002990698401A0690029905984018059003A802F0EAFA039804990A318842E1
:2061200006D3FFE700F09CFF0020C0430B900AE0FFE70648022102F007FF0028DAD0FFE766
:2061400000200B90FFE70B980CB010BD00200F4080B584B002A90870002000900878FE2227
:206160001040087028482421405C002803D0FFE70020039045E02448807A002804D1FFE704
:206180000020C04303903CE01F48017C01AA11700299827A11400174007C02A9097888424E
:2061A00004D0FFE70020C043009002E000200090FFE702A80078002805D1FFE71248007D1D
:2061C000002804D0FFE70120FFF72CFE03E00020FFF728FEFFE702A8007800280DD0FFE78A
:2061E000FCF79EFD002807D0FFE70198064908740020C043039004E0FFE7FFE70098039037
:20620000FFE7039804B080BD9404202080B588B006A908702A482422805C0978884203D1ED
:20622000FFE70020079047E006A8007800282AD0FFE723482521405C002804D1FFE700201C
:20624000C043079038E000200290FFF7EBFD0298FDF774F91A480390C08CFFF7F7F902993F
:20626000039805AB197040680078232101220492FFF70CFF0399049824228854FFF7D2FD0D
:20628000FCF74EFD15E000200190FFF7CBFD0C480090017C05AB197040680078232101223B
:2062A000FFF7F4FE0099019824228854FCF738FDFFE700200790FFE7079808B080BDC0465D
:2062C0009404202080B586B004AB188003A8018002920298002804D1FFE70020C04305903F
:2062E00040E02248807A002804D1FFE70020C043059037E004A8417801A80170049941709B
:20630000407803A909884018184949684989884204DDFFE70020C043059023E013494868F4
:2063200000780968C97E022201ABFFF7AFFE002804D0FFE70020C043059013E00B49486829
:2063400000780968097E03AA1278029BFEF7F4F8002804D0FFE70020C043059002E000207C
:206360000590FFE7059806B080BDC0469404202080B586B004AB188003A801800292029828
:20638000002804D1FFE70020C043059040E02248807A002804D1FFE70020C043059037E02C
:2063A00004A8417801A8017004994170407803A909884018184949684989884204DDFFE74E
:2063C0000020C043059023E01349486800780968C97E022201ABFFF759FE002804D0FFE7C7
:2063E0000020C043059013E00B49486800780968097E03AA1278029BFFF748FE002804D072
:20640000FFE70020C043059002E000200590FFE7059806B080BDC04694042020F0B58B4281
:2064200000D1824204D90B0002000021002040E0002B00D1002A0CD10B000200002100202B
:20644000002B00D1002A01D0C943C043FFF787F82FE01C0015000B0002000CB4002126006D
:206460002F00FF19764102D2491C4029F9D100201E001700FF19764102D2401C4028F9D12C
:206480000E1A21002800320002F03AFB0C0005000CBC00200021A34200D1AA4201D3521B35
:2064A000A341404149416D08E7073D436408761EF1D5059F002F01D03A607B60F0BD7047C7
:2064C00010B584B00120009001072248019002F013FE009902460198531E9A411E4B039347
:2064E0001A70C90702F008FE039A014601984B1E99415170042102F0FFFD039A014600983A
:206500004B1E99419170C1041448029002F0F4FD0099039B02460298541EA241DA7089045C
:2065200002F0EAFD039A014601984B1E99411171802102F0E1FD039A014602984B1E99410E
:206540005171402102F0D8FD0399421E9041887104B010BD00000A402305202000200A40EE
:2065600080B584B002A9087023482322805C0978884203D1FFE7002003903AE002A800780F
:20658000002804D0FFE701A93020087003E001A900200870FFE71848807C002806D0FFE75C
:2065A00001980221084301A90870FFE712482221405C002806D0FFE701988021084301A980
:2065C0000870FFE70C49486800780968C97D012201ABFFF75BFD002804D0FFE70020C04307
:2065E000039006E0029804492322885400200390FFE7039804B080BD9404202080B588B0B0
:2066000007AA107006A801700078002806D0FFE705A9402008700798487005E005A900203E
:20662000087007984870FFE704A802F05FF81848029005A90222019200F068FE01990298CF
:2066400002F02EFCFFE7124802F0ECFD8006002801D4FFE7F7E70E483C210022022301F0D1
:20666000EFF8FFE70A48022102F07AFC00280DD1FFE703A802F03AF8039804990A31884278
:2066800003D3FFE700F012FE00E0EBE708B080BD00000F4080B588B0014606A801801D49FF
:2066A00005911D4904911D4903910088C92804DBFFE70020C043079029E006A80188C8202F
:2066C00001F02CFC411E02A8018040786A4610700298507012480221FFF74AFE002804D01E
:2066E000FFE70020C043079011E00E480C2103AAFFF73EFE002804D0FFE70020C04307900B
:2067000005E006980849888100200790FFE7079808B080BDBBAFDFDFAAF1DFDFFEF2ABC48B
:2067200016020000C10A0000FC04202082B00190019800214056012804DBFFE76946002066
:2067400008803AE0019800214056002804D5FFE76946042008802FE001980121405601287C
:2067600004DBFFE769460120088024E0019801214056002804D5FFE769460520088019E06B
:20678000019802214056012804DBFFE76946022008800EE0019802214056002804D5FFE739
:2067A00069460620088003E0694607200880FFE7FFE7FFE7FFE7FFE7FFE76846008802B0EF
:2067C0007047000080B586B0059005981E49884203D3FFE71D480590FFE7059950204843FF
:2067E000059000200090049002F034FE014600980391029001A90870FFE702F02BFE0290E2
:2068000002980399884204D9FFE701A901200870FFE701A80078002807D0FFE70398029950
:20682000401A0B494018049004E003980299401A0490FFE704980599884201D3FFE700E032
:20684000DBE706B080BDC0463433030033330300FFFFFF0080B584B01E491F48039002F0F1
:206860003FFA03981D49FEF781FC03980023019319461A4601F04AFC019B039800931946FB
:206880001A4602F0CDFB019A0398114602F01AFA019A0398114602F08BFD019B03980121EB
:2068A0000291009119461A4602F0BAFB0199029A039802F007FA0199029A039802F078FD52
:2068C000039802F0E1FC0398032102F0E7FC04B080BDC0464AAD00000080864008AD0000D1
:2068E000FCB40127FF0706004E4001D4002600E03E00020243001B0E30D03A43FF2B30D0F6
:206900000C024D002D0E29D03C43FF2D29D05B194240504042404C4061404C4000B501F0DD
:20692000C7FC20BCAE464240504042404C4061404C4025001400002C01D46400013B8034E9
